{
  "abi": [
    {
      "type": "constructor",
      "inputs": [],
      "stateMutability": "nonpayable"
    },
    {
      "type": "function",
      "name": "DEFAULT_ADMIN_ROLE",
      "inputs": [],
      "outputs": [
        {
          "name": "",
          "type": "bytes32",
          "internalType": "bytes32"
        }
      ],
      "stateMutability": "view"
    },
    {
      "type": "function",
      "name": "UPGRADE_INTERFACE_VERSION",
      "inputs": [],
      "outputs": [
        {
          "name": "",
          "type": "string",
          "internalType": "string"
        }
      ],
      "stateMutability": "view"
    },
    {
      "type": "function",
      "name": "buyCreditLimit",
      "inputs": [
        {
          "name": "params",
          "type": "tuple",
          "internalType": "struct BuyCreditLimitParams",
          "components": [
            {
              "name": "maxDueDate",
              "type": "uint256",
              "internalType": "uint256"
            },
            {
              "name": "curveRelativeTime",
              "type": "tuple",
              "internalType": "struct YieldCurve",
              "components": [
                {
                  "name": "tenors",
                  "type": "uint256[]",
                  "internalType": "uint256[]"
                },
                {
                  "name": "aprs",
                  "type": "int256[]",
                  "internalType": "int256[]"
                },
                {
                  "name": "marketRateMultipliers",
                  "type": "uint256[]",
                  "internalType": "uint256[]"
                }
              ]
            }
          ]
        }
      ],
      "outputs": [],
      "stateMutability": "payable"
    },
    {
      "type": "function",
      "name": "buyCreditLimitOnBehalfOf",
      "inputs": [
        {
          "name": "externalParams",
          "type": "tuple",
          "internalType": "struct BuyCreditLimitOnBehalfOfParams",
          "components": [
            {
              "name": "params",
              "type": "tuple",
              "internalType": "struct BuyCreditLimitParams",
              "components": [
                {
                  "name": "maxDueDate",
                  "type": "uint256",
                  "internalType": "uint256"
                },
                {
                  "name": "curveRelativeTime",
                  "type": "tuple",
                  "internalType": "struct YieldCurve",
                  "components": [
                    {
                      "name": "tenors",
                      "type": "uint256[]",
                      "internalType": "uint256[]"
                    },
                    {
                      "name": "aprs",
                      "type": "int256[]",
                      "internalType": "int256[]"
                    },
                    {
                      "name": "marketRateMultipliers",
                      "type": "uint256[]",
                      "internalType": "uint256[]"
                    }
                  ]
                }
              ]
            },
            {
              "name": "onBehalfOf",
              "type": "address",
              "internalType": "address"
            }
          ]
        }
      ],
      "outputs": [],
      "stateMutability": "payable"
    },
    {
      "type": "function",
      "name": "buyCreditMarket",
      "inputs": [
        {
          "name": "params",
          "type": "tuple",
          "internalType": "struct BuyCreditMarketParams",
          "components": [
            {
              "name": "borrower",
              "type": "address",
              "internalType": "address"
            },
            {
              "name": "creditPositionId",
              "type": "uint256",
              "internalType": "uint256"
            },
            {
              "name": "amount",
              "type": "uint256",
              "internalType": "uint256"
            },
            {
              "name": "tenor",
              "type": "uint256",
              "internalType": "uint256"
            },
            {
              "name": "deadline",
              "type": "uint256",
              "internalType": "uint256"
            },
            {
              "name": "minAPR",
              "type": "uint256",
              "internalType": "uint256"
            },
            {
              "name": "exactAmountIn",
              "type": "bool",
              "internalType": "bool"
            },
            {
              "name": "collectionId",
              "type": "uint256",
              "internalType": "uint256"
            },
            {
              "name": "rateProvider",
              "type": "address",
              "internalType": "address"
            }
          ]
        }
      ],
      "outputs": [],
      "stateMutability": "payable"
    },
    {
      "type": "function",
      "name": "buyCreditMarketOnBehalfOf",
      "inputs": [
        {
          "name": "externalParams",
          "type": "tuple",
          "internalType": "struct BuyCreditMarketOnBehalfOfParams",
          "components": [
            {
              "name": "params",
              "type": "tuple",
              "internalType": "struct BuyCreditMarketParams",
              "components": [
                {
                  "name": "borrower",
                  "type": "address",
                  "internalType": "address"
                },
                {
                  "name": "creditPositionId",
                  "type": "uint256",
                  "internalType": "uint256"
                },
                {
                  "name": "amount",
                  "type": "uint256",
                  "internalType": "uint256"
                },
                {
                  "name": "tenor",
                  "type": "uint256",
                  "internalType": "uint256"
                },
                {
                  "name": "deadline",
                  "type": "uint256",
                  "internalType": "uint256"
                },
                {
                  "name": "minAPR",
                  "type": "uint256",
                  "internalType": "uint256"
                },
                {
                  "name": "exactAmountIn",
                  "type": "bool",
                  "internalType": "bool"
                },
                {
                  "name": "collectionId",
                  "type": "uint256",
                  "internalType": "uint256"
                },
                {
                  "name": "rateProvider",
                  "type": "address",
                  "internalType": "address"
                }
              ]
            },
            {
              "name": "onBehalfOf",
              "type": "address",
              "internalType": "address"
            },
            {
              "name": "recipient",
              "type": "address",
              "internalType": "address"
            }
          ]
        }
      ],
      "outputs": [],
      "stateMutability": "payable"
    },
    {
      "type": "function",
      "name": "claim",
      "inputs": [
        {
          "name": "params",
          "type": "tuple",
          "internalType": "struct ClaimParams",
          "components": [
            {
              "name": "creditPositionId",
              "type": "uint256",
              "internalType": "uint256"
            }
          ]
        }
      ],
      "outputs": [],
      "stateMutability": "payable"
    },
    {
      "type": "function",
      "name": "collateralRatio",
      "inputs": [
        {
          "name": "user",
          "type": "address",
          "internalType": "address"
        }
      ],
      "outputs": [
        {
          "name": "",
          "type": "uint256",
          "internalType": "uint256"
        }
      ],
      "stateMutability": "view"
    },
    {
      "type": "function",
      "name": "compensate",
      "inputs": [
        {
          "name": "params",
          "type": "tuple",
          "internalType": "struct CompensateParams",
          "components": [
            {
              "name": "creditPositionWithDebtToRepayId",
              "type": "uint256",
              "internalType": "uint256"
            },
            {
              "name": "creditPositionToCompensateId",
              "type": "uint256",
              "internalType": "uint256"
            },
            {
              "name": "amount",
              "type": "uint256",
              "internalType": "uint256"
            }
          ]
        }
      ],
      "outputs": [],
      "stateMutability": "payable"
    },
    {
      "type": "function",
      "name": "compensateOnBehalfOf",
      "inputs": [
        {
          "name": "externalParams",
          "type": "tuple",
          "internalType": "struct CompensateOnBehalfOfParams",
          "components": [
            {
              "name": "params",
              "type": "tuple",
              "internalType": "struct CompensateParams",
              "components": [
                {
                  "name": "creditPositionWithDebtToRepayId",
                  "type": "uint256",
                  "internalType": "uint256"
                },
                {
                  "name": "creditPositionToCompensateId",
                  "type": "uint256",
                  "internalType": "uint256"
                },
                {
                  "name": "amount",
                  "type": "uint256",
                  "internalType": "uint256"
                }
              ]
            },
            {
              "name": "onBehalfOf",
              "type": "address",
              "internalType": "address"
            }
          ]
        }
      ],
      "outputs": [],
      "stateMutability": "payable"
    },
    {
      "type": "function",
      "name": "copyLimitOrders",
      "inputs": [
        {
          "name": "params",
          "type": "tuple",
          "internalType": "struct CopyLimitOrdersParams",
          "components": [
            {
              "name": "copyLoanOfferConfig",
              "type": "tuple",
              "internalType": "struct CopyLimitOrderConfig",
              "components": [
                {
                  "name": "minTenor",
                  "type": "uint256",
                  "internalType": "uint256"
                },
                {
                  "name": "maxTenor",
                  "type": "uint256",
                  "internalType": "uint256"
                },
                {
                  "name": "minAPR",
                  "type": "uint256",
                  "internalType": "uint256"
                },
                {
                  "name": "maxAPR",
                  "type": "uint256",
                  "internalType": "uint256"
                },
                {
                  "name": "offsetAPR",
                  "type": "int256",
                  "internalType": "int256"
                }
              ]
            },
            {
              "name": "copyBorrowOfferConfig",
              "type": "tuple",
              "internalType": "struct CopyLimitOrderConfig",
              "components": [
                {
                  "name": "minTenor",
                  "type": "uint256",
                  "internalType": "uint256"
                },
                {
                  "name": "maxTenor",
                  "type": "uint256",
                  "internalType": "uint256"
                },
                {
                  "name": "minAPR",
                  "type": "uint256",
                  "internalType": "uint256"
                },
                {
                  "name": "maxAPR",
                  "type": "uint256",
                  "internalType": "uint256"
                },
                {
                  "name": "offsetAPR",
                  "type": "int256",
                  "internalType": "int256"
                }
              ]
            }
          ]
        }
      ],
      "outputs": [],
      "stateMutability": "payable"
    },
    {
      "type": "function",
      "name": "copyLimitOrdersOnBehalfOf",
      "inputs": [
        {
          "name": "externalParams",
          "type": "tuple",
          "internalType": "struct CopyLimitOrdersOnBehalfOfParams",
          "components": [
            {
              "name": "params",
              "type": "tuple",
              "internalType": "struct CopyLimitOrdersParams",
              "components": [
                {
                  "name": "copyLoanOfferConfig",
                  "type": "tuple",
                  "internalType": "struct CopyLimitOrderConfig",
                  "components": [
                    {
                      "name": "minTenor",
                      "type": "uint256",
                      "internalType": "uint256"
                    },
                    {
                      "name": "maxTenor",
                      "type": "uint256",
                      "internalType": "uint256"
                    },
                    {
                      "name": "minAPR",
                      "type": "uint256",
                      "internalType": "uint256"
                    },
                    {
                      "name": "maxAPR",
                      "type": "uint256",
                      "internalType": "uint256"
                    },
                    {
                      "name": "offsetAPR",
                      "type": "int256",
                      "internalType": "int256"
                    }
                  ]
                },
                {
                  "name": "copyBorrowOfferConfig",
                  "type": "tuple",
                  "internalType": "struct CopyLimitOrderConfig",
                  "components": [
                    {
                      "name": "minTenor",
                      "type": "uint256",
                      "internalType": "uint256"
                    },
                    {
                      "name": "maxTenor",
                      "type": "uint256",
                      "internalType": "uint256"
                    },
                    {
                      "name": "minAPR",
                      "type": "uint256",
                      "internalType": "uint256"
                    },
                    {
                      "name": "maxAPR",
                      "type": "uint256",
                      "internalType": "uint256"
                    },
                    {
                      "name": "offsetAPR",
                      "type": "int256",
                      "internalType": "int256"
                    }
                  ]
                }
              ]
            },
            {
              "name": "onBehalfOf",
              "type": "address",
              "internalType": "address"
            }
          ]
        }
      ],
      "outputs": [],
      "stateMutability": "payable"
    },
    {
      "type": "function",
      "name": "data",
      "inputs": [],
      "outputs": [
        {
          "name": "",
          "type": "tuple",
          "internalType": "struct DataView",
          "components": [
            {
              "name": "nextDebtPositionId",
              "type": "uint256",
              "internalType": "uint256"
            },
            {
              "name": "nextCreditPositionId",
              "type": "uint256",
              "internalType": "uint256"
            },
            {
              "name": "underlyingCollateralToken",
              "type": "address",
              "internalType": "contract IERC20Metadata"
            },
            {
              "name": "underlyingBorrowToken",
              "type": "address",
              "internalType": "contract IERC20Metadata"
            },
            {
              "name": "collateralToken",
              "type": "address",
              "internalType": "contract NonTransferrableToken"
            },
            {
              "name": "borrowTokenVault",
              "type": "address",
              "internalType": "contract NonTransferrableRebasingTokenVault"
            },
            {
              "name": "debtToken",
              "type": "address",
              "internalType": "contract NonTransferrableToken"
            },
            {
              "name": "variablePool",
              "type": "address",
              "internalType": "contract IPool"
            }
          ]
        }
      ],
      "stateMutability": "view"
    },
    {
      "type": "function",
      "name": "debtTokenAmountToCollateralTokenAmount",
      "inputs": [
        {
          "name": "amount",
          "type": "uint256",
          "internalType": "uint256"
        }
      ],
      "outputs": [
        {
          "name": "",
          "type": "uint256",
          "internalType": "uint256"
        }
      ],
      "stateMutability": "view"
    },
    {
      "type": "function",
      "name": "deposit",
      "inputs": [
        {
          "name": "params",
          "type": "tuple",
          "internalType": "struct DepositParams",
          "components": [
            {
              "name": "token",
              "type": "address",
              "internalType": "address"
            },
            {
              "name": "amount",
              "type": "uint256",
              "internalType": "uint256"
            },
            {
              "name": "to",
              "type": "address",
              "internalType": "address"
            }
          ]
        }
      ],
      "outputs": [],
      "stateMutability": "payable"
    },
    {
      "type": "function",
      "name": "depositOnBehalfOf",
      "inputs": [
        {
          "name": "params",
          "type": "tuple",
          "internalType": "struct DepositOnBehalfOfParams",
          "components": [
            {
              "name": "params",
              "type": "tuple",
              "internalType": "struct DepositParams",
              "components": [
                {
                  "name": "token",
                  "type": "address",
                  "internalType": "address"
                },
                {
                  "name": "amount",
                  "type": "uint256",
                  "internalType": "uint256"
                },
                {
                  "name": "to",
                  "type": "address",
                  "internalType": "address"
                }
              ]
            },
            {
              "name": "onBehalfOf",
              "type": "address",
              "internalType": "address"
            }
          ]
        }
      ],
      "outputs": [],
      "stateMutability": "payable"
    },
    {
      "type": "function",
      "name": "feeConfig",
      "inputs": [],
      "outputs": [
        {
          "name": "",
          "type": "tuple",
          "internalType": "struct InitializeFeeConfigParams",
          "components": [
            {
              "name": "swapFeeAPR",
              "type": "uint256",
              "internalType": "uint256"
            },
            {
              "name": "fragmentationFee",
              "type": "uint256",
              "internalType": "uint256"
            },
            {
              "name": "liquidationRewardPercent",
              "type": "uint256",
              "internalType": "uint256"
            },
            {
              "name": "overdueCollateralProtocolPercent",
              "type": "uint256",
              "internalType": "uint256"
            },
            {
              "name": "collateralProtocolPercent",
              "type": "uint256",
              "internalType": "uint256"
            },
            {
              "name": "feeRecipient",
              "type": "address",
              "internalType": "address"
            }
          ]
        }
      ],
      "stateMutability": "view"
    },
    {
      "type": "function",
      "name": "getBorrowOfferAPR",
      "inputs": [
        {
          "name": "user",
          "type": "address",
          "internalType": "address"
        },
        {
          "name": "collectionId",
          "type": "uint256",
          "internalType": "uint256"
        },
        {
          "name": "rateProvider",
          "type": "address",
          "internalType": "address"
        },
        {
          "name": "tenor",
          "type": "uint256",
          "internalType": "uint256"
        }
      ],
      "outputs": [
        {
          "name": "",
          "type": "uint256",
          "internalType": "uint256"
        }
      ],
      "stateMutability": "view"
    },
    {
      "type": "function",
      "name": "getBuyCreditMarketSwapData",
      "inputs": [
        {
          "name": "params",
          "type": "tuple",
          "internalType": "struct BuyCreditMarketParams",
          "components": [
            {
              "name": "borrower",
              "type": "address",
              "internalType": "address"
            },
            {
              "name": "creditPositionId",
              "type": "uint256",
              "internalType": "uint256"
            },
            {
              "name": "amount",
              "type": "uint256",
              "internalType": "uint256"
            },
            {
              "name": "tenor",
              "type": "uint256",
              "internalType": "uint256"
            },
            {
              "name": "deadline",
              "type": "uint256",
              "internalType": "uint256"
            },
            {
              "name": "minAPR",
              "type": "uint256",
              "internalType": "uint256"
            },
            {
              "name": "exactAmountIn",
              "type": "bool",
              "internalType": "bool"
            },
            {
              "name": "collectionId",
              "type": "uint256",
              "internalType": "uint256"
            },
            {
              "name": "rateProvider",
              "type": "address",
              "internalType": "address"
            }
          ]
        }
      ],
      "outputs": [
        {
          "name": "",
          "type": "tuple",
          "internalType": "struct BuyCreditMarket.SwapDataBuyCreditMarket",
          "components": [
            {
              "name": "creditPosition",
              "type": "tuple",
              "internalType": "struct CreditPosition",
              "components": [
                {
                  "name": "lender",
                  "type": "address",
                  "internalType": "address"
                },
                {
                  "name": "forSale",
                  "type": "bool",
                  "internalType": "bool"
                },
                {
                  "name": "credit",
                  "type": "uint256",
                  "internalType": "uint256"
                },
                {
                  "name": "debtPositionId",
                  "type": "uint256",
                  "internalType": "uint256"
                }
              ]
            },
            {
              "name": "borrower",
              "type": "address",
              "internalType": "address"
            },
            {
              "name": "creditAmountOut",
              "type": "uint256",
              "internalType": "uint256"
            },
            {
              "name": "cashAmountIn",
              "type": "uint256",
              "internalType": "uint256"
            },
            {
              "name": "swapFee",
              "type": "uint256",
              "internalType": "uint256"
            },
            {
              "name": "fragmentationFee",
              "type": "uint256",
              "internalType": "uint256"
            },
            {
              "name": "tenor",
              "type": "uint256",
              "internalType": "uint256"
            }
          ]
        }
      ],
      "stateMutability": "view"
    },
    {
      "type": "function",
      "name": "getCreditPosition",
      "inputs": [
        {
          "name": "creditPositionId",
          "type": "uint256",
          "internalType": "uint256"
        }
      ],
      "outputs": [
        {
          "name": "",
          "type": "tuple",
          "internalType": "struct CreditPosition",
          "components": [
            {
              "name": "lender",
              "type": "address",
              "internalType": "address"
            },
            {
              "name": "forSale",
              "type": "bool",
              "internalType": "bool"
            },
            {
              "name": "credit",
              "type": "uint256",
              "internalType": "uint256"
            },
            {
              "name": "debtPositionId",
              "type": "uint256",
              "internalType": "uint256"
            }
          ]
        }
      ],
      "stateMutability": "view"
    },
    {
      "type": "function",
      "name": "getDebtPosition",
      "inputs": [
        {
          "name": "debtPositionId",
          "type": "uint256",
          "internalType": "uint256"
        }
      ],
      "outputs": [
        {
          "name": "",
          "type": "tuple",
          "internalType": "struct DebtPosition",
          "components": [
            {
              "name": "borrower",
              "type": "address",
              "internalType": "address"
            },
            {
              "name": "futureValue",
              "type": "uint256",
              "internalType": "uint256"
            },
            {
              "name": "dueDate",
              "type": "uint256",
              "internalType": "uint256"
            },
            {
              "name": "liquidityIndexAtRepayment",
              "type": "uint256",
              "internalType": "uint256"
            }
          ]
        }
      ],
      "stateMutability": "view"
    },
    {
      "type": "function",
      "name": "getLoanOfferAPR",
      "inputs": [
        {
          "name": "user",
          "type": "address",
          "internalType": "address"
        },
        {
          "name": "collectionId",
          "type": "uint256",
          "internalType": "uint256"
        },
        {
          "name": "rateProvider",
          "type": "address",
          "internalType": "address"
        },
        {
          "name": "tenor",
          "type": "uint256",
          "internalType": "uint256"
        }
      ],
      "outputs": [
        {
          "name": "",
          "type": "uint256",
          "internalType": "uint256"
        }
      ],
      "stateMutability": "view"
    },
    {
      "type": "function",
      "name": "getLoanStatus",
      "inputs": [
        {
          "name": "positionId",
          "type": "uint256",
          "internalType": "uint256"
        }
      ],
      "outputs": [
        {
          "name": "",
          "type": "uint8",
          "internalType": "enum LoanStatus"
        }
      ],
      "stateMutability": "view"
    },
    {
      "type": "function",
      "name": "getPositionsCount",
      "inputs": [],
      "outputs": [
        {
          "name": "",
          "type": "uint256",
          "internalType": "uint256"
        },
        {
          "name": "",
          "type": "uint256",
          "internalType": "uint256"
        }
      ],
      "stateMutability": "view"
    },
    {
      "type": "function",
      "name": "getRoleAdmin",
      "inputs": [
        {
          "name": "role",
          "type": "bytes32",
          "internalType": "bytes32"
        }
      ],
      "outputs": [
        {
          "name": "",
          "type": "bytes32",
          "internalType": "bytes32"
        }
      ],
      "stateMutability": "view"
    },
    {
      "type": "function",
      "name": "getSellCreditMarketSwapData",
      "inputs": [
        {
          "name": "params",
          "type": "tuple",
          "internalType": "struct SellCreditMarketParams",
          "components": [
            {
              "name": "lender",
              "type": "address",
              "internalType": "address"
            },
            {
              "name": "creditPositionId",
              "type": "uint256",
              "internalType": "uint256"
            },
            {
              "name": "amount",
              "type": "uint256",
              "internalType": "uint256"
            },
            {
              "name": "tenor",
              "type": "uint256",
              "internalType": "uint256"
            },
            {
              "name": "deadline",
              "type": "uint256",
              "internalType": "uint256"
            },
            {
              "name": "maxAPR",
              "type": "uint256",
              "internalType": "uint256"
            },
            {
              "name": "exactAmountIn",
              "type": "bool",
              "internalType": "bool"
            },
            {
              "name": "collectionId",
              "type": "uint256",
              "internalType": "uint256"
            },
            {
              "name": "rateProvider",
              "type": "address",
              "internalType": "address"
            }
          ]
        }
      ],
      "outputs": [
        {
          "name": "",
          "type": "tuple",
          "internalType": "struct SellCreditMarket.SwapDataSellCreditMarket",
          "components": [
            {
              "name": "creditPosition",
              "type": "tuple",
              "internalType": "struct CreditPosition",
              "components": [
                {
                  "name": "lender",
                  "type": "address",
                  "internalType": "address"
                },
                {
                  "name": "forSale",
                  "type": "bool",
                  "internalType": "bool"
                },
                {
                  "name": "credit",
                  "type": "uint256",
                  "internalType": "uint256"
                },
                {
                  "name": "debtPositionId",
                  "type": "uint256",
                  "internalType": "uint256"
                }
              ]
            },
            {
              "name": "creditAmountIn",
              "type": "uint256",
              "internalType": "uint256"
            },
            {
              "name": "cashAmountOut",
              "type": "uint256",
              "internalType": "uint256"
            },
            {
              "name": "swapFee",
              "type": "uint256",
              "internalType": "uint256"
            },
            {
              "name": "fragmentationFee",
              "type": "uint256",
              "internalType": "uint256"
            },
            {
              "name": "tenor",
              "type": "uint256",
              "internalType": "uint256"
            }
          ]
        }
      ],
      "stateMutability": "view"
    },
    {
      "type": "function",
      "name": "getUserDefinedBorrowOfferAPR",
      "inputs": [
        {
          "name": "borrower",
          "type": "address",
          "internalType": "address"
        },
        {
          "name": "tenor",
          "type": "uint256",
          "internalType": "uint256"
        }
      ],
      "outputs": [
        {
          "name": "",
          "type": "uint256",
          "internalType": "uint256"
        }
      ],
      "stateMutability": "view"
    },
    {
      "type": "function",
      "name": "getUserDefinedCopyBorrowOfferConfig",
      "inputs": [
        {
          "name": "user",
          "type": "address",
          "internalType": "address"
        }
      ],
      "outputs": [
        {
          "name": "",
          "type": "tuple",
          "internalType": "struct CopyLimitOrderConfig",
          "components": [
            {
              "name": "minTenor",
              "type": "uint256",
              "internalType": "uint256"
            },
            {
              "name": "maxTenor",
              "type": "uint256",
              "internalType": "uint256"
            },
            {
              "name": "minAPR",
              "type": "uint256",
              "internalType": "uint256"
            },
            {
              "name": "maxAPR",
              "type": "uint256",
              "internalType": "uint256"
            },
            {
              "name": "offsetAPR",
              "type": "int256",
              "internalType": "int256"
            }
          ]
        }
      ],
      "stateMutability": "view"
    },
    {
      "type": "function",
      "name": "getUserDefinedCopyLoanOfferConfig",
      "inputs": [
        {
          "name": "user",
          "type": "address",
          "internalType": "address"
        }
      ],
      "outputs": [
        {
          "name": "",
          "type": "tuple",
          "internalType": "struct CopyLimitOrderConfig",
          "components": [
            {
              "name": "minTenor",
              "type": "uint256",
              "internalType": "uint256"
            },
            {
              "name": "maxTenor",
              "type": "uint256",
              "internalType": "uint256"
            },
            {
              "name": "minAPR",
              "type": "uint256",
              "internalType": "uint256"
            },
            {
              "name": "maxAPR",
              "type": "uint256",
              "internalType": "uint256"
            },
            {
              "name": "offsetAPR",
              "type": "int256",
              "internalType": "int256"
            }
          ]
        }
      ],
      "stateMutability": "view"
    },
    {
      "type": "function",
      "name": "getUserDefinedLoanOfferAPR",
      "inputs": [
        {
          "name": "lender",
          "type": "address",
          "internalType": "address"
        },
        {
          "name": "tenor",
          "type": "uint256",
          "internalType": "uint256"
        }
      ],
      "outputs": [
        {
          "name": "",
          "type": "uint256",
          "internalType": "uint256"
        }
      ],
      "stateMutability": "view"
    },
    {
      "type": "function",
      "name": "getUserView",
      "inputs": [
        {
          "name": "user",
          "type": "address",
          "internalType": "address"
        }
      ],
      "outputs": [
        {
          "name": "",
          "type": "tuple",
          "internalType": "struct UserView",
          "components": [
            {
              "name": "user",
              "type": "tuple",
              "internalType": "struct User",
              "components": [
                {
                  "name": "loanOffer",
                  "type": "tuple",
                  "internalType": "struct LimitOrder",
                  "components": [
                    {
                      "name": "maxDueDate",
                      "type": "uint256",
                      "internalType": "uint256"
                    },
                    {
                      "name": "curveRelativeTime",
                      "type": "tuple",
                      "internalType": "struct YieldCurve",
                      "components": [
                        {
                          "name": "tenors",
                          "type": "uint256[]",
                          "internalType": "uint256[]"
                        },
                        {
                          "name": "aprs",
                          "type": "int256[]",
                          "internalType": "int256[]"
                        },
                        {
                          "name": "marketRateMultipliers",
                          "type": "uint256[]",
                          "internalType": "uint256[]"
                        }
                      ]
                    }
                  ]
                },
                {
                  "name": "borrowOffer",
                  "type": "tuple",
                  "internalType": "struct LimitOrder",
                  "components": [
                    {
                      "name": "maxDueDate",
                      "type": "uint256",
                      "internalType": "uint256"
                    },
                    {
                      "name": "curveRelativeTime",
                      "type": "tuple",
                      "internalType": "struct YieldCurve",
                      "components": [
                        {
                          "name": "tenors",
                          "type": "uint256[]",
                          "internalType": "uint256[]"
                        },
                        {
                          "name": "aprs",
                          "type": "int256[]",
                          "internalType": "int256[]"
                        },
                        {
                          "name": "marketRateMultipliers",
                          "type": "uint256[]",
                          "internalType": "uint256[]"
                        }
                      ]
                    }
                  ]
                },
                {
                  "name": "openingLimitBorrowCR",
                  "type": "uint256",
                  "internalType": "uint256"
                },
                {
                  "name": "allCreditPositionsForSaleDisabled",
                  "type": "bool",
                  "internalType": "bool"
                }
              ]
            },
            {
              "name": "account",
              "type": "address",
              "internalType": "address"
            },
            {
              "name": "collateralTokenBalance",
              "type": "uint256",
              "internalType": "uint256"
            },
            {
              "name": "borrowTokenBalance",
              "type": "uint256",
              "internalType": "uint256"
            },
            {
              "name": "debtBalance",
              "type": "uint256",
              "internalType": "uint256"
            }
          ]
        }
      ],
      "stateMutability": "view"
    },
    {
      "type": "function",
      "name": "grantRole",
      "inputs": [
        {
          "name": "role",
          "type": "bytes32",
          "internalType": "bytes32"
        },
        {
          "name": "account",
          "type": "address",
          "internalType": "address"
        }
      ],
      "outputs": [],
      "stateMutability": "nonpayable"
    },
    {
      "type": "function",
      "name": "hasRole",
      "inputs": [
        {
          "name": "role",
          "type": "bytes32",
          "internalType": "bytes32"
        },
        {
          "name": "account",
          "type": "address",
          "internalType": "address"
        }
      ],
      "outputs": [
        {
          "name": "",
          "type": "bool",
          "internalType": "bool"
        }
      ],
      "stateMutability": "view"
    },
    {
      "type": "function",
      "name": "initialize",
      "inputs": [
        {
          "name": "owner",
          "type": "address",
          "internalType": "address"
        },
        {
          "name": "f",
          "type": "tuple",
          "internalType": "struct InitializeFeeConfigParams",
          "components": [
            {
              "name": "swapFeeAPR",
              "type": "uint256",
              "internalType": "uint256"
            },
            {
              "name": "fragmentationFee",
              "type": "uint256",
              "internalType": "uint256"
            },
            {
              "name": "liquidationRewardPercent",
              "type": "uint256",
              "internalType": "uint256"
            },
            {
              "name": "overdueCollateralProtocolPercent",
              "type": "uint256",
              "internalType": "uint256"
            },
            {
              "name": "collateralProtocolPercent",
              "type": "uint256",
              "internalType": "uint256"
            },
            {
              "name": "feeRecipient",
              "type": "address",
              "internalType": "address"
            }
          ]
        },
        {
          "name": "r",
          "type": "tuple",
          "internalType": "struct InitializeRiskConfigParams",
          "components": [
            {
              "name": "crOpening",
              "type": "uint256",
              "internalType": "uint256"
            },
            {
              "name": "crLiquidation",
              "type": "uint256",
              "internalType": "uint256"
            },
            {
              "name": "minimumCreditBorrowToken",
              "type": "uint256",
              "internalType": "uint256"
            },
            {
              "name": "minTenor",
              "type": "uint256",
              "internalType": "uint256"
            },
            {
              "name": "maxTenor",
              "type": "uint256",
              "internalType": "uint256"
            }
          ]
        },
        {
          "name": "o",
          "type": "tuple",
          "internalType": "struct InitializeOracleParams",
          "components": [
            {
              "name": "priceFeed",
              "type": "address",
              "internalType": "address"
            },
            {
              "name": "variablePoolBorrowRateStaleRateInterval",
              "type": "uint64",
              "internalType": "uint64"
            }
          ]
        },
        {
          "name": "d",
          "type": "tuple",
          "internalType": "struct InitializeDataParams",
          "components": [
            {
              "name": "weth",
              "type": "address",
              "internalType": "address"
            },
            {
              "name": "underlyingCollateralToken",
              "type": "address",
              "internalType": "address"
            },
            {
              "name": "underlyingBorrowToken",
              "type": "address",
              "internalType": "address"
            },
            {
              "name": "variablePool",
              "type": "address",
              "internalType": "address"
            },
            {
              "name": "borrowTokenVault",
              "type": "address",
              "internalType": "address"
            },
            {
              "name": "sizeFactory",
              "type": "address",
              "internalType": "address"
            }
          ]
        }
      ],
      "outputs": [],
      "stateMutability": "nonpayable"
    },
    {
      "type": "function",
      "name": "isCreditPositionId",
      "inputs": [
        {
          "name": "creditPositionId",
          "type": "uint256",
          "internalType": "uint256"
        }
      ],
      "outputs": [
        {
          "name": "",
          "type": "bool",
          "internalType": "bool"
        }
      ],
      "stateMutability": "view"
    },
    {
      "type": "function",
      "name": "isDebtPositionId",
      "inputs": [
        {
          "name": "debtPositionId",
          "type": "uint256",
          "internalType": "uint256"
        }
      ],
      "outputs": [
        {
          "name": "",
          "type": "bool",
          "internalType": "bool"
        }
      ],
      "stateMutability": "view"
    },
    {
      "type": "function",
      "name": "isDebtPositionLiquidatable",
      "inputs": [
        {
          "name": "debtPositionId",
          "type": "uint256",
          "internalType": "uint256"
        }
      ],
      "outputs": [
        {
          "name": "",
          "type": "bool",
          "internalType": "bool"
        }
      ],
      "stateMutability": "view"
    },
    {
      "type": "function",
      "name": "liquidate",
      "inputs": [
        {
          "name": "params",
          "type": "tuple",
          "internalType": "struct LiquidateParams",
          "components": [
            {
              "name": "debtPositionId",
              "type": "uint256",
              "internalType": "uint256"
            },
            {
              "name": "minimumCollateralProfit",
              "type": "uint256",
              "internalType": "uint256"
            },
            {
              "name": "deadline",
              "type": "uint256",
              "internalType": "uint256"
            }
          ]
        }
      ],
      "outputs": [
        {
          "name": "liquidatorProfitCollateralToken",
          "type": "uint256",
          "internalType": "uint256"
        }
      ],
      "stateMutability": "payable"
    },
    {
      "type": "function",
      "name": "liquidateWithReplacement",
      "inputs": [
        {
          "name": "params",
          "type": "tuple",
          "internalType": "struct LiquidateWithReplacementParams",
          "components": [
            {
              "name": "debtPositionId",
              "type": "uint256",
              "internalType": "uint256"
            },
            {
              "name": "borrower",
              "type": "address",
              "internalType": "address"
            },
            {
              "name": "minimumCollateralProfit",
              "type": "uint256",
              "internalType": "uint256"
            },
            {
              "name": "deadline",
              "type": "uint256",
              "internalType": "uint256"
            },
            {
              "name": "minAPR",
              "type": "uint256",
              "internalType": "uint256"
            },
            {
              "name": "collectionId",
              "type": "uint256",
              "internalType": "uint256"
            },
            {
              "name": "rateProvider",
              "type": "address",
              "internalType": "address"
            }
          ]
        }
      ],
      "outputs": [
        {
          "name": "liquidatorProfitCollateralToken",
          "type": "uint256",
          "internalType": "uint256"
        },
        {
          "name": "liquidatorProfitBorrowToken",
          "type": "uint256",
          "internalType": "uint256"
        }
      ],
      "stateMutability": "payable"
    },
    {
      "type": "function",
      "name": "multicall",
      "inputs": [
        {
          "name": "_data",
          "type": "bytes[]",
          "internalType": "bytes[]"
        }
      ],
      "outputs": [
        {
          "name": "results",
          "type": "bytes[]",
          "internalType": "bytes[]"
        }
      ],
      "stateMutability": "payable"
    },
    {
      "type": "function",
      "name": "oracle",
      "inputs": [],
      "outputs": [
        {
          "name": "",
          "type": "tuple",
          "internalType": "struct InitializeOracleParams",
          "components": [
            {
              "name": "priceFeed",
              "type": "address",
              "internalType": "address"
            },
            {
              "name": "variablePoolBorrowRateStaleRateInterval",
              "type": "uint64",
              "internalType": "uint64"
            }
          ]
        }
      ],
      "stateMutability": "view"
    },
    {
      "type": "function",
      "name": "partialRepay",
      "inputs": [
        {
          "name": "params",
          "type": "tuple",
          "internalType": "struct PartialRepayParams",
          "components": [
            {
              "name": "creditPositionWithDebtToRepayId",
              "type": "uint256",
              "internalType": "uint256"
            },
            {
              "name": "amount",
              "type": "uint256",
              "internalType": "uint256"
            },
            {
              "name": "borrower",
              "type": "address",
              "internalType": "address"
            }
          ]
        }
      ],
      "outputs": [],
      "stateMutability": "payable"
    },
    {
      "type": "function",
      "name": "pause",
      "inputs": [],
      "outputs": [],
      "stateMutability": "nonpayable"
    },
    {
      "type": "function",
      "name": "paused",
      "inputs": [],
      "outputs": [
        {
          "name": "",
          "type": "bool",
          "internalType": "bool"
        }
      ],
      "stateMutability": "view"
    },
    {
      "type": "function",
      "name": "proxiableUUID",
      "inputs": [],
      "outputs": [
        {
          "name": "",
          "type": "bytes32",
          "internalType": "bytes32"
        }
      ],
      "stateMutability": "view"
    },
    {
      "type": "function",
      "name": "renounceRole",
      "inputs": [
        {
          "name": "role",
          "type": "bytes32",
          "internalType": "bytes32"
        },
        {
          "name": "callerConfirmation",
          "type": "address",
          "internalType": "address"
        }
      ],
      "outputs": [],
      "stateMutability": "nonpayable"
    },
    {
      "type": "function",
      "name": "repay",
      "inputs": [
        {
          "name": "params",
          "type": "tuple",
          "internalType": "struct RepayParams",
          "components": [
            {
              "name": "debtPositionId",
              "type": "uint256",
              "internalType": "uint256"
            },
            {
              "name": "borrower",
              "type": "address",
              "internalType": "address"
            }
          ]
        }
      ],
      "outputs": [],
      "stateMutability": "payable"
    },
    {
      "type": "function",
      "name": "revokeRole",
      "inputs": [
        {
          "name": "role",
          "type": "bytes32",
          "internalType": "bytes32"
        },
        {
          "name": "account",
          "type": "address",
          "internalType": "address"
        }
      ],
      "outputs": [],
      "stateMutability": "nonpayable"
    },
    {
      "type": "function",
      "name": "riskConfig",
      "inputs": [],
      "outputs": [
        {
          "name": "",
          "type": "tuple",
          "internalType": "struct InitializeRiskConfigParams",
          "components": [
            {
              "name": "crOpening",
              "type": "uint256",
              "internalType": "uint256"
            },
            {
              "name": "crLiquidation",
              "type": "uint256",
              "internalType": "uint256"
            },
            {
              "name": "minimumCreditBorrowToken",
              "type": "uint256",
              "internalType": "uint256"
            },
            {
              "name": "minTenor",
              "type": "uint256",
              "internalType": "uint256"
            },
            {
              "name": "maxTenor",
              "type": "uint256",
              "internalType": "uint256"
            }
          ]
        }
      ],
      "stateMutability": "view"
    },
    {
      "type": "function",
      "name": "selfLiquidate",
      "inputs": [
        {
          "name": "params",
          "type": "tuple",
          "internalType": "struct SelfLiquidateParams",
          "components": [
            {
              "name": "creditPositionId",
              "type": "uint256",
              "internalType": "uint256"
            }
          ]
        }
      ],
      "outputs": [],
      "stateMutability": "payable"
    },
    {
      "type": "function",
      "name": "selfLiquidateOnBehalfOf",
      "inputs": [
        {
          "name": "externalParams",
          "type": "tuple",
          "internalType": "struct SelfLiquidateOnBehalfOfParams",
          "components": [
            {
              "name": "params",
              "type": "tuple",
              "internalType": "struct SelfLiquidateParams",
              "components": [
                {
                  "name": "creditPositionId",
                  "type": "uint256",
                  "internalType": "uint256"
                }
              ]
            },
            {
              "name": "onBehalfOf",
              "type": "address",
              "internalType": "address"
            },
            {
              "name": "recipient",
              "type": "address",
              "internalType": "address"
            }
          ]
        }
      ],
      "outputs": [],
      "stateMutability": "payable"
    },
    {
      "type": "function",
      "name": "sellCreditLimit",
      "inputs": [
        {
          "name": "params",
          "type": "tuple",
          "internalType": "struct SellCreditLimitParams",
          "components": [
            {
              "name": "maxDueDate",
              "type": "uint256",
              "internalType": "uint256"
            },
            {
              "name": "curveRelativeTime",
              "type": "tuple",
              "internalType": "struct YieldCurve",
              "components": [
                {
                  "name": "tenors",
                  "type": "uint256[]",
                  "internalType": "uint256[]"
                },
                {
                  "name": "aprs",
                  "type": "int256[]",
                  "internalType": "int256[]"
                },
                {
                  "name": "marketRateMultipliers",
                  "type": "uint256[]",
                  "internalType": "uint256[]"
                }
              ]
            }
          ]
        }
      ],
      "outputs": [],
      "stateMutability": "payable"
    },
    {
      "type": "function",
      "name": "sellCreditLimitOnBehalfOf",
      "inputs": [
        {
          "name": "externalParams",
          "type": "tuple",
          "internalType": "struct SellCreditLimitOnBehalfOfParams",
          "components": [
            {
              "name": "params",
              "type": "tuple",
              "internalType": "struct SellCreditLimitParams",
              "components": [
                {
                  "name": "maxDueDate",
                  "type": "uint256",
                  "internalType": "uint256"
                },
                {
                  "name": "curveRelativeTime",
                  "type": "tuple",
                  "internalType": "struct YieldCurve",
                  "components": [
                    {
                      "name": "tenors",
                      "type": "uint256[]",
                      "internalType": "uint256[]"
                    },
                    {
                      "name": "aprs",
                      "type": "int256[]",
                      "internalType": "int256[]"
                    },
                    {
                      "name": "marketRateMultipliers",
                      "type": "uint256[]",
                      "internalType": "uint256[]"
                    }
                  ]
                }
              ]
            },
            {
              "name": "onBehalfOf",
              "type": "address",
              "internalType": "address"
            }
          ]
        }
      ],
      "outputs": [],
      "stateMutability": "payable"
    },
    {
      "type": "function",
      "name": "sellCreditMarket",
      "inputs": [
        {
          "name": "params",
          "type": "tuple",
          "internalType": "struct SellCreditMarketParams",
          "components": [
            {
              "name": "lender",
              "type": "address",
              "internalType": "address"
            },
            {
              "name": "creditPositionId",
              "type": "uint256",
              "internalType": "uint256"
            },
            {
              "name": "amount",
              "type": "uint256",
              "internalType": "uint256"
            },
            {
              "name": "tenor",
              "type": "uint256",
              "internalType": "uint256"
            },
            {
              "name": "deadline",
              "type": "uint256",
              "internalType": "uint256"
            },
            {
              "name": "maxAPR",
              "type": "uint256",
              "internalType": "uint256"
            },
            {
              "name": "exactAmountIn",
              "type": "bool",
              "internalType": "bool"
            },
            {
              "name": "collectionId",
              "type": "uint256",
              "internalType": "uint256"
            },
            {
              "name": "rateProvider",
              "type": "address",
              "internalType": "address"
            }
          ]
        }
      ],
      "outputs": [],
      "stateMutability": "payable"
    },
    {
      "type": "function",
      "name": "sellCreditMarketOnBehalfOf",
      "inputs": [
        {
          "name": "externalParams",
          "type": "tuple",
          "internalType": "struct SellCreditMarketOnBehalfOfParams",
          "components": [
            {
              "name": "params",
              "type": "tuple",
              "internalType": "struct SellCreditMarketParams",
              "components": [
                {
                  "name": "lender",
                  "type": "address",
                  "internalType": "address"
                },
                {
                  "name": "creditPositionId",
                  "type": "uint256",
                  "internalType": "uint256"
                },
                {
                  "name": "amount",
                  "type": "uint256",
                  "internalType": "uint256"
                },
                {
                  "name": "tenor",
                  "type": "uint256",
                  "internalType": "uint256"
                },
                {
                  "name": "deadline",
                  "type": "uint256",
                  "internalType": "uint256"
                },
                {
                  "name": "maxAPR",
                  "type": "uint256",
                  "internalType": "uint256"
                },
                {
                  "name": "exactAmountIn",
                  "type": "bool",
                  "internalType": "bool"
                },
                {
                  "name": "collectionId",
                  "type": "uint256",
                  "internalType": "uint256"
                },
                {
                  "name": "rateProvider",
                  "type": "address",
                  "internalType": "address"
                }
              ]
            },
            {
              "name": "onBehalfOf",
              "type": "address",
              "internalType": "address"
            },
            {
              "name": "recipient",
              "type": "address",
              "internalType": "address"
            }
          ]
        }
      ],
      "outputs": [],
      "stateMutability": "payable"
    },
    {
      "type": "function",
      "name": "setUserConfiguration",
      "inputs": [
        {
          "name": "params",
          "type": "tuple",
          "internalType": "struct SetUserConfigurationParams",
          "components": [
            {
              "name": "vault",
              "type": "address",
              "internalType": "address"
            },
            {
              "name": "openingLimitBorrowCR",
              "type": "uint256",
              "internalType": "uint256"
            },
            {
              "name": "allCreditPositionsForSaleDisabled",
              "type": "bool",
              "internalType": "bool"
            },
            {
              "name": "creditPositionIdsForSale",
              "type": "bool",
              "internalType": "bool"
            },
            {
              "name": "creditPositionIds",
              "type": "uint256[]",
              "internalType": "uint256[]"
            }
          ]
        }
      ],
      "outputs": [],
      "stateMutability": "payable"
    },
    {
      "type": "function",
      "name": "setUserConfigurationOnBehalfOf",
      "inputs": [
        {
          "name": "externalParams",
          "type": "tuple",
          "internalType": "struct SetUserConfigurationOnBehalfOfParams",
          "components": [
            {
              "name": "params",
              "type": "tuple",
              "internalType": "struct SetUserConfigurationParams",
              "components": [
                {
                  "name": "vault",
                  "type": "address",
                  "internalType": "address"
                },
                {
                  "name": "openingLimitBorrowCR",
                  "type": "uint256",
                  "internalType": "uint256"
                },
                {
                  "name": "allCreditPositionsForSaleDisabled",
                  "type": "bool",
                  "internalType": "bool"
                },
                {
                  "name": "creditPositionIdsForSale",
                  "type": "bool",
                  "internalType": "bool"
                },
                {
                  "name": "creditPositionIds",
                  "type": "uint256[]",
                  "internalType": "uint256[]"
                }
              ]
            },
            {
              "name": "onBehalfOf",
              "type": "address",
              "internalType": "address"
            }
          ]
        }
      ],
      "outputs": [],
      "stateMutability": "payable"
    },
    {
      "type": "function",
      "name": "setVariablePoolBorrowRate",
      "inputs": [
        {
          "name": "borrowRate",
          "type": "uint128",
          "internalType": "uint128"
        }
      ],
      "outputs": [],
      "stateMutability": "nonpayable"
    },
    {
      "type": "function",
      "name": "sizeFactory",
      "inputs": [],
      "outputs": [
        {
          "name": "",
          "type": "address",
          "internalType": "contract ISizeFactory"
        }
      ],
      "stateMutability": "view"
    },
    {
      "type": "function",
      "name": "supportsInterface",
      "inputs": [
        {
          "name": "interfaceId",
          "type": "bytes4",
          "internalType": "bytes4"
        }
      ],
      "outputs": [
        {
          "name": "",
          "type": "bool",
          "internalType": "bool"
        }
      ],
      "stateMutability": "view"
    },
    {
      "type": "function",
      "name": "unpause",
      "inputs": [],
      "outputs": [],
      "stateMutability": "nonpayable"
    },
    {
      "type": "function",
      "name": "updateConfig",
      "inputs": [
        {
          "name": "params",
          "type": "tuple",
          "internalType": "struct UpdateConfigParams",
          "components": [
            {
              "name": "key",
              "type": "string",
              "internalType": "string"
            },
            {
              "name": "value",
              "type": "uint256",
              "internalType": "uint256"
            }
          ]
        }
      ],
      "outputs": [],
      "stateMutability": "nonpayable"
    },
    {
      "type": "function",
      "name": "upgradeToAndCall",
      "inputs": [
        {
          "name": "newImplementation",
          "type": "address",
          "internalType": "address"
        },
        {
          "name": "data",
          "type": "bytes",
          "internalType": "bytes"
        }
      ],
      "outputs": [],
      "stateMutability": "payable"
    },
    {
      "type": "function",
      "name": "vaultOf",
      "inputs": [
        {
          "name": "user",
          "type": "address",
          "internalType": "address"
        }
      ],
      "outputs": [
        {
          "name": "",
          "type": "address",
          "internalType": "address"
        }
      ],
      "stateMutability": "view"
    },
    {
      "type": "function",
      "name": "version",
      "inputs": [],
      "outputs": [
        {
          "name": "",
          "type": "string",
          "internalType": "string"
        }
      ],
      "stateMutability": "pure"
    },
    {
      "type": "function",
      "name": "withdraw",
      "inputs": [
        {
          "name": "params",
          "type": "tuple",
          "internalType": "struct WithdrawParams",
          "components": [
            {
              "name": "token",
              "type": "address",
              "internalType": "address"
            },
            {
              "name": "amount",
              "type": "uint256",
              "internalType": "uint256"
            },
            {
              "name": "to",
              "type": "address",
              "internalType": "address"
            }
          ]
        }
      ],
      "outputs": [],
      "stateMutability": "payable"
    },
    {
      "type": "function",
      "name": "withdrawOnBehalfOf",
      "inputs": [
        {
          "name": "externalParams",
          "type": "tuple",
          "internalType": "struct WithdrawOnBehalfOfParams",
          "components": [
            {
              "name": "params",
              "type": "tuple",
              "internalType": "struct WithdrawParams",
              "components": [
                {
                  "name": "token",
                  "type": "address",
                  "internalType": "address"
                },
                {
                  "name": "amount",
                  "type": "uint256",
                  "internalType": "uint256"
                },
                {
                  "name": "to",
                  "type": "address",
                  "internalType": "address"
                }
              ]
            },
            {
              "name": "onBehalfOf",
              "type": "address",
              "internalType": "address"
            }
          ]
        }
      ],
      "outputs": [],
      "stateMutability": "payable"
    },
    {
      "type": "event",
      "name": "Initialized",
      "inputs": [
        {
          "name": "version",
          "type": "uint64",
          "indexed": false,
          "internalType": "uint64"
        }
      ],
      "anonymous": false
    },
    {
      "type": "event",
      "name": "Paused",
      "inputs": [
        {
          "name": "account",
          "type": "address",
          "indexed": false,
          "internalType": "address"
        }
      ],
      "anonymous": false
    },
    {
      "type": "event",
      "name": "RoleAdminChanged",
      "inputs": [
        {
          "name": "role",
          "type": "bytes32",
          "indexed": true,
          "internalType": "bytes32"
        },
        {
          "name": "previousAdminRole",
          "type": "bytes32",
          "indexed": true,
          "internalType": "bytes32"
        },
        {
          "name": "newAdminRole",
          "type": "bytes32",
          "indexed": true,
          "internalType": "bytes32"
        }
      ],
      "anonymous": false
    },
    {
      "type": "event",
      "name": "RoleGranted",
      "inputs": [
        {
          "name": "role",
          "type": "bytes32",
          "indexed": true,
          "internalType": "bytes32"
        },
        {
          "name": "account",
          "type": "address",
          "indexed": true,
          "internalType": "address"
        },
        {
          "name": "sender",
          "type": "address",
          "indexed": true,
          "internalType": "address"
        }
      ],
      "anonymous": false
    },
    {
      "type": "event",
      "name": "RoleRevoked",
      "inputs": [
        {
          "name": "role",
          "type": "bytes32",
          "indexed": true,
          "internalType": "bytes32"
        },
        {
          "name": "account",
          "type": "address",
          "indexed": true,
          "internalType": "address"
        },
        {
          "name": "sender",
          "type": "address",
          "indexed": true,
          "internalType": "address"
        }
      ],
      "anonymous": false
    },
    {
      "type": "event",
      "name": "Unpaused",
      "inputs": [
        {
          "name": "account",
          "type": "address",
          "indexed": false,
          "internalType": "address"
        }
      ],
      "anonymous": false
    },
    {
      "type": "event",
      "name": "Upgraded",
      "inputs": [
        {
          "name": "implementation",
          "type": "address",
          "indexed": true,
          "internalType": "address"
        }
      ],
      "anonymous": false
    },
    {
      "type": "event",
      "name": "VariablePoolBorrowRateUpdated",
      "inputs": [
        {
          "name": "sender",
          "type": "address",
          "indexed": true,
          "internalType": "address"
        },
        {
          "name": "oldBorrowRate",
          "type": "uint128",
          "indexed": false,
          "internalType": "uint128"
        },
        {
          "name": "newBorrowRate",
          "type": "uint128",
          "indexed": false,
          "internalType": "uint128"
        }
      ],
      "anonymous": false
    },
    {
      "type": "error",
      "name": "AccessControlBadConfirmation",
      "inputs": []
    },
    {
      "type": "error",
      "name": "AccessControlUnauthorizedAccount",
      "inputs": [
        {
          "name": "account",
          "type": "address",
          "internalType": "address"
        },
        {
          "name": "neededRole",
          "type": "bytes32",
          "internalType": "bytes32"
        }
      ]
    },
    {
      "type": "error",
      "name": "AddressEmptyCode",
      "inputs": [
        {
          "name": "target",
          "type": "address",
          "internalType": "address"
        }
      ]
    },
    {
      "type": "error",
      "name": "DUE_DATE_GREATER_THAN_MAX_DUE_DATE",
      "inputs": [
        {
          "name": "dueDate",
          "type": "uint256",
          "internalType": "uint256"
        },
        {
          "name": "maxDueDate",
          "type": "uint256",
          "internalType": "uint256"
        }
      ]
    },
    {
      "type": "error",
      "name": "ERC1967InvalidImplementation",
      "inputs": [
        {
          "name": "implementation",
          "type": "address",
          "internalType": "address"
        }
      ]
    },
    {
      "type": "error",
      "name": "ERC1967NonPayable",
      "inputs": []
    },
    {
      "type": "error",
      "name": "EnforcedPause",
      "inputs": []
    },
    {
      "type": "error",
      "name": "ExpectedPause",
      "inputs": []
    },
    {
      "type": "error",
      "name": "FailedCall",
      "inputs": []
    },
    {
      "type": "error",
      "name": "INVALID_OFFER",
      "inputs": [
        {
          "name": "account",
          "type": "address",
          "internalType": "address"
        }
      ]
    },
    {
      "type": "error",
      "name": "InvalidInitialization",
      "inputs": []
    },
    {
      "type": "error",
      "name": "MUST_IMPROVE_COLLATERAL_RATIO",
      "inputs": [
        {
          "name": "account",
          "type": "address",
          "internalType": "address"
        },
        {
          "name": "crBefore",
          "type": "uint256",
          "internalType": "uint256"
        },
        {
          "name": "crAfter",
          "type": "uint256",
          "internalType": "uint256"
        }
      ]
    },
    {
      "type": "error",
      "name": "NULL_TENOR",
      "inputs": []
    },
    {
      "type": "error",
      "name": "NotInitializing",
      "inputs": []
    },
    {
      "type": "error",
      "name": "UUPSUnauthorizedCallContext",
      "inputs": []
    },
    {
      "type": "error",
      "name": "UUPSUnsupportedProxiableUUID",
      "inputs": [
        {
          "name": "slot",
          "type": "bytes32",
          "internalType": "bytes32"
        }
      ]
    }
  ],
  "bytecode": {
    "object": "0x60a06040523060805234801562000014575f80fd5b506200001f62000025565b620000d9565b7ff0c57e16840df040f15088dc2f81fe391c3923bec73e23a9662efc9c229c6a00805468010000000000000000900460ff1615620000765760405163f92ee8a960e01b815260040160405180910390fd5b80546001600160401b0390811614620000d65780546001600160401b0319166001600160401b0390811782556040519081527fc7f505b2f371ae2175ee4913f4499e1f2633a7b5936321eed1cdaeb6115181d29060200160405180910390a15b50565b608051615d70620001005f395f81816138150152818161383e01526139a60152615d705ff3fe6080604052600436106103d4575f3560e01c806373d4a13a116101ff578063c421a75911610113578063e236052b116100a8578063f54ae18b11610078578063f54ae18b14610cc4578063fa7a5b1014610cd7578063fa823af514610cf4578063fb7fb2d914610d07578063fd17174a14610d1a575f80fd5b8063e236052b14610c60578063e5af06ce14610c73578063f1bf35c314610c92578063f45bf01c14610cb1575f80fd5b8063ccd8d4d1116100e3578063ccd8d4d114610c08578063d547741f14610c1b578063d927acef14610c3a578063e05001f514610c4d575f80fd5b8063c421a75914610b98578063c7cd4d8714610bb7578063ca40742c14610bca578063ccc9681514610be9575f80fd5b80638e572776116101945780639d92e758116101645780639d92e75814610ac7578063a217fddf14610ada578063ac9650d814610aed578063ad3cb1cc14610b0d578063b5ec748714610b3d575f80fd5b80638e57277614610a565780638ea68d7e14610a6957806391d1485414610a7c5780639ab8011514610a9b575f80fd5b80637dc0d1d0116101cf5780637dc0d1d0146109db5780637f417c0614610a1c578063834dafb514610a2f5780638456cb5914610a42575f80fd5b806373d4a13a1461082357806376c1b82f14610947578063780cafa8146109735780637c90a6ca14610986575f80fd5b80632f2ff15d116102f65780634fd9a8a51161028b57806354fd4d501161025b57806354fd4d50146107615780635c975abb146107965780635cbc51eb146107b957806364eb0a71146107e557806373b683be14610804575f80fd5b80634fd9a8a51461071457806352d1902d14610727578063536b9c791461073b57806353e043d41461074e575f80fd5b80633ae6d7c3116102c65780633ae6d7c3146106bb5780633f4ba83a146106ce5780634cbd882c146106e25780634f1ef28614610701575f80fd5b80632f2ff15d1461065757806336568abe146106765780633746f858146106955780633962a686146106a8575f80fd5b80631970e5ea1161036c5780631ff75b0b1161033c5780631ff75b0b146105e7578063248a9ca3146106065780632b4c9a20146106255780632b59bd9914610638575f80fd5b80631970e5ea1461050f5780631c4fd41c1461052e5780631ca3b0cb1461055a5780631e5eb1d014610583575f80fd5b806304c84222116103a757806304c842221461046c5780630709df45146104985780630cf8542f146104cf5780630d37ab00146104e2575f80fd5b806301ffc9a7146103d857806302088c511461040c57806302f2855a146104385780630317b9df1461044d575b5f80fd5b3480156103e3575f80fd5b506103f76103f23660046140f6565b610d2d565b60405190151581526020015b60405180910390f35b348015610417575f80fd5b5061042b6104263660046142d9565b610d63565b6040516104039190614322565b61044b610446366004614397565b610de4565b005b348015610458575f80fd5b5061044b6104673660046143c1565b610eb9565b348015610477575f80fd5b5061048b6104863660046143f2565b610fbd565b604051610403919061440d565b3480156104a3575f80fd5b506104b76104b23660046143f2565b611044565b6040516001600160a01b039091168152602001610403565b61044b6104dd366004614397565b6110b0565b3480156104ed575f80fd5b506105016104fc366004614446565b6110e0565b604051908152602001610403565b34801561051a575f80fd5b50610501610529366004614470565b6110f3565b348015610539575f80fd5b5061054d610548366004614470565b6110fe565b6040516104039190614487565b348015610565575f80fd5b5061056e611179565b60408051928352602083019190915201610403565b34801561058e575f80fd5b506105976111ac565b6040516104039190815181526020808301519082015260408083015190820152606080830151908201526080808301519082015260a0918201516001600160a01b03169181019190915260c00190565b3480156105f2575f80fd5b506105016106013660046144ad565b61125e565b348015610611575f80fd5b50610501610620366004614470565b611301565b61044b610633366004614397565b611321565b348015610643575f80fd5b50610501610652366004614446565b61134e565b348015610662575f80fd5b5061044b6106713660046144f2565b61135a565b348015610681575f80fd5b5061044b6106903660046144f2565b61137c565b61044b6106a33660046143c1565b6113b4565b61044b6106b6366004614575565b6113da565b61044b6106c93660046145c8565b611507565b3480156106d9575f80fd5b5061044b611722565b3480156106ed575f80fd5b5061044b6106fc366004614606565b61177b565b61044b61070f36600461462c565b611841565b61044b6107223660046148c5565b611860565b348015610732575f80fd5b50610501611906565b61044b610749366004614935565b611921565b61044b61075c3660046148c5565b611a12565b34801561076c575f80fd5b5060408051808201909152600481526376312e3760e01b60208201525b60405161040391906149d3565b3480156107a1575f80fd5b505f80516020615d1b8339815191525460ff166103f7565b3480156107c4575f80fd5b506107d86107d33660046143f2565b611ab8565b6040516104039190614ab3565b3480156107f0575f80fd5b506103f76107ff366004614470565b611eca565b34801561080f575f80fd5b5061050161081e3660046144ad565b611ed6565b34801561082e575f80fd5b506108d660408051610100810182525f80825260208201819052918101829052606081018290526080810182905260a0810182905260c0810182905260e0810191909152506040805161010081018252601154815260125460208201526014546001600160a01b03908116928201929092526015548216606082015260165482166080820152601a54821660a0820152601854821660c082015260195490911660e082015290565b604080518251815260208084015190820152828201516001600160a01b039081169282019290925260608084015183169082015260808084015183169082015260a08084015183169082015260c08084015183169082015260e0928301519091169181019190915261010001610403565b348015610952575f80fd5b50610966610961366004614470565b611f35565b6040516104039190614b55565b61044b610981366004614b73565b611ffb565b348015610991575f80fd5b5061099a612021565b60405161040391905f60a082019050825182526020830151602083015260408301516040830152606083015160608301526080830151608083015292915050565b3480156109e6575f80fd5b506109ef6120bf565b6040805182516001600160a01b031681526020928301516001600160401b03169281019290925201610403565b61044b610a2a366004614ba4565b612142565b61044b610a3d366004614575565b6121e6565b348015610a4d575f80fd5b5061044b612311565b61044b610a64366004614397565b61236a565b61044b610a773660046142d9565b612397565b348015610a87575f80fd5b506103f7610a963660046144f2565b6123cc565b348015610aa6575f80fd5b50610aba610ab53660046142d9565b612402565b6040516104039190614bbe565b61044b610ad5366004614c8a565b612483565b348015610ae5575f80fd5b506105015f81565b610b00610afb366004614cbe565b612529565b6040516104039190614d2c565b348015610b18575f80fd5b50610789604051806040016040528060058152602001640352e302e360dc1b81525081565b348015610b48575f80fd5b50610b5c610b57366004614470565b61253e565b604051610403919081516001600160a01b0316815260208083015190820152604080830151908201526060918201519181019190915260800190565b348015610ba3575f80fd5b5061048b610bb23660046143f2565b612624565b61044b610bc5366004614e15565b6126ab565b348015610bd5575f80fd5b50610501610be43660046143f2565b612751565b348015610bf4575f80fd5b506103f7610c03366004614470565b6127d4565b61044b610c163660046143c1565b6127df565b348015610c26575f80fd5b5061044b610c353660046144f2565b612805565b61056e610c48366004614e93565b612821565b610501610c5b366004614397565b612a4e565b61044b610c6e366004614ea3565b612ba3565b348015610c7e575f80fd5b506103f7610c8d366004614470565b612bd7565b348015610c9d575f80fd5b5061044b610cac366004614ec4565b612c52565b61044b610cbf366004614f3e565b612ec2565b61044b610cd2366004614fcb565b612f6d565b348015610ce2575f80fd5b50601c546001600160a01b03166104b7565b61044b610d02366004614fcb565b613013565b61044b610d15366004614fe5565b6130b9565b61044b610d28366004614f3e565b6130e6565b5f6001600160e01b03198216637965db0b60e01b1480610d5d57506301ffc9a760e01b6001600160e01b03198316145b92915050565b610d6b613fa3565b604051631c81982560e11b815273__$909b104b05b98ab9b02bd00c4a2f54926d$__90633903304a90610da4905f908690600401615065565b61014060405180830381865af4158015610dc0573d5f803e3d5ffd5b505050506040513d601f19601f82011682018060405250810190610d5d91906150f1565b610dec61311a565b604051635fed4de960e01b815273__$1ffb1d284a100711dc8ce94ffbdfd13eea$__90635fed4de990610e25905f908590600401615186565b5f6040518083038186803b158015610e3b575f80fd5b505af4158015610e4d573d5f803e3d5ffd5b505060405163d96aec4360e01b815273__$1ffb1d284a100711dc8ce94ffbdfd13eea$__925063d96aec439150610e8a905f908590600401615186565b5f6040518083038186803b158015610ea0575f80fd5b505af4158015610eb2573d5f803e3d5ffd5b5050505050565b5f610ec4813361314c565b610eef5760405163e2517d3f60e01b8152336004820152602481018290526044015b60405180910390fd5b60405163e57980dd60e01b815273__$72c16261390208f563094e6a4fc9f74031$__9063e57980dd90610f28905f9086906004016151c8565b5f6040518083038186803b158015610f3e575f80fd5b505af4158015610f50573d5f803e3d5ffd5b5050604051634752b3b360e01b815273__$72c16261390208f563094e6a4fc9f74031$__9250634752b3b39150610f8d905f9086906004016151c8565b5f6040518083038186803b158015610fa3575f80fd5b505af4158015610fb5573d5f803e3d5ffd5b505050505050565b610fea6040518060a001604052805f81526020015f81526020015f81526020015f81526020015f81525090565b506001600160a01b03165f908152601b6020908152604091829020825160a0810184526001820154815260028201549281019290925260038101549282019290925260048201546060820152600590910154608082015290565b601a54604051630709df4560e01b81526001600160a01b0383811660048301525f921690630709df4590602401602060405180830381865afa15801561108c573d5f803e3d5ffd5b505050506040513d601f19601f82011682018060405250810190610d5d919061524c565b6110dd6040518060400160405280838036038101906110cf9190615267565b815233602090910152613013565b50565b5f6110ec8184846131f5565b9392505050565b5f610d5d8183613343565b6040516303eb153f60e51b81525f60048201819052602482018390529073__$674c94602fbdb88ca53d9ba4295c8813fa$__90637d62a7e090604401602060405180830381865af4158015611155573d5f803e3d5ffd5b505050506040513d601f19601f82011682018060405250810190610d5d9190615281565b6011545f90819061118b9082906152b3565b61119760025f196152c6565b6012546111a491906152b3565b915091509091565b6111e86040518060c001604052805f81526020015f81526020015f81526020015f81526020015f81526020015f6001600160a01b031681525090565b6040516386617e7760e01b81525f600482015273__$72c16261390208f563094e6a4fc9f74031$__906386617e779060240160c060405180830381865af4158015611235573d5f803e3d5ffd5b505050506040513d601f19601f8201168201806040525081019061125991906152e5565b905090565b60405163897bce1f60e01b81525f600482018190526001600160a01b0380871660248401526044830186905284166064830152608482018390529073__$fad1da84a532053b53119316a58e977f10$__9063897bce1f9060a4015b602060405180830381865af41580156112d4573d5f803e3d5ffd5b505050506040513d601f19601f820116820180604052508101906112f89190615343565b95945050505050565b5f9081525f80516020615cfb833981519152602052604090206001015490565b6110dd6040518060400160405280838036038101906113409190615267565b815233602090910152612f6d565b5f6110ec818484613543565b61136382611301565b61136c81613687565b6113768383613691565b50505050565b6001600160a01b03811633146113a55760405163334bd91960e11b815260040160405180910390fd5b6113af8282613732565b505050565b6110dd6040518060400160405280836113cc9061535a565b815233602090910152611a12565b6113e261311a565b60405163160b9e6b60e31b815273__$c58e2605104bb31274ad8c04841b6a7550$__9063b05cf3589061141b905f908590600401615396565b5f6040518083038186803b158015611431575f80fd5b505af4158015611443573d5f803e3d5ffd5b5050604051639f46aa4160e01b815273__$c58e2605104bb31274ad8c04841b6a7550$__9250639f46aa419150611480905f908590600401615396565b5f6040518083038186803b158015611496575f80fd5b505af41580156114a8573d5f803e3d5ffd5b505050505f19815f015160200151036110dd5760208101516040516316bbd7db60e11b81525f60048201526001600160a01b03909116602482015273__$b44e0fdf2f6bdeffc1681a5a467d23dde6$__90632d77afb690604401610e8a565b61150f61311a565b602081015160405163046dbd1360e11b81525f600482018190526001600160a01b03831660248301529073__$b44e0fdf2f6bdeffc1681a5a467d23dde6$__906308db7a2690604401602060405180830381865af4158015611573573d5f803e3d5ffd5b505050506040513d601f19601f820116820180604052508101906115979190615343565b60405163f9c417bd60e01b815290915073__$7fa168b5d238863382c2bf886894022425$__9063f9c417bd906115d3905f9087906004016153ab565b5f6040518083038186803b1580156115e9575f80fd5b505af41580156115fb573d5f803e3d5ffd5b5050604051634971bf9960e01b815273__$7fa168b5d238863382c2bf886894022425$__9250634971bf999150611638905f9087906004016153ab565b5f6040518083038186803b15801561164e575f80fd5b505af4158015611660573d5f803e3d5ffd5b505060405163046dbd1360e11b81525f600482018190526001600160a01b0386166024830152925073__$b44e0fdf2f6bdeffc1681a5a467d23dde6$__91506308db7a2690604401602060405180830381865af41580156116c3573d5f803e3d5ffd5b505050506040513d601f19601f820116820180604052508101906116e79190615343565b90508181116113765760405163625a84dd60e01b81526001600160a01b03841660048201526024810183905260448101829052606401610ee6565b7f65d7a28e3265b37a6474929f336521b332c1681b933f6cb9f3376673440d862a61174d813361314c565b6117735760405163e2517d3f60e01b815233600482015260248101829052604401610ee6565b6110dd6137ab565b7f1eae1854c74a696c6de86fd3c6383d5c1e2c33fbc86e1aa6b6c872d95bd240386117a6813361314c565b6117cc5760405163e2517d3f60e01b815233600482015260248101829052604401610ee6565b600d80546001600160801b038481166001600160c01b031983168117600160801b426001600160401b031602179093556040805191909216808252602082019390935233917f26b8010a81fad3e15c7545637c99390bdeb250bf0a67e4cf43c3d220ec2acc31910160405180910390a2505050565b61184961380a565b611852826138ae565b61185c82826138df565b5050565b61186861311a565b604051637125eda960e11b815273__$339bef8b42d49ef7fc0392a1b9554f9551$__9063e24bdb52906118a1905f9085906004016154a6565b5f6040518083038186803b1580156118b7575f80fd5b505af41580156118c9573d5f803e3d5ffd5b505060405163184d91f360e31b815273__$339bef8b42d49ef7fc0392a1b9554f9551$__925063c26c8f989150610e8a905f9085906004016154a6565b5f61190f61399b565b505f80516020615cdb83398151915290565b61192961311a565b604080516325f2df6f60e01b81525f6004820152825151602482015260208301516001600160a01b03908116604483015291830151909116606482015273__$c19cfa413da1baf02a2307c9fe3d8deda6$__906325f2df6f906084015f6040518083038186803b15801561199b575f80fd5b505af41580156119ad573d5f803e3d5ffd5b5050604080516330e78a9160e11b81525f6004820152845151602482015260208501516001600160a01b03908116604483015291850151909116606482015273__$c19cfa413da1baf02a2307c9fe3d8deda6$__92506361cf15229150608401610e8a565b611a1a61311a565b604051632d0c1e8b60e01b815273__$f215670302542f95b8fc754ac02a4bfcb4$__90632d0c1e8b90611a53905f9085906004016154a6565b5f6040518083038186803b158015611a69575f80fd5b505af4158015611a7b573d5f803e3d5ffd5b505060405163c0c66ed960e01b815273__$f215670302542f95b8fc754ac02a4bfcb4$__925063c0c66ed99150610e8a905f9085906004016154a6565b611ac0613fe9565b604080516001600160a01b0384165f908152600e60209081529083902061016083018452805461012084019081528451600183018054608095810283018601909752606082018781529596879660a088019687959487946101408b01949193909284928491840182828015611b5257602002820191905f5260205f20905b815481526020019060010190808311611b3e575b5050505050815260200160018201805480602002602001604051908101604052809291908181526020018280548015611ba857602002820191905f5260205f20905b815481526020019060010190808311611b94575b5050505050815260200160028201805480602002602001604051908101604052809291908181526020018280548015611bfe57602002820191905f5260205f20905b815481526020019060010190808311611bea575b505050505081525050815250508152602001600482016040518060400160405290815f8201548152602001600182016040518060600160405290815f8201805480602002602001604051908101604052809291908181526020018280548015611c8457602002820191905f5260205f20905b815481526020019060010190808311611c70575b5050505050815260200160018201805480602002602001604051908101604052809291908181526020018280548015611cda57602002820191905f5260205f20905b815481526020019060010190808311611cc6575b5050505050815260200160028201805480602002602001604051908101604052809291908181526020018280548015611d3057602002820191905f5260205f20905b815481526020019060010190808311611d1c575b505050919092525050509052508152600882015460208083019190915260099092015460ff1615156040918201529183526001600160a01b0386811691840182905260165483516370a0823160e01b815260048101939093529390920192909116906370a0823190602401602060405180830381865afa158015611db6573d5f803e3d5ffd5b505050506040513d601f19601f82011682018060405250810190611dda9190615343565b8152601a546040516370a0823160e01b81526001600160a01b038681166004830152602090930192909116906370a0823190602401602060405180830381865afa158015611e2a573d5f803e3d5ffd5b505050506040513d601f19601f82011682018060405250810190611e4e9190615343565b81526018546040516370a0823160e01b81526001600160a01b038681166004830152602090930192909116906370a0823190602401602060405180830381865afa158015611e9e573d5f803e3d5ffd5b505050506040513d601f19601f82011682018060405250810190611ec29190615343565b905292915050565b6011545f908210610d5d565b604051637574b6e360e01b81525f600482018190526001600160a01b0380871660248401526044830186905284166064830152608482018390529073__$fad1da84a532053b53119316a58e977f10$__90637574b6e39060a4016112b9565b611f3d614023565b604051633978289f60e01b81525f60048201526024810183905273__$674c94602fbdb88ca53d9ba4295c8813fa$__90633978289f90604401602060405180830381865af4158015611f91573d5f803e3d5ffd5b505050506040513d601f19601f82011682018060405250810190611fb59190615343565b6040805160808101825282546001600160a01b0381168252600160a01b900460ff1615156020820152600183015491810191909152600290910154606082015292915050565b6110dd604051806040016040528083612013906154be565b8152336020909101526126ab565b61204e6040518060a001604052805f81526020015f81526020015f81526020015f81526020015f81525090565b604051636e9bc7eb60e11b81525f600482015273__$72c16261390208f563094e6a4fc9f74031$__9063dd378fd69060240160a060405180830381865af415801561209b573d5f803e3d5ffd5b505050506040513d601f19601f8201168201806040525081019061125991906154c9565b604080518082019091525f8082526020820152604051631ae5e80160e31b81525f600482015273__$72c16261390208f563094e6a4fc9f74031$__9063d72f4008906024016040805180830381865af415801561211e573d5f803e3d5ffd5b505050506040513d601f19601f82011682018060405250810190611259919061552b565b61214a61311a565b6040516210aa0b60e31b815273__$45d7492db284be01938913cb41b9cac2a6$__906285505890612181905f90859060040161555e565b5f6040518083038186803b158015612197575f80fd5b505af41580156121a9573d5f803e3d5ffd5b50506040516364140a8360e01b815273__$45d7492db284be01938913cb41b9cac2a6$__92506364140a839150610e8a905f90859060040161555e565b6121ee61311a565b604051631e55c20b60e31b815273__$909b104b05b98ab9b02bd00c4a2f54926d$__9063f2ae105890612227905f908590600401615396565b5f6040518083038186803b15801561223d575f80fd5b505af415801561224f573d5f803e3d5ffd5b5050604051630f6470bd60e01b815273__$909b104b05b98ab9b02bd00c4a2f54926d$__9250630f6470bd915061228c905f908590600401615396565b5f6040518083038186803b1580156122a2575f80fd5b505af41580156122b4573d5f803e3d5ffd5b505050505f19815f015160200151036110dd578051516040516316bbd7db60e11b81525f60048201526001600160a01b03909116602482015273__$b44e0fdf2f6bdeffc1681a5a467d23dde6$__90632d77afb690604401610e8a565b7f65d7a28e3265b37a6474929f336521b332c1681b933f6cb9f3376673440d862a61233c813361314c565b6123625760405163e2517d3f60e01b815233600482015260248101829052604401610ee6565b6110dd6139e4565b6110dd6040518060400160405280838036038101906123899190615596565b815233602090910152611507565b6110dd6040518060600160405280838152602001336001600160a01b03168152602001336001600160a01b03168152506113da565b5f9182525f80516020615cfb833981519152602090815260408084206001600160a01b0393909316845291905290205460ff1690565b61240a614052565b60405163301d1d1560e21b815273__$c58e2605104bb31274ad8c04841b6a7550$__9063c074745490612443905f908690600401615065565b61012060405180830381865af415801561245f573d5f803e3d5ffd5b505050506040513d601f19601f82011682018060405250810190610d5d91906155b0565b61248b61311a565b6040516315868ea760e21b815273__$41bd1ea6f49e3611a223dba0ae97878d32$__9063561a3a9c906124c4905f908590600401615612565b5f6040518083038186803b1580156124da575f80fd5b505af41580156124ec573d5f803e3d5ffd5b50506040516389e70deb60e01b815273__$41bd1ea6f49e3611a223dba0ae97878d32$__92506389e70deb9150610e8a905f908590600401615612565b606061253361311a565b6110ec5f8484613a2c565b61256e60405180608001604052805f6001600160a01b031681526020015f81526020015f81526020015f81525090565b604051634c9829bf60e11b81525f60048201526024810183905273__$674c94602fbdb88ca53d9ba4295c8813fa$__90639930537e90604401602060405180830381865af41580156125c2573d5f803e3d5ffd5b505050506040513d601f19601f820116820180604052508101906125e69190615343565b6040805160808101825282546001600160a01b0316815260018301546020820152600283015491810191909152600390910154606082015292915050565b6126516040518060a001604052805f81526020015f81526020015f81526020015f81526020015f81525090565b506001600160a01b03165f908152601b6020908152604091829020825160a0810184526006820154815260078201549281019290925260088101549282019290925260098201546060820152600a90910154608082015290565b6126b361311a565b6040516333d4ade560e01b815273__$f56cb86c34e0dd0dca51f5a3538433e18c$__906333d4ade5906126ec905f9085906004016156a8565b5f6040518083038186803b158015612702575f80fd5b505af4158015612714573d5f803e3d5ffd5b505060405163178bcac760e11b815273__$f56cb86c34e0dd0dca51f5a3538433e18c$__9250632f17958e9150610e8a905f9085906004016156a8565b60405163046dbd1360e11b81525f600482018190526001600160a01b03831660248301529073__$b44e0fdf2f6bdeffc1681a5a467d23dde6$__906308db7a2690604401602060405180830381865af41580156127b0573d5f803e3d5ffd5b505050506040513d601f19601f82011682018060405250810190610d5d9190615343565b5f610d5d8183613b14565b6110dd6040518060400160405280836127f79061535a565b815233602090910152611860565b61280e82611301565b61281781613687565b6113768383613732565b5f8061282b61311a565b7ffc8737ab85eb45125971625a9ebdb75cc78e01d5c1fa80c4c6e5203f47bc4fab612856813361314c565b61287c5760405163e2517d3f60e01b815233600482015260248101829052604401610ee6565b604051639f53ee0f60e01b815273__$d00168f5747027b5a56099c751031d7e40$__90639f53ee0f906128b5905f90889060040161578b565b5f6040518083038186803b1580156128cb575f80fd5b505af41580156128dd573d5f803e3d5ffd5b505060405163647a4b7560e11b815273__$d00168f5747027b5a56099c751031d7e40$__925063c8f496ea915061291a905f90889060040161578b565b6040805180830381865af4158015612934573d5f803e3d5ffd5b505050506040513d601f19601f8201168201806040525081019061295891906157a0565b909350915073__$b44e0fdf2f6bdeffc1681a5a467d23dde6$__632d77afb65f61298860408801602089016143f2565b6040516001600160e01b031960e085901b16815260048101929092526001600160a01b031660248201526044015f6040518083038186803b1580156129cb575f80fd5b505af41580156129dd573d5f803e3d5ffd5b5050604051636e6595c160e01b815273__$d00168f5747027b5a56099c751031d7e40$__9250636e6595c19150612a1c905f90889088906004016157c2565b5f6040518083038186803b158015612a32575f80fd5b505af4158015612a44573d5f803e3d5ffd5b5050505050915091565b5f612a5761311a565b6040516320b5435f60e11b815273__$04d32033081e1e9356971d8f4b5098bcad$__9063416a86be90612a90905f9086906004016157e6565b5f6040518083038186803b158015612aa6575f80fd5b505af4158015612ab8573d5f803e3d5ffd5b5050604051630d0699cb60e21b815273__$04d32033081e1e9356971d8f4b5098bcad$__925063341a672c9150612af5905f9086906004016157e6565b602060405180830381865af4158015612b10573d5f803e3d5ffd5b505050506040513d601f19601f82011682018060405250810190612b349190615343565b60405163489d188160e01b815290915073__$04d32033081e1e9356971d8f4b5098bcad$__9063489d188190612b72905f908690869060040161580e565b5f6040518083038186803b158015612b88575f80fd5b505af4158015612b9a573d5f803e3d5ffd5b50505050919050565b6110dd604051806060016040528083803603810190612bc291906142d9565b815233602082018190526040909101526121e6565b604051631928c8e960e11b81525f60048201819052602482018390529073__$b44e0fdf2f6bdeffc1681a5a467d23dde6$__9063325191d290604401602060405180830381865af4158015612c2e573d5f803e3d5ffd5b505050506040513d601f19601f82011682018060405250810190610d5d9190615844565b5f612c5b613b37565b805490915060ff600160401b82041615906001600160401b03165f81158015612c815750825b90505f826001600160401b03166001148015612c9c5750303b155b905081158015612caa575080155b15612cc85760405163f92ee8a960e01b815260040160405180910390fd5b845467ffffffffffffffff191660011785558315612cf257845460ff60401b1916600160401b1785555b6040516369777eb960e01b815273__$d02cb2608d6f3ad3f53f4dd3f26f81b8ea$__906369777eb990612d33905f908e908e908e908e908e90600401615978565b5f6040518083038186803b158015612d49575f80fd5b505af4158015612d5b573d5f803e3d5ffd5b50505050612d67613b5f565b612d6f613b5f565b612d77613b5f565b604051632ffdac7160e21b815273__$d02cb2608d6f3ad3f53f4dd3f26f81b8ea$__9063bff6b1c490612db6905f908d908d908d908d906004016159ec565b5f6040518083038186803b158015612dcc575f80fd5b505af4158015612dde573d5f803e3d5ffd5b50505050612dee5f801b8b613691565b50612e197f65d7a28e3265b37a6474929f336521b332c1681b933f6cb9f3376673440d862a8b613691565b50612e447ffc8737ab85eb45125971625a9ebdb75cc78e01d5c1fa80c4c6e5203f47bc4fab8b613691565b50612e6f7f1eae1854c74a696c6de86fd3c6383d5c1e2c33fbc86e1aa6b6c872d95bd240388b613691565b508315612eb657845460ff60401b19168555604051600181527fc7f505b2f371ae2175ee4913f4499e1f2633a7b5936321eed1cdaeb6115181d29060200160405180910390a15b50505050505050505050565b612eca61311a565b604051635792057f60e11b81525f60048201528135602482015273__$ebce6ba8505acc62d937fb713060c40a3c$__9063af240afe906044015f6040518083038186803b158015612f19575f80fd5b505af4158015612f2b573d5f803e3d5ffd5b50506040516320e9b9f960e11b81525f60048201528335602482015273__$ebce6ba8505acc62d937fb713060c40a3c$__92506341d373f29150604401610e8a565b612f7561311a565b604051631005beb160e31b815273__$7947dedfaba9c59621bd8bcc87e3fb80f1$__9063802df58890612fae905f908590600401615a50565b5f6040518083038186803b158015612fc4575f80fd5b505af4158015612fd6573d5f803e3d5ffd5b5050604051631cc17ae560e31b815273__$7947dedfaba9c59621bd8bcc87e3fb80f1$__925063e60bd7289150610e8a905f908590600401615a50565b61301b61311a565b60405163024889b160e51b815273__$d49e499a4608ab3aca09b91fe5950492b6$__90634911362090613054905f908590600401615a50565b5f6040518083038186803b15801561306a575f80fd5b505af415801561307c573d5f803e3d5ffd5b505060405163a083c0ab60e01b815273__$d49e499a4608ab3aca09b91fe5950492b6$__925063a083c0ab9150610e8a905f908590600401615a50565b6110dd6040518060400160405280838036038101906130d89190615a95565b815233602090910152612483565b6110dd6040518060600160405280838036038101906131059190615ab0565b81523360208201819052604090910152611921565b5f80516020615d1b8339815191525460ff161561314a5760405163d93c066560e01b815260040160405180910390fd5b565b5f61315783836123cc565b1561316457506001610d5d565b601c546001600160a01b031661317b57505f610d5d565b601c54604051632474521560e21b8152600481018590526001600160a01b038481166024830152909116906391d1485490604401602060405180830381865afa1580156131ca573d5f803e3d5ffd5b505050506040513d601f19601f820116820180604052508101906131ee9190615844565b9050610d5d565b6001600160a01b0382165f908152600e840160209081526040808320815180830183528154815282516001830180546080818802840181019096526060830181815261333b978c978c979591870194919391928492909184919084018282801561327c57602002820191905f5260205f20905b815481526020019060010190808311613268575b50505050508152602001600182018054806020026020016040519081016040528092919081815260200182805480156132d257602002820191905f5260205f20905b8154815260200190600101908083116132be575b505050505081526020016002820180548060200260200160405190810160405280929190818152602001828054801561332857602002820191905f5260205f20905b815481526020019060010190808311613314575b5050505050815250508152505085613b67565b949350505050565b5f6110ec83600c015f015f9054906101000a90046001600160a01b03166001600160a01b031663313ce5676040518163ffffffff1660e01b8152600401602060405180830381865afa15801561339b573d5f803e3d5ffd5b505050506040513d601f19601f820116820180604052508101906133bf9190615343565b6133ca90600a615baa565b6133d49084615bb5565b60148501546040805163313ce56760e01b815290516001600160a01b039092169163313ce567916004808201926020929091908290030181865afa15801561341e573d5f803e3d5ffd5b505050506040513d601f19601f820116820180604052508101906134429190615bcc565b61344d90600a615bec565b60158601546040805163313ce56760e01b815290516001600160a01b039092169163313ce567916004808201926020929091908290030181865afa158015613497573d5f803e3d5ffd5b505050506040513d601f19601f820116820180604052508101906134bb9190615bcc565b6134c690600a615bec565b600c87015460408051634c6afee560e11b815290516001600160a01b03909216916398d5fdca916004808201926020929091908290030181865afa158015613510573d5f803e3d5ffd5b505050506040513d601f19601f820116820180604052508101906135349190615343565b61353e9190615bb5565b613cc1565b6001600160a01b0382165f908152600e8401602090815260408083208151808301835260048201805482528351600590930180546080818802860181019096526060850181815261333b978c978c9791870194919391928492909184919084018282801561327c57602002820191905f5260205f20908154815260200190600101908083116132685750505050508152602001600182018054806020026020016040519081016040528092919081815260200182805480156132d257602002820191905f5260205f20908154815260200190600101908083116132be57505050505081526020016002820180548060200260200160405190810160405280929190818152602001828054801561332857602002820191905f5260205f2090815481526020019060010190808311613314575050505050815250508152505085613b67565b6110dd8133613ccd565b5f5f80516020615cfb8339815191526136aa84846123cc565b613729575f848152602082815260408083206001600160a01b03871684529091529020805460ff191660011790556136df3390565b6001600160a01b0316836001600160a01b0316857f2f8788117e7eff1d82e926ec794901d17c78024a50270940304540a733656f0d60405160405180910390a46001915050610d5d565b5f915050610d5d565b5f5f80516020615cfb83398151915261374b84846123cc565b15613729575f848152602082815260408083206001600160a01b0387168085529252808320805460ff1916905551339287917ff6391f5c32d9c69d2a47ea670b442974b53935d1edc7fd64eb21e047a839171b9190a46001915050610d5d565b6137b3613d06565b5f80516020615d1b833981519152805460ff191681557f5db9ee0a495bf2e6ff9c91a7834c1ba4fdd244a5e8aa4e537bd38aeae4b073aa335b6040516001600160a01b03909116815260200160405180910390a150565b306001600160a01b037f000000000000000000000000000000000000000000000000000000000000000016148061389057507f00000000000000000000000000000000000000000000000000000000000000006001600160a01b03166138845f80516020615cdb833981519152546001600160a01b031690565b6001600160a01b031614155b1561314a5760405163703e46dd60e11b815260040160405180910390fd5b5f6138b9813361314c565b61185c5760405163e2517d3f60e01b815233600482015260248101829052604401610ee6565b816001600160a01b03166352d1902d6040518163ffffffff1660e01b8152600401602060405180830381865afa925050508015613939575060408051601f3d908101601f1916820190925261393691810190615343565b60015b61396157604051634c9c8ce360e01b81526001600160a01b0383166004820152602401610ee6565b5f80516020615cdb833981519152811461399157604051632a87526960e21b815260048101829052602401610ee6565b6113af8383613d35565b306001600160a01b037f0000000000000000000000000000000000000000000000000000000000000000161461314a5760405163703e46dd60e11b815260040160405180910390fd5b6139ec61311a565b5f80516020615d1b833981519152805460ff191660011781557f62e78cea01bee320cd4e420270b5ea74000d11b0c9f74754ebdbfc544b05a258336137ec565b6060816001600160401b03811115613a4657613a4661411d565b604051908082528060200260200182016040528015613a7957816020015b6060815260200190600190039081613a645790505b5090505f5b82811015613b0c57613ae730858584818110613a9c57613a9c615bfa565b9050602002810190613aae9190615c0e565b8080601f0160208091040260200160405190810160405280939291908181526020018383808284375f92019190915250613d8a92505050565b828281518110613af957613af9615bfa565b6020908102919091010152600101613a7e565b509392505050565b5f613b2160025f196152c6565b82101580156110ec575050601291909101541190565b5f807ff0c57e16840df040f15088dc2f81fe391c3923bec73e23a9662efc9c229c6a00610d5d565b61314a613df3565b5f815f03613b88576040516301c85f6760e71b815260040160405180910390fd5b613b9183613e18565b15613bb95760405162b04ee160e61b81526001600160a01b0385166004820152602401610ee6565b8251613bc58342615c57565b1115613bf957613bd58242615c57565b8351604051636f2f16a760e01b815260048101929092526024820152604401610ee6565b60408051606081018252600d8701546001600160801b03811682526001600160401b03600160801b82048116602080850191909152600160c01b909204168284015285015191516315c6891560e11b8152909173__$99c8b6d537f6911e4d5e2b5618b4ddcec4$__91632b8d122a91613c789185908890600401615c6a565b602060405180830381865af4158015613c93573d5f803e3d5ffd5b505050506040513d601f19601f82011682018060405250810190613cb79190615343565b9695505050505050565b5f61333b848484613e31565b613cd782826123cc565b61185c5760405163e2517d3f60e01b81526001600160a01b038216600482015260248101839052604401610ee6565b5f80516020615d1b8339815191525460ff1661314a57604051638dfc202b60e01b815260040160405180910390fd5b613d3e82613e5d565b6040516001600160a01b038316907fbc7cd75a20ee27fd9adebab32041f755214dbc6bffa90cc0225b39da2e5c2d3b905f90a2805115613d82576113af8282613d8a565b61185c613ec0565b60605f80846001600160a01b031684604051613da69190615cbf565b5f60405180830381855af49150503d805f8114613dde576040519150601f19603f3d011682016040523d82523d5f602084013e613de3565b606091505b50915091506112f8858383613edf565b613dfb613f3b565b61314a57604051631afcd79f60e31b815260040160405180910390fd5b80515f90158015610d5d5750610d5d8260200151613f54565b5f825f190484118302158202613e4e5763ad251c275f526004601cfd5b50910281810615159190040190565b806001600160a01b03163b5f03613e9257604051634c9c8ce360e01b81526001600160a01b0382166004820152602401610ee6565b5f80516020615cdb83398151915280546001600160a01b0319166001600160a01b0392909216919091179055565b341561314a5760405163b398979f60e01b815260040160405180910390fd5b606082613ef457613eef82613f7a565b6110ec565b8151158015613f0b57506001600160a01b0384163b155b15613f3457604051639996b31560e01b81526001600160a01b0385166004820152602401610ee6565b50806110ec565b5f613f44613b37565b54600160401b900460ff16919050565b8051515f90158015613f695750602082015151155b8015610d5d57505060400151511590565b805115613f8a5780518082602001fd5b60405163d6bda27560e01b815260040160405180910390fd5b6040518060e00160405280613fb6614023565b81526020015f6001600160a01b031681526020015f81526020015f81526020015f81526020015f81526020015f81525090565b6040518060a00160405280613ffc614089565b81526020015f6001600160a01b031681526020015f81526020015f81526020015f81525090565b60405180608001604052805f6001600160a01b031681526020015f151581526020015f81526020015f81525090565b6040518060c00160405280614065614023565b81526020015f81526020015f81526020015f81526020015f81526020015f81525090565b604051806080016040528061409c6140bc565b81526020016140a96140bc565b81525f6020820181905260409091015290565b60405180604001604052805f81526020016140f160405180606001604052806060815260200160608152602001606081525090565b905290565b5f60208284031215614106575f80fd5b81356001600160e01b0319811681146110ec575f80fd5b634e487b7160e01b5f52604160045260245ffd5b60405161012081016001600160401b03811182821017156141545761415461411d565b60405290565b604051606081016001600160401b03811182821017156141545761415461411d565b604080519081016001600160401b03811182821017156141545761415461411d565b60405160a081016001600160401b03811182821017156141545761415461411d565b60405160c081016001600160401b03811182821017156141545761415461411d565b604051601f8201601f191681016001600160401b038111828210171561420a5761420a61411d565b604052919050565b6001600160a01b03811681146110dd575f80fd5b803561423181614212565b919050565b80151581146110dd575f80fd5b803561423181614236565b5f610120828403121561425f575f80fd5b614267614131565b905061427282614226565b81526020820135602082015260408201356040820152606082013560608201526080820135608082015260a082013560a08201526142b260c08301614243565b60c082015260e082013560e08201526101006142cf818401614226565b9082015292915050565b5f61012082840312156142ea575f80fd5b6110ec838361424e565b80516001600160a01b0316825260208082015115159083015260408082015190830152606090810151910152565b5f610140820190506143358284516142f4565b60018060a01b036020840151166080830152604083015160a0830152606083015160c0830152608083015160e083015260a083015161010083015260c083015161012083015292915050565b5f60608284031215614391575f80fd5b50919050565b5f606082840312156143a7575f80fd5b6110ec8383614381565b5f60408284031215614391575f80fd5b5f602082840312156143d1575f80fd5b81356001600160401b038111156143e6575f80fd5b61333b848285016143b1565b5f60208284031215614402575f80fd5b81356110ec81614212565b60a08101610d5d828480518252602081015160208301526040810151604083015260608101516060830152608081015160808301525050565b5f8060408385031215614457575f80fd5b823561446281614212565b946020939093013593505050565b5f60208284031215614480575f80fd5b5035919050565b60208101600383106144a757634e487b7160e01b5f52602160045260245ffd5b91905290565b5f805f80608085870312156144c0575f80fd5b84356144cb81614212565b93506020850135925060408501356144e281614212565b9396929550929360600135925050565b5f8060408385031215614503575f80fd5b82359150602083013561451581614212565b809150509250929050565b5f6101608284031215614531575f80fd5b61453961415a565b9050614545838361424e565b815261012082013561455681614212565b602082015261014082013561456a81614212565b604082015292915050565b5f6101608284031215614586575f80fd5b6110ec8383614520565b5f606082840312156145a0575f80fd5b6145a861415a565b905081358152602082013560208201526040820135604082015292915050565b5f608082840312156145d8575f80fd5b6145e061417c565b6145ea8484614590565b815260608301356145fa81614212565b60208201529392505050565b5f60208284031215614616575f80fd5b81356001600160801b03811681146110ec575f80fd5b5f806040838503121561463d575f80fd5b823561464881614212565b91506020838101356001600160401b0380821115614664575f80fd5b818601915086601f830112614677575f80fd5b8135818111156146895761468961411d565b61469b601f8201601f191685016141e2565b915080825287848285010111156146b0575f80fd5b80848401858401375f848284010152508093505050509250929050565b5f6001600160401b038211156146e5576146e561411d565b5060051b60200190565b5f82601f8301126146fe575f80fd5b8135602061471361470e836146cd565b6141e2565b8083825260208201915060208460051b870101935086841115614734575f80fd5b602086015b848110156147505780358352918301918301614739565b509695505050505050565b5f6040828403121561476b575f80fd5b61477361417c565b9050813581526020808301356001600160401b0380821115614793575f80fd5b90840190606082870312156147a6575f80fd5b6147ae61415a565b8235828111156147bc575f80fd5b6147c8888286016146ef565b82525083830135828111156147db575f80fd5b8301601f810188136147eb575f80fd5b80356147f961470e826146cd565b81815260059190911b8201860190868101908a831115614817575f80fd5b928701925b828410156148355783358252928701929087019061481c565b8488015250505060408301358281111561484d575f80fd5b614859888286016146ef565b60408301525080848601525050505092915050565b5f6040828403121561487e575f80fd5b61488661417c565b905081356001600160401b0381111561489d575f80fd5b6148a98482850161475b565b82525060208201356148ba81614212565b602082015292915050565b5f602082840312156148d5575f80fd5b81356001600160401b038111156148ea575f80fd5b61333b8482850161486e565b5f60208284031215614906575f80fd5b604051602081018181106001600160401b03821117156149285761492861411d565b6040529135825250919050565b5f60608284031215614945575f80fd5b61494d61415a565b61495784846148f6565b8152602083013561496781614212565b6020820152604083013561497a81614212565b60408201529392505050565b5f5b838110156149a0578181015183820152602001614988565b50505f910152565b5f81518084526149bf816020860160208601614986565b601f01601f19169290920160200192915050565b602081525f6110ec60208301846149a8565b5f815180845260208085019450602084015f5b83811015614a14578151875295820195908201906001016149f8565b509495945050505050565b805182525f602080830151604082860152805160606040870152614a4660a08701826149e5565b83830151603f19888303810160608a0152815180845291860193505f929091908601905b80841015614a8a5784518252938601936001939093019290860190614a6a565b5060408501519550818982030160808a0152614aa681876149e5565b9998505050505050505050565b602081525f825160a060208401528051608060c0850152614ad8610140850182614a1f565b9050602082015160bf198583030160e0860152614af58282614a1f565b91505060408201516101008501526060820151151561012085015260208501519150614b2c60408501836001600160a01b03169052565b6040850151606085015260608501516080850152608085015160a0850152809250505092915050565b60808101610d5d82846142f4565b5f60a08284031215614391575f80fd5b5f60208284031215614b83575f80fd5b81356001600160401b03811115614b98575f80fd5b61333b84828501614b63565b5f60408284031215614bb4575f80fd5b6110ec83836143b1565b5f61012082019050614bd18284516142f4565b60208301516080830152604083015160a0830152606083015160c0830152608083015160e083015260a083015161010083015292915050565b5f60a08284031215614c1a575f80fd5b614c2261419e565b9050813581526020820135602082015260408201356040820152606082013560608201526080820135608082015292915050565b5f6101408284031215614c67575f80fd5b614c6f61417c565b9050614c7b8383614c0a565b81526148ba8360a08401614c0a565b5f6101608284031215614c9b575f80fd5b614ca361417c565b614cad8484614c56565b81526101408301356145fa81614212565b5f8060208385031215614ccf575f80fd5b82356001600160401b0380821115614ce5575f80fd5b818501915085601f830112614cf8575f80fd5b813581811115614d06575f80fd5b8660208260051b8501011115614d1a575f80fd5b60209290920196919550909350505050565b5f60208083016020845280855180835260408601915060408160051b8701019250602087015f5b82811015614d8157603f19888603018452614d6f8583516149a8565b94509285019290850190600101614d53565b5092979650505050505050565b5f60a08284031215614d9e575f80fd5b614da661419e565b90508135614db381614212565b8152602082810135908201526040820135614dcd81614236565b60408201526060820135614de081614236565b606082015260808201356001600160401b03811115614dfd575f80fd5b614e09848285016146ef565b60808301525092915050565b5f60208284031215614e25575f80fd5b81356001600160401b0380821115614e3b575f80fd5b9083019060408286031215614e4e575f80fd5b614e5661417c565b823582811115614e64575f80fd5b614e7087828601614d8e565b82525060208301359250614e8383614212565b6020810192909252509392505050565b5f60e08284031215614391575f80fd5b5f6101208284031215614391575f80fd5b5f60c08284031215614391575f80fd5b5f805f805f6102808688031215614ed9575f80fd5b8535614ee481614212565b9450614ef38760208801614eb4565b9350614f028760e08801614b63565b9250614f128761018088016143b1565b9150614f22876101c08801614eb4565b90509295509295909350565b5f60208284031215614391575f80fd5b5f60208284031215614f4e575f80fd5b6110ec8383614f2e565b5f60608284031215614f68575f80fd5b614f7061415a565b90508135614f7d81614212565b815260208281013590820152604082013561456a81614212565b5f60808284031215614fa7575f80fd5b614faf61417c565b9050614fbb8383614f58565b815260608201356148ba81614212565b5f60808284031215614fdb575f80fd5b6110ec8383614f97565b5f6101408284031215614391575f80fd5b60018060a01b0381511682526020810151602083015260408101516040830152606081015160608301526080810151608083015260a081015160a083015260c0810151151560c083015260e081015160e083015261010080820151611376828501826001600160a01b03169052565b82815261014081016110ec6020830184614ff6565b5f6080828403121561508a575f80fd5b604051608081018181106001600160401b03821117156150ac576150ac61411d565b806040525080915082516150bf81614212565b815260208301516150cf81614236565b8060208301525060408301516040820152606083015160608201525092915050565b5f6101408284031215615102575f80fd5b60405160e081018181106001600160401b03821117156151245761512461411d565b604052615131848461507a565b8152608083015161514181614212565b8060208301525060a0830151604082015260c0830151606082015260e0830151608082015261010083015160a082015261012083015160c08201528091505092915050565b5f608082019050838252823560208301526020830135604083015260408301356151af81614212565b6001600160a01b03166060929092019190915292915050565b828152604060208201525f8235601e198436030181126151e6575f80fd5b83016020810190356001600160401b03811115615201575f80fd5b80360382131561520f575f80fd5b604080850152806080850152808260a08601375f60a082860101526020850135606085015260a0601f19601f830116850101925050509392505050565b5f6020828403121561525c575f80fd5b81516110ec81614212565b5f60608284031215615277575f80fd5b6110ec8383614f58565b5f60208284031215615291575f80fd5b8151600381106110ec575f80fd5b634e487b7160e01b5f52601160045260245ffd5b81810381811115610d5d57610d5d61529f565b5f826152e057634e487b7160e01b5f52601260045260245ffd5b500490565b5f60c082840312156152f5575f80fd5b6152fd6141c0565b825181526020830151602082015260408301516040820152606083015160608201526080830151608082015260a083015161533781614212565b60a08201529392505050565b5f60208284031215615353575f80fd5b5051919050565b5f610d5d368361475b565b615370828251614ff6565b60208101516001600160a01b039081166101208401526040909101511661014090910152565b82815261018081016110ec6020830184615365565b918252805180516020808501919091528082015160408086019190915290910151606084015201516001600160a01b0316608082015260a00190565b5f8151606084526153fb60608501826149e5565b602084810151868303878301528051808452908201935090915f91908301905b8083101561543b578451825293830193600192909201919083019061541b565b5060408601519350868103604088015261545581856149e5565b979650505050505050565b5f81516040845280516040850152602081015190506040606085015261548960808501826153e7565b6020938401516001600160a01b0316949093019390935250919050565b828152604060208201525f61333b6040830184615460565b5f610d5d3683614d8e565b5f60a082840312156154d9575f80fd5b6154e161419e565b82518152602083015160208201526040830151604082015260608301516060820152608083015160808201528091505092915050565b6001600160401b03811681146110dd575f80fd5b5f6040828403121561553b575f80fd5b61554361417c565b825161554e81614212565b815260208301516145fa81615517565b5f60608201905083825282356020830152602083013561557d81614212565b6001600160a01b03166040929092019190915292915050565b5f606082840312156155a6575f80fd5b6110ec8383614590565b5f61012082840312156155c1575f80fd5b6155c96141c0565b6155d3848461507a565b81526080830151602082015260a0830151604082015260c0830151606082015260e0830151608082015261010083015160a08201528091505092915050565b5f61018082019050838252825161565860208401825180518252602081015160208301526040810151604083015260608101516060830152608081015160808301525050565b602090810151805160c08501528082015160e0850152604081015161010085015260608101516101208501526080015161014084015292909201516001600160a01b031661016090910152919050565b828152604060208201525f825160408084015260018060a01b03808251166080850152602082015160a08501526040820151151560c08501526060820151151560e08501526080820151915060a061010085015261570a6101208501836149e5565b915080602086015116606085015250809150509392505050565b80358252602081013561573681614212565b6001600160a01b03908116602084015260408281013590840152606080830135908401526080808301359084015260a0828101359084015260c08201359061577d82614212565b80821660c085015250505050565b82815261010081016110ec6020830184615724565b5f80604083850312156157b1575f80fd5b505080516020909101519092909150565b83815261012081016157d76020830185615724565b82610100830152949350505050565b828152608081016110ec60208301848035825260208082013590830152604090810135910152565b83815260a0810161583660208301858035825260208082013590830152604090810135910152565b826080830152949350505050565b5f60208284031215615854575f80fd5b81516110ec81614236565b803582526020810135602083015260408101356040830152606081013560608301526080810135608083015260a081013561589981614212565b6001600160a01b031660a0929092019190915250565b80356158ba81614212565b6001600160a01b0316825260208101356158d381615517565b6001600160401b0381166020840152505050565b80356158f281614212565b6001600160a01b03908116835260208201359061590e82614212565b908116602084015260408201359061592582614212565b908116604084015260608201359061593c82614212565b908116606084015260808201359061595382614212565b908116608084015260a08201359061596a82614212565b80821660a085015250505050565b8681526001600160a01b03861660208201526102a0810161599c604083018761585f565b843561010083015260208501356101208301526040850135610140830152606085013561016083015260808501356101808301526159de6101a08301856158af565b6154556101e08301846158e7565b8581526102808101615a01602083018761585f565b843560e08301526020850135610100830152604085013561012083015260608501356101408301526080850135610160830152615a426101808301856158af565b613cb76101c08301846158e7565b82815260a081016110ec6020830184805180516001600160a01b0390811684526020808301518186015260409283015182169285019290925291015116606090910152565b5f6101408284031215615aa6575f80fd5b6110ec8383614c56565b5f60208284031215615ac0575f80fd5b6110ec83836148f6565b600181815b80851115615b0457815f1904821115615aea57615aea61529f565b80851615615af757918102915b93841c9390800290615acf565b509250929050565b5f82615b1a57506001610d5d565b81615b2657505f610d5d565b8160018114615b3c5760028114615b4657615b62565b6001915050610d5d565b60ff841115615b5757615b5761529f565b50506001821b610d5d565b5060208310610133831016604e8410600b8410161715615b85575081810a610d5d565b615b8f8383615aca565b805f1904821115615ba257615ba261529f565b029392505050565b5f6110ec8383615b0c565b8082028115828204841417610d5d57610d5d61529f565b5f60208284031215615bdc575f80fd5b815160ff811681146110ec575f80fd5b5f6110ec60ff841683615b0c565b634e487b7160e01b5f52603260045260245ffd5b5f808335601e19843603018112615c23575f80fd5b8301803591506001600160401b03821115615c3c575f80fd5b602001915036819003821315615c50575f80fd5b9250929050565b80820180821115610d5d57610d5d61529f565b60a081525f615c7c60a08301866153e7565b90506001600160801b03845116602083015260208401516001600160401b0380821660408501528060408701511660608501525050826080830152949350505050565b5f8251615cd0818460208701614986565b919091019291505056fe360894a13ba1a3210667c828492db98dca3e2076cc3735a920a3ca505d382bbc02dd7bc7dec4dceedda775e58dd541e08a116c6c53815c0bd028192f7b626800cd5ed15c6e187e77e9aee88184c21f4f2182ab5827cb3b7e07fbedcd63f03300a264697066735822122052e59a536bbceb0e0d46e1b4a877e2844a084a0e1f2946e9cc2b62b54948863764736f6c63430008170033",
    "linkReferences": {
      "src/market/libraries/LoanLibrary.sol": {
        "LoanLibrary": [
          {
            "start": 4637,
            "length": 20
          },
          {
            "start": 8281,
            "length": 20
          },
          {
            "start": 9866,
            "length": 20
          }
        ]
      },
      "src/market/libraries/OfferLibrary.sol": {
        "OfferLibrary": [
          {
            "start": 5019,
            "length": 20
          },
          {
            "start": 8211,
            "length": 20
          }
        ]
      },
      "src/market/libraries/RiskLibrary.sol": {
        "RiskLibrary": [
          {
            "start": 5605,
            "length": 20
          },
          {
            "start": 5691,
            "length": 20
          },
          {
            "start": 6026,
            "length": 20
          },
          {
            "start": 9199,
            "length": 20
          },
          {
            "start": 10360,
            "length": 20
          },
          {
            "start": 10847,
            "length": 20
          },
          {
            "start": 11510,
            "length": 20
          }
        ]
      },
      "src/market/libraries/YieldCurveLibrary.sol": {
        "YieldCurveLibrary": [
          {
            "start": 15694,
            "length": 20
          }
        ]
      },
      "src/market/libraries/actions/BuyCreditLimit.sol": {
        "BuyCreditLimit": [
          {
            "start": 6953,
            "length": 20
          },
          {
            "start": 7052,
            "length": 20
          }
        ]
      },
      "src/market/libraries/actions/BuyCreditMarket.sol": {
        "BuyCreditMarket": [
          {
            "start": 3706,
            "length": 20
          },
          {
            "start": 8957,
            "length": 20
          },
          {
            "start": 9056,
            "length": 20
          }
        ]
      },
      "src/market/libraries/actions/Claim.sol": {
        "Claim": [
          {
            "start": 12262,
            "length": 20
          },
          {
            "start": 12361,
            "length": 20
          }
        ]
      },
      "src/market/libraries/actions/Compensate.sol": {
        "Compensate": [
          {
            "start": 5801,
            "length": 20
          },
          {
            "start": 5900,
            "length": 20
          }
        ]
      },
      "src/market/libraries/actions/CopyLimitOrders.sol": {
        "CopyLimitOrders": [
          {
            "start": 9626,
            "length": 20
          },
          {
            "start": 9725,
            "length": 20
          }
        ]
      },
      "src/market/libraries/actions/Deposit.sol": {
        "Deposit": [
          {
            "start": 12586,
            "length": 20
          },
          {
            "start": 12685,
            "length": 20
          }
        ]
      },
      "src/market/libraries/actions/Initialize.sol": {
        "Initialize": [
          {
            "start": 11777,
            "length": 20
          },
          {
            "start": 11910,
            "length": 20
          }
        ]
      },
      "src/market/libraries/actions/Liquidate.sol": {
        "Liquidate": [
          {
            "start": 11110,
            "length": 20
          },
          {
            "start": 11209,
            "length": 20
          },
          {
            "start": 11334,
            "length": 20
          }
        ]
      },
      "src/market/libraries/actions/LiquidateWithReplacement.sol": {
        "LiquidateWithReplacement": [
          {
            "start": 10635,
            "length": 20
          },
          {
            "start": 10734,
            "length": 20
          },
          {
            "start": 10990,
            "length": 20
          }
        ]
      },
      "src/market/libraries/actions/PartialRepay.sol": {
        "PartialRepay": [
          {
            "start": 3835,
            "length": 20
          },
          {
            "start": 3934,
            "length": 20
          }
        ]
      },
      "src/market/libraries/actions/Repay.sol": {
        "Repay": [
          {
            "start": 8792,
            "length": 20
          },
          {
            "start": 8890,
            "length": 20
          }
        ]
      },
      "src/market/libraries/actions/SelfLiquidate.sol": {
        "SelfLiquidate": [
          {
            "start": 6760,
            "length": 20
          },
          {
            "start": 6894,
            "length": 20
          }
        ]
      },
      "src/market/libraries/actions/SellCreditLimit.sol": {
        "SellCreditLimit": [
          {
            "start": 6519,
            "length": 20
          },
          {
            "start": 6618,
            "length": 20
          }
        ]
      },
      "src/market/libraries/actions/SellCreditMarket.sol": {
        "SellCreditMarket": [
          {
            "start": 5361,
            "length": 20
          },
          {
            "start": 5460,
            "length": 20
          },
          {
            "start": 9497,
            "length": 20
          }
        ]
      },
      "src/market/libraries/actions/SetUserConfiguration.sol": {
        "SetUserConfiguration": [
          {
            "start": 10178,
            "length": 20
          },
          {
            "start": 10277,
            "length": 20
          }
        ]
      },
      "src/market/libraries/actions/UpdateConfig.sol": {
        "UpdateConfig": [
          {
            "start": 4094,
            "length": 20
          },
          {
            "start": 4193,
            "length": 20
          },
          {
            "start": 4861,
            "length": 20
          },
          {
            "start": 8547,
            "length": 20
          },
          {
            "start": 8679,
            "length": 20
          }
        ]
      },
      "src/market/libraries/actions/Withdraw.sol": {
        "Withdraw": [
          {
            "start": 12420,
            "length": 20
          },
          {
            "start": 12519,
            "length": 20
          }
        ]
      }
    }
  },
  "methodIdentifiers": {
    "DEFAULT_ADMIN_ROLE()": "a217fddf",
    "UPGRADE_INTERFACE_VERSION()": "ad3cb1cc",
    "buyCreditLimit((uint256,(uint256[],int256[],uint256[])))": "3746f858",
    "buyCreditLimitOnBehalfOf(((uint256,(uint256[],int256[],uint256[])),address))": "53e043d4",
    "buyCreditMarket((address,uint256,uint256,uint256,uint256,uint256,bool,uint256,address))": "e236052b",
    "buyCreditMarketOnBehalfOf(((address,uint256,uint256,uint256,uint256,uint256,bool,uint256,address),address,address))": "834dafb5",
    "claim((uint256))": "f45bf01c",
    "collateralRatio(address)": "ca40742c",
    "compensate((uint256,uint256,uint256))": "8e572776",
    "compensateOnBehalfOf(((uint256,uint256,uint256),address))": "3ae6d7c3",
    "copyLimitOrders(((uint256,uint256,uint256,uint256,int256),(uint256,uint256,uint256,uint256,int256)))": "fb7fb2d9",
    "copyLimitOrdersOnBehalfOf((((uint256,uint256,uint256,uint256,int256),(uint256,uint256,uint256,uint256,int256)),address))": "9d92e758",
    "data()": "73d4a13a",
    "debtTokenAmountToCollateralTokenAmount(uint256)": "1970e5ea",
    "deposit((address,uint256,address))": "0cf8542f",
    "depositOnBehalfOf(((address,uint256,address),address))": "fa823af5",
    "feeConfig()": "1e5eb1d0",
    "getBorrowOfferAPR(address,uint256,address,uint256)": "1ff75b0b",
    "getBuyCreditMarketSwapData((address,uint256,uint256,uint256,uint256,uint256,bool,uint256,address))": "02088c51",
    "getCreditPosition(uint256)": "76c1b82f",
    "getDebtPosition(uint256)": "b5ec7487",
    "getLoanOfferAPR(address,uint256,address,uint256)": "73b683be",
    "getLoanStatus(uint256)": "1c4fd41c",
    "getPositionsCount()": "1ca3b0cb",
    "getRoleAdmin(bytes32)": "248a9ca3",
    "getSellCreditMarketSwapData((address,uint256,uint256,uint256,uint256,uint256,bool,uint256,address))": "9ab80115",
    "getUserDefinedBorrowOfferAPR(address,uint256)": "2b59bd99",
    "getUserDefinedCopyBorrowOfferConfig(address)": "c421a759",
    "getUserDefinedCopyLoanOfferConfig(address)": "04c84222",
    "getUserDefinedLoanOfferAPR(address,uint256)": "0d37ab00",
    "getUserView(address)": "5cbc51eb",
    "grantRole(bytes32,address)": "2f2ff15d",
    "hasRole(bytes32,address)": "91d14854",
    "initialize(address,(uint256,uint256,uint256,uint256,uint256,address),(uint256,uint256,uint256,uint256,uint256),(address,uint64),(address,address,address,address,address,address))": "f1bf35c3",
    "isCreditPositionId(uint256)": "ccc96815",
    "isDebtPositionId(uint256)": "64eb0a71",
    "isDebtPositionLiquidatable(uint256)": "e5af06ce",
    "liquidate((uint256,uint256,uint256))": "e05001f5",
    "liquidateWithReplacement((uint256,address,uint256,uint256,uint256,uint256,address))": "d927acef",
    "multicall(bytes[])": "ac9650d8",
    "oracle()": "7dc0d1d0",
    "partialRepay((uint256,uint256,address))": "02f2855a",
    "pause()": "8456cb59",
    "paused()": "5c975abb",
    "proxiableUUID()": "52d1902d",
    "renounceRole(bytes32,address)": "36568abe",
    "repay((uint256,address))": "7f417c06",
    "revokeRole(bytes32,address)": "d547741f",
    "riskConfig()": "7c90a6ca",
    "selfLiquidate((uint256))": "fd17174a",
    "selfLiquidateOnBehalfOf(((uint256),address,address))": "536b9c79",
    "sellCreditLimit((uint256,(uint256[],int256[],uint256[])))": "ccd8d4d1",
    "sellCreditLimitOnBehalfOf(((uint256,(uint256[],int256[],uint256[])),address))": "4fd9a8a5",
    "sellCreditMarket((address,uint256,uint256,uint256,uint256,uint256,bool,uint256,address))": "8ea68d7e",
    "sellCreditMarketOnBehalfOf(((address,uint256,uint256,uint256,uint256,uint256,bool,uint256,address),address,address))": "3962a686",
    "setUserConfiguration((address,uint256,bool,bool,uint256[]))": "780cafa8",
    "setUserConfigurationOnBehalfOf(((address,uint256,bool,bool,uint256[]),address))": "c7cd4d87",
    "setVariablePoolBorrowRate(uint128)": "4cbd882c",
    "sizeFactory()": "fa7a5b10",
    "supportsInterface(bytes4)": "01ffc9a7",
    "unpause()": "3f4ba83a",
    "updateConfig((string,uint256))": "0317b9df",
    "upgradeToAndCall(address,bytes)": "4f1ef286",
    "vaultOf(address)": "0709df45",
    "version()": "54fd4d50",
    "withdraw((address,uint256,address))": "2b4c9a20",
    "withdrawOnBehalfOf(((address,uint256,address),address))": "f54ae18b"
  },
  "id": 282
}