{
  "abi": [
    {
      "type": "constructor",
      "inputs": [],
      "stateMutability": "nonpayable"
    },
    {
      "type": "function",
      "name": "DEFAULT_ADMIN_ROLE",
      "inputs": [],
      "outputs": [
        {
          "name": "",
          "type": "bytes32",
          "internalType": "bytes32"
        }
      ],
      "stateMutability": "view"
    },
    {
      "type": "function",
      "name": "UPGRADE_INTERFACE_VERSION",
      "inputs": [],
      "outputs": [
        {
          "name": "",
          "type": "string",
          "internalType": "string"
        }
      ],
      "stateMutability": "view"
    },
    {
      "type": "function",
      "name": "buyCreditLimit",
      "inputs": [
        {
          "name": "params",
          "type": "tuple",
          "internalType": "struct BuyCreditLimitParams",
          "components": [
            {
              "name": "maxDueDate",
              "type": "uint256",
              "internalType": "uint256"
            },
            {
              "name": "curveRelativeTime",
              "type": "tuple",
              "internalType": "struct YieldCurve",
              "components": [
                {
                  "name": "tenors",
                  "type": "uint256[]",
                  "internalType": "uint256[]"
                },
                {
                  "name": "aprs",
                  "type": "int256[]",
                  "internalType": "int256[]"
                },
                {
                  "name": "marketRateMultipliers",
                  "type": "uint256[]",
                  "internalType": "uint256[]"
                }
              ]
            }
          ]
        }
      ],
      "outputs": [],
      "stateMutability": "payable"
    },
    {
      "type": "function",
      "name": "buyCreditLimitOnBehalfOf",
      "inputs": [
        {
          "name": "externalParams",
          "type": "tuple",
          "internalType": "struct BuyCreditLimitOnBehalfOfParams",
          "components": [
            {
              "name": "params",
              "type": "tuple",
              "internalType": "struct BuyCreditLimitParams",
              "components": [
                {
                  "name": "maxDueDate",
                  "type": "uint256",
                  "internalType": "uint256"
                },
                {
                  "name": "curveRelativeTime",
                  "type": "tuple",
                  "internalType": "struct YieldCurve",
                  "components": [
                    {
                      "name": "tenors",
                      "type": "uint256[]",
                      "internalType": "uint256[]"
                    },
                    {
                      "name": "aprs",
                      "type": "int256[]",
                      "internalType": "int256[]"
                    },
                    {
                      "name": "marketRateMultipliers",
                      "type": "uint256[]",
                      "internalType": "uint256[]"
                    }
                  ]
                }
              ]
            },
            {
              "name": "onBehalfOf",
              "type": "address",
              "internalType": "address"
            }
          ]
        }
      ],
      "outputs": [],
      "stateMutability": "payable"
    },
    {
      "type": "function",
      "name": "buyCreditMarket",
      "inputs": [
        {
          "name": "params",
          "type": "tuple",
          "internalType": "struct BuyCreditMarketParams",
          "components": [
            {
              "name": "borrower",
              "type": "address",
              "internalType": "address"
            },
            {
              "name": "creditPositionId",
              "type": "uint256",
              "internalType": "uint256"
            },
            {
              "name": "amount",
              "type": "uint256",
              "internalType": "uint256"
            },
            {
              "name": "tenor",
              "type": "uint256",
              "internalType": "uint256"
            },
            {
              "name": "deadline",
              "type": "uint256",
              "internalType": "uint256"
            },
            {
              "name": "minAPR",
              "type": "uint256",
              "internalType": "uint256"
            },
            {
              "name": "exactAmountIn",
              "type": "bool",
              "internalType": "bool"
            }
          ]
        }
      ],
      "outputs": [],
      "stateMutability": "payable"
    },
    {
      "type": "function",
      "name": "buyCreditMarketOnBehalfOf",
      "inputs": [
        {
          "name": "externalParams",
          "type": "tuple",
          "internalType": "struct BuyCreditMarketOnBehalfOfParams",
          "components": [
            {
              "name": "withCollectionParams",
              "type": "tuple",
              "internalType": "struct BuyCreditMarketWithCollectionParams",
              "components": [
                {
                  "name": "params",
                  "type": "tuple",
                  "internalType": "struct BuyCreditMarketParams",
                  "components": [
                    {
                      "name": "borrower",
                      "type": "address",
                      "internalType": "address"
                    },
                    {
                      "name": "creditPositionId",
                      "type": "uint256",
                      "internalType": "uint256"
                    },
                    {
                      "name": "amount",
                      "type": "uint256",
                      "internalType": "uint256"
                    },
                    {
                      "name": "tenor",
                      "type": "uint256",
                      "internalType": "uint256"
                    },
                    {
                      "name": "deadline",
                      "type": "uint256",
                      "internalType": "uint256"
                    },
                    {
                      "name": "minAPR",
                      "type": "uint256",
                      "internalType": "uint256"
                    },
                    {
                      "name": "exactAmountIn",
                      "type": "bool",
                      "internalType": "bool"
                    }
                  ]
                },
                {
                  "name": "collectionId",
                  "type": "uint256",
                  "internalType": "uint256"
                },
                {
                  "name": "rateProvider",
                  "type": "address",
                  "internalType": "address"
                }
              ]
            },
            {
              "name": "onBehalfOf",
              "type": "address",
              "internalType": "address"
            },
            {
              "name": "recipient",
              "type": "address",
              "internalType": "address"
            }
          ]
        }
      ],
      "outputs": [],
      "stateMutability": "payable"
    },
    {
      "type": "function",
      "name": "claim",
      "inputs": [
        {
          "name": "params",
          "type": "tuple",
          "internalType": "struct ClaimParams",
          "components": [
            {
              "name": "creditPositionId",
              "type": "uint256",
              "internalType": "uint256"
            }
          ]
        }
      ],
      "outputs": [],
      "stateMutability": "payable"
    },
    {
      "type": "function",
      "name": "collateralRatio",
      "inputs": [
        {
          "name": "user",
          "type": "address",
          "internalType": "address"
        }
      ],
      "outputs": [
        {
          "name": "",
          "type": "uint256",
          "internalType": "uint256"
        }
      ],
      "stateMutability": "view"
    },
    {
      "type": "function",
      "name": "compensate",
      "inputs": [
        {
          "name": "params",
          "type": "tuple",
          "internalType": "struct CompensateParams",
          "components": [
            {
              "name": "creditPositionWithDebtToRepayId",
              "type": "uint256",
              "internalType": "uint256"
            },
            {
              "name": "creditPositionToCompensateId",
              "type": "uint256",
              "internalType": "uint256"
            },
            {
              "name": "amount",
              "type": "uint256",
              "internalType": "uint256"
            }
          ]
        }
      ],
      "outputs": [],
      "stateMutability": "payable"
    },
    {
      "type": "function",
      "name": "compensateOnBehalfOf",
      "inputs": [
        {
          "name": "externalParams",
          "type": "tuple",
          "internalType": "struct CompensateOnBehalfOfParams",
          "components": [
            {
              "name": "params",
              "type": "tuple",
              "internalType": "struct CompensateParams",
              "components": [
                {
                  "name": "creditPositionWithDebtToRepayId",
                  "type": "uint256",
                  "internalType": "uint256"
                },
                {
                  "name": "creditPositionToCompensateId",
                  "type": "uint256",
                  "internalType": "uint256"
                },
                {
                  "name": "amount",
                  "type": "uint256",
                  "internalType": "uint256"
                }
              ]
            },
            {
              "name": "onBehalfOf",
              "type": "address",
              "internalType": "address"
            }
          ]
        }
      ],
      "outputs": [],
      "stateMutability": "payable"
    },
    {
      "type": "function",
      "name": "copyLimitOrders",
      "inputs": [
        {
          "name": "params",
          "type": "tuple",
          "internalType": "struct CopyLimitOrdersParams",
          "components": [
            {
              "name": "copyLoanOfferConfig",
              "type": "tuple",
              "internalType": "struct CopyLimitOrderConfig",
              "components": [
                {
                  "name": "minTenor",
                  "type": "uint256",
                  "internalType": "uint256"
                },
                {
                  "name": "maxTenor",
                  "type": "uint256",
                  "internalType": "uint256"
                },
                {
                  "name": "minAPR",
                  "type": "uint256",
                  "internalType": "uint256"
                },
                {
                  "name": "maxAPR",
                  "type": "uint256",
                  "internalType": "uint256"
                },
                {
                  "name": "offsetAPR",
                  "type": "int256",
                  "internalType": "int256"
                }
              ]
            },
            {
              "name": "copyBorrowOfferConfig",
              "type": "tuple",
              "internalType": "struct CopyLimitOrderConfig",
              "components": [
                {
                  "name": "minTenor",
                  "type": "uint256",
                  "internalType": "uint256"
                },
                {
                  "name": "maxTenor",
                  "type": "uint256",
                  "internalType": "uint256"
                },
                {
                  "name": "minAPR",
                  "type": "uint256",
                  "internalType": "uint256"
                },
                {
                  "name": "maxAPR",
                  "type": "uint256",
                  "internalType": "uint256"
                },
                {
                  "name": "offsetAPR",
                  "type": "int256",
                  "internalType": "int256"
                }
              ]
            }
          ]
        }
      ],
      "outputs": [],
      "stateMutability": "payable"
    },
    {
      "type": "function",
      "name": "copyLimitOrdersOnBehalfOf",
      "inputs": [
        {
          "name": "externalParams",
          "type": "tuple",
          "internalType": "struct CopyLimitOrdersOnBehalfOfParams",
          "components": [
            {
              "name": "params",
              "type": "tuple",
              "internalType": "struct CopyLimitOrdersParams",
              "components": [
                {
                  "name": "copyLoanOfferConfig",
                  "type": "tuple",
                  "internalType": "struct CopyLimitOrderConfig",
                  "components": [
                    {
                      "name": "minTenor",
                      "type": "uint256",
                      "internalType": "uint256"
                    },
                    {
                      "name": "maxTenor",
                      "type": "uint256",
                      "internalType": "uint256"
                    },
                    {
                      "name": "minAPR",
                      "type": "uint256",
                      "internalType": "uint256"
                    },
                    {
                      "name": "maxAPR",
                      "type": "uint256",
                      "internalType": "uint256"
                    },
                    {
                      "name": "offsetAPR",
                      "type": "int256",
                      "internalType": "int256"
                    }
                  ]
                },
                {
                  "name": "copyBorrowOfferConfig",
                  "type": "tuple",
                  "internalType": "struct CopyLimitOrderConfig",
                  "components": [
                    {
                      "name": "minTenor",
                      "type": "uint256",
                      "internalType": "uint256"
                    },
                    {
                      "name": "maxTenor",
                      "type": "uint256",
                      "internalType": "uint256"
                    },
                    {
                      "name": "minAPR",
                      "type": "uint256",
                      "internalType": "uint256"
                    },
                    {
                      "name": "maxAPR",
                      "type": "uint256",
                      "internalType": "uint256"
                    },
                    {
                      "name": "offsetAPR",
                      "type": "int256",
                      "internalType": "int256"
                    }
                  ]
                }
              ]
            },
            {
              "name": "onBehalfOf",
              "type": "address",
              "internalType": "address"
            }
          ]
        }
      ],
      "outputs": [],
      "stateMutability": "payable"
    },
    {
      "type": "function",
      "name": "data",
      "inputs": [],
      "outputs": [
        {
          "name": "",
          "type": "tuple",
          "internalType": "struct DataView",
          "components": [
            {
              "name": "nextDebtPositionId",
              "type": "uint256",
              "internalType": "uint256"
            },
            {
              "name": "nextCreditPositionId",
              "type": "uint256",
              "internalType": "uint256"
            },
            {
              "name": "underlyingCollateralToken",
              "type": "address",
              "internalType": "contract IERC20Metadata"
            },
            {
              "name": "underlyingBorrowToken",
              "type": "address",
              "internalType": "contract IERC20Metadata"
            },
            {
              "name": "collateralToken",
              "type": "address",
              "internalType": "contract NonTransferrableToken"
            },
            {
              "name": "borrowTokenVault",
              "type": "address",
              "internalType": "contract NonTransferrableRebasingTokenVault"
            },
            {
              "name": "debtToken",
              "type": "address",
              "internalType": "contract NonTransferrableToken"
            },
            {
              "name": "variablePool",
              "type": "address",
              "internalType": "contract IPool"
            }
          ]
        }
      ],
      "stateMutability": "view"
    },
    {
      "type": "function",
      "name": "debtTokenAmountToCollateralTokenAmount",
      "inputs": [
        {
          "name": "amount",
          "type": "uint256",
          "internalType": "uint256"
        }
      ],
      "outputs": [
        {
          "name": "",
          "type": "uint256",
          "internalType": "uint256"
        }
      ],
      "stateMutability": "view"
    },
    {
      "type": "function",
      "name": "deposit",
      "inputs": [
        {
          "name": "params",
          "type": "tuple",
          "internalType": "struct DepositParams",
          "components": [
            {
              "name": "token",
              "type": "address",
              "internalType": "address"
            },
            {
              "name": "amount",
              "type": "uint256",
              "internalType": "uint256"
            },
            {
              "name": "to",
              "type": "address",
              "internalType": "address"
            }
          ]
        }
      ],
      "outputs": [],
      "stateMutability": "payable"
    },
    {
      "type": "function",
      "name": "depositOnBehalfOf",
      "inputs": [
        {
          "name": "params",
          "type": "tuple",
          "internalType": "struct DepositOnBehalfOfParams",
          "components": [
            {
              "name": "params",
              "type": "tuple",
              "internalType": "struct DepositParams",
              "components": [
                {
                  "name": "token",
                  "type": "address",
                  "internalType": "address"
                },
                {
                  "name": "amount",
                  "type": "uint256",
                  "internalType": "uint256"
                },
                {
                  "name": "to",
                  "type": "address",
                  "internalType": "address"
                }
              ]
            },
            {
              "name": "onBehalfOf",
              "type": "address",
              "internalType": "address"
            }
          ]
        }
      ],
      "outputs": [],
      "stateMutability": "payable"
    },
    {
      "type": "function",
      "name": "feeConfig",
      "inputs": [],
      "outputs": [
        {
          "name": "",
          "type": "tuple",
          "internalType": "struct InitializeFeeConfigParams",
          "components": [
            {
              "name": "swapFeeAPR",
              "type": "uint256",
              "internalType": "uint256"
            },
            {
              "name": "fragmentationFee",
              "type": "uint256",
              "internalType": "uint256"
            },
            {
              "name": "liquidationRewardPercent",
              "type": "uint256",
              "internalType": "uint256"
            },
            {
              "name": "overdueCollateralProtocolPercent",
              "type": "uint256",
              "internalType": "uint256"
            },
            {
              "name": "collateralProtocolPercent",
              "type": "uint256",
              "internalType": "uint256"
            },
            {
              "name": "feeRecipient",
              "type": "address",
              "internalType": "address"
            }
          ]
        }
      ],
      "stateMutability": "view"
    },
    {
      "type": "function",
      "name": "getBorrowOfferAPR",
      "inputs": [
        {
          "name": "user",
          "type": "address",
          "internalType": "address"
        },
        {
          "name": "collectionId",
          "type": "uint256",
          "internalType": "uint256"
        },
        {
          "name": "rateProvider",
          "type": "address",
          "internalType": "address"
        },
        {
          "name": "tenor",
          "type": "uint256",
          "internalType": "uint256"
        }
      ],
      "outputs": [
        {
          "name": "",
          "type": "uint256",
          "internalType": "uint256"
        }
      ],
      "stateMutability": "view"
    },
    {
      "type": "function",
      "name": "getBuyCreditMarketSwapData",
      "inputs": [
        {
          "name": "withCollectionParams",
          "type": "tuple",
          "internalType": "struct BuyCreditMarketWithCollectionParams",
          "components": [
            {
              "name": "params",
              "type": "tuple",
              "internalType": "struct BuyCreditMarketParams",
              "components": [
                {
                  "name": "borrower",
                  "type": "address",
                  "internalType": "address"
                },
                {
                  "name": "creditPositionId",
                  "type": "uint256",
                  "internalType": "uint256"
                },
                {
                  "name": "amount",
                  "type": "uint256",
                  "internalType": "uint256"
                },
                {
                  "name": "tenor",
                  "type": "uint256",
                  "internalType": "uint256"
                },
                {
                  "name": "deadline",
                  "type": "uint256",
                  "internalType": "uint256"
                },
                {
                  "name": "minAPR",
                  "type": "uint256",
                  "internalType": "uint256"
                },
                {
                  "name": "exactAmountIn",
                  "type": "bool",
                  "internalType": "bool"
                }
              ]
            },
            {
              "name": "collectionId",
              "type": "uint256",
              "internalType": "uint256"
            },
            {
              "name": "rateProvider",
              "type": "address",
              "internalType": "address"
            }
          ]
        }
      ],
      "outputs": [
        {
          "name": "",
          "type": "tuple",
          "internalType": "struct BuyCreditMarket.SwapDataBuyCreditMarket",
          "components": [
            {
              "name": "creditPosition",
              "type": "tuple",
              "internalType": "struct CreditPosition",
              "components": [
                {
                  "name": "lender",
                  "type": "address",
                  "internalType": "address"
                },
                {
                  "name": "forSale",
                  "type": "bool",
                  "internalType": "bool"
                },
                {
                  "name": "credit",
                  "type": "uint256",
                  "internalType": "uint256"
                },
                {
                  "name": "debtPositionId",
                  "type": "uint256",
                  "internalType": "uint256"
                }
              ]
            },
            {
              "name": "borrower",
              "type": "address",
              "internalType": "address"
            },
            {
              "name": "creditAmountOut",
              "type": "uint256",
              "internalType": "uint256"
            },
            {
              "name": "cashAmountIn",
              "type": "uint256",
              "internalType": "uint256"
            },
            {
              "name": "swapFee",
              "type": "uint256",
              "internalType": "uint256"
            },
            {
              "name": "fragmentationFee",
              "type": "uint256",
              "internalType": "uint256"
            },
            {
              "name": "tenor",
              "type": "uint256",
              "internalType": "uint256"
            }
          ]
        }
      ],
      "stateMutability": "view"
    },
    {
      "type": "function",
      "name": "getCreditPosition",
      "inputs": [
        {
          "name": "creditPositionId",
          "type": "uint256",
          "internalType": "uint256"
        }
      ],
      "outputs": [
        {
          "name": "",
          "type": "tuple",
          "internalType": "struct CreditPosition",
          "components": [
            {
              "name": "lender",
              "type": "address",
              "internalType": "address"
            },
            {
              "name": "forSale",
              "type": "bool",
              "internalType": "bool"
            },
            {
              "name": "credit",
              "type": "uint256",
              "internalType": "uint256"
            },
            {
              "name": "debtPositionId",
              "type": "uint256",
              "internalType": "uint256"
            }
          ]
        }
      ],
      "stateMutability": "view"
    },
    {
      "type": "function",
      "name": "getDebtPosition",
      "inputs": [
        {
          "name": "debtPositionId",
          "type": "uint256",
          "internalType": "uint256"
        }
      ],
      "outputs": [
        {
          "name": "",
          "type": "tuple",
          "internalType": "struct DebtPosition",
          "components": [
            {
              "name": "borrower",
              "type": "address",
              "internalType": "address"
            },
            {
              "name": "futureValue",
              "type": "uint256",
              "internalType": "uint256"
            },
            {
              "name": "dueDate",
              "type": "uint256",
              "internalType": "uint256"
            },
            {
              "name": "liquidityIndexAtRepayment",
              "type": "uint256",
              "internalType": "uint256"
            }
          ]
        }
      ],
      "stateMutability": "view"
    },
    {
      "type": "function",
      "name": "getLoanOfferAPR",
      "inputs": [
        {
          "name": "user",
          "type": "address",
          "internalType": "address"
        },
        {
          "name": "collectionId",
          "type": "uint256",
          "internalType": "uint256"
        },
        {
          "name": "rateProvider",
          "type": "address",
          "internalType": "address"
        },
        {
          "name": "tenor",
          "type": "uint256",
          "internalType": "uint256"
        }
      ],
      "outputs": [
        {
          "name": "",
          "type": "uint256",
          "internalType": "uint256"
        }
      ],
      "stateMutability": "view"
    },
    {
      "type": "function",
      "name": "getLoanStatus",
      "inputs": [
        {
          "name": "positionId",
          "type": "uint256",
          "internalType": "uint256"
        }
      ],
      "outputs": [
        {
          "name": "",
          "type": "uint8",
          "internalType": "enum LoanStatus"
        }
      ],
      "stateMutability": "view"
    },
    {
      "type": "function",
      "name": "getPositionsCount",
      "inputs": [],
      "outputs": [
        {
          "name": "",
          "type": "uint256",
          "internalType": "uint256"
        },
        {
          "name": "",
          "type": "uint256",
          "internalType": "uint256"
        }
      ],
      "stateMutability": "view"
    },
    {
      "type": "function",
      "name": "getRoleAdmin",
      "inputs": [
        {
          "name": "role",
          "type": "bytes32",
          "internalType": "bytes32"
        }
      ],
      "outputs": [
        {
          "name": "",
          "type": "bytes32",
          "internalType": "bytes32"
        }
      ],
      "stateMutability": "view"
    },
    {
      "type": "function",
      "name": "getSellCreditMarketSwapData",
      "inputs": [
        {
          "name": "withCollectionParams",
          "type": "tuple",
          "internalType": "struct SellCreditMarketWithCollectionParams",
          "components": [
            {
              "name": "params",
              "type": "tuple",
              "internalType": "struct SellCreditMarketParams",
              "components": [
                {
                  "name": "lender",
                  "type": "address",
                  "internalType": "address"
                },
                {
                  "name": "creditPositionId",
                  "type": "uint256",
                  "internalType": "uint256"
                },
                {
                  "name": "amount",
                  "type": "uint256",
                  "internalType": "uint256"
                },
                {
                  "name": "tenor",
                  "type": "uint256",
                  "internalType": "uint256"
                },
                {
                  "name": "deadline",
                  "type": "uint256",
                  "internalType": "uint256"
                },
                {
                  "name": "maxAPR",
                  "type": "uint256",
                  "internalType": "uint256"
                },
                {
                  "name": "exactAmountIn",
                  "type": "bool",
                  "internalType": "bool"
                }
              ]
            },
            {
              "name": "collectionId",
              "type": "uint256",
              "internalType": "uint256"
            },
            {
              "name": "rateProvider",
              "type": "address",
              "internalType": "address"
            }
          ]
        }
      ],
      "outputs": [
        {
          "name": "",
          "type": "tuple",
          "internalType": "struct SellCreditMarket.SwapDataSellCreditMarket",
          "components": [
            {
              "name": "creditPosition",
              "type": "tuple",
              "internalType": "struct CreditPosition",
              "components": [
                {
                  "name": "lender",
                  "type": "address",
                  "internalType": "address"
                },
                {
                  "name": "forSale",
                  "type": "bool",
                  "internalType": "bool"
                },
                {
                  "name": "credit",
                  "type": "uint256",
                  "internalType": "uint256"
                },
                {
                  "name": "debtPositionId",
                  "type": "uint256",
                  "internalType": "uint256"
                }
              ]
            },
            {
              "name": "creditAmountIn",
              "type": "uint256",
              "internalType": "uint256"
            },
            {
              "name": "cashAmountOut",
              "type": "uint256",
              "internalType": "uint256"
            },
            {
              "name": "swapFee",
              "type": "uint256",
              "internalType": "uint256"
            },
            {
              "name": "fragmentationFee",
              "type": "uint256",
              "internalType": "uint256"
            },
            {
              "name": "tenor",
              "type": "uint256",
              "internalType": "uint256"
            }
          ]
        }
      ],
      "stateMutability": "view"
    },
    {
      "type": "function",
      "name": "getUserDefinedBorrowOfferAPR",
      "inputs": [
        {
          "name": "borrower",
          "type": "address",
          "internalType": "address"
        },
        {
          "name": "tenor",
          "type": "uint256",
          "internalType": "uint256"
        }
      ],
      "outputs": [
        {
          "name": "",
          "type": "uint256",
          "internalType": "uint256"
        }
      ],
      "stateMutability": "view"
    },
    {
      "type": "function",
      "name": "getUserDefinedCopyBorrowOfferConfig",
      "inputs": [
        {
          "name": "user",
          "type": "address",
          "internalType": "address"
        }
      ],
      "outputs": [
        {
          "name": "",
          "type": "tuple",
          "internalType": "struct CopyLimitOrderConfig",
          "components": [
            {
              "name": "minTenor",
              "type": "uint256",
              "internalType": "uint256"
            },
            {
              "name": "maxTenor",
              "type": "uint256",
              "internalType": "uint256"
            },
            {
              "name": "minAPR",
              "type": "uint256",
              "internalType": "uint256"
            },
            {
              "name": "maxAPR",
              "type": "uint256",
              "internalType": "uint256"
            },
            {
              "name": "offsetAPR",
              "type": "int256",
              "internalType": "int256"
            }
          ]
        }
      ],
      "stateMutability": "view"
    },
    {
      "type": "function",
      "name": "getUserDefinedCopyLoanOfferConfig",
      "inputs": [
        {
          "name": "user",
          "type": "address",
          "internalType": "address"
        }
      ],
      "outputs": [
        {
          "name": "",
          "type": "tuple",
          "internalType": "struct CopyLimitOrderConfig",
          "components": [
            {
              "name": "minTenor",
              "type": "uint256",
              "internalType": "uint256"
            },
            {
              "name": "maxTenor",
              "type": "uint256",
              "internalType": "uint256"
            },
            {
              "name": "minAPR",
              "type": "uint256",
              "internalType": "uint256"
            },
            {
              "name": "maxAPR",
              "type": "uint256",
              "internalType": "uint256"
            },
            {
              "name": "offsetAPR",
              "type": "int256",
              "internalType": "int256"
            }
          ]
        }
      ],
      "stateMutability": "view"
    },
    {
      "type": "function",
      "name": "getUserDefinedLoanOfferAPR",
      "inputs": [
        {
          "name": "lender",
          "type": "address",
          "internalType": "address"
        },
        {
          "name": "tenor",
          "type": "uint256",
          "internalType": "uint256"
        }
      ],
      "outputs": [
        {
          "name": "",
          "type": "uint256",
          "internalType": "uint256"
        }
      ],
      "stateMutability": "view"
    },
    {
      "type": "function",
      "name": "getUserView",
      "inputs": [
        {
          "name": "user",
          "type": "address",
          "internalType": "address"
        }
      ],
      "outputs": [
        {
          "name": "",
          "type": "tuple",
          "internalType": "struct UserView",
          "components": [
            {
              "name": "user",
              "type": "tuple",
              "internalType": "struct User",
              "components": [
                {
                  "name": "loanOffer",
                  "type": "tuple",
                  "internalType": "struct LimitOrder",
                  "components": [
                    {
                      "name": "maxDueDate",
                      "type": "uint256",
                      "internalType": "uint256"
                    },
                    {
                      "name": "curveRelativeTime",
                      "type": "tuple",
                      "internalType": "struct YieldCurve",
                      "components": [
                        {
                          "name": "tenors",
                          "type": "uint256[]",
                          "internalType": "uint256[]"
                        },
                        {
                          "name": "aprs",
                          "type": "int256[]",
                          "internalType": "int256[]"
                        },
                        {
                          "name": "marketRateMultipliers",
                          "type": "uint256[]",
                          "internalType": "uint256[]"
                        }
                      ]
                    }
                  ]
                },
                {
                  "name": "borrowOffer",
                  "type": "tuple",
                  "internalType": "struct LimitOrder",
                  "components": [
                    {
                      "name": "maxDueDate",
                      "type": "uint256",
                      "internalType": "uint256"
                    },
                    {
                      "name": "curveRelativeTime",
                      "type": "tuple",
                      "internalType": "struct YieldCurve",
                      "components": [
                        {
                          "name": "tenors",
                          "type": "uint256[]",
                          "internalType": "uint256[]"
                        },
                        {
                          "name": "aprs",
                          "type": "int256[]",
                          "internalType": "int256[]"
                        },
                        {
                          "name": "marketRateMultipliers",
                          "type": "uint256[]",
                          "internalType": "uint256[]"
                        }
                      ]
                    }
                  ]
                },
                {
                  "name": "openingLimitBorrowCR",
                  "type": "uint256",
                  "internalType": "uint256"
                },
                {
                  "name": "allCreditPositionsForSaleDisabled",
                  "type": "bool",
                  "internalType": "bool"
                }
              ]
            },
            {
              "name": "account",
              "type": "address",
              "internalType": "address"
            },
            {
              "name": "collateralTokenBalance",
              "type": "uint256",
              "internalType": "uint256"
            },
            {
              "name": "borrowTokenBalance",
              "type": "uint256",
              "internalType": "uint256"
            },
            {
              "name": "debtBalance",
              "type": "uint256",
              "internalType": "uint256"
            }
          ]
        }
      ],
      "stateMutability": "view"
    },
    {
      "type": "function",
      "name": "grantRole",
      "inputs": [
        {
          "name": "role",
          "type": "bytes32",
          "internalType": "bytes32"
        },
        {
          "name": "account",
          "type": "address",
          "internalType": "address"
        }
      ],
      "outputs": [],
      "stateMutability": "nonpayable"
    },
    {
      "type": "function",
      "name": "hasRole",
      "inputs": [
        {
          "name": "role",
          "type": "bytes32",
          "internalType": "bytes32"
        },
        {
          "name": "account",
          "type": "address",
          "internalType": "address"
        }
      ],
      "outputs": [
        {
          "name": "",
          "type": "bool",
          "internalType": "bool"
        }
      ],
      "stateMutability": "view"
    },
    {
      "type": "function",
      "name": "initialize",
      "inputs": [
        {
          "name": "owner",
          "type": "address",
          "internalType": "address"
        },
        {
          "name": "f",
          "type": "tuple",
          "internalType": "struct InitializeFeeConfigParams",
          "components": [
            {
              "name": "swapFeeAPR",
              "type": "uint256",
              "internalType": "uint256"
            },
            {
              "name": "fragmentationFee",
              "type": "uint256",
              "internalType": "uint256"
            },
            {
              "name": "liquidationRewardPercent",
              "type": "uint256",
              "internalType": "uint256"
            },
            {
              "name": "overdueCollateralProtocolPercent",
              "type": "uint256",
              "internalType": "uint256"
            },
            {
              "name": "collateralProtocolPercent",
              "type": "uint256",
              "internalType": "uint256"
            },
            {
              "name": "feeRecipient",
              "type": "address",
              "internalType": "address"
            }
          ]
        },
        {
          "name": "r",
          "type": "tuple",
          "internalType": "struct InitializeRiskConfigParams",
          "components": [
            {
              "name": "crOpening",
              "type": "uint256",
              "internalType": "uint256"
            },
            {
              "name": "crLiquidation",
              "type": "uint256",
              "internalType": "uint256"
            },
            {
              "name": "minimumCreditBorrowToken",
              "type": "uint256",
              "internalType": "uint256"
            },
            {
              "name": "minTenor",
              "type": "uint256",
              "internalType": "uint256"
            },
            {
              "name": "maxTenor",
              "type": "uint256",
              "internalType": "uint256"
            }
          ]
        },
        {
          "name": "o",
          "type": "tuple",
          "internalType": "struct InitializeOracleParams",
          "components": [
            {
              "name": "priceFeed",
              "type": "address",
              "internalType": "address"
            },
            {
              "name": "variablePoolBorrowRateStaleRateInterval",
              "type": "uint64",
              "internalType": "uint64"
            }
          ]
        },
        {
          "name": "d",
          "type": "tuple",
          "internalType": "struct InitializeDataParams",
          "components": [
            {
              "name": "weth",
              "type": "address",
              "internalType": "address"
            },
            {
              "name": "underlyingCollateralToken",
              "type": "address",
              "internalType": "address"
            },
            {
              "name": "underlyingBorrowToken",
              "type": "address",
              "internalType": "address"
            },
            {
              "name": "variablePool",
              "type": "address",
              "internalType": "address"
            },
            {
              "name": "borrowTokenVault",
              "type": "address",
              "internalType": "address"
            },
            {
              "name": "sizeFactory",
              "type": "address",
              "internalType": "address"
            }
          ]
        }
      ],
      "outputs": [],
      "stateMutability": "nonpayable"
    },
    {
      "type": "function",
      "name": "isCreditPositionId",
      "inputs": [
        {
          "name": "creditPositionId",
          "type": "uint256",
          "internalType": "uint256"
        }
      ],
      "outputs": [
        {
          "name": "",
          "type": "bool",
          "internalType": "bool"
        }
      ],
      "stateMutability": "view"
    },
    {
      "type": "function",
      "name": "isDebtPositionId",
      "inputs": [
        {
          "name": "debtPositionId",
          "type": "uint256",
          "internalType": "uint256"
        }
      ],
      "outputs": [
        {
          "name": "",
          "type": "bool",
          "internalType": "bool"
        }
      ],
      "stateMutability": "view"
    },
    {
      "type": "function",
      "name": "isDebtPositionLiquidatable",
      "inputs": [
        {
          "name": "debtPositionId",
          "type": "uint256",
          "internalType": "uint256"
        }
      ],
      "outputs": [
        {
          "name": "",
          "type": "bool",
          "internalType": "bool"
        }
      ],
      "stateMutability": "view"
    },
    {
      "type": "function",
      "name": "liquidate",
      "inputs": [
        {
          "name": "params",
          "type": "tuple",
          "internalType": "struct LiquidateParams",
          "components": [
            {
              "name": "debtPositionId",
              "type": "uint256",
              "internalType": "uint256"
            },
            {
              "name": "minimumCollateralProfit",
              "type": "uint256",
              "internalType": "uint256"
            },
            {
              "name": "deadline",
              "type": "uint256",
              "internalType": "uint256"
            }
          ]
        }
      ],
      "outputs": [
        {
          "name": "liquidatorProfitCollateralToken",
          "type": "uint256",
          "internalType": "uint256"
        }
      ],
      "stateMutability": "payable"
    },
    {
      "type": "function",
      "name": "liquidateWithReplacement",
      "inputs": [
        {
          "name": "params",
          "type": "tuple",
          "internalType": "struct LiquidateWithReplacementParams",
          "components": [
            {
              "name": "debtPositionId",
              "type": "uint256",
              "internalType": "uint256"
            },
            {
              "name": "borrower",
              "type": "address",
              "internalType": "address"
            },
            {
              "name": "minimumCollateralProfit",
              "type": "uint256",
              "internalType": "uint256"
            },
            {
              "name": "deadline",
              "type": "uint256",
              "internalType": "uint256"
            },
            {
              "name": "minAPR",
              "type": "uint256",
              "internalType": "uint256"
            }
          ]
        }
      ],
      "outputs": [
        {
          "name": "liquidatorProfitCollateralToken",
          "type": "uint256",
          "internalType": "uint256"
        },
        {
          "name": "liquidatorProfitBorrowToken",
          "type": "uint256",
          "internalType": "uint256"
        }
      ],
      "stateMutability": "payable"
    },
    {
      "type": "function",
      "name": "liquidateWithReplacementWithCollection",
      "inputs": [
        {
          "name": "withCollectionParams",
          "type": "tuple",
          "internalType": "struct LiquidateWithReplacementWithCollectionParams",
          "components": [
            {
              "name": "params",
              "type": "tuple",
              "internalType": "struct LiquidateWithReplacementParams",
              "components": [
                {
                  "name": "debtPositionId",
                  "type": "uint256",
                  "internalType": "uint256"
                },
                {
                  "name": "borrower",
                  "type": "address",
                  "internalType": "address"
                },
                {
                  "name": "minimumCollateralProfit",
                  "type": "uint256",
                  "internalType": "uint256"
                },
                {
                  "name": "deadline",
                  "type": "uint256",
                  "internalType": "uint256"
                },
                {
                  "name": "minAPR",
                  "type": "uint256",
                  "internalType": "uint256"
                }
              ]
            },
            {
              "name": "collectionId",
              "type": "uint256",
              "internalType": "uint256"
            },
            {
              "name": "rateProvider",
              "type": "address",
              "internalType": "address"
            }
          ]
        }
      ],
      "outputs": [
        {
          "name": "liquidatorProfitCollateralToken",
          "type": "uint256",
          "internalType": "uint256"
        },
        {
          "name": "liquidatorProfitBorrowToken",
          "type": "uint256",
          "internalType": "uint256"
        }
      ],
      "stateMutability": "payable"
    },
    {
      "type": "function",
      "name": "multicall",
      "inputs": [
        {
          "name": "_data",
          "type": "bytes[]",
          "internalType": "bytes[]"
        }
      ],
      "outputs": [
        {
          "name": "results",
          "type": "bytes[]",
          "internalType": "bytes[]"
        }
      ],
      "stateMutability": "payable"
    },
    {
      "type": "function",
      "name": "oracle",
      "inputs": [],
      "outputs": [
        {
          "name": "",
          "type": "tuple",
          "internalType": "struct InitializeOracleParams",
          "components": [
            {
              "name": "priceFeed",
              "type": "address",
              "internalType": "address"
            },
            {
              "name": "variablePoolBorrowRateStaleRateInterval",
              "type": "uint64",
              "internalType": "uint64"
            }
          ]
        }
      ],
      "stateMutability": "view"
    },
    {
      "type": "function",
      "name": "partialRepay",
      "inputs": [
        {
          "name": "params",
          "type": "tuple",
          "internalType": "struct PartialRepayParams",
          "components": [
            {
              "name": "creditPositionWithDebtToRepayId",
              "type": "uint256",
              "internalType": "uint256"
            },
            {
              "name": "amount",
              "type": "uint256",
              "internalType": "uint256"
            },
            {
              "name": "borrower",
              "type": "address",
              "internalType": "address"
            }
          ]
        }
      ],
      "outputs": [],
      "stateMutability": "payable"
    },
    {
      "type": "function",
      "name": "pause",
      "inputs": [],
      "outputs": [],
      "stateMutability": "nonpayable"
    },
    {
      "type": "function",
      "name": "paused",
      "inputs": [],
      "outputs": [
        {
          "name": "",
          "type": "bool",
          "internalType": "bool"
        }
      ],
      "stateMutability": "view"
    },
    {
      "type": "function",
      "name": "proxiableUUID",
      "inputs": [],
      "outputs": [
        {
          "name": "",
          "type": "bytes32",
          "internalType": "bytes32"
        }
      ],
      "stateMutability": "view"
    },
    {
      "type": "function",
      "name": "renounceRole",
      "inputs": [
        {
          "name": "role",
          "type": "bytes32",
          "internalType": "bytes32"
        },
        {
          "name": "callerConfirmation",
          "type": "address",
          "internalType": "address"
        }
      ],
      "outputs": [],
      "stateMutability": "nonpayable"
    },
    {
      "type": "function",
      "name": "repay",
      "inputs": [
        {
          "name": "params",
          "type": "tuple",
          "internalType": "struct RepayParams",
          "components": [
            {
              "name": "debtPositionId",
              "type": "uint256",
              "internalType": "uint256"
            },
            {
              "name": "borrower",
              "type": "address",
              "internalType": "address"
            }
          ]
        }
      ],
      "outputs": [],
      "stateMutability": "payable"
    },
    {
      "type": "function",
      "name": "revokeRole",
      "inputs": [
        {
          "name": "role",
          "type": "bytes32",
          "internalType": "bytes32"
        },
        {
          "name": "account",
          "type": "address",
          "internalType": "address"
        }
      ],
      "outputs": [],
      "stateMutability": "nonpayable"
    },
    {
      "type": "function",
      "name": "riskConfig",
      "inputs": [],
      "outputs": [
        {
          "name": "",
          "type": "tuple",
          "internalType": "struct InitializeRiskConfigParams",
          "components": [
            {
              "name": "crOpening",
              "type": "uint256",
              "internalType": "uint256"
            },
            {
              "name": "crLiquidation",
              "type": "uint256",
              "internalType": "uint256"
            },
            {
              "name": "minimumCreditBorrowToken",
              "type": "uint256",
              "internalType": "uint256"
            },
            {
              "name": "minTenor",
              "type": "uint256",
              "internalType": "uint256"
            },
            {
              "name": "maxTenor",
              "type": "uint256",
              "internalType": "uint256"
            }
          ]
        }
      ],
      "stateMutability": "view"
    },
    {
      "type": "function",
      "name": "selfLiquidate",
      "inputs": [
        {
          "name": "params",
          "type": "tuple",
          "internalType": "struct SelfLiquidateParams",
          "components": [
            {
              "name": "creditPositionId",
              "type": "uint256",
              "internalType": "uint256"
            }
          ]
        }
      ],
      "outputs": [],
      "stateMutability": "payable"
    },
    {
      "type": "function",
      "name": "selfLiquidateOnBehalfOf",
      "inputs": [
        {
          "name": "externalParams",
          "type": "tuple",
          "internalType": "struct SelfLiquidateOnBehalfOfParams",
          "components": [
            {
              "name": "params",
              "type": "tuple",
              "internalType": "struct SelfLiquidateParams",
              "components": [
                {
                  "name": "creditPositionId",
                  "type": "uint256",
                  "internalType": "uint256"
                }
              ]
            },
            {
              "name": "onBehalfOf",
              "type": "address",
              "internalType": "address"
            },
            {
              "name": "recipient",
              "type": "address",
              "internalType": "address"
            }
          ]
        }
      ],
      "outputs": [],
      "stateMutability": "payable"
    },
    {
      "type": "function",
      "name": "sellCreditLimit",
      "inputs": [
        {
          "name": "params",
          "type": "tuple",
          "internalType": "struct SellCreditLimitParams",
          "components": [
            {
              "name": "maxDueDate",
              "type": "uint256",
              "internalType": "uint256"
            },
            {
              "name": "curveRelativeTime",
              "type": "tuple",
              "internalType": "struct YieldCurve",
              "components": [
                {
                  "name": "tenors",
                  "type": "uint256[]",
                  "internalType": "uint256[]"
                },
                {
                  "name": "aprs",
                  "type": "int256[]",
                  "internalType": "int256[]"
                },
                {
                  "name": "marketRateMultipliers",
                  "type": "uint256[]",
                  "internalType": "uint256[]"
                }
              ]
            }
          ]
        }
      ],
      "outputs": [],
      "stateMutability": "payable"
    },
    {
      "type": "function",
      "name": "sellCreditLimitOnBehalfOf",
      "inputs": [
        {
          "name": "externalParams",
          "type": "tuple",
          "internalType": "struct SellCreditLimitOnBehalfOfParams",
          "components": [
            {
              "name": "params",
              "type": "tuple",
              "internalType": "struct SellCreditLimitParams",
              "components": [
                {
                  "name": "maxDueDate",
                  "type": "uint256",
                  "internalType": "uint256"
                },
                {
                  "name": "curveRelativeTime",
                  "type": "tuple",
                  "internalType": "struct YieldCurve",
                  "components": [
                    {
                      "name": "tenors",
                      "type": "uint256[]",
                      "internalType": "uint256[]"
                    },
                    {
                      "name": "aprs",
                      "type": "int256[]",
                      "internalType": "int256[]"
                    },
                    {
                      "name": "marketRateMultipliers",
                      "type": "uint256[]",
                      "internalType": "uint256[]"
                    }
                  ]
                }
              ]
            },
            {
              "name": "onBehalfOf",
              "type": "address",
              "internalType": "address"
            }
          ]
        }
      ],
      "outputs": [],
      "stateMutability": "payable"
    },
    {
      "type": "function",
      "name": "sellCreditMarket",
      "inputs": [
        {
          "name": "params",
          "type": "tuple",
          "internalType": "struct SellCreditMarketParams",
          "components": [
            {
              "name": "lender",
              "type": "address",
              "internalType": "address"
            },
            {
              "name": "creditPositionId",
              "type": "uint256",
              "internalType": "uint256"
            },
            {
              "name": "amount",
              "type": "uint256",
              "internalType": "uint256"
            },
            {
              "name": "tenor",
              "type": "uint256",
              "internalType": "uint256"
            },
            {
              "name": "deadline",
              "type": "uint256",
              "internalType": "uint256"
            },
            {
              "name": "maxAPR",
              "type": "uint256",
              "internalType": "uint256"
            },
            {
              "name": "exactAmountIn",
              "type": "bool",
              "internalType": "bool"
            }
          ]
        }
      ],
      "outputs": [],
      "stateMutability": "payable"
    },
    {
      "type": "function",
      "name": "sellCreditMarketOnBehalfOf",
      "inputs": [
        {
          "name": "externalParams",
          "type": "tuple",
          "internalType": "struct SellCreditMarketOnBehalfOfParams",
          "components": [
            {
              "name": "withCollectionParams",
              "type": "tuple",
              "internalType": "struct SellCreditMarketWithCollectionParams",
              "components": [
                {
                  "name": "params",
                  "type": "tuple",
                  "internalType": "struct SellCreditMarketParams",
                  "components": [
                    {
                      "name": "lender",
                      "type": "address",
                      "internalType": "address"
                    },
                    {
                      "name": "creditPositionId",
                      "type": "uint256",
                      "internalType": "uint256"
                    },
                    {
                      "name": "amount",
                      "type": "uint256",
                      "internalType": "uint256"
                    },
                    {
                      "name": "tenor",
                      "type": "uint256",
                      "internalType": "uint256"
                    },
                    {
                      "name": "deadline",
                      "type": "uint256",
                      "internalType": "uint256"
                    },
                    {
                      "name": "maxAPR",
                      "type": "uint256",
                      "internalType": "uint256"
                    },
                    {
                      "name": "exactAmountIn",
                      "type": "bool",
                      "internalType": "bool"
                    }
                  ]
                },
                {
                  "name": "collectionId",
                  "type": "uint256",
                  "internalType": "uint256"
                },
                {
                  "name": "rateProvider",
                  "type": "address",
                  "internalType": "address"
                }
              ]
            },
            {
              "name": "onBehalfOf",
              "type": "address",
              "internalType": "address"
            },
            {
              "name": "recipient",
              "type": "address",
              "internalType": "address"
            }
          ]
        }
      ],
      "outputs": [],
      "stateMutability": "payable"
    },
    {
      "type": "function",
      "name": "setUserConfiguration",
      "inputs": [
        {
          "name": "params",
          "type": "tuple",
          "internalType": "struct SetUserConfigurationParams",
          "components": [
            {
              "name": "vault",
              "type": "address",
              "internalType": "address"
            },
            {
              "name": "openingLimitBorrowCR",
              "type": "uint256",
              "internalType": "uint256"
            },
            {
              "name": "allCreditPositionsForSaleDisabled",
              "type": "bool",
              "internalType": "bool"
            },
            {
              "name": "creditPositionIdsForSale",
              "type": "bool",
              "internalType": "bool"
            },
            {
              "name": "creditPositionIds",
              "type": "uint256[]",
              "internalType": "uint256[]"
            }
          ]
        }
      ],
      "outputs": [],
      "stateMutability": "payable"
    },
    {
      "type": "function",
      "name": "setUserConfigurationOnBehalfOf",
      "inputs": [
        {
          "name": "externalParams",
          "type": "tuple",
          "internalType": "struct SetUserConfigurationOnBehalfOfParams",
          "components": [
            {
              "name": "params",
              "type": "tuple",
              "internalType": "struct SetUserConfigurationParams",
              "components": [
                {
                  "name": "vault",
                  "type": "address",
                  "internalType": "address"
                },
                {
                  "name": "openingLimitBorrowCR",
                  "type": "uint256",
                  "internalType": "uint256"
                },
                {
                  "name": "allCreditPositionsForSaleDisabled",
                  "type": "bool",
                  "internalType": "bool"
                },
                {
                  "name": "creditPositionIdsForSale",
                  "type": "bool",
                  "internalType": "bool"
                },
                {
                  "name": "creditPositionIds",
                  "type": "uint256[]",
                  "internalType": "uint256[]"
                }
              ]
            },
            {
              "name": "onBehalfOf",
              "type": "address",
              "internalType": "address"
            }
          ]
        }
      ],
      "outputs": [],
      "stateMutability": "payable"
    },
    {
      "type": "function",
      "name": "setVariablePoolBorrowRate",
      "inputs": [
        {
          "name": "borrowRate",
          "type": "uint128",
          "internalType": "uint128"
        }
      ],
      "outputs": [],
      "stateMutability": "nonpayable"
    },
    {
      "type": "function",
      "name": "sizeFactory",
      "inputs": [],
      "outputs": [
        {
          "name": "",
          "type": "address",
          "internalType": "contract ISizeFactory"
        }
      ],
      "stateMutability": "view"
    },
    {
      "type": "function",
      "name": "supportsInterface",
      "inputs": [
        {
          "name": "interfaceId",
          "type": "bytes4",
          "internalType": "bytes4"
        }
      ],
      "outputs": [
        {
          "name": "",
          "type": "bool",
          "internalType": "bool"
        }
      ],
      "stateMutability": "view"
    },
    {
      "type": "function",
      "name": "unpause",
      "inputs": [],
      "outputs": [],
      "stateMutability": "nonpayable"
    },
    {
      "type": "function",
      "name": "updateConfig",
      "inputs": [
        {
          "name": "params",
          "type": "tuple",
          "internalType": "struct UpdateConfigParams",
          "components": [
            {
              "name": "key",
              "type": "string",
              "internalType": "string"
            },
            {
              "name": "value",
              "type": "uint256",
              "internalType": "uint256"
            }
          ]
        }
      ],
      "outputs": [],
      "stateMutability": "nonpayable"
    },
    {
      "type": "function",
      "name": "upgradeToAndCall",
      "inputs": [
        {
          "name": "newImplementation",
          "type": "address",
          "internalType": "address"
        },
        {
          "name": "data",
          "type": "bytes",
          "internalType": "bytes"
        }
      ],
      "outputs": [],
      "stateMutability": "payable"
    },
    {
      "type": "function",
      "name": "vaultOf",
      "inputs": [
        {
          "name": "user",
          "type": "address",
          "internalType": "address"
        }
      ],
      "outputs": [
        {
          "name": "",
          "type": "address",
          "internalType": "address"
        }
      ],
      "stateMutability": "view"
    },
    {
      "type": "function",
      "name": "version",
      "inputs": [],
      "outputs": [
        {
          "name": "",
          "type": "string",
          "internalType": "string"
        }
      ],
      "stateMutability": "pure"
    },
    {
      "type": "function",
      "name": "withdraw",
      "inputs": [
        {
          "name": "params",
          "type": "tuple",
          "internalType": "struct WithdrawParams",
          "components": [
            {
              "name": "token",
              "type": "address",
              "internalType": "address"
            },
            {
              "name": "amount",
              "type": "uint256",
              "internalType": "uint256"
            },
            {
              "name": "to",
              "type": "address",
              "internalType": "address"
            }
          ]
        }
      ],
      "outputs": [],
      "stateMutability": "payable"
    },
    {
      "type": "function",
      "name": "withdrawOnBehalfOf",
      "inputs": [
        {
          "name": "externalParams",
          "type": "tuple",
          "internalType": "struct WithdrawOnBehalfOfParams",
          "components": [
            {
              "name": "params",
              "type": "tuple",
              "internalType": "struct WithdrawParams",
              "components": [
                {
                  "name": "token",
                  "type": "address",
                  "internalType": "address"
                },
                {
                  "name": "amount",
                  "type": "uint256",
                  "internalType": "uint256"
                },
                {
                  "name": "to",
                  "type": "address",
                  "internalType": "address"
                }
              ]
            },
            {
              "name": "onBehalfOf",
              "type": "address",
              "internalType": "address"
            }
          ]
        }
      ],
      "outputs": [],
      "stateMutability": "payable"
    },
    {
      "type": "event",
      "name": "Initialized",
      "inputs": [
        {
          "name": "version",
          "type": "uint64",
          "indexed": false,
          "internalType": "uint64"
        }
      ],
      "anonymous": false
    },
    {
      "type": "event",
      "name": "Paused",
      "inputs": [
        {
          "name": "account",
          "type": "address",
          "indexed": false,
          "internalType": "address"
        }
      ],
      "anonymous": false
    },
    {
      "type": "event",
      "name": "RoleAdminChanged",
      "inputs": [
        {
          "name": "role",
          "type": "bytes32",
          "indexed": true,
          "internalType": "bytes32"
        },
        {
          "name": "previousAdminRole",
          "type": "bytes32",
          "indexed": true,
          "internalType": "bytes32"
        },
        {
          "name": "newAdminRole",
          "type": "bytes32",
          "indexed": true,
          "internalType": "bytes32"
        }
      ],
      "anonymous": false
    },
    {
      "type": "event",
      "name": "RoleGranted",
      "inputs": [
        {
          "name": "role",
          "type": "bytes32",
          "indexed": true,
          "internalType": "bytes32"
        },
        {
          "name": "account",
          "type": "address",
          "indexed": true,
          "internalType": "address"
        },
        {
          "name": "sender",
          "type": "address",
          "indexed": true,
          "internalType": "address"
        }
      ],
      "anonymous": false
    },
    {
      "type": "event",
      "name": "RoleRevoked",
      "inputs": [
        {
          "name": "role",
          "type": "bytes32",
          "indexed": true,
          "internalType": "bytes32"
        },
        {
          "name": "account",
          "type": "address",
          "indexed": true,
          "internalType": "address"
        },
        {
          "name": "sender",
          "type": "address",
          "indexed": true,
          "internalType": "address"
        }
      ],
      "anonymous": false
    },
    {
      "type": "event",
      "name": "Unpaused",
      "inputs": [
        {
          "name": "account",
          "type": "address",
          "indexed": false,
          "internalType": "address"
        }
      ],
      "anonymous": false
    },
    {
      "type": "event",
      "name": "Upgraded",
      "inputs": [
        {
          "name": "implementation",
          "type": "address",
          "indexed": true,
          "internalType": "address"
        }
      ],
      "anonymous": false
    },
    {
      "type": "event",
      "name": "VariablePoolBorrowRateUpdated",
      "inputs": [
        {
          "name": "sender",
          "type": "address",
          "indexed": true,
          "internalType": "address"
        },
        {
          "name": "oldBorrowRate",
          "type": "uint128",
          "indexed": false,
          "internalType": "uint128"
        },
        {
          "name": "newBorrowRate",
          "type": "uint128",
          "indexed": false,
          "internalType": "uint128"
        }
      ],
      "anonymous": false
    },
    {
      "type": "error",
      "name": "AccessControlBadConfirmation",
      "inputs": []
    },
    {
      "type": "error",
      "name": "AccessControlUnauthorizedAccount",
      "inputs": [
        {
          "name": "account",
          "type": "address",
          "internalType": "address"
        },
        {
          "name": "neededRole",
          "type": "bytes32",
          "internalType": "bytes32"
        }
      ]
    },
    {
      "type": "error",
      "name": "AddressEmptyCode",
      "inputs": [
        {
          "name": "target",
          "type": "address",
          "internalType": "address"
        }
      ]
    },
    {
      "type": "error",
      "name": "DUE_DATE_GREATER_THAN_MAX_DUE_DATE",
      "inputs": [
        {
          "name": "dueDate",
          "type": "uint256",
          "internalType": "uint256"
        },
        {
          "name": "maxDueDate",
          "type": "uint256",
          "internalType": "uint256"
        }
      ]
    },
    {
      "type": "error",
      "name": "ERC1967InvalidImplementation",
      "inputs": [
        {
          "name": "implementation",
          "type": "address",
          "internalType": "address"
        }
      ]
    },
    {
      "type": "error",
      "name": "ERC1967NonPayable",
      "inputs": []
    },
    {
      "type": "error",
      "name": "EnforcedPause",
      "inputs": []
    },
    {
      "type": "error",
      "name": "ExpectedPause",
      "inputs": []
    },
    {
      "type": "error",
      "name": "FailedCall",
      "inputs": []
    },
    {
      "type": "error",
      "name": "INVALID_OFFER",
      "inputs": [
        {
          "name": "account",
          "type": "address",
          "internalType": "address"
        }
      ]
    },
    {
      "type": "error",
      "name": "InvalidInitialization",
      "inputs": []
    },
    {
      "type": "error",
      "name": "MUST_IMPROVE_COLLATERAL_RATIO",
      "inputs": [
        {
          "name": "account",
          "type": "address",
          "internalType": "address"
        },
        {
          "name": "crBefore",
          "type": "uint256",
          "internalType": "uint256"
        },
        {
          "name": "crAfter",
          "type": "uint256",
          "internalType": "uint256"
        }
      ]
    },
    {
      "type": "error",
      "name": "NULL_TENOR",
      "inputs": []
    },
    {
      "type": "error",
      "name": "NotInitializing",
      "inputs": []
    },
    {
      "type": "error",
      "name": "UUPSUnauthorizedCallContext",
      "inputs": []
    },
    {
      "type": "error",
      "name": "UUPSUnsupportedProxiableUUID",
      "inputs": [
        {
          "name": "slot",
          "type": "bytes32",
          "internalType": "bytes32"
        }
      ]
    }
  ],
  "bytecode": {
    "object": "0x60a06040523060805234801562000014575f80fd5b506200001f62000025565b620000d9565b7ff0c57e16840df040f15088dc2f81fe391c3923bec73e23a9662efc9c229c6a00805468010000000000000000900460ff1615620000765760405163f92ee8a960e01b815260040160405180910390fd5b80546001600160401b0390811614620000d65780546001600160401b0319166001600160401b0390811782556040519081527fc7f505b2f371ae2175ee4913f4499e1f2633a7b5936321eed1cdaeb6115181d29060200160405180910390a15b50565b608051615eab620001005f395f8181613893015281816138bc0152613a240152615eab5ff3fe6080604052600436106103df575f3560e01c806372fc3754116101ff578063c7cd4d8711610113578063e05001f5116100a8578063f54ae18b11610078578063f54ae18b14610ce2578063fa7a5b1014610cf5578063fa823af514610d12578063fb7fb2d914610d25578063fd17174a14610d38575f80fd5b8063e05001f514610c7e578063e5af06ce14610c91578063f1bf35c314610cb0578063f45bf01c14610ccf575f80fd5b8063d547741f116100e3578063d547741f14610c0d578063d8d933a514610c2c578063db14750414610c3f578063defda17514610c52575f80fd5b8063c7cd4d8714610ba9578063ca40742c14610bbc578063ccc9681514610bdb578063ccd8d4d114610bfa575f80fd5b80638456cb5911610194578063a217fddf11610164578063a217fddf14610acc578063ac9650d814610adf578063ad3cb1cc14610aff578063b5ec748714610b2f578063c421a75914610b8a575f80fd5b80638456cb5914610a735780638e57277614610a8757806391d1485414610a9a5780639d92e75814610ab9575f80fd5b8063780cafa8116101cf578063780cafa8146109b75780637c90a6ca146109ca5780637dc0d1d014610a1f5780637f417c0614610a60575f80fd5b806372fc37541461083557806373b683be1461084857806373d4a13a1461086757806376c1b82f1461098b575f80fd5b80632f2ff15d116102f65780634fcde96d1161028b57806353e043d41161025b57806353e043d41461077f57806354fd4d50146107925780635c975abb146107c75780635cbc51eb146107ea57806364eb0a7114610816575f80fd5b80634fcde96d146107325780634fd9a8a51461074557806352d1902d14610758578063536b9c791461076c575f80fd5b80633e3c119b116102c65780633e3c119b146106d95780633f4ba83a146106ec5780634cbd882c146107005780634f1ef2861461071f575f80fd5b80632f2ff15d1461067557806336568abe146106945780633746f858146106b35780633ae6d7c3146106c6575f80fd5b806319a7359b116103775780631ff75b0b116103475780631ff75b0b146105d9578063248a9ca3146105f85780632aeb6143146106175780632b4c9a20146106435780632b59bd9914610656575f80fd5b806319a7359b1461050d5780631c4fd41c146105205780631ca3b0cb1461054c5780631e5eb1d014610575575f80fd5b80630709df45116103b25780630709df45146104775780630cf8542f146104ae5780630d37ab00146104c15780631970e5ea146104ee575f80fd5b806301ffc9a7146103e357806302f2855a146104175780630317b9df1461042c57806304c842221461044b575b5f80fd5b3480156103ee575f80fd5b506104026103fd366004614174565b610d4b565b60405190151581526020015b60405180910390f35b61042a6104253660046141b1565b610d81565b005b348015610437575f80fd5b5061042a6104463660046141db565b610e56565b348015610456575f80fd5b5061046a610465366004614220565b610f5a565b60405161040e919061423b565b348015610482575f80fd5b50610496610491366004614220565b610fe1565b6040516001600160a01b03909116815260200161040e565b61042a6104bc3660046141b1565b61104d565b3480156104cc575f80fd5b506104e06104db366004614274565b61107d565b60405190815260200161040e565b3480156104f9575f80fd5b506104e061050836600461429e565b611090565b61042a61051b3660046142b5565b61109b565b34801561052b575f80fd5b5061053f61053a36600461429e565b6110fe565b60405161040e91906142c5565b348015610557575f80fd5b50610560611179565b6040805192835260208301919091520161040e565b348015610580575f80fd5b506105896111ac565b60405161040e9190815181526020808301519082015260408083015190820152606080830151908201526080808301519082015260a0918201516001600160a01b03169181019190915260c00190565b3480156105e4575f80fd5b506104e06105f33660046142eb565b61125e565b348015610603575f80fd5b506104e061061236600461429e565b611301565b348015610622575f80fd5b506106366106313660046144f0565b611321565b60405161040e9190614539565b61042a6106513660046141b1565b6113a2565b348015610661575f80fd5b506104e0610670366004614274565b6113cf565b348015610680575f80fd5b5061042a61068f366004614585565b6113db565b34801561069f575f80fd5b5061042a6106ae366004614585565b6113fd565b61042a6106c13660046141db565b611435565b61042a6106d43660046145eb565b61145b565b6105606106e7366004614639565b611676565b3480156106f7575f80fd5b5061042a6116b5565b34801561070b575f80fd5b5061042a61071a366004614653565b61170e565b61042a61072d366004614679565b6117d4565b61042a61074036600461471a565b6117f3565b61042a610753366004614966565b611920565b348015610763575f80fd5b506104e06119c6565b61042a61077a3660046149d6565b6119e1565b61042a61078d366004614966565b611ad2565b34801561079d575f80fd5b5060408051808201909152600481526376312e3760e01b60208201525b60405161040e9190614a68565b3480156107d2575f80fd5b505f80516020615e568339815191525460ff16610402565b3480156107f5575f80fd5b50610809610804366004614220565b611b78565b60405161040e9190614b48565b348015610821575f80fd5b5061040261083036600461429e565b611f8a565b610560610843366004614c41565b611f96565b348015610853575f80fd5b506104e06108623660046142eb565b6121b3565b348015610872575f80fd5b5061091a60408051610100810182525f80825260208201819052918101829052606081018290526080810182905260a0810182905260c0810182905260e0810191909152506040805161010081018252601154815260125460208201526014546001600160a01b03908116928201929092526015548216606082015260165482166080820152601a54821660a0820152601854821660c082015260195490911660e082015290565b604080518251815260208084015190820152828201516001600160a01b039081169282019290925260608084015183169082015260808084015183169082015260a08084015183169082015260c08084015183169082015260e092830151909116918101919091526101000161040e565b348015610996575f80fd5b506109aa6109a536600461429e565b612212565b60405161040e9190614c7d565b61042a6109c5366004614c8b565b6122d8565b3480156109d5575f80fd5b506109de6122fe565b60405161040e91905f60a082019050825182526020830151602083015260408301516040830152606083015160608301526080830151608083015292915050565b348015610a2a575f80fd5b50610a3361239c565b6040805182516001600160a01b031681526020928301516001600160401b0316928101929092520161040e565b61042a610a6e366004614cbc565b61241f565b348015610a7e575f80fd5b5061042a6124c3565b61042a610a953660046141b1565b61251c565b348015610aa5575f80fd5b50610402610ab4366004614585565b612549565b61042a610ac7366004614d56565b61257f565b348015610ad7575f80fd5b506104e05f81565b610af2610aed366004614d8a565b612625565b60405161040e9190614df8565b348015610b0a575f80fd5b506107ba604051806040016040528060058152602001640352e302e360dc1b81525081565b348015610b3a575f80fd5b50610b4e610b4936600461429e565b61263a565b60405161040e919081516001600160a01b0316815260208083015190820152604080830151908201526060918201519181019190915260800190565b348015610b95575f80fd5b5061046a610ba4366004614220565b612720565b61042a610bb7366004614ee1565b6127a7565b348015610bc7575f80fd5b506104e0610bd6366004614220565b61284d565b348015610be6575f80fd5b50610402610bf536600461429e565b6128d0565b61042a610c083660046141db565b6128db565b348015610c18575f80fd5b5061042a610c27366004614585565b612901565b61042a610c3a366004614f5f565b61291d565b61042a610c4d36600461471a565b612951565b348015610c5d575f80fd5b50610c71610c6c3660046144f0565b612a7f565b60405161040e9190614f79565b6104e0610c8c3660046141b1565b612b00565b348015610c9c575f80fd5b50610402610cab36600461429e565b612c55565b348015610cbb575f80fd5b5061042a610cca366004614fe8565b612cd0565b61042a610cdd366004615062565b612f40565b61042a610cf03660046150ef565b612feb565b348015610d00575f80fd5b50601c546001600160a01b0316610496565b61042a610d203660046150ef565b613091565b61042a610d33366004615109565b613137565b61042a610d46366004615062565b613164565b5f6001600160e01b03198216637965db0b60e01b1480610d7b57506301ffc9a760e01b6001600160e01b03198316145b92915050565b610d89613198565b604051635fed4de960e01b815273__$1ffb1d284a100711dc8ce94ffbdfd13eea$__90635fed4de990610dc2905f90859060040161511a565b5f6040518083038186803b158015610dd8575f80fd5b505af4158015610dea573d5f803e3d5ffd5b505060405163d96aec4360e01b815273__$1ffb1d284a100711dc8ce94ffbdfd13eea$__925063d96aec439150610e27905f90859060040161511a565b5f6040518083038186803b158015610e3d575f80fd5b505af4158015610e4f573d5f803e3d5ffd5b5050505050565b5f610e6181336131ca565b610e8c5760405163e2517d3f60e01b8152336004820152602481018290526044015b60405180910390fd5b60405163e57980dd60e01b815273__$72c16261390208f563094e6a4fc9f74031$__9063e57980dd90610ec5905f90869060040161515c565b5f6040518083038186803b158015610edb575f80fd5b505af4158015610eed573d5f803e3d5ffd5b5050604051634752b3b360e01b815273__$72c16261390208f563094e6a4fc9f74031$__9250634752b3b39150610f2a905f90869060040161515c565b5f6040518083038186803b158015610f40575f80fd5b505af4158015610f52573d5f803e3d5ffd5b505050505050565b610f876040518060a001604052805f81526020015f81526020015f81526020015f81526020015f81525090565b506001600160a01b03165f908152601b6020908152604091829020825160a0810184526001820154815260028201549281019290925260038101549282019290925260048201546060820152600590910154608082015290565b601a54604051630709df4560e01b81526001600160a01b0383811660048301525f921690630709df4590602401602060405180830381865afa158015611029573d5f803e3d5ffd5b505050506040513d601f19601f82011682018060405250810190610d7b91906151e0565b61107a60405180604001604052808380360381019061106c91906151fb565b815233602090910152613091565b50565b5f611089818484613273565b9392505050565b5f610d7b81836133c1565b6040805160c0810190915261107a908060608101806110bf36879003870187614f5f565b81526020015f1981526020015f6001600160a01b03168152508152602001336001600160a01b03168152602001336001600160a01b03168152506117f3565b6040516303eb153f60e51b81525f60048201819052602482018390529073__$674c94602fbdb88ca53d9ba4295c8813fa$__90637d62a7e090604401602060405180830381865af4158015611155573d5f803e3d5ffd5b505050506040513d601f19601f82011682018060405250810190610d7b9190615215565b6011545f90819061118b908290615247565b61119760025f1961525a565b6012546111a49190615247565b915091509091565b6111e86040518060c001604052805f81526020015f81526020015f81526020015f81526020015f81526020015f6001600160a01b031681525090565b6040516386617e7760e01b81525f600482015273__$72c16261390208f563094e6a4fc9f74031$__906386617e779060240160c060405180830381865af4158015611235573d5f803e3d5ffd5b505050506040513d601f19601f820116820180604052508101906112599190615279565b905090565b60405163897bce1f60e01b81525f600482018190526001600160a01b0380871660248401526044830186905284166064830152608482018390529073__$fad1da84a532053b53119316a58e977f10$__9063897bce1f9060a4015b602060405180830381865af41580156112d4573d5f803e3d5ffd5b505050506040513d601f19601f820116820180604052508101906112f891906152d7565b95945050505050565b5f9081525f80516020615e36833981519152602052604090206001015490565b611329614021565b6040516336eea6b360e11b815273__$c58e2605104bb31274ad8c04841b6a7550$__90636ddd4d6690611362905f908690600401615358565b61012060405180830381865af415801561137e573d5f803e3d5ffd5b505050506040513d601f19601f82011682018060405250810190610d7b91906153e4565b61107a6040518060400160405280838036038101906113c191906151fb565b815233602090910152612feb565b5f6110898184846135c1565b6113e482611301565b6113ed81613705565b6113f7838361370f565b50505050565b6001600160a01b03811633146114265760405163334bd91960e11b815260040160405180910390fd5b61143082826137b0565b505050565b61107a60405180604001604052808361144d90615446565b815233602090910152611ad2565b611463613198565b602081015160405163046dbd1360e11b81525f600482018190526001600160a01b03831660248301529073__$b44e0fdf2f6bdeffc1681a5a467d23dde6$__906308db7a2690604401602060405180830381865af41580156114c7573d5f803e3d5ffd5b505050506040513d601f19601f820116820180604052508101906114eb91906152d7565b60405163f9c417bd60e01b815290915073__$7fa168b5d238863382c2bf886894022425$__9063f9c417bd90611527905f908790600401615451565b5f6040518083038186803b15801561153d575f80fd5b505af415801561154f573d5f803e3d5ffd5b5050604051634971bf9960e01b815273__$7fa168b5d238863382c2bf886894022425$__9250634971bf99915061158c905f908790600401615451565b5f6040518083038186803b1580156115a2575f80fd5b505af41580156115b4573d5f803e3d5ffd5b505060405163046dbd1360e11b81525f600482018190526001600160a01b0386166024830152925073__$b44e0fdf2f6bdeffc1681a5a467d23dde6$__91506308db7a2690604401602060405180830381865af4158015611617573d5f803e3d5ffd5b505050506040513d601f19601f8201168201806040525081019061163b91906152d7565b90508181116113f75760405163625a84dd60e01b81526001600160a01b03841660048201526024810183905260448101829052606401610e83565b5f806116ac604051806060016040528085803603810190611697919061548d565b81525f1960208201525f604090910152611f96565b91509150915091565b7f65d7a28e3265b37a6474929f336521b332c1681b933f6cb9f3376673440d862a6116e081336131ca565b6117065760405163e2517d3f60e01b815233600482015260248101829052604401610e83565b61107a613829565b7f1eae1854c74a696c6de86fd3c6383d5c1e2c33fbc86e1aa6b6c872d95bd2403861173981336131ca565b61175f5760405163e2517d3f60e01b815233600482015260248101829052604401610e83565b600d80546001600160801b038481166001600160c01b031983168117600160801b426001600160401b031602179093556040805191909216808252602082019390935233917f26b8010a81fad3e15c7545637c99390bdeb250bf0a67e4cf43c3d220ec2acc31910160405180910390a2505050565b6117dc613888565b6117e58261392c565b6117ef828261395d565b5050565b6117fb613198565b604051631e55c20b60e31b815273__$909b104b05b98ab9b02bd00c4a2f54926d$__9063f2ae105890611834905f9085906004016154a7565b5f6040518083038186803b15801561184a575f80fd5b505af415801561185c573d5f803e3d5ffd5b5050604051630f6470bd60e01b815273__$909b104b05b98ab9b02bd00c4a2f54926d$__9250630f6470bd9150611899905f9085906004016154a7565b5f6040518083038186803b1580156118af575f80fd5b505af41580156118c1573d5f803e3d5ffd5b505082515160200151600101915061107a905057805151516040516316bbd7db60e11b81525f60048201526001600160a01b03909116602482015273__$b44e0fdf2f6bdeffc1681a5a467d23dde6$__90632d77afb690604401610e27565b611928613198565b604051637125eda960e11b815273__$339bef8b42d49ef7fc0392a1b9554f9551$__9063e24bdb5290611961905f9085906004016155aa565b5f6040518083038186803b158015611977575f80fd5b505af4158015611989573d5f803e3d5ffd5b505060405163184d91f360e31b815273__$339bef8b42d49ef7fc0392a1b9554f9551$__925063c26c8f989150610e27905f9085906004016155aa565b5f6119cf613a19565b505f80516020615e1683398151915290565b6119e9613198565b604080516325f2df6f60e01b81525f6004820152825151602482015260208301516001600160a01b03908116604483015291830151909116606482015273__$c19cfa413da1baf02a2307c9fe3d8deda6$__906325f2df6f906084015f6040518083038186803b158015611a5b575f80fd5b505af4158015611a6d573d5f803e3d5ffd5b5050604080516330e78a9160e11b81525f6004820152845151602482015260208501516001600160a01b03908116604483015291850151909116606482015273__$c19cfa413da1baf02a2307c9fe3d8deda6$__92506361cf15229150608401610e27565b611ada613198565b604051632d0c1e8b60e01b815273__$f215670302542f95b8fc754ac02a4bfcb4$__90632d0c1e8b90611b13905f9085906004016155aa565b5f6040518083038186803b158015611b29575f80fd5b505af4158015611b3b573d5f803e3d5ffd5b505060405163c0c66ed960e01b815273__$f215670302542f95b8fc754ac02a4bfcb4$__925063c0c66ed99150610e27905f9085906004016155aa565b611b80614058565b604080516001600160a01b0384165f908152600e60209081529083902061016083018452805461012084019081528451600183018054608095810283018601909752606082018781529596879660a088019687959487946101408b01949193909284928491840182828015611c1257602002820191905f5260205f20905b815481526020019060010190808311611bfe575b5050505050815260200160018201805480602002602001604051908101604052809291908181526020018280548015611c6857602002820191905f5260205f20905b815481526020019060010190808311611c54575b5050505050815260200160028201805480602002602001604051908101604052809291908181526020018280548015611cbe57602002820191905f5260205f20905b815481526020019060010190808311611caa575b505050505081525050815250508152602001600482016040518060400160405290815f8201548152602001600182016040518060600160405290815f8201805480602002602001604051908101604052809291908181526020018280548015611d4457602002820191905f5260205f20905b815481526020019060010190808311611d30575b5050505050815260200160018201805480602002602001604051908101604052809291908181526020018280548015611d9a57602002820191905f5260205f20905b815481526020019060010190808311611d86575b5050505050815260200160028201805480602002602001604051908101604052809291908181526020018280548015611df057602002820191905f5260205f20905b815481526020019060010190808311611ddc575b505050919092525050509052508152600882015460208083019190915260099092015460ff1615156040918201529183526001600160a01b0386811691840182905260165483516370a0823160e01b815260048101939093529390920192909116906370a0823190602401602060405180830381865afa158015611e76573d5f803e3d5ffd5b505050506040513d601f19601f82011682018060405250810190611e9a91906152d7565b8152601a546040516370a0823160e01b81526001600160a01b038681166004830152602090930192909116906370a0823190602401602060405180830381865afa158015611eea573d5f803e3d5ffd5b505050506040513d601f19601f82011682018060405250810190611f0e91906152d7565b81526018546040516370a0823160e01b81526001600160a01b038681166004830152602090930192909116906370a0823190602401602060405180830381865afa158015611f5e573d5f803e3d5ffd5b505050506040513d601f19601f82011682018060405250810190611f8291906152d7565b905292915050565b6011545f908210610d7b565b5f80611fa0613198565b7ffc8737ab85eb45125971625a9ebdb75cc78e01d5c1fa80c4c6e5203f47bc4fab611fcb81336131ca565b611ff15760405163e2517d3f60e01b815233600482015260248101829052604401610e83565b60405163165b951160e01b815273__$d00168f5747027b5a56099c751031d7e40$__9063165b95119061202a905f9088906004016155c2565b5f6040518083038186803b158015612040575f80fd5b505af4158015612052573d5f803e3d5ffd5b505060405163ace5724960e01b815273__$d00168f5747027b5a56099c751031d7e40$__925063ace57249915061208f905f9088906004016155c2565b6040805180830381865af41580156120a9573d5f803e3d5ffd5b505050506040513d601f19601f820116820180604052508101906120cd9190615630565b8551602001516040516316bbd7db60e11b81525f60048201526001600160a01b039091166024820152919450925073__$b44e0fdf2f6bdeffc1681a5a467d23dde6$__90632d77afb6906044015f6040518083038186803b158015612130575f80fd5b505af4158015612142573d5f803e3d5ffd5b50508551604051636e6595c160e01b815273__$d00168f5747027b5a56099c751031d7e40$__9350636e6595c19250612181915f918890600401615652565b5f6040518083038186803b158015612197575f80fd5b505af41580156121a9573d5f803e3d5ffd5b5050505050915091565b604051637574b6e360e01b81525f600482018190526001600160a01b0380871660248401526044830186905284166064830152608482018390529073__$fad1da84a532053b53119316a58e977f10$__90637574b6e39060a4016112b9565b61221a614092565b604051633978289f60e01b81525f60048201526024810183905273__$674c94602fbdb88ca53d9ba4295c8813fa$__90633978289f90604401602060405180830381865af415801561226e573d5f803e3d5ffd5b505050506040513d601f19601f8201168201806040525081019061229291906152d7565b6040805160808101825282546001600160a01b0381168252600160a01b900460ff1615156020820152600183015491810191909152600290910154606082015292915050565b61107a6040518060400160405280836122f0906156a5565b8152336020909101526127a7565b61232b6040518060a001604052805f81526020015f81526020015f81526020015f81526020015f81525090565b604051636e9bc7eb60e11b81525f600482015273__$72c16261390208f563094e6a4fc9f74031$__9063dd378fd69060240160a060405180830381865af4158015612378573d5f803e3d5ffd5b505050506040513d601f19601f8201168201806040525081019061125991906156b0565b604080518082019091525f8082526020820152604051631ae5e80160e31b81525f600482015273__$72c16261390208f563094e6a4fc9f74031$__9063d72f4008906024016040805180830381865af41580156123fb573d5f803e3d5ffd5b505050506040513d601f19601f820116820180604052508101906112599190615712565b612427613198565b6040516210aa0b60e31b815273__$45d7492db284be01938913cb41b9cac2a6$__90628550589061245e905f908590600401615745565b5f6040518083038186803b158015612474575f80fd5b505af4158015612486573d5f803e3d5ffd5b50506040516364140a8360e01b815273__$45d7492db284be01938913cb41b9cac2a6$__92506364140a839150610e27905f908590600401615745565b7f65d7a28e3265b37a6474929f336521b332c1681b933f6cb9f3376673440d862a6124ee81336131ca565b6125145760405163e2517d3f60e01b815233600482015260248101829052604401610e83565b61107a613a62565b61107a60405180604001604052808380360381019061253b919061577d565b81523360209091015261145b565b5f9182525f80516020615e36833981519152602090815260408084206001600160a01b0393909316845291905290205460ff1690565b612587613198565b6040516315868ea760e21b815273__$41bd1ea6f49e3611a223dba0ae97878d32$__9063561a3a9c906125c0905f908590600401615797565b5f6040518083038186803b1580156125d6575f80fd5b505af41580156125e8573d5f803e3d5ffd5b50506040516389e70deb60e01b815273__$41bd1ea6f49e3611a223dba0ae97878d32$__92506389e70deb9150610e27905f908590600401615797565b606061262f613198565b6110895f8484613aaa565b61266a60405180608001604052805f6001600160a01b031681526020015f81526020015f81526020015f81525090565b604051634c9829bf60e11b81525f60048201526024810183905273__$674c94602fbdb88ca53d9ba4295c8813fa$__90639930537e90604401602060405180830381865af41580156126be573d5f803e3d5ffd5b505050506040513d601f19601f820116820180604052508101906126e291906152d7565b6040805160808101825282546001600160a01b0316815260018301546020820152600283015491810191909152600390910154606082015292915050565b61274d6040518060a001604052805f81526020015f81526020015f81526020015f81526020015f81525090565b506001600160a01b03165f908152601b6020908152604091829020825160a0810184526006820154815260078201549281019290925260088101549282019290925260098201546060820152600a90910154608082015290565b6127af613198565b6040516333d4ade560e01b815273__$f56cb86c34e0dd0dca51f5a3538433e18c$__906333d4ade5906127e8905f90859060040161582d565b5f6040518083038186803b1580156127fe575f80fd5b505af4158015612810573d5f803e3d5ffd5b505060405163178bcac760e11b815273__$f56cb86c34e0dd0dca51f5a3538433e18c$__9250632f17958e9150610e27905f90859060040161582d565b60405163046dbd1360e11b81525f600482018190526001600160a01b03831660248301529073__$b44e0fdf2f6bdeffc1681a5a467d23dde6$__906308db7a2690604401602060405180830381865af41580156128ac573d5f803e3d5ffd5b505050506040513d601f19601f82011682018060405250810190610d7b91906152d7565b5f610d7b8183613b92565b61107a6040518060400160405280836128f390615446565b815233602090910152611920565b61290a82611301565b61291381613705565b6113f783836137b0565b6040805160c081018252606081018381525f1960808301525f60a0830152815233602082018190529181019190915261107a905b612959613198565b60405163160b9e6b60e31b815273__$c58e2605104bb31274ad8c04841b6a7550$__9063b05cf35890612992905f9085906004016154a7565b5f6040518083038186803b1580156129a8575f80fd5b505af41580156129ba573d5f803e3d5ffd5b5050604051639f46aa4160e01b815273__$c58e2605104bb31274ad8c04841b6a7550$__9250639f46aa4191506129f7905f9085906004016154a7565b5f6040518083038186803b158015612a0d575f80fd5b505af4158015612a1f573d5f803e3d5ffd5b505082515160200151600101915061107a90505760208101516040516316bbd7db60e11b81525f60048201526001600160a01b03909116602482015273__$b44e0fdf2f6bdeffc1681a5a467d23dde6$__90632d77afb690604401610e27565b612a876140c1565b60405163d9764e9760e01b815273__$909b104b05b98ab9b02bd00c4a2f54926d$__9063d9764e9790612ac0905f908690600401615358565b61014060405180830381865af4158015612adc573d5f803e3d5ffd5b505050506040513d601f19601f82011682018060405250810190610d7b91906158a9565b5f612b09613198565b6040516320b5435f60e11b815273__$04d32033081e1e9356971d8f4b5098bcad$__9063416a86be90612b42905f908690600401615921565b5f6040518083038186803b158015612b58575f80fd5b505af4158015612b6a573d5f803e3d5ffd5b5050604051630d0699cb60e21b815273__$04d32033081e1e9356971d8f4b5098bcad$__925063341a672c9150612ba7905f908690600401615921565b602060405180830381865af4158015612bc2573d5f803e3d5ffd5b505050506040513d601f19601f82011682018060405250810190612be691906152d7565b60405163489d188160e01b815290915073__$04d32033081e1e9356971d8f4b5098bcad$__9063489d188190612c24905f9086908690600401615949565b5f6040518083038186803b158015612c3a575f80fd5b505af4158015612c4c573d5f803e3d5ffd5b50505050919050565b604051631928c8e960e11b81525f60048201819052602482018390529073__$b44e0fdf2f6bdeffc1681a5a467d23dde6$__9063325191d290604401602060405180830381865af4158015612cac573d5f803e3d5ffd5b505050506040513d601f19601f82011682018060405250810190610d7b919061597f565b5f612cd9613bb5565b805490915060ff600160401b82041615906001600160401b03165f81158015612cff5750825b90505f826001600160401b03166001148015612d1a5750303b155b905081158015612d28575080155b15612d465760405163f92ee8a960e01b815260040160405180910390fd5b845467ffffffffffffffff191660011785558315612d7057845460ff60401b1916600160401b1785555b6040516369777eb960e01b815273__$d02cb2608d6f3ad3f53f4dd3f26f81b8ea$__906369777eb990612db1905f908e908e908e908e908e90600401615ab3565b5f6040518083038186803b158015612dc7575f80fd5b505af4158015612dd9573d5f803e3d5ffd5b50505050612de5613bdd565b612ded613bdd565b612df5613bdd565b604051632ffdac7160e21b815273__$d02cb2608d6f3ad3f53f4dd3f26f81b8ea$__9063bff6b1c490612e34905f908d908d908d908d90600401615b27565b5f6040518083038186803b158015612e4a575f80fd5b505af4158015612e5c573d5f803e3d5ffd5b50505050612e6c5f801b8b61370f565b50612e977f65d7a28e3265b37a6474929f336521b332c1681b933f6cb9f3376673440d862a8b61370f565b50612ec27ffc8737ab85eb45125971625a9ebdb75cc78e01d5c1fa80c4c6e5203f47bc4fab8b61370f565b50612eed7f1eae1854c74a696c6de86fd3c6383d5c1e2c33fbc86e1aa6b6c872d95bd240388b61370f565b508315612f3457845460ff60401b19168555604051600181527fc7f505b2f371ae2175ee4913f4499e1f2633a7b5936321eed1cdaeb6115181d29060200160405180910390a15b50505050505050505050565b612f48613198565b604051635792057f60e11b81525f60048201528135602482015273__$ebce6ba8505acc62d937fb713060c40a3c$__9063af240afe906044015f6040518083038186803b158015612f97575f80fd5b505af4158015612fa9573d5f803e3d5ffd5b50506040516320e9b9f960e11b81525f60048201528335602482015273__$ebce6ba8505acc62d937fb713060c40a3c$__92506341d373f29150604401610e27565b612ff3613198565b604051631005beb160e31b815273__$7947dedfaba9c59621bd8bcc87e3fb80f1$__9063802df5889061302c905f908590600401615b8b565b5f6040518083038186803b158015613042575f80fd5b505af4158015613054573d5f803e3d5ffd5b5050604051631cc17ae560e31b815273__$7947dedfaba9c59621bd8bcc87e3fb80f1$__925063e60bd7289150610e27905f908590600401615b8b565b613099613198565b60405163024889b160e51b815273__$d49e499a4608ab3aca09b91fe5950492b6$__906349113620906130d2905f908590600401615b8b565b5f6040518083038186803b1580156130e8575f80fd5b505af41580156130fa573d5f803e3d5ffd5b505060405163a083c0ab60e01b815273__$d49e499a4608ab3aca09b91fe5950492b6$__925063a083c0ab9150610e27905f908590600401615b8b565b61107a6040518060400160405280838036038101906131569190615bd0565b81523360209091015261257f565b61107a6040518060600160405280838036038101906131839190615beb565b815233602082018190526040909101526119e1565b5f80516020615e568339815191525460ff16156131c85760405163d93c066560e01b815260040160405180910390fd5b565b5f6131d58383612549565b156131e257506001610d7b565b601c546001600160a01b03166131f957505f610d7b565b601c54604051632474521560e21b8152600481018590526001600160a01b038481166024830152909116906391d1485490604401602060405180830381865afa158015613248573d5f803e3d5ffd5b505050506040513d601f19601f8201168201806040525081019061326c919061597f565b9050610d7b565b6001600160a01b0382165f908152600e84016020908152604080832081518083018352815481528251600183018054608081880284018101909652606083018181526133b9978c978c97959187019491939192849290918491908401828280156132fa57602002820191905f5260205f20905b8154815260200190600101908083116132e6575b505050505081526020016001820180548060200260200160405190810160405280929190818152602001828054801561335057602002820191905f5260205f20905b81548152602001906001019080831161333c575b50505050508152602001600282018054806020026020016040519081016040528092919081815260200182805480156133a657602002820191905f5260205f20905b815481526020019060010190808311613392575b5050505050815250508152505085613be5565b949350505050565b5f61108983600c015f015f9054906101000a90046001600160a01b03166001600160a01b031663313ce5676040518163ffffffff1660e01b8152600401602060405180830381865afa158015613419573d5f803e3d5ffd5b505050506040513d601f19601f8201168201806040525081019061343d91906152d7565b61344890600a615ce5565b6134529084615cf0565b60148501546040805163313ce56760e01b815290516001600160a01b039092169163313ce567916004808201926020929091908290030181865afa15801561349c573d5f803e3d5ffd5b505050506040513d601f19601f820116820180604052508101906134c09190615d07565b6134cb90600a615d27565b60158601546040805163313ce56760e01b815290516001600160a01b039092169163313ce567916004808201926020929091908290030181865afa158015613515573d5f803e3d5ffd5b505050506040513d601f19601f820116820180604052508101906135399190615d07565b61354490600a615d27565b600c87015460408051634c6afee560e11b815290516001600160a01b03909216916398d5fdca916004808201926020929091908290030181865afa15801561358e573d5f803e3d5ffd5b505050506040513d601f19601f820116820180604052508101906135b291906152d7565b6135bc9190615cf0565b613d3f565b6001600160a01b0382165f908152600e840160209081526040808320815180830183526004820180548252835160059093018054608081880286018101909652606085018181526133b9978c978c979187019491939192849290918491908401828280156132fa57602002820191905f5260205f20908154815260200190600101908083116132e657505050505081526020016001820180548060200260200160405190810160405280929190818152602001828054801561335057602002820191905f5260205f209081548152602001906001019080831161333c5750505050508152602001600282018054806020026020016040519081016040528092919081815260200182805480156133a657602002820191905f5260205f2090815481526020019060010190808311613392575050505050815250508152505085613be5565b61107a8133613d4b565b5f5f80516020615e368339815191526137288484612549565b6137a7575f848152602082815260408083206001600160a01b03871684529091529020805460ff1916600117905561375d3390565b6001600160a01b0316836001600160a01b0316857f2f8788117e7eff1d82e926ec794901d17c78024a50270940304540a733656f0d60405160405180910390a46001915050610d7b565b5f915050610d7b565b5f5f80516020615e368339815191526137c98484612549565b156137a7575f848152602082815260408083206001600160a01b0387168085529252808320805460ff1916905551339287917ff6391f5c32d9c69d2a47ea670b442974b53935d1edc7fd64eb21e047a839171b9190a46001915050610d7b565b613831613d84565b5f80516020615e56833981519152805460ff191681557f5db9ee0a495bf2e6ff9c91a7834c1ba4fdd244a5e8aa4e537bd38aeae4b073aa335b6040516001600160a01b03909116815260200160405180910390a150565b306001600160a01b037f000000000000000000000000000000000000000000000000000000000000000016148061390e57507f00000000000000000000000000000000000000000000000000000000000000006001600160a01b03166139025f80516020615e16833981519152546001600160a01b031690565b6001600160a01b031614155b156131c85760405163703e46dd60e11b815260040160405180910390fd5b5f61393781336131ca565b6117ef5760405163e2517d3f60e01b815233600482015260248101829052604401610e83565b816001600160a01b03166352d1902d6040518163ffffffff1660e01b8152600401602060405180830381865afa9250505080156139b7575060408051601f3d908101601f191682019092526139b4918101906152d7565b60015b6139df57604051634c9c8ce360e01b81526001600160a01b0383166004820152602401610e83565b5f80516020615e168339815191528114613a0f57604051632a87526960e21b815260048101829052602401610e83565b6114308383613db3565b306001600160a01b037f000000000000000000000000000000000000000000000000000000000000000016146131c85760405163703e46dd60e11b815260040160405180910390fd5b613a6a613198565b5f80516020615e56833981519152805460ff191660011781557f62e78cea01bee320cd4e420270b5ea74000d11b0c9f74754ebdbfc544b05a2583361386a565b6060816001600160401b03811115613ac457613ac4614330565b604051908082528060200260200182016040528015613af757816020015b6060815260200190600190039081613ae25790505b5090505f5b82811015613b8a57613b6530858584818110613b1a57613b1a615d35565b9050602002810190613b2c9190615d49565b8080601f0160208091040260200160405190810160405280939291908181526020018383808284375f92019190915250613e0892505050565b828281518110613b7757613b77615d35565b6020908102919091010152600101613afc565b509392505050565b5f613b9f60025f1961525a565b8210158015611089575050601291909101541190565b5f807ff0c57e16840df040f15088dc2f81fe391c3923bec73e23a9662efc9c229c6a00610d7b565b6131c8613e71565b5f815f03613c06576040516301c85f6760e71b815260040160405180910390fd5b613c0f83613e96565b15613c375760405162b04ee160e61b81526001600160a01b0385166004820152602401610e83565b8251613c438342615d92565b1115613c7757613c538242615d92565b8351604051636f2f16a760e01b815260048101929092526024820152604401610e83565b60408051606081018252600d8701546001600160801b03811682526001600160401b03600160801b82048116602080850191909152600160c01b909204168284015285015191516315c6891560e11b8152909173__$99c8b6d537f6911e4d5e2b5618b4ddcec4$__91632b8d122a91613cf69185908890600401615da5565b602060405180830381865af4158015613d11573d5f803e3d5ffd5b505050506040513d601f19601f82011682018060405250810190613d3591906152d7565b9695505050505050565b5f6133b9848484613eaf565b613d558282612549565b6117ef5760405163e2517d3f60e01b81526001600160a01b038216600482015260248101839052604401610e83565b5f80516020615e568339815191525460ff166131c857604051638dfc202b60e01b815260040160405180910390fd5b613dbc82613edb565b6040516001600160a01b038316907fbc7cd75a20ee27fd9adebab32041f755214dbc6bffa90cc0225b39da2e5c2d3b905f90a2805115613e00576114308282613e08565b6117ef613f3e565b60605f80846001600160a01b031684604051613e249190615dfa565b5f60405180830381855af49150503d805f8114613e5c576040519150601f19603f3d011682016040523d82523d5f602084013e613e61565b606091505b50915091506112f8858383613f5d565b613e79613fb9565b6131c857604051631afcd79f60e31b815260040160405180910390fd5b80515f90158015610d7b5750610d7b8260200151613fd2565b5f825f190484118302158202613ecc5763ad251c275f526004601cfd5b50910281810615159190040190565b806001600160a01b03163b5f03613f1057604051634c9c8ce360e01b81526001600160a01b0382166004820152602401610e83565b5f80516020615e1683398151915280546001600160a01b0319166001600160a01b0392909216919091179055565b34156131c85760405163b398979f60e01b815260040160405180910390fd5b606082613f7257613f6d82613ff8565b611089565b8151158015613f8957506001600160a01b0384163b155b15613fb257604051639996b31560e01b81526001600160a01b0385166004820152602401610e83565b5080611089565b5f613fc2613bb5565b54600160401b900460ff16919050565b8051515f90158015613fe75750602082015151155b8015610d7b57505060400151511590565b8051156140085780518082602001fd5b60405163d6bda27560e01b815260040160405180910390fd5b6040518060c00160405280614034614092565b81526020015f81526020015f81526020015f81526020015f81526020015f81525090565b6040518060a0016040528061406b614107565b81526020015f6001600160a01b031681526020015f81526020015f81526020015f81525090565b60405180608001604052805f6001600160a01b031681526020015f151581526020015f81526020015f81525090565b6040518060e001604052806140d4614092565b81526020015f6001600160a01b031681526020015f81526020015f81526020015f81526020015f81526020015f81525090565b604051806080016040528061411a61413a565b815260200161412761413a565b81525f6020820181905260409091015290565b60405180604001604052805f815260200161416f60405180606001604052806060815260200160608152602001606081525090565b905290565b5f60208284031215614184575f80fd5b81356001600160e01b031981168114611089575f80fd5b5f606082840312156141ab575f80fd5b50919050565b5f606082840312156141c1575f80fd5b611089838361419b565b5f604082840312156141ab575f80fd5b5f602082840312156141eb575f80fd5b81356001600160401b03811115614200575f80fd5b6133b9848285016141cb565b6001600160a01b038116811461107a575f80fd5b5f60208284031215614230575f80fd5b81356110898161420c565b60a08101610d7b828480518252602081015160208301526040810151604083015260608101516060830152608081015160808301525050565b5f8060408385031215614285575f80fd5b82356142908161420c565b946020939093013593505050565b5f602082840312156142ae575f80fd5b5035919050565b5f60e082840312156141ab575f80fd5b60208101600383106142e557634e487b7160e01b5f52602160045260245ffd5b91905290565b5f805f80608085870312156142fe575f80fd5b84356143098161420c565b93506020850135925060408501356143208161420c565b9396929550929360600135925050565b634e487b7160e01b5f52604160045260245ffd5b60405160e081016001600160401b038111828210171561436657614366614330565b60405290565b604051606081016001600160401b038111828210171561436657614366614330565b604080519081016001600160401b038111828210171561436657614366614330565b60405160a081016001600160401b038111828210171561436657614366614330565b60405160c081016001600160401b038111828210171561436657614366614330565b604051601f8201601f191681016001600160401b038111828210171561441c5761441c614330565b604052919050565b801515811461107a575f80fd5b5f60e08284031215614441575f80fd5b614449614344565b905081356144568161420c565b808252506020820135602082015260408201356040820152606082013560608201526080820135608082015260a082013560a082015260c082013561449a81614424565b60c082015292915050565b5f61012082840312156144b6575f80fd5b6144be61436c565b90506144ca8383614431565b815260e082013560208201526101008201356144e58161420c565b604082015292915050565b5f6101208284031215614501575f80fd5b61108983836144a5565b80516001600160a01b0316825260208082015115159083015260408082015190830152606090810151910152565b5f6101208201905061454c82845161450b565b60208301516080830152604083015160a0830152606083015160c0830152608083015160e083015260a083015161010083015292915050565b5f8060408385031215614596575f80fd5b8235915060208301356145a88161420c565b809150509250929050565b5f606082840312156145c3575f80fd5b6145cb61436c565b905081358152602082013560208201526040820135604082015292915050565b5f608082840312156145fb575f80fd5b61460361438e565b61460d84846145b3565b8152606083013561461d8161420c565b60208201529392505050565b5f60a082840312156141ab575f80fd5b5f60a08284031215614649575f80fd5b6110898383614629565b5f60208284031215614663575f80fd5b81356001600160801b0381168114611089575f80fd5b5f806040838503121561468a575f80fd5b82356146958161420c565b91506020838101356001600160401b03808211156146b1575f80fd5b818601915086601f8301126146c4575f80fd5b8135818111156146d6576146d6614330565b6146e8601f8201601f191685016143f4565b915080825287848285010111156146fd575f80fd5b80848401858401375f848284010152508093505050509250929050565b5f610160828403121561472b575f80fd5b61473361436c565b61473d84846144a5565b815261012083013561474e8161420c565b60208201526101408301356147628161420c565b60408201529392505050565b5f6001600160401b0382111561478657614786614330565b5060051b60200190565b5f82601f83011261479f575f80fd5b813560206147b46147af8361476e565b6143f4565b8083825260208201915060208460051b8701019350868411156147d5575f80fd5b602086015b848110156147f157803583529183019183016147da565b509695505050505050565b5f6040828403121561480c575f80fd5b61481461438e565b9050813581526020808301356001600160401b0380821115614834575f80fd5b9084019060608287031215614847575f80fd5b61484f61436c565b82358281111561485d575f80fd5b61486988828601614790565b825250838301358281111561487c575f80fd5b8301601f8101881361488c575f80fd5b803561489a6147af8261476e565b81815260059190911b8201860190868101908a8311156148b8575f80fd5b928701925b828410156148d6578335825292870192908701906148bd565b848801525050506040830135828111156148ee575f80fd5b6148fa88828601614790565b60408301525080848601525050505092915050565b5f6040828403121561491f575f80fd5b61492761438e565b905081356001600160401b0381111561493e575f80fd5b61494a848285016147fc565b825250602082013561495b8161420c565b602082015292915050565b5f60208284031215614976575f80fd5b81356001600160401b0381111561498b575f80fd5b6133b98482850161490f565b5f602082840312156149a7575f80fd5b604051602081018181106001600160401b03821117156149c9576149c9614330565b6040529135825250919050565b5f606082840312156149e6575f80fd5b6149ee61436c565b6149f88484614997565b81526020830135614a088161420c565b602082015260408301356147628161420c565b5f5b83811015614a35578181015183820152602001614a1d565b50505f910152565b5f8151808452614a54816020860160208601614a1b565b601f01601f19169290920160200192915050565b602081525f6110896020830184614a3d565b5f815180845260208085019450602084015f5b83811015614aa957815187529582019590820190600101614a8d565b509495945050505050565b805182525f602080830151604082860152805160606040870152614adb60a0870182614a7a565b83830151603f19888303810160608a0152815180845291860193505f929091908601905b80841015614b1f5784518252938601936001939093019290860190614aff565b5060408501519550818982030160808a0152614b3b8187614a7a565b9998505050505050505050565b602081525f825160a060208401528051608060c0850152614b6d610140850182614ab4565b9050602082015160bf198583030160e0860152614b8a8282614ab4565b91505060408201516101008501526060820151151561012085015260208501519150614bc160408501836001600160a01b03169052565b6040850151606085015260608501516080850152608085015160a0850152809250505092915050565b5f60a08284031215614bfa575f80fd5b614c026143b0565b9050813581526020820135614c168161420c565b8060208301525060408201356040820152606082013560608201526080820135608082015292915050565b5f60e08284031215614c51575f80fd5b614c5961436c565b614c638484614bea565b815260a0830135602082015260c08301356147628161420c565b60808101610d7b828461450b565b5f60208284031215614c9b575f80fd5b81356001600160401b03811115614cb0575f80fd5b6133b984828501614629565b5f60408284031215614ccc575f80fd5b61108983836141cb565b5f60a08284031215614ce6575f80fd5b614cee6143b0565b9050813581526020820135602082015260408201356040820152606082013560608201526080820135608082015292915050565b5f6101408284031215614d33575f80fd5b614d3b61438e565b9050614d478383614cd6565b815261495b8360a08401614cd6565b5f6101608284031215614d67575f80fd5b614d6f61438e565b614d798484614d22565b815261014083013561461d8161420c565b5f8060208385031215614d9b575f80fd5b82356001600160401b0380821115614db1575f80fd5b818501915085601f830112614dc4575f80fd5b813581811115614dd2575f80fd5b8660208260051b8501011115614de6575f80fd5b60209290920196919550909350505050565b5f60208083016020845280855180835260408601915060408160051b8701019250602087015f5b82811015614e4d57603f19888603018452614e3b858351614a3d565b94509285019290850190600101614e1f565b5092979650505050505050565b5f60a08284031215614e6a575f80fd5b614e726143b0565b90508135614e7f8161420c565b8152602082810135908201526040820135614e9981614424565b60408201526060820135614eac81614424565b606082015260808201356001600160401b03811115614ec9575f80fd5b614ed584828501614790565b60808301525092915050565b5f60208284031215614ef1575f80fd5b81356001600160401b0380821115614f07575f80fd5b9083019060408286031215614f1a575f80fd5b614f2261438e565b823582811115614f30575f80fd5b614f3c87828601614e5a565b82525060208301359250614f4f8361420c565b6020810192909252509392505050565b5f60e08284031215614f6f575f80fd5b6110898383614431565b5f61014082019050614f8c82845161450b565b60018060a01b036020840151166080830152604083015160a0830152606083015160c0830152608083015160e083015260a083015161010083015260c083015161012083015292915050565b5f60c082840312156141ab575f80fd5b5f805f805f6102808688031215614ffd575f80fd5b85356150088161420c565b94506150178760208801614fd8565b93506150268760e08801614629565b92506150368761018088016141cb565b9150615046876101c08801614fd8565b90509295509295909350565b5f602082840312156141ab575f80fd5b5f60208284031215615072575f80fd5b6110898383615052565b5f6060828403121561508c575f80fd5b61509461436c565b905081356150a18161420c565b81526020828101359082015260408201356144e58161420c565b5f608082840312156150cb575f80fd5b6150d361438e565b90506150df838361507c565b8152606082013561495b8161420c565b5f608082840312156150ff575f80fd5b61108983836150bb565b5f61014082840312156141ab575f80fd5b5f608082019050838252823560208301526020830135604083015260408301356151438161420c565b6001600160a01b03166060929092019190915292915050565b828152604060208201525f8235601e1984360301811261517a575f80fd5b83016020810190356001600160401b03811115615195575f80fd5b8036038213156151a3575f80fd5b604080850152806080850152808260a08601375f60a082860101526020850135606085015260a0601f19601f830116850101925050509392505050565b5f602082840312156151f0575f80fd5b81516110898161420c565b5f6060828403121561520b575f80fd5b611089838361507c565b5f60208284031215615225575f80fd5b815160038110611089575f80fd5b634e487b7160e01b5f52601160045260245ffd5b81810381811115610d7b57610d7b615233565b5f8261527457634e487b7160e01b5f52601260045260245ffd5b500490565b5f60c08284031215615289575f80fd5b6152916143d2565b825181526020830151602082015260408301516040820152606083015160608201526080830151608082015260a08301516152cb8161420c565b60a08201529392505050565b5f602082840312156152e7575f80fd5b5051919050565b805160018060a01b038082511684526020820151602085015260408201516040850152606082015160608501526080820151608085015260a082015160a085015260c0820151151560c0850152602083015160e08501528060408401511661010085015250505050565b828152610140810161108960208301846152ee565b5f6080828403121561537d575f80fd5b604051608081018181106001600160401b038211171561539f5761539f614330565b806040525080915082516153b28161420c565b815260208301516153c281614424565b8060208301525060408301516040820152606083015160608201525092915050565b5f61012082840312156153f5575f80fd5b6153fd6143d2565b615407848461536d565b81526080830151602082015260a0830151604082015260c0830151606082015260e0830151608082015261010083015160a08201528091505092915050565b5f610d7b36836147fc565b918252805180516020808501919091528082015160408086019190915290910151606084015201516001600160a01b0316608082015260a00190565b5f60a0828403121561549d575f80fd5b6110898383614bea565b5f610180820190508382526154c06020830184516152ee565b60208301516001600160a01b0390811661014084015260409093015190921661016090910152919050565b5f8151606084526154ff6060850182614a7a565b602084810151868303878301528051808452908201935090915f91908301905b8083101561553f578451825293830193600192909201919083019061551f565b506040860151935086810360408801526155598185614a7a565b979650505050505050565b5f81516040845280516040850152602081015190506040606085015261558d60808501826154eb565b6020938401516001600160a01b0316949093019390935250919050565b828152604060208201525f6133b96040830184615564565b5f6101008201905083825261560c602083018451805182526020808201516001600160a01b0316908301526040808201519083015260608082015190830152608090810151910152565b602083015160c08301526040909201516001600160a01b031660e090910152919050565b5f8060408385031215615641575f80fd5b505080516020909101519092909150565b83815260e081016156976020830185805182526020808201516001600160a01b0316908301526040808201519083015260608082015190830152608090810151910152565b8260c0830152949350505050565b5f610d7b3683614e5a565b5f60a082840312156156c0575f80fd5b6156c86143b0565b82518152602083015160208201526040830151604082015260608301516060820152608083015160808201528091505092915050565b6001600160401b038116811461107a575f80fd5b5f60408284031215615722575f80fd5b61572a61438e565b82516157358161420c565b8152602083015161461d816156fe565b5f6060820190508382528235602083015260208301356157648161420c565b6001600160a01b03166040929092019190915292915050565b5f6060828403121561578d575f80fd5b61108983836145b3565b5f6101808201905083825282516157dd60208401825180518252602081015160208301526040810151604083015260608101516060830152608081015160808301525050565b602090810151805160c08501528082015160e0850152604081015161010085015260608101516101208501526080015161014084015292909201516001600160a01b031661016090910152919050565b828152604060208201525f825160408084015260018060a01b03808251166080850152602082015160a08501526040820151151560c08501526060820151151560e08501526080820151915060a061010085015261588f610120850183614a7a565b915080602086015116606085015250809150509392505050565b5f61014082840312156158ba575f80fd5b6158c2614344565b6158cc848461536d565b815260808301516158dc8161420c565b8060208301525060a0830151604082015260c0830151606082015260e0830151608082015261010083015160a082015261012083015160c08201528091505092915050565b8281526080810161108960208301848035825260208082013590830152604090810135910152565b83815260a0810161597160208301858035825260208082013590830152604090810135910152565b826080830152949350505050565b5f6020828403121561598f575f80fd5b815161108981614424565b803582526020810135602083015260408101356040830152606081013560608301526080810135608083015260a08101356159d48161420c565b6001600160a01b031660a0929092019190915250565b80356159f58161420c565b6001600160a01b031682526020810135615a0e816156fe565b6001600160401b0381166020840152505050565b8035615a2d8161420c565b6001600160a01b039081168352602082013590615a498261420c565b9081166020840152604082013590615a608261420c565b9081166040840152606082013590615a778261420c565b9081166060840152608082013590615a8e8261420c565b908116608084015260a082013590615aa58261420c565b80821660a085015250505050565b8681526001600160a01b03861660208201526102a08101615ad7604083018761599a565b84356101008301526020850135610120830152604085013561014083015260608501356101608301526080850135610180830152615b196101a08301856159ea565b6155596101e0830184615a22565b8581526102808101615b3c602083018761599a565b843560e08301526020850135610100830152604085013561012083015260608501356101408301526080850135610160830152615b7d6101808301856159ea565b613d356101c0830184615a22565b82815260a081016110896020830184805180516001600160a01b0390811684526020808301518186015260409283015182169285019290925291015116606090910152565b5f6101408284031215615be1575f80fd5b6110898383614d22565b5f60208284031215615bfb575f80fd5b6110898383614997565b600181815b80851115615c3f57815f1904821115615c2557615c25615233565b80851615615c3257918102915b93841c9390800290615c0a565b509250929050565b5f82615c5557506001610d7b565b81615c6157505f610d7b565b8160018114615c775760028114615c8157615c9d565b6001915050610d7b565b60ff841115615c9257615c92615233565b50506001821b610d7b565b5060208310610133831016604e8410600b8410161715615cc0575081810a610d7b565b615cca8383615c05565b805f1904821115615cdd57615cdd615233565b029392505050565b5f6110898383615c47565b8082028115828204841417610d7b57610d7b615233565b5f60208284031215615d17575f80fd5b815160ff81168114611089575f80fd5b5f61108960ff841683615c47565b634e487b7160e01b5f52603260045260245ffd5b5f808335601e19843603018112615d5e575f80fd5b8301803591506001600160401b03821115615d77575f80fd5b602001915036819003821315615d8b575f80fd5b9250929050565b80820180821115610d7b57610d7b615233565b60a081525f615db760a08301866154eb565b90506001600160801b03845116602083015260208401516001600160401b0380821660408501528060408701511660608501525050826080830152949350505050565b5f8251615e0b818460208701614a1b565b919091019291505056fe360894a13ba1a3210667c828492db98dca3e2076cc3735a920a3ca505d382bbc02dd7bc7dec4dceedda775e58dd541e08a116c6c53815c0bd028192f7b626800cd5ed15c6e187e77e9aee88184c21f4f2182ab5827cb3b7e07fbedcd63f03300a2646970667358221220d5527b1a38775c7e344e149a4e5d6438d65e4b7317b3f66d4b3a05f46ea6663764736f6c63430008170033",
    "linkReferences": {
      "src/market/libraries/LoanLibrary.sol": {
        "LoanLibrary": [
          {
            "start": 4637,
            "length": 20
          },
          {
            "start": 9014,
            "length": 20
          },
          {
            "start": 10118,
            "length": 20
          }
        ]
      },
      "src/market/libraries/OfferLibrary.sol": {
        "OfferLibrary": [
          {
            "start": 5019,
            "length": 20
          },
          {
            "start": 8944,
            "length": 20
          }
        ]
      },
      "src/market/libraries/RiskLibrary.sol": {
        "RiskLibrary": [
          {
            "start": 5519,
            "length": 20
          },
          {
            "start": 5854,
            "length": 20
          },
          {
            "start": 6654,
            "length": 20
          },
          {
            "start": 8701,
            "length": 20
          },
          {
            "start": 10612,
            "length": 20
          },
          {
            "start": 11101,
            "length": 20
          },
          {
            "start": 11636,
            "length": 20
          }
        ]
      },
      "src/market/libraries/YieldCurveLibrary.sol": {
        "YieldCurveLibrary": [
          {
            "start": 15820,
            "length": 20
          }
        ]
      },
      "src/market/libraries/actions/BuyCreditLimit.sol": {
        "BuyCreditLimit": [
          {
            "start": 7145,
            "length": 20
          },
          {
            "start": 7244,
            "length": 20
          }
        ]
      },
      "src/market/libraries/actions/BuyCreditMarket.sol": {
        "BuyCreditMarket": [
          {
            "start": 6410,
            "length": 20
          },
          {
            "start": 6509,
            "length": 20
          },
          {
            "start": 11158,
            "length": 20
          }
        ]
      },
      "src/market/libraries/actions/Claim.sol": {
        "Claim": [
          {
            "start": 12388,
            "length": 20
          },
          {
            "start": 12487,
            "length": 20
          }
        ]
      },
      "src/market/libraries/actions/Compensate.sol": {
        "Compensate": [
          {
            "start": 5629,
            "length": 20
          },
          {
            "start": 5728,
            "length": 20
          }
        ]
      },
      "src/market/libraries/actions/CopyLimitOrders.sol": {
        "CopyLimitOrders": [
          {
            "start": 9878,
            "length": 20
          },
          {
            "start": 9977,
            "length": 20
          }
        ]
      },
      "src/market/libraries/actions/Deposit.sol": {
        "Deposit": [
          {
            "start": 12712,
            "length": 20
          },
          {
            "start": 12811,
            "length": 20
          }
        ]
      },
      "src/market/libraries/actions/Initialize.sol": {
        "Initialize": [
          {
            "start": 11903,
            "length": 20
          },
          {
            "start": 12036,
            "length": 20
          }
        ]
      },
      "src/market/libraries/actions/Liquidate.sol": {
        "Liquidate": [
          {
            "start": 11288,
            "length": 20
          },
          {
            "start": 11387,
            "length": 20
          },
          {
            "start": 11512,
            "length": 20
          }
        ]
      },
      "src/market/libraries/actions/LiquidateWithReplacement.sol": {
        "LiquidateWithReplacement": [
          {
            "start": 8448,
            "length": 20
          },
          {
            "start": 8547,
            "length": 20
          },
          {
            "start": 8789,
            "length": 20
          }
        ]
      },
      "src/market/libraries/actions/PartialRepay.sol": {
        "PartialRepay": [
          {
            "start": 3736,
            "length": 20
          },
          {
            "start": 3835,
            "length": 20
          }
        ]
      },
      "src/market/libraries/actions/Repay.sol": {
        "Repay": [
          {
            "start": 9525,
            "length": 20
          },
          {
            "start": 9623,
            "length": 20
          }
        ]
      },
      "src/market/libraries/actions/SelfLiquidate.sol": {
        "SelfLiquidate": [
          {
            "start": 6952,
            "length": 20
          },
          {
            "start": 7086,
            "length": 20
          }
        ]
      },
      "src/market/libraries/actions/SellCreditLimit.sol": {
        "SellCreditLimit": [
          {
            "start": 6711,
            "length": 20
          },
          {
            "start": 6810,
            "length": 20
          }
        ]
      },
      "src/market/libraries/actions/SellCreditMarket.sol": {
        "SellCreditMarket": [
          {
            "start": 5176,
            "length": 20
          },
          {
            "start": 10856,
            "length": 20
          },
          {
            "start": 10955,
            "length": 20
          }
        ]
      },
      "src/market/libraries/actions/SetUserConfiguration.sol": {
        "SetUserConfiguration": [
          {
            "start": 10430,
            "length": 20
          },
          {
            "start": 10529,
            "length": 20
          }
        ]
      },
      "src/market/libraries/actions/UpdateConfig.sol": {
        "UpdateConfig": [
          {
            "start": 3995,
            "length": 20
          },
          {
            "start": 4094,
            "length": 20
          },
          {
            "start": 4861,
            "length": 20
          },
          {
            "start": 9280,
            "length": 20
          },
          {
            "start": 9412,
            "length": 20
          }
        ]
      },
      "src/market/libraries/actions/Withdraw.sol": {
        "Withdraw": [
          {
            "start": 12546,
            "length": 20
          },
          {
            "start": 12645,
            "length": 20
          }
        ]
      }
    }
  },
  "methodIdentifiers": {
    "DEFAULT_ADMIN_ROLE()": "a217fddf",
    "UPGRADE_INTERFACE_VERSION()": "ad3cb1cc",
    "buyCreditLimit((uint256,(uint256[],int256[],uint256[])))": "3746f858",
    "buyCreditLimitOnBehalfOf(((uint256,(uint256[],int256[],uint256[])),address))": "53e043d4",
    "buyCreditMarket((address,uint256,uint256,uint256,uint256,uint256,bool))": "19a7359b",
    "buyCreditMarketOnBehalfOf((((address,uint256,uint256,uint256,uint256,uint256,bool),uint256,address),address,address))": "4fcde96d",
    "claim((uint256))": "f45bf01c",
    "collateralRatio(address)": "ca40742c",
    "compensate((uint256,uint256,uint256))": "8e572776",
    "compensateOnBehalfOf(((uint256,uint256,uint256),address))": "3ae6d7c3",
    "copyLimitOrders(((uint256,uint256,uint256,uint256,int256),(uint256,uint256,uint256,uint256,int256)))": "fb7fb2d9",
    "copyLimitOrdersOnBehalfOf((((uint256,uint256,uint256,uint256,int256),(uint256,uint256,uint256,uint256,int256)),address))": "9d92e758",
    "data()": "73d4a13a",
    "debtTokenAmountToCollateralTokenAmount(uint256)": "1970e5ea",
    "deposit((address,uint256,address))": "0cf8542f",
    "depositOnBehalfOf(((address,uint256,address),address))": "fa823af5",
    "feeConfig()": "1e5eb1d0",
    "getBorrowOfferAPR(address,uint256,address,uint256)": "1ff75b0b",
    "getBuyCreditMarketSwapData(((address,uint256,uint256,uint256,uint256,uint256,bool),uint256,address))": "defda175",
    "getCreditPosition(uint256)": "76c1b82f",
    "getDebtPosition(uint256)": "b5ec7487",
    "getLoanOfferAPR(address,uint256,address,uint256)": "73b683be",
    "getLoanStatus(uint256)": "1c4fd41c",
    "getPositionsCount()": "1ca3b0cb",
    "getRoleAdmin(bytes32)": "248a9ca3",
    "getSellCreditMarketSwapData(((address,uint256,uint256,uint256,uint256,uint256,bool),uint256,address))": "2aeb6143",
    "getUserDefinedBorrowOfferAPR(address,uint256)": "2b59bd99",
    "getUserDefinedCopyBorrowOfferConfig(address)": "c421a759",
    "getUserDefinedCopyLoanOfferConfig(address)": "04c84222",
    "getUserDefinedLoanOfferAPR(address,uint256)": "0d37ab00",
    "getUserView(address)": "5cbc51eb",
    "grantRole(bytes32,address)": "2f2ff15d",
    "hasRole(bytes32,address)": "91d14854",
    "initialize(address,(uint256,uint256,uint256,uint256,uint256,address),(uint256,uint256,uint256,uint256,uint256),(address,uint64),(address,address,address,address,address,address))": "f1bf35c3",
    "isCreditPositionId(uint256)": "ccc96815",
    "isDebtPositionId(uint256)": "64eb0a71",
    "isDebtPositionLiquidatable(uint256)": "e5af06ce",
    "liquidate((uint256,uint256,uint256))": "e05001f5",
    "liquidateWithReplacement((uint256,address,uint256,uint256,uint256))": "3e3c119b",
    "liquidateWithReplacementWithCollection(((uint256,address,uint256,uint256,uint256),uint256,address))": "72fc3754",
    "multicall(bytes[])": "ac9650d8",
    "oracle()": "7dc0d1d0",
    "partialRepay((uint256,uint256,address))": "02f2855a",
    "pause()": "8456cb59",
    "paused()": "5c975abb",
    "proxiableUUID()": "52d1902d",
    "renounceRole(bytes32,address)": "36568abe",
    "repay((uint256,address))": "7f417c06",
    "revokeRole(bytes32,address)": "d547741f",
    "riskConfig()": "7c90a6ca",
    "selfLiquidate((uint256))": "fd17174a",
    "selfLiquidateOnBehalfOf(((uint256),address,address))": "536b9c79",
    "sellCreditLimit((uint256,(uint256[],int256[],uint256[])))": "ccd8d4d1",
    "sellCreditLimitOnBehalfOf(((uint256,(uint256[],int256[],uint256[])),address))": "4fd9a8a5",
    "sellCreditMarket((address,uint256,uint256,uint256,uint256,uint256,bool))": "d8d933a5",
    "sellCreditMarketOnBehalfOf((((address,uint256,uint256,uint256,uint256,uint256,bool),uint256,address),address,address))": "db147504",
    "setUserConfiguration((address,uint256,bool,bool,uint256[]))": "780cafa8",
    "setUserConfigurationOnBehalfOf(((address,uint256,bool,bool,uint256[]),address))": "c7cd4d87",
    "setVariablePoolBorrowRate(uint128)": "4cbd882c",
    "sizeFactory()": "fa7a5b10",
    "supportsInterface(bytes4)": "01ffc9a7",
    "unpause()": "3f4ba83a",
    "updateConfig((string,uint256))": "0317b9df",
    "upgradeToAndCall(address,bytes)": "4f1ef286",
    "vaultOf(address)": "0709df45",
    "version()": "54fd4d50",
    "withdraw((address,uint256,address))": "2b4c9a20",
    "withdrawOnBehalfOf(((address,uint256,address),address))": "f54ae18b"
  },
  "id": 269
}