{
  "abi": [
    {
      "type": "constructor",
      "inputs": [],
      "stateMutability": "nonpayable"
    },
    {
      "type": "function",
      "name": "DEFAULT_ADMIN_ROLE",
      "inputs": [],
      "outputs": [
        {
          "name": "",
          "type": "bytes32",
          "internalType": "bytes32"
        }
      ],
      "stateMutability": "view"
    },
    {
      "type": "function",
      "name": "UPGRADE_INTERFACE_VERSION",
      "inputs": [],
      "outputs": [
        {
          "name": "",
          "type": "string",
          "internalType": "string"
        }
      ],
      "stateMutability": "view"
    },
    {
      "type": "function",
      "name": "buyCreditLimit",
      "inputs": [
        {
          "name": "params",
          "type": "tuple",
          "internalType": "struct BuyCreditLimitParams",
          "components": [
            {
              "name": "maxDueDate",
              "type": "uint256",
              "internalType": "uint256"
            },
            {
              "name": "curveRelativeTime",
              "type": "tuple",
              "internalType": "struct YieldCurve",
              "components": [
                {
                  "name": "tenors",
                  "type": "uint256[]",
                  "internalType": "uint256[]"
                },
                {
                  "name": "aprs",
                  "type": "int256[]",
                  "internalType": "int256[]"
                },
                {
                  "name": "marketRateMultipliers",
                  "type": "uint256[]",
                  "internalType": "uint256[]"
                }
              ]
            }
          ]
        }
      ],
      "outputs": [],
      "stateMutability": "payable"
    },
    {
      "type": "function",
      "name": "buyCreditLimitOnBehalfOf",
      "inputs": [
        {
          "name": "externalParams",
          "type": "tuple",
          "internalType": "struct BuyCreditLimitOnBehalfOfParams",
          "components": [
            {
              "name": "params",
              "type": "tuple",
              "internalType": "struct BuyCreditLimitParams",
              "components": [
                {
                  "name": "maxDueDate",
                  "type": "uint256",
                  "internalType": "uint256"
                },
                {
                  "name": "curveRelativeTime",
                  "type": "tuple",
                  "internalType": "struct YieldCurve",
                  "components": [
                    {
                      "name": "tenors",
                      "type": "uint256[]",
                      "internalType": "uint256[]"
                    },
                    {
                      "name": "aprs",
                      "type": "int256[]",
                      "internalType": "int256[]"
                    },
                    {
                      "name": "marketRateMultipliers",
                      "type": "uint256[]",
                      "internalType": "uint256[]"
                    }
                  ]
                }
              ]
            },
            {
              "name": "onBehalfOf",
              "type": "address",
              "internalType": "address"
            }
          ]
        }
      ],
      "outputs": [],
      "stateMutability": "payable"
    },
    {
      "type": "function",
      "name": "buyCreditMarket",
      "inputs": [
        {
          "name": "params",
          "type": "tuple",
          "internalType": "struct BuyCreditMarketParams",
          "components": [
            {
              "name": "borrower",
              "type": "address",
              "internalType": "address"
            },
            {
              "name": "creditPositionId",
              "type": "uint256",
              "internalType": "uint256"
            },
            {
              "name": "amount",
              "type": "uint256",
              "internalType": "uint256"
            },
            {
              "name": "tenor",
              "type": "uint256",
              "internalType": "uint256"
            },
            {
              "name": "deadline",
              "type": "uint256",
              "internalType": "uint256"
            },
            {
              "name": "minAPR",
              "type": "uint256",
              "internalType": "uint256"
            },
            {
              "name": "exactAmountIn",
              "type": "bool",
              "internalType": "bool"
            }
          ]
        }
      ],
      "outputs": [],
      "stateMutability": "payable"
    },
    {
      "type": "function",
      "name": "buyCreditMarketOnBehalfOf",
      "inputs": [
        {
          "name": "externalParams",
          "type": "tuple",
          "internalType": "struct BuyCreditMarketOnBehalfOfParams",
          "components": [
            {
              "name": "params",
              "type": "tuple",
              "internalType": "struct BuyCreditMarketParams",
              "components": [
                {
                  "name": "borrower",
                  "type": "address",
                  "internalType": "address"
                },
                {
                  "name": "creditPositionId",
                  "type": "uint256",
                  "internalType": "uint256"
                },
                {
                  "name": "amount",
                  "type": "uint256",
                  "internalType": "uint256"
                },
                {
                  "name": "tenor",
                  "type": "uint256",
                  "internalType": "uint256"
                },
                {
                  "name": "deadline",
                  "type": "uint256",
                  "internalType": "uint256"
                },
                {
                  "name": "minAPR",
                  "type": "uint256",
                  "internalType": "uint256"
                },
                {
                  "name": "exactAmountIn",
                  "type": "bool",
                  "internalType": "bool"
                }
              ]
            },
            {
              "name": "onBehalfOf",
              "type": "address",
              "internalType": "address"
            },
            {
              "name": "recipient",
              "type": "address",
              "internalType": "address"
            }
          ]
        }
      ],
      "outputs": [],
      "stateMutability": "payable"
    },
    {
      "type": "function",
      "name": "claim",
      "inputs": [
        {
          "name": "params",
          "type": "tuple",
          "internalType": "struct ClaimParams",
          "components": [
            {
              "name": "creditPositionId",
              "type": "uint256",
              "internalType": "uint256"
            }
          ]
        }
      ],
      "outputs": [],
      "stateMutability": "payable"
    },
    {
      "type": "function",
      "name": "collateralRatio",
      "inputs": [
        {
          "name": "user",
          "type": "address",
          "internalType": "address"
        }
      ],
      "outputs": [
        {
          "name": "",
          "type": "uint256",
          "internalType": "uint256"
        }
      ],
      "stateMutability": "view"
    },
    {
      "type": "function",
      "name": "compensate",
      "inputs": [
        {
          "name": "params",
          "type": "tuple",
          "internalType": "struct CompensateParams",
          "components": [
            {
              "name": "creditPositionWithDebtToRepayId",
              "type": "uint256",
              "internalType": "uint256"
            },
            {
              "name": "creditPositionToCompensateId",
              "type": "uint256",
              "internalType": "uint256"
            },
            {
              "name": "amount",
              "type": "uint256",
              "internalType": "uint256"
            }
          ]
        }
      ],
      "outputs": [],
      "stateMutability": "payable"
    },
    {
      "type": "function",
      "name": "compensateOnBehalfOf",
      "inputs": [
        {
          "name": "externalParams",
          "type": "tuple",
          "internalType": "struct CompensateOnBehalfOfParams",
          "components": [
            {
              "name": "params",
              "type": "tuple",
              "internalType": "struct CompensateParams",
              "components": [
                {
                  "name": "creditPositionWithDebtToRepayId",
                  "type": "uint256",
                  "internalType": "uint256"
                },
                {
                  "name": "creditPositionToCompensateId",
                  "type": "uint256",
                  "internalType": "uint256"
                },
                {
                  "name": "amount",
                  "type": "uint256",
                  "internalType": "uint256"
                }
              ]
            },
            {
              "name": "onBehalfOf",
              "type": "address",
              "internalType": "address"
            }
          ]
        }
      ],
      "outputs": [],
      "stateMutability": "payable"
    },
    {
      "type": "function",
      "name": "copyLimitOrders",
      "inputs": [
        {
          "name": "params",
          "type": "tuple",
          "internalType": "struct CopyLimitOrdersParams",
          "components": [
            {
              "name": "copyAddress",
              "type": "address",
              "internalType": "address"
            },
            {
              "name": "copyLoanOffer",
              "type": "tuple",
              "internalType": "struct CopyLimitOrder",
              "components": [
                {
                  "name": "minTenor",
                  "type": "uint256",
                  "internalType": "uint256"
                },
                {
                  "name": "maxTenor",
                  "type": "uint256",
                  "internalType": "uint256"
                },
                {
                  "name": "minAPR",
                  "type": "uint256",
                  "internalType": "uint256"
                },
                {
                  "name": "maxAPR",
                  "type": "uint256",
                  "internalType": "uint256"
                },
                {
                  "name": "offsetAPR",
                  "type": "int256",
                  "internalType": "int256"
                }
              ]
            },
            {
              "name": "copyBorrowOffer",
              "type": "tuple",
              "internalType": "struct CopyLimitOrder",
              "components": [
                {
                  "name": "minTenor",
                  "type": "uint256",
                  "internalType": "uint256"
                },
                {
                  "name": "maxTenor",
                  "type": "uint256",
                  "internalType": "uint256"
                },
                {
                  "name": "minAPR",
                  "type": "uint256",
                  "internalType": "uint256"
                },
                {
                  "name": "maxAPR",
                  "type": "uint256",
                  "internalType": "uint256"
                },
                {
                  "name": "offsetAPR",
                  "type": "int256",
                  "internalType": "int256"
                }
              ]
            }
          ]
        }
      ],
      "outputs": [],
      "stateMutability": "payable"
    },
    {
      "type": "function",
      "name": "copyLimitOrdersOnBehalfOf",
      "inputs": [
        {
          "name": "externalParams",
          "type": "tuple",
          "internalType": "struct CopyLimitOrdersOnBehalfOfParams",
          "components": [
            {
              "name": "params",
              "type": "tuple",
              "internalType": "struct CopyLimitOrdersParams",
              "components": [
                {
                  "name": "copyAddress",
                  "type": "address",
                  "internalType": "address"
                },
                {
                  "name": "copyLoanOffer",
                  "type": "tuple",
                  "internalType": "struct CopyLimitOrder",
                  "components": [
                    {
                      "name": "minTenor",
                      "type": "uint256",
                      "internalType": "uint256"
                    },
                    {
                      "name": "maxTenor",
                      "type": "uint256",
                      "internalType": "uint256"
                    },
                    {
                      "name": "minAPR",
                      "type": "uint256",
                      "internalType": "uint256"
                    },
                    {
                      "name": "maxAPR",
                      "type": "uint256",
                      "internalType": "uint256"
                    },
                    {
                      "name": "offsetAPR",
                      "type": "int256",
                      "internalType": "int256"
                    }
                  ]
                },
                {
                  "name": "copyBorrowOffer",
                  "type": "tuple",
                  "internalType": "struct CopyLimitOrder",
                  "components": [
                    {
                      "name": "minTenor",
                      "type": "uint256",
                      "internalType": "uint256"
                    },
                    {
                      "name": "maxTenor",
                      "type": "uint256",
                      "internalType": "uint256"
                    },
                    {
                      "name": "minAPR",
                      "type": "uint256",
                      "internalType": "uint256"
                    },
                    {
                      "name": "maxAPR",
                      "type": "uint256",
                      "internalType": "uint256"
                    },
                    {
                      "name": "offsetAPR",
                      "type": "int256",
                      "internalType": "int256"
                    }
                  ]
                }
              ]
            },
            {
              "name": "onBehalfOf",
              "type": "address",
              "internalType": "address"
            }
          ]
        }
      ],
      "outputs": [],
      "stateMutability": "payable"
    },
    {
      "type": "function",
      "name": "data",
      "inputs": [],
      "outputs": [
        {
          "name": "",
          "type": "tuple",
          "internalType": "struct DataView",
          "components": [
            {
              "name": "nextDebtPositionId",
              "type": "uint256",
              "internalType": "uint256"
            },
            {
              "name": "nextCreditPositionId",
              "type": "uint256",
              "internalType": "uint256"
            },
            {
              "name": "underlyingCollateralToken",
              "type": "address",
              "internalType": "contract IERC20Metadata"
            },
            {
              "name": "underlyingBorrowToken",
              "type": "address",
              "internalType": "contract IERC20Metadata"
            },
            {
              "name": "collateralToken",
              "type": "address",
              "internalType": "contract NonTransferrableToken"
            },
            {
              "name": "borrowTokenVault",
              "type": "address",
              "internalType": "contract NonTransferrableRebasingTokenVault"
            },
            {
              "name": "debtToken",
              "type": "address",
              "internalType": "contract NonTransferrableToken"
            },
            {
              "name": "variablePool",
              "type": "address",
              "internalType": "contract IPool"
            }
          ]
        }
      ],
      "stateMutability": "view"
    },
    {
      "type": "function",
      "name": "debtTokenAmountToCollateralTokenAmount",
      "inputs": [
        {
          "name": "amount",
          "type": "uint256",
          "internalType": "uint256"
        }
      ],
      "outputs": [
        {
          "name": "",
          "type": "uint256",
          "internalType": "uint256"
        }
      ],
      "stateMutability": "view"
    },
    {
      "type": "function",
      "name": "deposit",
      "inputs": [
        {
          "name": "params",
          "type": "tuple",
          "internalType": "struct DepositParams",
          "components": [
            {
              "name": "token",
              "type": "address",
              "internalType": "address"
            },
            {
              "name": "amount",
              "type": "uint256",
              "internalType": "uint256"
            },
            {
              "name": "to",
              "type": "address",
              "internalType": "address"
            }
          ]
        }
      ],
      "outputs": [],
      "stateMutability": "payable"
    },
    {
      "type": "function",
      "name": "depositOnBehalfOf",
      "inputs": [
        {
          "name": "params",
          "type": "tuple",
          "internalType": "struct DepositOnBehalfOfParams",
          "components": [
            {
              "name": "params",
              "type": "tuple",
              "internalType": "struct DepositParams",
              "components": [
                {
                  "name": "token",
                  "type": "address",
                  "internalType": "address"
                },
                {
                  "name": "amount",
                  "type": "uint256",
                  "internalType": "uint256"
                },
                {
                  "name": "to",
                  "type": "address",
                  "internalType": "address"
                }
              ]
            },
            {
              "name": "onBehalfOf",
              "type": "address",
              "internalType": "address"
            }
          ]
        }
      ],
      "outputs": [],
      "stateMutability": "payable"
    },
    {
      "type": "function",
      "name": "feeConfig",
      "inputs": [],
      "outputs": [
        {
          "name": "",
          "type": "tuple",
          "internalType": "struct InitializeFeeConfigParams",
          "components": [
            {
              "name": "swapFeeAPR",
              "type": "uint256",
              "internalType": "uint256"
            },
            {
              "name": "fragmentationFee",
              "type": "uint256",
              "internalType": "uint256"
            },
            {
              "name": "liquidationRewardPercent",
              "type": "uint256",
              "internalType": "uint256"
            },
            {
              "name": "overdueCollateralProtocolPercent",
              "type": "uint256",
              "internalType": "uint256"
            },
            {
              "name": "collateralProtocolPercent",
              "type": "uint256",
              "internalType": "uint256"
            },
            {
              "name": "feeRecipient",
              "type": "address",
              "internalType": "address"
            }
          ]
        }
      ],
      "stateMutability": "view"
    },
    {
      "type": "function",
      "name": "getBorrowOfferAPR",
      "inputs": [
        {
          "name": "borrower",
          "type": "address",
          "internalType": "address"
        },
        {
          "name": "tenor",
          "type": "uint256",
          "internalType": "uint256"
        }
      ],
      "outputs": [
        {
          "name": "",
          "type": "uint256",
          "internalType": "uint256"
        }
      ],
      "stateMutability": "view"
    },
    {
      "type": "function",
      "name": "getBuyCreditMarketSwapData",
      "inputs": [
        {
          "name": "params",
          "type": "tuple",
          "internalType": "struct BuyCreditMarketParams",
          "components": [
            {
              "name": "borrower",
              "type": "address",
              "internalType": "address"
            },
            {
              "name": "creditPositionId",
              "type": "uint256",
              "internalType": "uint256"
            },
            {
              "name": "amount",
              "type": "uint256",
              "internalType": "uint256"
            },
            {
              "name": "tenor",
              "type": "uint256",
              "internalType": "uint256"
            },
            {
              "name": "deadline",
              "type": "uint256",
              "internalType": "uint256"
            },
            {
              "name": "minAPR",
              "type": "uint256",
              "internalType": "uint256"
            },
            {
              "name": "exactAmountIn",
              "type": "bool",
              "internalType": "bool"
            }
          ]
        }
      ],
      "outputs": [
        {
          "name": "",
          "type": "tuple",
          "internalType": "struct BuyCreditMarket.SwapDataBuyCreditMarket",
          "components": [
            {
              "name": "creditPosition",
              "type": "tuple",
              "internalType": "struct CreditPosition",
              "components": [
                {
                  "name": "lender",
                  "type": "address",
                  "internalType": "address"
                },
                {
                  "name": "forSale",
                  "type": "bool",
                  "internalType": "bool"
                },
                {
                  "name": "credit",
                  "type": "uint256",
                  "internalType": "uint256"
                },
                {
                  "name": "debtPositionId",
                  "type": "uint256",
                  "internalType": "uint256"
                }
              ]
            },
            {
              "name": "borrower",
              "type": "address",
              "internalType": "address"
            },
            {
              "name": "creditAmountOut",
              "type": "uint256",
              "internalType": "uint256"
            },
            {
              "name": "cashAmountIn",
              "type": "uint256",
              "internalType": "uint256"
            },
            {
              "name": "swapFee",
              "type": "uint256",
              "internalType": "uint256"
            },
            {
              "name": "fragmentationFee",
              "type": "uint256",
              "internalType": "uint256"
            },
            {
              "name": "tenor",
              "type": "uint256",
              "internalType": "uint256"
            }
          ]
        }
      ],
      "stateMutability": "view"
    },
    {
      "type": "function",
      "name": "getCreditPosition",
      "inputs": [
        {
          "name": "creditPositionId",
          "type": "uint256",
          "internalType": "uint256"
        }
      ],
      "outputs": [
        {
          "name": "",
          "type": "tuple",
          "internalType": "struct CreditPosition",
          "components": [
            {
              "name": "lender",
              "type": "address",
              "internalType": "address"
            },
            {
              "name": "forSale",
              "type": "bool",
              "internalType": "bool"
            },
            {
              "name": "credit",
              "type": "uint256",
              "internalType": "uint256"
            },
            {
              "name": "debtPositionId",
              "type": "uint256",
              "internalType": "uint256"
            }
          ]
        }
      ],
      "stateMutability": "view"
    },
    {
      "type": "function",
      "name": "getDebtPosition",
      "inputs": [
        {
          "name": "debtPositionId",
          "type": "uint256",
          "internalType": "uint256"
        }
      ],
      "outputs": [
        {
          "name": "",
          "type": "tuple",
          "internalType": "struct DebtPosition",
          "components": [
            {
              "name": "borrower",
              "type": "address",
              "internalType": "address"
            },
            {
              "name": "futureValue",
              "type": "uint256",
              "internalType": "uint256"
            },
            {
              "name": "dueDate",
              "type": "uint256",
              "internalType": "uint256"
            },
            {
              "name": "liquidityIndexAtRepayment",
              "type": "uint256",
              "internalType": "uint256"
            }
          ]
        }
      ],
      "stateMutability": "view"
    },
    {
      "type": "function",
      "name": "getDebtPositionAssignedCollateral",
      "inputs": [
        {
          "name": "debtPositionId",
          "type": "uint256",
          "internalType": "uint256"
        }
      ],
      "outputs": [
        {
          "name": "",
          "type": "uint256",
          "internalType": "uint256"
        }
      ],
      "stateMutability": "view"
    },
    {
      "type": "function",
      "name": "getLoanOfferAPR",
      "inputs": [
        {
          "name": "lender",
          "type": "address",
          "internalType": "address"
        },
        {
          "name": "tenor",
          "type": "uint256",
          "internalType": "uint256"
        }
      ],
      "outputs": [
        {
          "name": "",
          "type": "uint256",
          "internalType": "uint256"
        }
      ],
      "stateMutability": "view"
    },
    {
      "type": "function",
      "name": "getLoanStatus",
      "inputs": [
        {
          "name": "positionId",
          "type": "uint256",
          "internalType": "uint256"
        }
      ],
      "outputs": [
        {
          "name": "",
          "type": "uint8",
          "internalType": "enum LoanStatus"
        }
      ],
      "stateMutability": "view"
    },
    {
      "type": "function",
      "name": "getPositionsCount",
      "inputs": [],
      "outputs": [
        {
          "name": "",
          "type": "uint256",
          "internalType": "uint256"
        },
        {
          "name": "",
          "type": "uint256",
          "internalType": "uint256"
        }
      ],
      "stateMutability": "view"
    },
    {
      "type": "function",
      "name": "getRoleAdmin",
      "inputs": [
        {
          "name": "role",
          "type": "bytes32",
          "internalType": "bytes32"
        }
      ],
      "outputs": [
        {
          "name": "",
          "type": "bytes32",
          "internalType": "bytes32"
        }
      ],
      "stateMutability": "view"
    },
    {
      "type": "function",
      "name": "getSellCreditMarketSwapData",
      "inputs": [
        {
          "name": "params",
          "type": "tuple",
          "internalType": "struct SellCreditMarketParams",
          "components": [
            {
              "name": "lender",
              "type": "address",
              "internalType": "address"
            },
            {
              "name": "creditPositionId",
              "type": "uint256",
              "internalType": "uint256"
            },
            {
              "name": "amount",
              "type": "uint256",
              "internalType": "uint256"
            },
            {
              "name": "tenor",
              "type": "uint256",
              "internalType": "uint256"
            },
            {
              "name": "deadline",
              "type": "uint256",
              "internalType": "uint256"
            },
            {
              "name": "maxAPR",
              "type": "uint256",
              "internalType": "uint256"
            },
            {
              "name": "exactAmountIn",
              "type": "bool",
              "internalType": "bool"
            }
          ]
        }
      ],
      "outputs": [
        {
          "name": "",
          "type": "tuple",
          "internalType": "struct SellCreditMarket.SwapDataSellCreditMarket",
          "components": [
            {
              "name": "creditPosition",
              "type": "tuple",
              "internalType": "struct CreditPosition",
              "components": [
                {
                  "name": "lender",
                  "type": "address",
                  "internalType": "address"
                },
                {
                  "name": "forSale",
                  "type": "bool",
                  "internalType": "bool"
                },
                {
                  "name": "credit",
                  "type": "uint256",
                  "internalType": "uint256"
                },
                {
                  "name": "debtPositionId",
                  "type": "uint256",
                  "internalType": "uint256"
                }
              ]
            },
            {
              "name": "creditAmountIn",
              "type": "uint256",
              "internalType": "uint256"
            },
            {
              "name": "cashAmountOut",
              "type": "uint256",
              "internalType": "uint256"
            },
            {
              "name": "swapFee",
              "type": "uint256",
              "internalType": "uint256"
            },
            {
              "name": "fragmentationFee",
              "type": "uint256",
              "internalType": "uint256"
            },
            {
              "name": "tenor",
              "type": "uint256",
              "internalType": "uint256"
            }
          ]
        }
      ],
      "stateMutability": "view"
    },
    {
      "type": "function",
      "name": "getSwapFee",
      "inputs": [
        {
          "name": "cash",
          "type": "uint256",
          "internalType": "uint256"
        },
        {
          "name": "tenor",
          "type": "uint256",
          "internalType": "uint256"
        }
      ],
      "outputs": [
        {
          "name": "",
          "type": "uint256",
          "internalType": "uint256"
        }
      ],
      "stateMutability": "view"
    },
    {
      "type": "function",
      "name": "getUserCopyLimitOrders",
      "inputs": [
        {
          "name": "user",
          "type": "address",
          "internalType": "address"
        }
      ],
      "outputs": [
        {
          "name": "",
          "type": "tuple",
          "internalType": "struct UserCopyLimitOrders",
          "components": [
            {
              "name": "copyAddress",
              "type": "address",
              "internalType": "address"
            },
            {
              "name": "copyLoanOffer",
              "type": "tuple",
              "internalType": "struct CopyLimitOrder",
              "components": [
                {
                  "name": "minTenor",
                  "type": "uint256",
                  "internalType": "uint256"
                },
                {
                  "name": "maxTenor",
                  "type": "uint256",
                  "internalType": "uint256"
                },
                {
                  "name": "minAPR",
                  "type": "uint256",
                  "internalType": "uint256"
                },
                {
                  "name": "maxAPR",
                  "type": "uint256",
                  "internalType": "uint256"
                },
                {
                  "name": "offsetAPR",
                  "type": "int256",
                  "internalType": "int256"
                }
              ]
            },
            {
              "name": "copyBorrowOffer",
              "type": "tuple",
              "internalType": "struct CopyLimitOrder",
              "components": [
                {
                  "name": "minTenor",
                  "type": "uint256",
                  "internalType": "uint256"
                },
                {
                  "name": "maxTenor",
                  "type": "uint256",
                  "internalType": "uint256"
                },
                {
                  "name": "minAPR",
                  "type": "uint256",
                  "internalType": "uint256"
                },
                {
                  "name": "maxAPR",
                  "type": "uint256",
                  "internalType": "uint256"
                },
                {
                  "name": "offsetAPR",
                  "type": "int256",
                  "internalType": "int256"
                }
              ]
            }
          ]
        }
      ],
      "stateMutability": "view"
    },
    {
      "type": "function",
      "name": "getUserView",
      "inputs": [
        {
          "name": "user",
          "type": "address",
          "internalType": "address"
        }
      ],
      "outputs": [
        {
          "name": "",
          "type": "tuple",
          "internalType": "struct UserView",
          "components": [
            {
              "name": "user",
              "type": "tuple",
              "internalType": "struct User",
              "components": [
                {
                  "name": "loanOffer",
                  "type": "tuple",
                  "internalType": "struct LimitOrder",
                  "components": [
                    {
                      "name": "maxDueDate",
                      "type": "uint256",
                      "internalType": "uint256"
                    },
                    {
                      "name": "curveRelativeTime",
                      "type": "tuple",
                      "internalType": "struct YieldCurve",
                      "components": [
                        {
                          "name": "tenors",
                          "type": "uint256[]",
                          "internalType": "uint256[]"
                        },
                        {
                          "name": "aprs",
                          "type": "int256[]",
                          "internalType": "int256[]"
                        },
                        {
                          "name": "marketRateMultipliers",
                          "type": "uint256[]",
                          "internalType": "uint256[]"
                        }
                      ]
                    }
                  ]
                },
                {
                  "name": "borrowOffer",
                  "type": "tuple",
                  "internalType": "struct LimitOrder",
                  "components": [
                    {
                      "name": "maxDueDate",
                      "type": "uint256",
                      "internalType": "uint256"
                    },
                    {
                      "name": "curveRelativeTime",
                      "type": "tuple",
                      "internalType": "struct YieldCurve",
                      "components": [
                        {
                          "name": "tenors",
                          "type": "uint256[]",
                          "internalType": "uint256[]"
                        },
                        {
                          "name": "aprs",
                          "type": "int256[]",
                          "internalType": "int256[]"
                        },
                        {
                          "name": "marketRateMultipliers",
                          "type": "uint256[]",
                          "internalType": "uint256[]"
                        }
                      ]
                    }
                  ]
                },
                {
                  "name": "openingLimitBorrowCR",
                  "type": "uint256",
                  "internalType": "uint256"
                },
                {
                  "name": "allCreditPositionsForSaleDisabled",
                  "type": "bool",
                  "internalType": "bool"
                }
              ]
            },
            {
              "name": "account",
              "type": "address",
              "internalType": "address"
            },
            {
              "name": "collateralTokenBalance",
              "type": "uint256",
              "internalType": "uint256"
            },
            {
              "name": "borrowTokenBalance",
              "type": "uint256",
              "internalType": "uint256"
            },
            {
              "name": "debtBalance",
              "type": "uint256",
              "internalType": "uint256"
            }
          ]
        }
      ],
      "stateMutability": "view"
    },
    {
      "type": "function",
      "name": "grantRole",
      "inputs": [
        {
          "name": "role",
          "type": "bytes32",
          "internalType": "bytes32"
        },
        {
          "name": "account",
          "type": "address",
          "internalType": "address"
        }
      ],
      "outputs": [],
      "stateMutability": "nonpayable"
    },
    {
      "type": "function",
      "name": "hasRole",
      "inputs": [
        {
          "name": "role",
          "type": "bytes32",
          "internalType": "bytes32"
        },
        {
          "name": "account",
          "type": "address",
          "internalType": "address"
        }
      ],
      "outputs": [
        {
          "name": "",
          "type": "bool",
          "internalType": "bool"
        }
      ],
      "stateMutability": "view"
    },
    {
      "type": "function",
      "name": "initialize",
      "inputs": [
        {
          "name": "owner",
          "type": "address",
          "internalType": "address"
        },
        {
          "name": "f",
          "type": "tuple",
          "internalType": "struct InitializeFeeConfigParams",
          "components": [
            {
              "name": "swapFeeAPR",
              "type": "uint256",
              "internalType": "uint256"
            },
            {
              "name": "fragmentationFee",
              "type": "uint256",
              "internalType": "uint256"
            },
            {
              "name": "liquidationRewardPercent",
              "type": "uint256",
              "internalType": "uint256"
            },
            {
              "name": "overdueCollateralProtocolPercent",
              "type": "uint256",
              "internalType": "uint256"
            },
            {
              "name": "collateralProtocolPercent",
              "type": "uint256",
              "internalType": "uint256"
            },
            {
              "name": "feeRecipient",
              "type": "address",
              "internalType": "address"
            }
          ]
        },
        {
          "name": "r",
          "type": "tuple",
          "internalType": "struct InitializeRiskConfigParams",
          "components": [
            {
              "name": "crOpening",
              "type": "uint256",
              "internalType": "uint256"
            },
            {
              "name": "crLiquidation",
              "type": "uint256",
              "internalType": "uint256"
            },
            {
              "name": "minimumCreditBorrowToken",
              "type": "uint256",
              "internalType": "uint256"
            },
            {
              "name": "minTenor",
              "type": "uint256",
              "internalType": "uint256"
            },
            {
              "name": "maxTenor",
              "type": "uint256",
              "internalType": "uint256"
            }
          ]
        },
        {
          "name": "o",
          "type": "tuple",
          "internalType": "struct InitializeOracleParams",
          "components": [
            {
              "name": "priceFeed",
              "type": "address",
              "internalType": "address"
            },
            {
              "name": "variablePoolBorrowRateStaleRateInterval",
              "type": "uint64",
              "internalType": "uint64"
            }
          ]
        },
        {
          "name": "d",
          "type": "tuple",
          "internalType": "struct InitializeDataParams",
          "components": [
            {
              "name": "weth",
              "type": "address",
              "internalType": "address"
            },
            {
              "name": "underlyingCollateralToken",
              "type": "address",
              "internalType": "address"
            },
            {
              "name": "underlyingBorrowToken",
              "type": "address",
              "internalType": "address"
            },
            {
              "name": "variablePool",
              "type": "address",
              "internalType": "address"
            },
            {
              "name": "borrowTokenVault",
              "type": "address",
              "internalType": "address"
            },
            {
              "name": "sizeFactory",
              "type": "address",
              "internalType": "address"
            }
          ]
        }
      ],
      "outputs": [],
      "stateMutability": "nonpayable"
    },
    {
      "type": "function",
      "name": "isCreditPositionId",
      "inputs": [
        {
          "name": "creditPositionId",
          "type": "uint256",
          "internalType": "uint256"
        }
      ],
      "outputs": [
        {
          "name": "",
          "type": "bool",
          "internalType": "bool"
        }
      ],
      "stateMutability": "view"
    },
    {
      "type": "function",
      "name": "isDebtPositionId",
      "inputs": [
        {
          "name": "debtPositionId",
          "type": "uint256",
          "internalType": "uint256"
        }
      ],
      "outputs": [
        {
          "name": "",
          "type": "bool",
          "internalType": "bool"
        }
      ],
      "stateMutability": "view"
    },
    {
      "type": "function",
      "name": "isDebtPositionLiquidatable",
      "inputs": [
        {
          "name": "debtPositionId",
          "type": "uint256",
          "internalType": "uint256"
        }
      ],
      "outputs": [
        {
          "name": "",
          "type": "bool",
          "internalType": "bool"
        }
      ],
      "stateMutability": "view"
    },
    {
      "type": "function",
      "name": "liquidate",
      "inputs": [
        {
          "name": "params",
          "type": "tuple",
          "internalType": "struct LiquidateParams",
          "components": [
            {
              "name": "debtPositionId",
              "type": "uint256",
              "internalType": "uint256"
            },
            {
              "name": "minimumCollateralProfit",
              "type": "uint256",
              "internalType": "uint256"
            },
            {
              "name": "deadline",
              "type": "uint256",
              "internalType": "uint256"
            }
          ]
        }
      ],
      "outputs": [
        {
          "name": "liquidatorProfitCollateralToken",
          "type": "uint256",
          "internalType": "uint256"
        }
      ],
      "stateMutability": "payable"
    },
    {
      "type": "function",
      "name": "liquidateWithReplacement",
      "inputs": [
        {
          "name": "params",
          "type": "tuple",
          "internalType": "struct LiquidateWithReplacementParams",
          "components": [
            {
              "name": "debtPositionId",
              "type": "uint256",
              "internalType": "uint256"
            },
            {
              "name": "borrower",
              "type": "address",
              "internalType": "address"
            },
            {
              "name": "minimumCollateralProfit",
              "type": "uint256",
              "internalType": "uint256"
            },
            {
              "name": "deadline",
              "type": "uint256",
              "internalType": "uint256"
            },
            {
              "name": "minAPR",
              "type": "uint256",
              "internalType": "uint256"
            }
          ]
        }
      ],
      "outputs": [
        {
          "name": "liquidatorProfitCollateralToken",
          "type": "uint256",
          "internalType": "uint256"
        },
        {
          "name": "liquidatorProfitBorrowToken",
          "type": "uint256",
          "internalType": "uint256"
        }
      ],
      "stateMutability": "payable"
    },
    {
      "type": "function",
      "name": "multicall",
      "inputs": [
        {
          "name": "_data",
          "type": "bytes[]",
          "internalType": "bytes[]"
        }
      ],
      "outputs": [
        {
          "name": "results",
          "type": "bytes[]",
          "internalType": "bytes[]"
        }
      ],
      "stateMutability": "payable"
    },
    {
      "type": "function",
      "name": "oracle",
      "inputs": [],
      "outputs": [
        {
          "name": "",
          "type": "tuple",
          "internalType": "struct InitializeOracleParams",
          "components": [
            {
              "name": "priceFeed",
              "type": "address",
              "internalType": "address"
            },
            {
              "name": "variablePoolBorrowRateStaleRateInterval",
              "type": "uint64",
              "internalType": "uint64"
            }
          ]
        }
      ],
      "stateMutability": "view"
    },
    {
      "type": "function",
      "name": "partialRepay",
      "inputs": [
        {
          "name": "params",
          "type": "tuple",
          "internalType": "struct PartialRepayParams",
          "components": [
            {
              "name": "creditPositionWithDebtToRepayId",
              "type": "uint256",
              "internalType": "uint256"
            },
            {
              "name": "amount",
              "type": "uint256",
              "internalType": "uint256"
            },
            {
              "name": "borrower",
              "type": "address",
              "internalType": "address"
            }
          ]
        }
      ],
      "outputs": [],
      "stateMutability": "payable"
    },
    {
      "type": "function",
      "name": "pause",
      "inputs": [],
      "outputs": [],
      "stateMutability": "nonpayable"
    },
    {
      "type": "function",
      "name": "paused",
      "inputs": [],
      "outputs": [
        {
          "name": "",
          "type": "bool",
          "internalType": "bool"
        }
      ],
      "stateMutability": "view"
    },
    {
      "type": "function",
      "name": "proxiableUUID",
      "inputs": [],
      "outputs": [
        {
          "name": "",
          "type": "bytes32",
          "internalType": "bytes32"
        }
      ],
      "stateMutability": "view"
    },
    {
      "type": "function",
      "name": "renounceRole",
      "inputs": [
        {
          "name": "role",
          "type": "bytes32",
          "internalType": "bytes32"
        },
        {
          "name": "callerConfirmation",
          "type": "address",
          "internalType": "address"
        }
      ],
      "outputs": [],
      "stateMutability": "nonpayable"
    },
    {
      "type": "function",
      "name": "repay",
      "inputs": [
        {
          "name": "params",
          "type": "tuple",
          "internalType": "struct RepayParams",
          "components": [
            {
              "name": "debtPositionId",
              "type": "uint256",
              "internalType": "uint256"
            },
            {
              "name": "borrower",
              "type": "address",
              "internalType": "address"
            }
          ]
        }
      ],
      "outputs": [],
      "stateMutability": "payable"
    },
    {
      "type": "function",
      "name": "revokeRole",
      "inputs": [
        {
          "name": "role",
          "type": "bytes32",
          "internalType": "bytes32"
        },
        {
          "name": "account",
          "type": "address",
          "internalType": "address"
        }
      ],
      "outputs": [],
      "stateMutability": "nonpayable"
    },
    {
      "type": "function",
      "name": "riskConfig",
      "inputs": [],
      "outputs": [
        {
          "name": "",
          "type": "tuple",
          "internalType": "struct InitializeRiskConfigParams",
          "components": [
            {
              "name": "crOpening",
              "type": "uint256",
              "internalType": "uint256"
            },
            {
              "name": "crLiquidation",
              "type": "uint256",
              "internalType": "uint256"
            },
            {
              "name": "minimumCreditBorrowToken",
              "type": "uint256",
              "internalType": "uint256"
            },
            {
              "name": "minTenor",
              "type": "uint256",
              "internalType": "uint256"
            },
            {
              "name": "maxTenor",
              "type": "uint256",
              "internalType": "uint256"
            }
          ]
        }
      ],
      "stateMutability": "view"
    },
    {
      "type": "function",
      "name": "selfLiquidate",
      "inputs": [
        {
          "name": "params",
          "type": "tuple",
          "internalType": "struct SelfLiquidateParams",
          "components": [
            {
              "name": "creditPositionId",
              "type": "uint256",
              "internalType": "uint256"
            }
          ]
        }
      ],
      "outputs": [],
      "stateMutability": "payable"
    },
    {
      "type": "function",
      "name": "selfLiquidateOnBehalfOf",
      "inputs": [
        {
          "name": "externalParams",
          "type": "tuple",
          "internalType": "struct SelfLiquidateOnBehalfOfParams",
          "components": [
            {
              "name": "params",
              "type": "tuple",
              "internalType": "struct SelfLiquidateParams",
              "components": [
                {
                  "name": "creditPositionId",
                  "type": "uint256",
                  "internalType": "uint256"
                }
              ]
            },
            {
              "name": "onBehalfOf",
              "type": "address",
              "internalType": "address"
            },
            {
              "name": "recipient",
              "type": "address",
              "internalType": "address"
            }
          ]
        }
      ],
      "outputs": [],
      "stateMutability": "payable"
    },
    {
      "type": "function",
      "name": "sellCreditLimit",
      "inputs": [
        {
          "name": "params",
          "type": "tuple",
          "internalType": "struct SellCreditLimitParams",
          "components": [
            {
              "name": "maxDueDate",
              "type": "uint256",
              "internalType": "uint256"
            },
            {
              "name": "curveRelativeTime",
              "type": "tuple",
              "internalType": "struct YieldCurve",
              "components": [
                {
                  "name": "tenors",
                  "type": "uint256[]",
                  "internalType": "uint256[]"
                },
                {
                  "name": "aprs",
                  "type": "int256[]",
                  "internalType": "int256[]"
                },
                {
                  "name": "marketRateMultipliers",
                  "type": "uint256[]",
                  "internalType": "uint256[]"
                }
              ]
            }
          ]
        }
      ],
      "outputs": [],
      "stateMutability": "payable"
    },
    {
      "type": "function",
      "name": "sellCreditLimitOnBehalfOf",
      "inputs": [
        {
          "name": "externalParams",
          "type": "tuple",
          "internalType": "struct SellCreditLimitOnBehalfOfParams",
          "components": [
            {
              "name": "params",
              "type": "tuple",
              "internalType": "struct SellCreditLimitParams",
              "components": [
                {
                  "name": "maxDueDate",
                  "type": "uint256",
                  "internalType": "uint256"
                },
                {
                  "name": "curveRelativeTime",
                  "type": "tuple",
                  "internalType": "struct YieldCurve",
                  "components": [
                    {
                      "name": "tenors",
                      "type": "uint256[]",
                      "internalType": "uint256[]"
                    },
                    {
                      "name": "aprs",
                      "type": "int256[]",
                      "internalType": "int256[]"
                    },
                    {
                      "name": "marketRateMultipliers",
                      "type": "uint256[]",
                      "internalType": "uint256[]"
                    }
                  ]
                }
              ]
            },
            {
              "name": "onBehalfOf",
              "type": "address",
              "internalType": "address"
            }
          ]
        }
      ],
      "outputs": [],
      "stateMutability": "payable"
    },
    {
      "type": "function",
      "name": "sellCreditMarket",
      "inputs": [
        {
          "name": "params",
          "type": "tuple",
          "internalType": "struct SellCreditMarketParams",
          "components": [
            {
              "name": "lender",
              "type": "address",
              "internalType": "address"
            },
            {
              "name": "creditPositionId",
              "type": "uint256",
              "internalType": "uint256"
            },
            {
              "name": "amount",
              "type": "uint256",
              "internalType": "uint256"
            },
            {
              "name": "tenor",
              "type": "uint256",
              "internalType": "uint256"
            },
            {
              "name": "deadline",
              "type": "uint256",
              "internalType": "uint256"
            },
            {
              "name": "maxAPR",
              "type": "uint256",
              "internalType": "uint256"
            },
            {
              "name": "exactAmountIn",
              "type": "bool",
              "internalType": "bool"
            }
          ]
        }
      ],
      "outputs": [],
      "stateMutability": "payable"
    },
    {
      "type": "function",
      "name": "sellCreditMarketOnBehalfOf",
      "inputs": [
        {
          "name": "externalParams",
          "type": "tuple",
          "internalType": "struct SellCreditMarketOnBehalfOfParams",
          "components": [
            {
              "name": "params",
              "type": "tuple",
              "internalType": "struct SellCreditMarketParams",
              "components": [
                {
                  "name": "lender",
                  "type": "address",
                  "internalType": "address"
                },
                {
                  "name": "creditPositionId",
                  "type": "uint256",
                  "internalType": "uint256"
                },
                {
                  "name": "amount",
                  "type": "uint256",
                  "internalType": "uint256"
                },
                {
                  "name": "tenor",
                  "type": "uint256",
                  "internalType": "uint256"
                },
                {
                  "name": "deadline",
                  "type": "uint256",
                  "internalType": "uint256"
                },
                {
                  "name": "maxAPR",
                  "type": "uint256",
                  "internalType": "uint256"
                },
                {
                  "name": "exactAmountIn",
                  "type": "bool",
                  "internalType": "bool"
                }
              ]
            },
            {
              "name": "onBehalfOf",
              "type": "address",
              "internalType": "address"
            },
            {
              "name": "recipient",
              "type": "address",
              "internalType": "address"
            }
          ]
        }
      ],
      "outputs": [],
      "stateMutability": "payable"
    },
    {
      "type": "function",
      "name": "setUserConfiguration",
      "inputs": [
        {
          "name": "params",
          "type": "tuple",
          "internalType": "struct SetUserConfigurationParams",
          "components": [
            {
              "name": "vault",
              "type": "address",
              "internalType": "address"
            },
            {
              "name": "openingLimitBorrowCR",
              "type": "uint256",
              "internalType": "uint256"
            },
            {
              "name": "allCreditPositionsForSaleDisabled",
              "type": "bool",
              "internalType": "bool"
            },
            {
              "name": "creditPositionIdsForSale",
              "type": "bool",
              "internalType": "bool"
            },
            {
              "name": "creditPositionIds",
              "type": "uint256[]",
              "internalType": "uint256[]"
            }
          ]
        }
      ],
      "outputs": [],
      "stateMutability": "payable"
    },
    {
      "type": "function",
      "name": "setUserConfigurationOnBehalfOf",
      "inputs": [
        {
          "name": "externalParams",
          "type": "tuple",
          "internalType": "struct SetUserConfigurationOnBehalfOfParams",
          "components": [
            {
              "name": "params",
              "type": "tuple",
              "internalType": "struct SetUserConfigurationParams",
              "components": [
                {
                  "name": "vault",
                  "type": "address",
                  "internalType": "address"
                },
                {
                  "name": "openingLimitBorrowCR",
                  "type": "uint256",
                  "internalType": "uint256"
                },
                {
                  "name": "allCreditPositionsForSaleDisabled",
                  "type": "bool",
                  "internalType": "bool"
                },
                {
                  "name": "creditPositionIdsForSale",
                  "type": "bool",
                  "internalType": "bool"
                },
                {
                  "name": "creditPositionIds",
                  "type": "uint256[]",
                  "internalType": "uint256[]"
                }
              ]
            },
            {
              "name": "onBehalfOf",
              "type": "address",
              "internalType": "address"
            }
          ]
        }
      ],
      "outputs": [],
      "stateMutability": "payable"
    },
    {
      "type": "function",
      "name": "setVariablePoolBorrowRate",
      "inputs": [
        {
          "name": "borrowRate",
          "type": "uint128",
          "internalType": "uint128"
        }
      ],
      "outputs": [],
      "stateMutability": "nonpayable"
    },
    {
      "type": "function",
      "name": "sizeFactory",
      "inputs": [],
      "outputs": [
        {
          "name": "",
          "type": "address",
          "internalType": "contract ISizeFactory"
        }
      ],
      "stateMutability": "view"
    },
    {
      "type": "function",
      "name": "supportsInterface",
      "inputs": [
        {
          "name": "interfaceId",
          "type": "bytes4",
          "internalType": "bytes4"
        }
      ],
      "outputs": [
        {
          "name": "",
          "type": "bool",
          "internalType": "bool"
        }
      ],
      "stateMutability": "view"
    },
    {
      "type": "function",
      "name": "unpause",
      "inputs": [],
      "outputs": [],
      "stateMutability": "nonpayable"
    },
    {
      "type": "function",
      "name": "updateConfig",
      "inputs": [
        {
          "name": "params",
          "type": "tuple",
          "internalType": "struct UpdateConfigParams",
          "components": [
            {
              "name": "key",
              "type": "string",
              "internalType": "string"
            },
            {
              "name": "value",
              "type": "uint256",
              "internalType": "uint256"
            }
          ]
        }
      ],
      "outputs": [],
      "stateMutability": "nonpayable"
    },
    {
      "type": "function",
      "name": "upgradeToAndCall",
      "inputs": [
        {
          "name": "newImplementation",
          "type": "address",
          "internalType": "address"
        },
        {
          "name": "data",
          "type": "bytes",
          "internalType": "bytes"
        }
      ],
      "outputs": [],
      "stateMutability": "payable"
    },
    {
      "type": "function",
      "name": "vaultOf",
      "inputs": [
        {
          "name": "user",
          "type": "address",
          "internalType": "address"
        }
      ],
      "outputs": [
        {
          "name": "",
          "type": "address",
          "internalType": "address"
        }
      ],
      "stateMutability": "view"
    },
    {
      "type": "function",
      "name": "version",
      "inputs": [],
      "outputs": [
        {
          "name": "",
          "type": "string",
          "internalType": "string"
        }
      ],
      "stateMutability": "pure"
    },
    {
      "type": "function",
      "name": "withdraw",
      "inputs": [
        {
          "name": "params",
          "type": "tuple",
          "internalType": "struct WithdrawParams",
          "components": [
            {
              "name": "token",
              "type": "address",
              "internalType": "address"
            },
            {
              "name": "amount",
              "type": "uint256",
              "internalType": "uint256"
            },
            {
              "name": "to",
              "type": "address",
              "internalType": "address"
            }
          ]
        }
      ],
      "outputs": [],
      "stateMutability": "payable"
    },
    {
      "type": "function",
      "name": "withdrawOnBehalfOf",
      "inputs": [
        {
          "name": "externalParams",
          "type": "tuple",
          "internalType": "struct WithdrawOnBehalfOfParams",
          "components": [
            {
              "name": "params",
              "type": "tuple",
              "internalType": "struct WithdrawParams",
              "components": [
                {
                  "name": "token",
                  "type": "address",
                  "internalType": "address"
                },
                {
                  "name": "amount",
                  "type": "uint256",
                  "internalType": "uint256"
                },
                {
                  "name": "to",
                  "type": "address",
                  "internalType": "address"
                }
              ]
            },
            {
              "name": "onBehalfOf",
              "type": "address",
              "internalType": "address"
            }
          ]
        }
      ],
      "outputs": [],
      "stateMutability": "payable"
    },
    {
      "type": "event",
      "name": "Initialized",
      "inputs": [
        {
          "name": "version",
          "type": "uint64",
          "indexed": false,
          "internalType": "uint64"
        }
      ],
      "anonymous": false
    },
    {
      "type": "event",
      "name": "Paused",
      "inputs": [
        {
          "name": "account",
          "type": "address",
          "indexed": false,
          "internalType": "address"
        }
      ],
      "anonymous": false
    },
    {
      "type": "event",
      "name": "RoleAdminChanged",
      "inputs": [
        {
          "name": "role",
          "type": "bytes32",
          "indexed": true,
          "internalType": "bytes32"
        },
        {
          "name": "previousAdminRole",
          "type": "bytes32",
          "indexed": true,
          "internalType": "bytes32"
        },
        {
          "name": "newAdminRole",
          "type": "bytes32",
          "indexed": true,
          "internalType": "bytes32"
        }
      ],
      "anonymous": false
    },
    {
      "type": "event",
      "name": "RoleGranted",
      "inputs": [
        {
          "name": "role",
          "type": "bytes32",
          "indexed": true,
          "internalType": "bytes32"
        },
        {
          "name": "account",
          "type": "address",
          "indexed": true,
          "internalType": "address"
        },
        {
          "name": "sender",
          "type": "address",
          "indexed": true,
          "internalType": "address"
        }
      ],
      "anonymous": false
    },
    {
      "type": "event",
      "name": "RoleRevoked",
      "inputs": [
        {
          "name": "role",
          "type": "bytes32",
          "indexed": true,
          "internalType": "bytes32"
        },
        {
          "name": "account",
          "type": "address",
          "indexed": true,
          "internalType": "address"
        },
        {
          "name": "sender",
          "type": "address",
          "indexed": true,
          "internalType": "address"
        }
      ],
      "anonymous": false
    },
    {
      "type": "event",
      "name": "Unpaused",
      "inputs": [
        {
          "name": "account",
          "type": "address",
          "indexed": false,
          "internalType": "address"
        }
      ],
      "anonymous": false
    },
    {
      "type": "event",
      "name": "Upgraded",
      "inputs": [
        {
          "name": "implementation",
          "type": "address",
          "indexed": true,
          "internalType": "address"
        }
      ],
      "anonymous": false
    },
    {
      "type": "event",
      "name": "VariablePoolBorrowRateUpdated",
      "inputs": [
        {
          "name": "sender",
          "type": "address",
          "indexed": true,
          "internalType": "address"
        },
        {
          "name": "oldBorrowRate",
          "type": "uint128",
          "indexed": false,
          "internalType": "uint128"
        },
        {
          "name": "newBorrowRate",
          "type": "uint128",
          "indexed": false,
          "internalType": "uint128"
        }
      ],
      "anonymous": false
    },
    {
      "type": "error",
      "name": "AccessControlBadConfirmation",
      "inputs": []
    },
    {
      "type": "error",
      "name": "AccessControlUnauthorizedAccount",
      "inputs": [
        {
          "name": "account",
          "type": "address",
          "internalType": "address"
        },
        {
          "name": "neededRole",
          "type": "bytes32",
          "internalType": "bytes32"
        }
      ]
    },
    {
      "type": "error",
      "name": "AddressEmptyCode",
      "inputs": [
        {
          "name": "target",
          "type": "address",
          "internalType": "address"
        }
      ]
    },
    {
      "type": "error",
      "name": "ERC1967InvalidImplementation",
      "inputs": [
        {
          "name": "implementation",
          "type": "address",
          "internalType": "address"
        }
      ]
    },
    {
      "type": "error",
      "name": "ERC1967NonPayable",
      "inputs": []
    },
    {
      "type": "error",
      "name": "EnforcedPause",
      "inputs": []
    },
    {
      "type": "error",
      "name": "ExpectedPause",
      "inputs": []
    },
    {
      "type": "error",
      "name": "FailedCall",
      "inputs": []
    },
    {
      "type": "error",
      "name": "InvalidInitialization",
      "inputs": []
    },
    {
      "type": "error",
      "name": "MUST_IMPROVE_COLLATERAL_RATIO",
      "inputs": [
        {
          "name": "account",
          "type": "address",
          "internalType": "address"
        },
        {
          "name": "crBefore",
          "type": "uint256",
          "internalType": "uint256"
        },
        {
          "name": "crAfter",
          "type": "uint256",
          "internalType": "uint256"
        }
      ]
    },
    {
      "type": "error",
      "name": "NULL_TENOR",
      "inputs": []
    },
    {
      "type": "error",
      "name": "NotInitializing",
      "inputs": []
    },
    {
      "type": "error",
      "name": "UUPSUnauthorizedCallContext",
      "inputs": []
    },
    {
      "type": "error",
      "name": "UUPSUnsupportedProxiableUUID",
      "inputs": [
        {
          "name": "slot",
          "type": "bytes32",
          "internalType": "bytes32"
        }
      ]
    }
  ],
  "bytecode": {
    "object": "0x60a06040523060805234801562000014575f80fd5b506200001f62000025565b620000d9565b7ff0c57e16840df040f15088dc2f81fe391c3923bec73e23a9662efc9c229c6a00805468010000000000000000900460ff1615620000765760405163f92ee8a960e01b815260040160405180910390fd5b80546001600160401b0390811614620000d65780546001600160401b0319166001600160401b0390811782556040519081527fc7f505b2f371ae2175ee4913f4499e1f2633a7b5936321eed1cdaeb6115181d29060200160405180910390a15b50565b608051615989620001005f395f81816135d901528181613602015261376a01526159895ff3fe6080604052600436106103c9575f3560e01c806364eb0a71116101f4578063c73d983311610113578063e5af06ce116100a8578063f54ae18b11610078578063f54ae18b14610c5f578063f85c3cd414610c72578063fa7a5b1014610c91578063fa823af514610cae578063fd17174a14610cc1575f80fd5b8063e5af06ce14610bfb578063f052e7a414610c1a578063f1bf35c314610c2d578063f45bf01c14610c4c575f80fd5b8063ccd8d4d1116100e3578063ccd8d4d114610ba3578063d547741f14610bb6578063d8d933a514610bd5578063e05001f514610be8575f80fd5b8063c73d983314610b3f578063c7cd4d8714610b52578063ca40742c14610b65578063ccc9681514610b84575f80fd5b80638628babd11610189578063ac9650d811610159578063ac9650d814610a97578063ad3cb1cc14610ab7578063b36116f614610ae7578063b5ec748714610b13575f80fd5b80638628babd14610a3f5780638e57277614610a5257806391d1485414610a65578063a217fddf14610a84575f80fd5b80637c90a6ca116101c45780637c90a6ca146109825780637dc0d1d0146109d75780637f417c0614610a185780638456cb5914610a2b575f80fd5b806364eb0a711461080057806373d4a13a1461081f57806376c1b82f14610943578063780cafa81461096f575f80fd5b80632f2ff15d116102eb5780634f1ef2861161028057806353e043d41161025057806353e043d41461074a57806354137c7e1461075d57806354fd4d501461077c5780635c975abb146107b15780635cbc51eb146107d4575f80fd5b80634f1ef286146106fd5780634fd9a8a51461071057806352d1902d14610723578063536b9c7914610737575f80fd5b80633ae6d7c3116102bb5780633ae6d7c3146106a45780633e3c119b146106b75780633f4ba83a146106ca5780634cbd882c146106de575f80fd5b80632f2ff15d1461062757806336568abe146106465780633746f858146106655780633750192114610678575f80fd5b80631ca3b0cb116103615780632b4c9a20116103315780632b4c9a20146105aa5780632c60185c146105bd5780632cc884c5146105dc5780632ed28ba2146105fb575f80fd5b80631ca3b0cb146104eb5780631e5eb1d0146105145780631fcd4a3414610578578063248a9ca31461058b575f80fd5b80630cf8542f1161039c5780630cf8542f1461046c5780631970e5ea1461047f57806319a7359b146104ac5780631c4fd41c146104bf575f80fd5b806301ffc9a7146103cd57806302f2855a146104015780630317b9df146104165780630709df4514610435575b5f80fd5b3480156103d8575f80fd5b506103ec6103e7366004613db6565b610cd4565b60405190151581526020015b60405180910390f35b61041461040f366004613df3565b610d0a565b005b348015610421575f80fd5b50610414610430366004613e1d565b610ddf565b348015610440575f80fd5b5061045461044f366004613e62565b610ee3565b6040516001600160a01b0390911681526020016103f8565b61041461047a366004613df3565b610f4f565b34801561048a575f80fd5b5061049e610499366004613e7d565b610f7f565b6040519081526020016103f8565b6104146104ba366004613e94565b610f8a565b3480156104ca575f80fd5b506104de6104d9366004613e7d565b610fbe565b6040516103f89190613ea4565b3480156104f6575f80fd5b506104ff611039565b604080519283526020830191909152016103f8565b34801561051f575f80fd5b5061052861106c565b6040516103f89190815181526020808301519082015260408083015190820152606080830151908201526080808301519082015260a0918201516001600160a01b03169181019190915260c00190565b610414610586366004614093565b61111e565b348015610596575f80fd5b5061049e6105a5366004613e7d565b611249565b6104146105b8366004613df3565b611269565b3480156105c8575f80fd5b5061049e6105d73660046140ae565b611296565b3480156105e7575f80fd5b5061049e6105f63660046140ce565b6112c9565b348015610606575f80fd5b5061061a6106153660046140f8565b611354565b6040516103f89190614140565b348015610632575f80fd5b5061041461064136600461419f565b6113d5565b348015610651575f80fd5b5061041461066036600461419f565b6113f7565b610414610673366004613e1d565b61142f565b348015610683575f80fd5b506106976106923660046140f8565b611455565b6040516103f891906141cd565b6104146106b2366004614251565b6114d6565b6104ff6106c536600461429f565b6116f1565b3480156106d5575f80fd5b5061041461191e565b3480156106e9575f80fd5b506104146106f83660046142b9565b611977565b61041461070b3660046142df565b611a3d565b61041461071e366004614578565b611a5c565b34801561072e575f80fd5b5061049e611b02565b6104146107453660046145e8565b611b1d565b610414610758366004614578565b611c0e565b348015610768575f80fd5b5061049e610777366004613e7d565b611cb4565b348015610787575f80fd5b5060408051808201909152600481526376312e3760e01b60208201525b6040516103f89190614686565b3480156107bc575f80fd5b505f805160206159348339815191525460ff166103ec565b3480156107df575f80fd5b506107f36107ee366004613e62565b611da0565b6040516103f89190614766565b34801561080b575f80fd5b506103ec61081a366004613e7d565b6121b2565b34801561082a575f80fd5b506108d260408051610100810182525f80825260208201819052918101829052606081018290526080810182905260a0810182905260c0810182905260e0810191909152506040805161010081018252601154815260125460208201526014546001600160a01b03908116928201929092526015548216606082015260165482166080820152601a54821660a0820152601854821660c082015260195490911660e082015290565b604080518251815260208084015190820152828201516001600160a01b039081169282019290925260608084015183169082015260808084015183169082015260a08084015183169082015260c08084015183169082015260e09283015190911691810191909152610100016103f8565b34801561094e575f80fd5b5061096261095d366004613e7d565b6121be565b6040516103f89190614808565b61041461097d366004614816565b612284565b34801561098d575f80fd5b506109966122aa565b6040516103f891905f60a082019050825182526020830151602083015260408301516040830152606083015160608301526080830151608083015292915050565b3480156109e2575f80fd5b506109eb612348565b6040805182516001600160a01b031681526020928301516001600160401b031692810192909252016103f8565b610414610a26366004614847565b6123cb565b348015610a36575f80fd5b5061041461246f565b610414610a4d3660046148f4565b6124c8565b610414610a60366004613df3565b61256e565b348015610a70575f80fd5b506103ec610a7f36600461419f565b61259b565b348015610a8f575f80fd5b5061049e5f81565b610aaa610aa5366004614928565b6125d1565b6040516103f89190614996565b348015610ac2575f80fd5b506107a4604051806040016040528060058152602001640352e302e360dc1b81525081565b348015610af2575f80fd5b50610b06610b01366004613e62565b6125e6565b6040516103f89190614a28565b348015610b1e575f80fd5b50610b32610b2d366004613e7d565b61269e565b6040516103f89190614a60565b610414610b4d366004614093565b612784565b610414610b60366004614b1b565b6128b1565b348015610b70575f80fd5b5061049e610b7f366004613e62565b612957565b348015610b8f575f80fd5b506103ec610b9e366004613e7d565b6129da565b610414610bb1366004613e1d565b6129e5565b348015610bc1575f80fd5b50610414610bd036600461419f565b612a0b565b610414610be33660046140f8565b612a27565b61049e610bf6366004613df3565b612a5c565b348015610c06575f80fd5b506103ec610c15366004613e7d565b612bb1565b610414610c28366004614b99565b612c2c565b348015610c38575f80fd5b50610414610c47366004614bba565b612c59565b610414610c5a366004614c34565b612ec9565b610414610c6d366004614cc1565b612f74565b348015610c7d575f80fd5b5061049e610c8c3660046140ce565b61301a565b348015610c9c575f80fd5b50601c546001600160a01b0316610454565b610414610cbc366004614cc1565b61306a565b610414610ccf366004614c34565b613110565b5f6001600160e01b03198216637965db0b60e01b1480610d0457506301ffc9a760e01b6001600160e01b03198316145b92915050565b610d12613144565b604051635fed4de960e01b815273__$1ffb1d284a100711dc8ce94ffbdfd13eea$__90635fed4de990610d4b905f908590600401614cdb565b5f6040518083038186803b158015610d61575f80fd5b505af4158015610d73573d5f803e3d5ffd5b505060405163d96aec4360e01b815273__$1ffb1d284a100711dc8ce94ffbdfd13eea$__925063d96aec439150610db0905f908590600401614cdb565b5f6040518083038186803b158015610dc6575f80fd5b505af4158015610dd8573d5f803e3d5ffd5b5050505050565b5f610dea8133613176565b610e155760405163e2517d3f60e01b8152336004820152602481018290526044015b60405180910390fd5b60405163e57980dd60e01b815273__$72c16261390208f563094e6a4fc9f74031$__9063e57980dd90610e4e905f908690600401614d1d565b5f6040518083038186803b158015610e64575f80fd5b505af4158015610e76573d5f803e3d5ffd5b5050604051634752b3b360e01b815273__$72c16261390208f563094e6a4fc9f74031$__9250634752b3b39150610eb3905f908690600401614d1d565b5f6040518083038186803b158015610ec9575f80fd5b505af4158015610edb573d5f803e3d5ffd5b505050505050565b601a54604051630709df4560e01b81526001600160a01b0383811660048301525f921690630709df4590602401602060405180830381865afa158015610f2b573d5f803e3d5ffd5b505050506040513d601f19601f82011682018060405250810190610d049190614da1565b610f7c604051806040016040528083803603810190610f6e9190614dbc565b81523360209091015261306a565b50565b5f610d04818361321f565b610f7c604051806060016040528083803603810190610fa991906140f8565b8152336020820181905260409091015261111e565b6040516303eb153f60e51b81525f60048201819052602482018390529073__$674c94602fbdb88ca53d9ba4295c8813fa$__90637d62a7e090604401602060405180830381865af4158015611015573d5f803e3d5ffd5b505050506040513d601f19601f82011682018060405250810190610d049190614dd6565b6011545f90819061104b908290614e08565b61105760025f19614e1b565b6012546110649190614e08565b915091509091565b6110a86040518060c001604052805f81526020015f81526020015f81526020015f81526020015f81526020015f6001600160a01b031681525090565b6040516386617e7760e01b81525f600482015273__$72c16261390208f563094e6a4fc9f74031$__906386617e779060240160c060405180830381865af41580156110f5573d5f803e3d5ffd5b505050506040513d601f19601f820116820180604052508101906111199190614e3a565b905090565b611126613144565b604051631e55c20b60e31b815273__$909b104b05b98ab9b02bd00c4a2f54926d$__9063f2ae10589061115f905f908590600401614f14565b5f6040518083038186803b158015611175575f80fd5b505af4158015611187573d5f803e3d5ffd5b5050604051630f6470bd60e01b815273__$909b104b05b98ab9b02bd00c4a2f54926d$__9250630f6470bd91506111c4905f908590600401614f14565b5f6040518083038186803b1580156111da575f80fd5b505af41580156111ec573d5f803e3d5ffd5b505050505f19815f01516020015103610f7c578051516040516316bbd7db60e11b81525f60048201526001600160a01b03909116602482015273__$b44e0fdf2f6bdeffc1681a5a467d23dde6$__90632d77afb690604401610db0565b5f9081525f80516020615914833981519152602052604090206001015490565b610f7c6040518060400160405280838036038101906112889190614dbc565b815233602090910152612f74565b5f815f036112b7576040516301c85f6760e71b815260040160405180910390fd5b6112c25f848461341f565b9392505050565b60405163327ad2cd60e01b81525f600482018190526001600160a01b0384166024830152604482018390529073__$fad1da84a532053b53119316a58e977f10$__9063327ad2cd906064015b602060405180830381865af4158015611330573d5f803e3d5ffd5b505050506040513d601f19601f820116820180604052508101906112c29190614f29565b61135c613bea565b604051631c81982560e11b815273__$909b104b05b98ab9b02bd00c4a2f54926d$__90633903304a90611395905f908690600401614f40565b61014060405180830381865af41580156113b1573d5f803e3d5ffd5b505050506040513d601f19601f82011682018060405250810190610d049190614fcc565b6113de82611249565b6113e781613444565b6113f1838361344e565b50505050565b6001600160a01b03811633146114205760405163334bd91960e11b815260040160405180910390fd5b61142a82826134f6565b505050565b610f7c60405180604001604052808361144790615044565b815233602090910152611c0e565b61145d613c30565b60405163301d1d1560e21b815273__$c58e2605104bb31274ad8c04841b6a7550$__9063c074745490611496905f908690600401614f40565b61012060405180830381865af41580156114b2573d5f803e3d5ffd5b505050506040513d601f19601f82011682018060405250810190610d04919061504f565b6114de613144565b602081015160405163046dbd1360e11b81525f600482018190526001600160a01b03831660248301529073__$b44e0fdf2f6bdeffc1681a5a467d23dde6$__906308db7a2690604401602060405180830381865af4158015611542573d5f803e3d5ffd5b505050506040513d601f19601f820116820180604052508101906115669190614f29565b60405163f9c417bd60e01b815290915073__$7fa168b5d238863382c2bf886894022425$__9063f9c417bd906115a2905f9087906004016150b1565b5f6040518083038186803b1580156115b8575f80fd5b505af41580156115ca573d5f803e3d5ffd5b5050604051634971bf9960e01b815273__$7fa168b5d238863382c2bf886894022425$__9250634971bf999150611607905f9087906004016150b1565b5f6040518083038186803b15801561161d575f80fd5b505af415801561162f573d5f803e3d5ffd5b505060405163046dbd1360e11b81525f600482018190526001600160a01b0386166024830152925073__$b44e0fdf2f6bdeffc1681a5a467d23dde6$__91506308db7a2690604401602060405180830381865af4158015611692573d5f803e3d5ffd5b505050506040513d601f19601f820116820180604052508101906116b69190614f29565b90508181116113f15760405163625a84dd60e01b81526001600160a01b03841660048201526024810183905260448101829052606401610e0c565b5f806116fb613144565b7ffc8737ab85eb45125971625a9ebdb75cc78e01d5c1fa80c4c6e5203f47bc4fab6117268133613176565b61174c5760405163e2517d3f60e01b815233600482015260248101829052604401610e0c565b604051639f53ee0f60e01b815273__$d00168f5747027b5a56099c751031d7e40$__90639f53ee0f90611785905f90889060040161512c565b5f6040518083038186803b15801561179b575f80fd5b505af41580156117ad573d5f803e3d5ffd5b505060405163647a4b7560e11b815273__$d00168f5747027b5a56099c751031d7e40$__925063c8f496ea91506117ea905f90889060040161512c565b6040805180830381865af4158015611804573d5f803e3d5ffd5b505050506040513d601f19601f820116820180604052508101906118289190615140565b909350915073__$b44e0fdf2f6bdeffc1681a5a467d23dde6$__632d77afb65f6118586040880160208901613e62565b6040516001600160e01b031960e085901b16815260048101929092526001600160a01b031660248201526044015f6040518083038186803b15801561189b575f80fd5b505af41580156118ad573d5f803e3d5ffd5b5050604051636e6595c160e01b815273__$d00168f5747027b5a56099c751031d7e40$__9250636e6595c191506118ec905f9088908890600401615162565b5f6040518083038186803b158015611902575f80fd5b505af4158015611914573d5f803e3d5ffd5b5050505050915091565b7f65d7a28e3265b37a6474929f336521b332c1681b933f6cb9f3376673440d862a6119498133613176565b61196f5760405163e2517d3f60e01b815233600482015260248101829052604401610e0c565b610f7c61356f565b7f1eae1854c74a696c6de86fd3c6383d5c1e2c33fbc86e1aa6b6c872d95bd240386119a28133613176565b6119c85760405163e2517d3f60e01b815233600482015260248101829052604401610e0c565b600d80546001600160801b038481166001600160c01b031983168117600160801b426001600160401b031602179093556040805191909216808252602082019390935233917f26b8010a81fad3e15c7545637c99390bdeb250bf0a67e4cf43c3d220ec2acc31910160405180910390a2505050565b611a456135ce565b611a4e82613672565b611a5882826136a3565b5050565b611a64613144565b604051637125eda960e11b815273__$339bef8b42d49ef7fc0392a1b9554f9551$__9063e24bdb5290611a9d905f908590600401615237565b5f6040518083038186803b158015611ab3575f80fd5b505af4158015611ac5573d5f803e3d5ffd5b505060405163184d91f360e31b815273__$339bef8b42d49ef7fc0392a1b9554f9551$__925063c26c8f989150610db0905f908590600401615237565b5f611b0b61375f565b505f805160206158f483398151915290565b611b25613144565b604080516325f2df6f60e01b81525f6004820152825151602482015260208301516001600160a01b03908116604483015291830151909116606482015273__$c19cfa413da1baf02a2307c9fe3d8deda6$__906325f2df6f906084015f6040518083038186803b158015611b97575f80fd5b505af4158015611ba9573d5f803e3d5ffd5b5050604080516330e78a9160e11b81525f6004820152845151602482015260208501516001600160a01b03908116604483015291850151909116606482015273__$c19cfa413da1baf02a2307c9fe3d8deda6$__92506361cf15229150608401610db0565b611c16613144565b604051632d0c1e8b60e01b815273__$f215670302542f95b8fc754ac02a4bfcb4$__90632d0c1e8b90611c4f905f908590600401615237565b5f6040518083038186803b158015611c65575f80fd5b505af4158015611c77573d5f803e3d5ffd5b505060405163c0c66ed960e01b815273__$f215670302542f95b8fc754ac02a4bfcb4$__925063c0c66ed99150610db0905f908590600401615237565b604051634c9829bf60e11b81525f600482018190526024820183905290819073__$674c94602fbdb88ca53d9ba4295c8813fa$__90639930537e90604401602060405180830381865af4158015611d0d573d5f803e3d5ffd5b505050506040513d601f19601f82011682018060405250810190611d319190614f29565b6040805160808101825282546001600160a01b03168152600183015460208201526002830154818301526003909201546060830152516345ffd36d60e01b815290915073__$674c94602fbdb88ca53d9ba4295c8813fa$__906345ffd36d90611315905f90859060040161524f565b611da8613c67565b604080516001600160a01b0384165f908152600e60209081529083902061016083018452805461012084019081528451600183018054608095810283018601909752606082018781529596879660a088019687959487946101408b01949193909284928491840182828015611e3a57602002820191905f5260205f20905b815481526020019060010190808311611e26575b5050505050815260200160018201805480602002602001604051908101604052809291908181526020018280548015611e9057602002820191905f5260205f20905b815481526020019060010190808311611e7c575b5050505050815260200160028201805480602002602001604051908101604052809291908181526020018280548015611ee657602002820191905f5260205f20905b815481526020019060010190808311611ed2575b505050505081525050815250508152602001600482016040518060400160405290815f8201548152602001600182016040518060600160405290815f8201805480602002602001604051908101604052809291908181526020018280548015611f6c57602002820191905f5260205f20905b815481526020019060010190808311611f58575b5050505050815260200160018201805480602002602001604051908101604052809291908181526020018280548015611fc257602002820191905f5260205f20905b815481526020019060010190808311611fae575b505050505081526020016002820180548060200260200160405190810160405280929190818152602001828054801561201857602002820191905f5260205f20905b815481526020019060010190808311612004575b505050919092525050509052508152600882015460208083019190915260099092015460ff1615156040918201529183526001600160a01b0386811691840182905260165483516370a0823160e01b815260048101939093529390920192909116906370a0823190602401602060405180830381865afa15801561209e573d5f803e3d5ffd5b505050506040513d601f19601f820116820180604052508101906120c29190614f29565b8152601a546040516370a0823160e01b81526001600160a01b038681166004830152602090930192909116906370a0823190602401602060405180830381865afa158015612112573d5f803e3d5ffd5b505050506040513d601f19601f820116820180604052508101906121369190614f29565b81526018546040516370a0823160e01b81526001600160a01b038681166004830152602090930192909116906370a0823190602401602060405180830381865afa158015612186573d5f803e3d5ffd5b505050506040513d601f19601f820116820180604052508101906121aa9190614f29565b905292915050565b6011545f908210610d04565b6121c6613ca1565b604051633978289f60e01b81525f60048201526024810183905273__$674c94602fbdb88ca53d9ba4295c8813fa$__90633978289f90604401602060405180830381865af415801561221a573d5f803e3d5ffd5b505050506040513d601f19601f8201168201806040525081019061223e9190614f29565b6040805160808101825282546001600160a01b0381168252600160a01b900460ff1615156020820152600183015491810191909152600290910154606082015292915050565b610f7c60405180604001604052808361229c9061528a565b8152336020909101526128b1565b6122d76040518060a001604052805f81526020015f81526020015f81526020015f81526020015f81525090565b604051636e9bc7eb60e11b81525f600482015273__$72c16261390208f563094e6a4fc9f74031$__9063dd378fd69060240160a060405180830381865af4158015612324573d5f803e3d5ffd5b505050506040513d601f19601f820116820180604052508101906111199190615295565b604080518082019091525f8082526020820152604051631ae5e80160e31b81525f600482015273__$72c16261390208f563094e6a4fc9f74031$__9063d72f4008906024016040805180830381865af41580156123a7573d5f803e3d5ffd5b505050506040513d601f19601f8201168201806040525081019061111991906152f7565b6123d3613144565b6040516210aa0b60e31b815273__$45d7492db284be01938913cb41b9cac2a6$__90628550589061240a905f90859060040161532a565b5f6040518083038186803b158015612420575f80fd5b505af4158015612432573d5f803e3d5ffd5b50506040516364140a8360e01b815273__$45d7492db284be01938913cb41b9cac2a6$__92506364140a839150610db0905f90859060040161532a565b7f65d7a28e3265b37a6474929f336521b332c1681b933f6cb9f3376673440d862a61249a8133613176565b6124c05760405163e2517d3f60e01b815233600482015260248101829052604401610e0c565b610f7c6137a8565b6124d0613144565b6040516315868ea760e21b815273__$41bd1ea6f49e3611a223dba0ae97878d32$__9063561a3a9c90612509905f908590600401615362565b5f6040518083038186803b15801561251f575f80fd5b505af4158015612531573d5f803e3d5ffd5b50506040516389e70deb60e01b815273__$41bd1ea6f49e3611a223dba0ae97878d32$__92506389e70deb9150610db0905f908590600401615362565b610f7c60405180604001604052808380360381019061258d91906153bc565b8152336020909101526114d6565b5f9182525f80516020615914833981519152602090815260408084206001600160a01b0393909316845291905290205460ff1690565b60606125db613144565b6112c25f84846137f0565b6125ee613cd0565b506001600160a01b039081165f908152601b602090815260409182902082516060808201855282549095168152835160a08082018652600184015482526002840154828601526003840154828701526004840154828801526005840154608080840191909152838601929092528551908101865260068401548152600784015494810194909452600883015484860152600983015495840195909552600a90910154938201939093529082015290565b6126ce60405180608001604052805f6001600160a01b031681526020015f81526020015f81526020015f81525090565b604051634c9829bf60e11b81525f60048201526024810183905273__$674c94602fbdb88ca53d9ba4295c8813fa$__90639930537e90604401602060405180830381865af4158015612722573d5f803e3d5ffd5b505050506040513d601f19601f820116820180604052508101906127469190614f29565b6040805160808101825282546001600160a01b0316815260018301546020820152600283015491810191909152600390910154606082015292915050565b61278c613144565b60405163160b9e6b60e31b815273__$c58e2605104bb31274ad8c04841b6a7550$__9063b05cf358906127c5905f908590600401614f14565b5f6040518083038186803b1580156127db575f80fd5b505af41580156127ed573d5f803e3d5ffd5b5050604051639f46aa4160e01b815273__$c58e2605104bb31274ad8c04841b6a7550$__9250639f46aa41915061282a905f908590600401614f14565b5f6040518083038186803b158015612840575f80fd5b505af4158015612852573d5f803e3d5ffd5b505050505f19815f01516020015103610f7c5760208101516040516316bbd7db60e11b81525f60048201526001600160a01b03909116602482015273__$b44e0fdf2f6bdeffc1681a5a467d23dde6$__90632d77afb690604401610db0565b6128b9613144565b6040516333d4ade560e01b815273__$f56cb86c34e0dd0dca51f5a3538433e18c$__906333d4ade5906128f2905f9085906004016153d6565b5f6040518083038186803b158015612908575f80fd5b505af415801561291a573d5f803e3d5ffd5b505060405163178bcac760e11b815273__$f56cb86c34e0dd0dca51f5a3538433e18c$__9250632f17958e9150610db0905f9085906004016153d6565b60405163046dbd1360e11b81525f600482018190526001600160a01b03831660248301529073__$b44e0fdf2f6bdeffc1681a5a467d23dde6$__906308db7a2690604401602060405180830381865af41580156129b6573d5f803e3d5ffd5b505050506040513d601f19601f82011682018060405250810190610d049190614f29565b5f610d0481836138d8565b610f7c6040518060400160405280836129fd90615044565b815233602090910152611a5c565b612a1482611249565b612a1d81613444565b6113f183836134f6565b610f7c6040518060600160405280838152602001336001600160a01b03168152602001336001600160a01b0316815250612784565b5f612a65613144565b6040516320b5435f60e11b815273__$04d32033081e1e9356971d8f4b5098bcad$__9063416a86be90612a9e905f908690600401615452565b5f6040518083038186803b158015612ab4575f80fd5b505af4158015612ac6573d5f803e3d5ffd5b5050604051630d0699cb60e21b815273__$04d32033081e1e9356971d8f4b5098bcad$__925063341a672c9150612b03905f908690600401615452565b602060405180830381865af4158015612b1e573d5f803e3d5ffd5b505050506040513d601f19601f82011682018060405250810190612b429190614f29565b60405163489d188160e01b815290915073__$04d32033081e1e9356971d8f4b5098bcad$__9063489d188190612b80905f908690869060040161547a565b5f6040518083038186803b158015612b96575f80fd5b505af4158015612ba8573d5f803e3d5ffd5b50505050919050565b604051631928c8e960e11b81525f60048201819052602482018390529073__$b44e0fdf2f6bdeffc1681a5a467d23dde6$__9063325191d290604401602060405180830381865af4158015612c08573d5f803e3d5ffd5b505050506040513d601f19601f82011682018060405250810190610d0491906154b0565b610f7c604051806040016040528083803603810190612c4b91906154cb565b8152336020909101526124c8565b5f612c626138fb565b805490915060ff600160401b82041615906001600160401b03165f81158015612c885750825b90505f826001600160401b03166001148015612ca35750303b155b905081158015612cb1575080155b15612ccf5760405163f92ee8a960e01b815260040160405180910390fd5b845467ffffffffffffffff191660011785558315612cf957845460ff60401b1916600160401b1785555b6040516369777eb960e01b815273__$d02cb2608d6f3ad3f53f4dd3f26f81b8ea$__906369777eb990612d3a905f908e908e908e908e908e906004016155ff565b5f6040518083038186803b158015612d50575f80fd5b505af4158015612d62573d5f803e3d5ffd5b50505050612d6e613923565b612d76613923565b612d7e613923565b604051632ffdac7160e21b815273__$d02cb2608d6f3ad3f53f4dd3f26f81b8ea$__9063bff6b1c490612dbd905f908d908d908d908d9060040161567e565b5f6040518083038186803b158015612dd3575f80fd5b505af4158015612de5573d5f803e3d5ffd5b50505050612df55f801b8b61344e565b50612e207f65d7a28e3265b37a6474929f336521b332c1681b933f6cb9f3376673440d862a8b61344e565b50612e4b7ffc8737ab85eb45125971625a9ebdb75cc78e01d5c1fa80c4c6e5203f47bc4fab8b61344e565b50612e767f1eae1854c74a696c6de86fd3c6383d5c1e2c33fbc86e1aa6b6c872d95bd240388b61344e565b508315612ebd57845460ff60401b19168555604051600181527fc7f505b2f371ae2175ee4913f4499e1f2633a7b5936321eed1cdaeb6115181d29060200160405180910390a15b50505050505050505050565b612ed1613144565b604051635792057f60e11b81525f60048201528135602482015273__$ebce6ba8505acc62d937fb713060c40a3c$__9063af240afe906044015f6040518083038186803b158015612f20575f80fd5b505af4158015612f32573d5f803e3d5ffd5b50506040516320e9b9f960e11b81525f60048201528335602482015273__$ebce6ba8505acc62d937fb713060c40a3c$__92506341d373f29150604401610db0565b612f7c613144565b604051631005beb160e31b815273__$7947dedfaba9c59621bd8bcc87e3fb80f1$__9063802df58890612fb5905f9085906004016156ec565b5f6040518083038186803b158015612fcb575f80fd5b505af4158015612fdd573d5f803e3d5ffd5b5050604051631cc17ae560e31b815273__$7947dedfaba9c59621bd8bcc87e3fb80f1$__925063e60bd7289150610db0905f9085906004016156ec565b6040516333c7c71f60e01b81525f600482018190526001600160a01b0384166024830152604482018390529073__$fad1da84a532053b53119316a58e977f10$__906333c7c71f90606401611315565b613072613144565b60405163024889b160e51b815273__$d49e499a4608ab3aca09b91fe5950492b6$__906349113620906130ab905f9085906004016156ec565b5f6040518083038186803b1580156130c1575f80fd5b505af41580156130d3573d5f803e3d5ffd5b505060405163a083c0ab60e01b815273__$d49e499a4608ab3aca09b91fe5950492b6$__925063a083c0ab9150610db0905f9085906004016156ec565b610f7c60405180606001604052808380360381019061312f9190615731565b81523360208201819052604090910152611b1d565b5f805160206159348339815191525460ff16156131745760405163d93c066560e01b815260040160405180910390fd5b565b5f613181838361259b565b1561318e57506001610d04565b601c546001600160a01b03166131a557505f610d04565b601c54604051632474521560e21b8152600481018590526001600160a01b038481166024830152909116906391d1485490604401602060405180830381865afa1580156131f4573d5f803e3d5ffd5b505050506040513d601f19601f8201168201806040525081019061321891906154b0565b9050610d04565b5f6112c283600c015f015f9054906101000a90046001600160a01b03166001600160a01b031663313ce5676040518163ffffffff1660e01b8152600401602060405180830381865afa158015613277573d5f803e3d5ffd5b505050506040513d601f19601f8201168201806040525081019061329b9190614f29565b6132a690600a61582b565b6132b09084615836565b60148501546040805163313ce56760e01b815290516001600160a01b039092169163313ce567916004808201926020929091908290030181865afa1580156132fa573d5f803e3d5ffd5b505050506040513d601f19601f8201168201806040525081019061331e919061584d565b61332990600a61586d565b60158601546040805163313ce56760e01b815290516001600160a01b039092169163313ce567916004808201926020929091908290030181865afa158015613373573d5f803e3d5ffd5b505050506040513d601f19601f82011682018060405250810190613397919061584d565b6133a290600a61586d565b600c87015460408051634c6afee560e11b815290516001600160a01b03909216916398d5fdca916004808201926020929091908290030181865afa1580156133ec573d5f803e3d5ffd5b505050506040513d601f19601f820116820180604052508101906134109190614f29565b61341a9190615836565b61392b565b5f61343c8361342e8685613937565b670de0b6b3a764000061392b565b949350505050565b610f7c813361394a565b5f5f80516020615914833981519152613467848461259b565b6134e6575f848152602082815260408083206001600160a01b03871684529091529020805460ff1916600117905561349c3390565b6001600160a01b0316836001600160a01b0316857f2f8788117e7eff1d82e926ec794901d17c78024a50270940304540a733656f0d60405160405180910390a46001915050610d04565b5f915050610d04565b5092915050565b5f5f8051602061591483398151915261350f848461259b565b156134e6575f848152602082815260408083206001600160a01b0387168085529252808320805460ff1916905551339287917ff6391f5c32d9c69d2a47ea670b442974b53935d1edc7fd64eb21e047a839171b9190a46001915050610d04565b613577613983565b5f80516020615934833981519152805460ff191681557f5db9ee0a495bf2e6ff9c91a7834c1ba4fdd244a5e8aa4e537bd38aeae4b073aa335b6040516001600160a01b03909116815260200160405180910390a150565b306001600160a01b037f000000000000000000000000000000000000000000000000000000000000000016148061365457507f00000000000000000000000000000000000000000000000000000000000000006001600160a01b03166136485f805160206158f4833981519152546001600160a01b031690565b6001600160a01b031614155b156131745760405163703e46dd60e11b815260040160405180910390fd5b5f61367d8133613176565b611a585760405163e2517d3f60e01b815233600482015260248101829052604401610e0c565b816001600160a01b03166352d1902d6040518163ffffffff1660e01b8152600401602060405180830381865afa9250505080156136fd575060408051601f3d908101601f191682019092526136fa91810190614f29565b60015b61372557604051634c9c8ce360e01b81526001600160a01b0383166004820152602401610e0c565b5f805160206158f4833981519152811461375557604051632a87526960e21b815260048101829052602401610e0c565b61142a83836139b2565b306001600160a01b037f000000000000000000000000000000000000000000000000000000000000000016146131745760405163703e46dd60e11b815260040160405180910390fd5b6137b0613144565b5f80516020615934833981519152805460ff191660011781557f62e78cea01bee320cd4e420270b5ea74000d11b0c9f74754ebdbfc544b05a258336135b0565b6060816001600160401b0381111561380a5761380a613eca565b60405190808252806020026020018201604052801561383d57816020015b60608152602001906001900390816138285790505b5090505f5b828110156138d0576138ab308585848181106138605761386061587b565b9050602002810190613872919061588f565b8080601f0160208091040260200160405190810160405280939291908181526020018383808284375f92019190915250613a0792505050565b8282815181106138bd576138bd61587b565b6020908102919091010152600101613842565b509392505050565b5f6138e560025f19614e1b565b82101580156112c2575050601291909101541190565b5f807ff0c57e16840df040f15088dc2f81fe391c3923bec73e23a9662efc9c229c6a00610d04565b613174613a79565b5f61343c848484613a9e565b81545f906112c290836301e1338061392b565b613954828261259b565b611a585760405163e2517d3f60e01b81526001600160a01b038216600482015260248101839052604401610e0c565b5f805160206159348339815191525460ff1661317457604051638dfc202b60e01b815260040160405180910390fd5b6139bb82613aca565b6040516001600160a01b038316907fbc7cd75a20ee27fd9adebab32041f755214dbc6bffa90cc0225b39da2e5c2d3b905f90a28051156139ff5761142a8282613a07565b611a58613b2d565b60605f80846001600160a01b031684604051613a2391906158d8565b5f60405180830381855af49150503d805f8114613a5b576040519150601f19603f3d011682016040523d82523d5f602084013e613a60565b606091505b5091509150613a70858383613b4c565b95945050505050565b613a81613ba8565b61317457604051631afcd79f60e31b815260040160405180910390fd5b5f825f190484118302158202613abb5763ad251c275f526004601cfd5b50910281810615159190040190565b806001600160a01b03163b5f03613aff57604051634c9c8ce360e01b81526001600160a01b0382166004820152602401610e0c565b5f805160206158f483398151915280546001600160a01b0319166001600160a01b0392909216919091179055565b34156131745760405163b398979f60e01b815260040160405180910390fd5b606082613b6157613b5c82613bc1565b6112c2565b8151158015613b7857506001600160a01b0384163b155b15613ba157604051639996b31560e01b81526001600160a01b0385166004820152602401610e0c565b50806112c2565b5f613bb16138fb565b54600160401b900460ff16919050565b805115613bd15780518082602001fd5b60405163d6bda27560e01b815260040160405180910390fd5b6040518060e00160405280613bfd613ca1565b81526020015f6001600160a01b031681526020015f81526020015f81526020015f81526020015f81526020015f81525090565b6040518060c00160405280613c43613ca1565b81526020015f81526020015f81526020015f81526020015f81526020015f81525090565b6040518060a00160405280613c7a613d4e565b81526020015f6001600160a01b031681526020015f81526020015f81526020015f81525090565b60405180608001604052805f6001600160a01b031681526020015f151581526020015f81526020015f81525090565b60405180606001604052805f6001600160a01b03168152602001613d176040518060a001604052805f81526020015f81526020015f81526020015f81526020015f81525090565b8152602001613d496040518060a001604052805f81526020015f81526020015f81526020015f81526020015f81525090565b905290565b6040518060800160405280613d61613d81565b8152602001613d6e613d81565b81525f6020820181905260409091015290565b60405180604001604052805f8152602001613d4960405180606001604052806060815260200160608152602001606081525090565b5f60208284031215613dc6575f80fd5b81356001600160e01b0319811681146112c2575f80fd5b5f60608284031215613ded575f80fd5b50919050565b5f60608284031215613e03575f80fd5b6112c28383613ddd565b5f60408284031215613ded575f80fd5b5f60208284031215613e2d575f80fd5b81356001600160401b03811115613e42575f80fd5b61343c84828501613e0d565b6001600160a01b0381168114610f7c575f80fd5b5f60208284031215613e72575f80fd5b81356112c281613e4e565b5f60208284031215613e8d575f80fd5b5035919050565b5f60e08284031215613ded575f80fd5b6020810160038310613ec457634e487b7160e01b5f52602160045260245ffd5b91905290565b634e487b7160e01b5f52604160045260245ffd5b60405160e081016001600160401b0381118282101715613f0057613f00613eca565b60405290565b604051606081016001600160401b0381118282101715613f0057613f00613eca565b604080519081016001600160401b0381118282101715613f0057613f00613eca565b60405160a081016001600160401b0381118282101715613f0057613f00613eca565b60405160c081016001600160401b0381118282101715613f0057613f00613eca565b604051601f8201601f191681016001600160401b0381118282101715613fb657613fb6613eca565b604052919050565b8015158114610f7c575f80fd5b5f60e08284031215613fdb575f80fd5b613fe3613ede565b90508135613ff081613e4e565b808252506020820135602082015260408201356040820152606082013560608201526080820135608082015260a082013560a082015260c082013561403481613fbe565b60c082015292915050565b5f6101208284031215614050575f80fd5b614058613f06565b90506140648383613fcb565b815260e082013561407481613e4e565b602082015261010082013561408881613e4e565b604082015292915050565b5f61012082840312156140a4575f80fd5b6112c2838361403f565b5f80604083850312156140bf575f80fd5b50508035926020909101359150565b5f80604083850312156140df575f80fd5b82356140ea81613e4e565b946020939093013593505050565b5f60e08284031215614108575f80fd5b6112c28383613fcb565b80516001600160a01b0316825260208082015115159083015260408082015190830152606090810151910152565b5f61014082019050614153828451614112565b60018060a01b036020840151166080830152604083015160a0830152606083015160c0830152608083015160e083015260a083015161010083015260c083015161012083015292915050565b5f80604083850312156141b0575f80fd5b8235915060208301356141c281613e4e565b809150509250929050565b5f610120820190506141e0828451614112565b60208301516080830152604083015160a0830152606083015160c0830152608083015160e083015260a083015161010083015292915050565b5f60608284031215614229575f80fd5b614231613f06565b905081358152602082013560208201526040820135604082015292915050565b5f60808284031215614261575f80fd5b614269613f28565b6142738484614219565b8152606083013561428381613e4e565b60208201529392505050565b5f60a08284031215613ded575f80fd5b5f60a082840312156142af575f80fd5b6112c2838361428f565b5f602082840312156142c9575f80fd5b81356001600160801b03811681146112c2575f80fd5b5f80604083850312156142f0575f80fd5b82356142fb81613e4e565b91506020838101356001600160401b0380821115614317575f80fd5b818601915086601f83011261432a575f80fd5b81358181111561433c5761433c613eca565b61434e601f8201601f19168501613f8e565b91508082528784828501011115614363575f80fd5b80848401858401375f848284010152508093505050509250929050565b5f6001600160401b0382111561439857614398613eca565b5060051b60200190565b5f82601f8301126143b1575f80fd5b813560206143c66143c183614380565b613f8e565b8083825260208201915060208460051b8701019350868411156143e7575f80fd5b602086015b8481101561440357803583529183019183016143ec565b509695505050505050565b5f6040828403121561441e575f80fd5b614426613f28565b9050813581526020808301356001600160401b0380821115614446575f80fd5b9084019060608287031215614459575f80fd5b614461613f06565b82358281111561446f575f80fd5b61447b888286016143a2565b825250838301358281111561448e575f80fd5b8301601f8101881361449e575f80fd5b80356144ac6143c182614380565b81815260059190911b8201860190868101908a8311156144ca575f80fd5b928701925b828410156144e8578335825292870192908701906144cf565b84880152505050604083013582811115614500575f80fd5b61450c888286016143a2565b60408301525080848601525050505092915050565b5f60408284031215614531575f80fd5b614539613f28565b905081356001600160401b03811115614550575f80fd5b61455c8482850161440e565b825250602082013561456d81613e4e565b602082015292915050565b5f60208284031215614588575f80fd5b81356001600160401b0381111561459d575f80fd5b61343c84828501614521565b5f602082840312156145b9575f80fd5b604051602081018181106001600160401b03821117156145db576145db613eca565b6040529135825250919050565b5f606082840312156145f8575f80fd5b614600613f06565b61460a84846145a9565b8152602083013561461a81613e4e565b6020820152604083013561462d81613e4e565b60408201529392505050565b5f5b8381101561465357818101518382015260200161463b565b50505f910152565b5f8151808452614672816020860160208601614639565b601f01601f19169290920160200192915050565b602081525f6112c2602083018461465b565b5f815180845260208085019450602084015f5b838110156146c7578151875295820195908201906001016146ab565b509495945050505050565b805182525f6020808301516040828601528051606060408701526146f960a0870182614698565b83830151603f19888303810160608a0152815180845291860193505f929091908601905b8084101561473d578451825293860193600193909301929086019061471d565b5060408501519550818982030160808a01526147598187614698565b9998505050505050505050565b602081525f825160a060208401528051608060c085015261478b6101408501826146d2565b9050602082015160bf198583030160e08601526147a882826146d2565b915050604082015161010085015260608201511515610120850152602085015191506147df60408501836001600160a01b03169052565b6040850151606085015260608501516080850152608085015160a0850152809250505092915050565b60808101610d048284614112565b5f60208284031215614826575f80fd5b81356001600160401b0381111561483b575f80fd5b61343c8482850161428f565b5f60408284031215614857575f80fd5b6112c28383613e0d565b5f60a08284031215614871575f80fd5b614879613f4a565b9050813581526020820135602082015260408201356040820152606082013560608201526080820135608082015292915050565b5f61016082840312156148be575f80fd5b6148c6613f06565b905081356148d381613e4e565b81526148e28360208401614861565b60208201526140888360c08401614861565b5f6101808284031215614905575f80fd5b61490d613f28565b61491784846148ad565b815261016083013561428381613e4e565b5f8060208385031215614939575f80fd5b82356001600160401b038082111561494f575f80fd5b818501915085601f830112614962575f80fd5b813581811115614970575f80fd5b8660208260051b8501011115614984575f80fd5b60209290920196919550909350505050565b5f60208083016020845280855180835260408601915060408160051b8701019250602087015f5b828110156149eb57603f198886030184526149d985835161465b565b945092850192908501906001016149bd565b5092979650505050505050565b80518252602081015160208301526040810151604083015260608101516060830152608081015160808301525050565b81516001600160a01b03168152602080830151610160830191614a4d908401826149f8565b5060408301516134ef60c08401826149f8565b81516001600160a01b0316815260208083015190820152604080830151908201526060808301519082015260808101610d04565b5f60a08284031215614aa4575f80fd5b614aac613f4a565b90508135614ab981613e4e565b8152602082810135908201526040820135614ad381613fbe565b60408201526060820135614ae681613fbe565b606082015260808201356001600160401b03811115614b03575f80fd5b614b0f848285016143a2565b60808301525092915050565b5f60208284031215614b2b575f80fd5b81356001600160401b0380821115614b41575f80fd5b9083019060408286031215614b54575f80fd5b614b5c613f28565b823582811115614b6a575f80fd5b614b7687828601614a94565b82525060208301359250614b8983613e4e565b6020810192909252509392505050565b5f6101608284031215613ded575f80fd5b5f60c08284031215613ded575f80fd5b5f805f805f6102808688031215614bcf575f80fd5b8535614bda81613e4e565b9450614be98760208801614baa565b9350614bf88760e0880161428f565b9250614c08876101808801613e0d565b9150614c18876101c08801614baa565b90509295509295909350565b5f60208284031215613ded575f80fd5b5f60208284031215614c44575f80fd5b6112c28383614c24565b5f60608284031215614c5e575f80fd5b614c66613f06565b90508135614c7381613e4e565b815260208281013590820152604082013561408881613e4e565b5f60808284031215614c9d575f80fd5b614ca5613f28565b9050614cb18383614c4e565b8152606082013561456d81613e4e565b5f60808284031215614cd1575f80fd5b6112c28383614c8d565b5f60808201905083825282356020830152602083013560408301526040830135614d0481613e4e565b6001600160a01b03166060929092019190915292915050565b828152604060208201525f8235601e19843603018112614d3b575f80fd5b83016020810190356001600160401b03811115614d56575f80fd5b803603821315614d64575f80fd5b604080850152806080850152808260a08601375f60a082860101526020850135606085015260a0601f19601f830116850101925050509392505050565b5f60208284031215614db1575f80fd5b81516112c281613e4e565b5f60608284031215614dcc575f80fd5b6112c28383614c4e565b5f60208284031215614de6575f80fd5b8151600381106112c2575f80fd5b634e487b7160e01b5f52601160045260245ffd5b81810381811115610d0457610d04614df4565b5f82614e3557634e487b7160e01b5f52601260045260245ffd5b500490565b5f60c08284031215614e4a575f80fd5b614e52613f6c565b825181526020830151602082015260408301516040820152606083015160608201526080830151608082015260a0830151614e8c81613e4e565b60a08201529392505050565b80516001600160a01b031682526020808201519083015260408082015190830152606080820151908301526080808201519083015260a0818101519083015260c0908101511515910152565b614eef828251614e98565b60208101516001600160a01b0390811660e08401526040909101511661010090910152565b82815261014081016112c26020830184614ee4565b5f60208284031215614f39575f80fd5b5051919050565b82815261010081016112c26020830184614e98565b5f60808284031215614f65575f80fd5b604051608081018181106001600160401b0382111715614f8757614f87613eca565b80604052508091508251614f9a81613e4e565b81526020830151614faa81613fbe565b8060208301525060408301516040820152606083015160608201525092915050565b5f6101408284031215614fdd575f80fd5b614fe5613ede565b614fef8484614f55565b81526080830151614fff81613e4e565b8060208301525060a0830151604082015260c0830151606082015260e0830151608082015261010083015160a082015261012083015160c08201528091505092915050565b5f610d04368361440e565b5f6101208284031215615060575f80fd5b615068613f6c565b6150728484614f55565b81526080830151602082015260a0830151604082015260c0830151606082015260e0830151608082015261010083015160a08201528091505092915050565b918252805180516020808501919091528082015160408086019190915290910151606084015201516001600160a01b0316608082015260a00190565b8035825260208101356150ff81613e4e565b6001600160a01b031660208301526040818101359083015260608082013590830152608090810135910152565b82815260c081016112c260208301846150ed565b5f8060408385031215615151575f80fd5b505080516020909101519092909150565b83815260e0810161517660208301856150ed565b8260c0830152949350505050565b5f815160408452805160408501526020808201519150604060608601528151606060808701526151b760e0870182614698565b82840151607f19888303810160a08a0152815180845291850193505f929091908501905b808410156151fb57845182529385019360019390930192908501906151db565b5060408601519550818982030160c08a01526152178187614698565b978501516001600160a01b03169890940197909752509395945050505050565b828152604060208201525f61343c6040830184615184565b82815260a081016112c2602083018480516001600160a01b031682526020808201519083015260408082015190830152606090810151910152565b5f610d043683614a94565b5f60a082840312156152a5575f80fd5b6152ad613f4a565b82518152602083015160208201526040830151604082015260608301516060820152608083015160808201528091505092915050565b6001600160401b0381168114610f7c575f80fd5b5f60408284031215615307575f80fd5b61530f613f28565b825161531a81613e4e565b81526020830151614283816152e3565b5f60608201905083825282356020830152602083013561534981613e4e565b6001600160a01b03166040929092019190915292915050565b5f6101a082019050838252825160018060a01b03808251166020850152602082015161539160408601826149f8565b50604082015191506153a660e08501836149f8565b8060208601511661018085015250509392505050565b5f606082840312156153cc575f80fd5b6112c28383614219565b828152604060208201525f825160408084015260018060a01b03808251166080850152602082015160a08501526040820151151560c08501526060820151151560e08501526080820151915060a0610100850152615438610120850183614698565b915080602086015116606085015250809150509392505050565b828152608081016112c260208301848035825260208082013590830152604090810135910152565b83815260a081016154a260208301858035825260208082013590830152604090810135910152565b826080830152949350505050565b5f602082840312156154c0575f80fd5b81516112c281613fbe565b5f61016082840312156154dc575f80fd5b6112c283836148ad565b803582526020810135602083015260408101356040830152606081013560608301526080810135608083015260a081013561552081613e4e565b6001600160a01b031660a0929092019190915250565b803561554181613e4e565b6001600160a01b03168252602081013561555a816152e3565b6001600160401b0381166020840152505050565b803561557981613e4e565b6001600160a01b03908116835260208201359061559582613e4e565b90811660208401526040820135906155ac82613e4e565b90811660408401526060820135906155c382613e4e565b90811660608401526080820135906155da82613e4e565b908116608084015260a0820135906155f182613e4e565b80821660a085015250505050565b8681526001600160a01b03861660208201526102a0810161562360408301876154e6565b843561010083015260208501356101208301526040850135610140830152606085013561016083015260808501356101808301526156656101a0830185615536565b6156736101e083018461556e565b979650505050505050565b858152610280810161569360208301876154e6565b843560e083015260208501356101008301526040850135610120830152606085013561014083015260808501356101608301526156d4610180830185615536565b6156e26101c083018461556e565b9695505050505050565b82815260a081016112c26020830184805180516001600160a01b0390811684526020808301518186015260409283015182169285019290925291015116606090910152565b5f60208284031215615741575f80fd5b6112c283836145a9565b600181815b8085111561578557815f190482111561576b5761576b614df4565b8085161561577857918102915b93841c9390800290615750565b509250929050565b5f8261579b57506001610d04565b816157a757505f610d04565b81600181146157bd57600281146157c7576157e3565b6001915050610d04565b60ff8411156157d8576157d8614df4565b50506001821b610d04565b5060208310610133831016604e8410600b8410161715615806575081810a610d04565b615810838361574b565b805f190482111561582357615823614df4565b029392505050565b5f6112c2838361578d565b8082028115828204841417610d0457610d04614df4565b5f6020828403121561585d575f80fd5b815160ff811681146112c2575f80fd5b5f6112c260ff84168361578d565b634e487b7160e01b5f52603260045260245ffd5b5f808335601e198436030181126158a4575f80fd5b8301803591506001600160401b038211156158bd575f80fd5b6020019150368190038213156158d1575f80fd5b9250929050565b5f82516158e9818460208701614639565b919091019291505056fe360894a13ba1a3210667c828492db98dca3e2076cc3735a920a3ca505d382bbc02dd7bc7dec4dceedda775e58dd541e08a116c6c53815c0bd028192f7b626800cd5ed15c6e187e77e9aee88184c21f4f2182ab5827cb3b7e07fbedcd63f03300a26469706673582212203a0ee8f09c8d2cdd22e99665e28bb0307008b8df266af8b4c1af1ad9edab32e364736f6c63430008170033",
    "linkReferences": {
      "src/market/libraries/LoanLibrary.sol": {
        "LoanLibrary": [
          {
            "start": 4317,
            "length": 20
          },
          {
            "start": 7637,
            "length": 20
          },
          {
            "start": 7798,
            "length": 20
          },
          {
            "start": 8930,
            "length": 20
          },
          {
            "start": 10218,
            "length": 20
          }
        ]
      },
      "src/market/libraries/OfferLibrary.sol": {
        "OfferLibrary": [
          {
            "start": 5111,
            "length": 20
          },
          {
            "start": 12616,
            "length": 20
          }
        ]
      },
      "src/market/libraries/RiskLibrary.sol": {
        "RiskLibrary": [
          {
            "start": 4903,
            "length": 20
          },
          {
            "start": 5642,
            "length": 20
          },
          {
            "start": 5977,
            "length": 20
          },
          {
            "start": 6447,
            "length": 20
          },
          {
            "start": 10639,
            "length": 20
          },
          {
            "start": 10878,
            "length": 20
          },
          {
            "start": 11472,
            "length": 20
          }
        ]
      },
      "src/market/libraries/actions/BuyCreditLimit.sol": {
        "BuyCreditLimit": [
          {
            "start": 7461,
            "length": 20
          },
          {
            "start": 7560,
            "length": 20
          }
        ]
      },
      "src/market/libraries/actions/BuyCreditMarket.sol": {
        "BuyCreditMarket": [
          {
            "start": 4661,
            "length": 20
          },
          {
            "start": 4760,
            "length": 20
          },
          {
            "start": 5227,
            "length": 20
          }
        ]
      },
      "src/market/libraries/actions/Claim.sol": {
        "Claim": [
          {
            "start": 12269,
            "length": 20
          },
          {
            "start": 12368,
            "length": 20
          }
        ]
      },
      "src/market/libraries/actions/Compensate.sol": {
        "Compensate": [
          {
            "start": 5752,
            "length": 20
          },
          {
            "start": 5851,
            "length": 20
          }
        ]
      },
      "src/market/libraries/actions/CopyLimitOrders.sol": {
        "CopyLimitOrders": [
          {
            "start": 9695,
            "length": 20
          },
          {
            "start": 9794,
            "length": 20
          }
        ]
      },
      "src/market/libraries/actions/Deposit.sol": {
        "Deposit": [
          {
            "start": 12673,
            "length": 20
          },
          {
            "start": 12772,
            "length": 20
          }
        ]
      },
      "src/market/libraries/actions/Initialize.sol": {
        "Initialize": [
          {
            "start": 11784,
            "length": 20
          },
          {
            "start": 11917,
            "length": 20
          }
        ]
      },
      "src/market/libraries/actions/Liquidate.sol": {
        "Liquidate": [
          {
            "start": 11124,
            "length": 20
          },
          {
            "start": 11223,
            "length": 20
          },
          {
            "start": 11348,
            "length": 20
          }
        ]
      },
      "src/market/libraries/actions/LiquidateWithReplacement.sol": {
        "LiquidateWithReplacement": [
          {
            "start": 6235,
            "length": 20
          },
          {
            "start": 6334,
            "length": 20
          },
          {
            "start": 6590,
            "length": 20
          }
        ]
      },
      "src/market/libraries/actions/PartialRepay.sol": {
        "PartialRepay": [
          {
            "start": 3617,
            "length": 20
          },
          {
            "start": 3716,
            "length": 20
          }
        ]
      },
      "src/market/libraries/actions/Repay.sol": {
        "Repay": [
          {
            "start": 9441,
            "length": 20
          },
          {
            "start": 9539,
            "length": 20
          }
        ]
      },
      "src/market/libraries/actions/SelfLiquidate.sol": {
        "SelfLiquidate": [
          {
            "start": 7268,
            "length": 20
          },
          {
            "start": 7402,
            "length": 20
          }
        ]
      },
      "src/market/libraries/actions/SellCreditLimit.sol": {
        "SellCreditLimit": [
          {
            "start": 7027,
            "length": 20
          },
          {
            "start": 7126,
            "length": 20
          }
        ]
      },
      "src/market/libraries/actions/SellCreditMarket.sol": {
        "SellCreditMarket": [
          {
            "start": 5484,
            "length": 20
          },
          {
            "start": 10395,
            "length": 20
          },
          {
            "start": 10494,
            "length": 20
          }
        ]
      },
      "src/market/libraries/actions/SetUserConfiguration.sol": {
        "SetUserConfiguration": [
          {
            "start": 10696,
            "length": 20
          },
          {
            "start": 10795,
            "length": 20
          }
        ]
      },
      "src/market/libraries/actions/UpdateConfig.sol": {
        "UpdateConfig": [
          {
            "start": 3876,
            "length": 20
          },
          {
            "start": 3975,
            "length": 20
          },
          {
            "start": 4541,
            "length": 20
          },
          {
            "start": 9196,
            "length": 20
          },
          {
            "start": 9328,
            "length": 20
          }
        ]
      },
      "src/market/libraries/actions/Withdraw.sol": {
        "Withdraw": [
          {
            "start": 12427,
            "length": 20
          },
          {
            "start": 12526,
            "length": 20
          }
        ]
      }
    }
  },
  "methodIdentifiers": {
    "DEFAULT_ADMIN_ROLE()": "a217fddf",
    "UPGRADE_INTERFACE_VERSION()": "ad3cb1cc",
    "buyCreditLimit((uint256,(uint256[],int256[],uint256[])))": "3746f858",
    "buyCreditLimitOnBehalfOf(((uint256,(uint256[],int256[],uint256[])),address))": "53e043d4",
    "buyCreditMarket((address,uint256,uint256,uint256,uint256,uint256,bool))": "19a7359b",
    "buyCreditMarketOnBehalfOf(((address,uint256,uint256,uint256,uint256,uint256,bool),address,address))": "1fcd4a34",
    "claim((uint256))": "f45bf01c",
    "collateralRatio(address)": "ca40742c",
    "compensate((uint256,uint256,uint256))": "8e572776",
    "compensateOnBehalfOf(((uint256,uint256,uint256),address))": "3ae6d7c3",
    "copyLimitOrders((address,(uint256,uint256,uint256,uint256,int256),(uint256,uint256,uint256,uint256,int256)))": "f052e7a4",
    "copyLimitOrdersOnBehalfOf(((address,(uint256,uint256,uint256,uint256,int256),(uint256,uint256,uint256,uint256,int256)),address))": "8628babd",
    "data()": "73d4a13a",
    "debtTokenAmountToCollateralTokenAmount(uint256)": "1970e5ea",
    "deposit((address,uint256,address))": "0cf8542f",
    "depositOnBehalfOf(((address,uint256,address),address))": "fa823af5",
    "feeConfig()": "1e5eb1d0",
    "getBorrowOfferAPR(address,uint256)": "f85c3cd4",
    "getBuyCreditMarketSwapData((address,uint256,uint256,uint256,uint256,uint256,bool))": "2ed28ba2",
    "getCreditPosition(uint256)": "76c1b82f",
    "getDebtPosition(uint256)": "b5ec7487",
    "getDebtPositionAssignedCollateral(uint256)": "54137c7e",
    "getLoanOfferAPR(address,uint256)": "2cc884c5",
    "getLoanStatus(uint256)": "1c4fd41c",
    "getPositionsCount()": "1ca3b0cb",
    "getRoleAdmin(bytes32)": "248a9ca3",
    "getSellCreditMarketSwapData((address,uint256,uint256,uint256,uint256,uint256,bool))": "37501921",
    "getSwapFee(uint256,uint256)": "2c60185c",
    "getUserCopyLimitOrders(address)": "b36116f6",
    "getUserView(address)": "5cbc51eb",
    "grantRole(bytes32,address)": "2f2ff15d",
    "hasRole(bytes32,address)": "91d14854",
    "initialize(address,(uint256,uint256,uint256,uint256,uint256,address),(uint256,uint256,uint256,uint256,uint256),(address,uint64),(address,address,address,address,address,address))": "f1bf35c3",
    "isCreditPositionId(uint256)": "ccc96815",
    "isDebtPositionId(uint256)": "64eb0a71",
    "isDebtPositionLiquidatable(uint256)": "e5af06ce",
    "liquidate((uint256,uint256,uint256))": "e05001f5",
    "liquidateWithReplacement((uint256,address,uint256,uint256,uint256))": "3e3c119b",
    "multicall(bytes[])": "ac9650d8",
    "oracle()": "7dc0d1d0",
    "partialRepay((uint256,uint256,address))": "02f2855a",
    "pause()": "8456cb59",
    "paused()": "5c975abb",
    "proxiableUUID()": "52d1902d",
    "renounceRole(bytes32,address)": "36568abe",
    "repay((uint256,address))": "7f417c06",
    "revokeRole(bytes32,address)": "d547741f",
    "riskConfig()": "7c90a6ca",
    "selfLiquidate((uint256))": "fd17174a",
    "selfLiquidateOnBehalfOf(((uint256),address,address))": "536b9c79",
    "sellCreditLimit((uint256,(uint256[],int256[],uint256[])))": "ccd8d4d1",
    "sellCreditLimitOnBehalfOf(((uint256,(uint256[],int256[],uint256[])),address))": "4fd9a8a5",
    "sellCreditMarket((address,uint256,uint256,uint256,uint256,uint256,bool))": "d8d933a5",
    "sellCreditMarketOnBehalfOf(((address,uint256,uint256,uint256,uint256,uint256,bool),address,address))": "c73d9833",
    "setUserConfiguration((address,uint256,bool,bool,uint256[]))": "780cafa8",
    "setUserConfigurationOnBehalfOf(((address,uint256,bool,bool,uint256[]),address))": "c7cd4d87",
    "setVariablePoolBorrowRate(uint128)": "4cbd882c",
    "sizeFactory()": "fa7a5b10",
    "supportsInterface(bytes4)": "01ffc9a7",
    "unpause()": "3f4ba83a",
    "updateConfig((string,uint256))": "0317b9df",
    "upgradeToAndCall(address,bytes)": "4f1ef286",
    "vaultOf(address)": "0709df45",
    "version()": "54fd4d50",
    "withdraw((address,uint256,address))": "2b4c9a20",
    "withdrawOnBehalfOf(((address,uint256,address),address))": "f54ae18b"
  },
  "id": 252
}