{
  "abi": [
    {
      "type": "constructor",
      "inputs": [],
      "stateMutability": "nonpayable"
    },
    {
      "type": "function",
      "name": "DEFAULT_ADMIN_ROLE",
      "inputs": [],
      "outputs": [
        {
          "name": "",
          "type": "bytes32",
          "internalType": "bytes32"
        }
      ],
      "stateMutability": "view"
    },
    {
      "type": "function",
      "name": "UPGRADE_INTERFACE_VERSION",
      "inputs": [],
      "outputs": [
        {
          "name": "",
          "type": "string",
          "internalType": "string"
        }
      ],
      "stateMutability": "view"
    },
    {
      "type": "function",
      "name": "authorizationNonces",
      "inputs": [
        {
          "name": "onBehalfOf",
          "type": "address",
          "internalType": "address"
        }
      ],
      "outputs": [
        {
          "name": "nonce",
          "type": "uint256",
          "internalType": "uint256"
        }
      ],
      "stateMutability": "view"
    },
    {
      "type": "function",
      "name": "authorizations",
      "inputs": [
        {
          "name": "nonce",
          "type": "uint256",
          "internalType": "uint256"
        },
        {
          "name": "operator",
          "type": "address",
          "internalType": "address"
        },
        {
          "name": "onBehalfOf",
          "type": "address",
          "internalType": "address"
        }
      ],
      "outputs": [
        {
          "name": "authorizedActionsBitmap",
          "type": "uint256",
          "internalType": "ActionsBitmap"
        }
      ],
      "stateMutability": "view"
    },
    {
      "type": "function",
      "name": "callMarket",
      "inputs": [
        {
          "name": "market",
          "type": "address",
          "internalType": "contract ISize"
        },
        {
          "name": "data",
          "type": "bytes",
          "internalType": "bytes"
        }
      ],
      "outputs": [
        {
          "name": "result",
          "type": "bytes",
          "internalType": "bytes"
        }
      ],
      "stateMutability": "nonpayable"
    },
    {
      "type": "function",
      "name": "collectionsManager",
      "inputs": [],
      "outputs": [
        {
          "name": "",
          "type": "address",
          "internalType": "contract ICollectionsManager"
        }
      ],
      "stateMutability": "view"
    },
    {
      "type": "function",
      "name": "createBorrowTokenVault",
      "inputs": [
        {
          "name": "variablePool",
          "type": "address",
          "internalType": "contract IPool"
        },
        {
          "name": "underlyingBorrowToken",
          "type": "address",
          "internalType": "contract IERC20Metadata"
        }
      ],
      "outputs": [
        {
          "name": "borrowTokenVault",
          "type": "address",
          "internalType": "contract NonTransferrableRebasingTokenVault"
        }
      ],
      "stateMutability": "nonpayable"
    },
    {
      "type": "function",
      "name": "createMarket",
      "inputs": [
        {
          "name": "feeConfigParams",
          "type": "tuple",
          "internalType": "struct InitializeFeeConfigParams",
          "components": [
            {
              "name": "swapFeeAPR",
              "type": "uint256",
              "internalType": "uint256"
            },
            {
              "name": "fragmentationFee",
              "type": "uint256",
              "internalType": "uint256"
            },
            {
              "name": "liquidationRewardPercent",
              "type": "uint256",
              "internalType": "uint256"
            },
            {
              "name": "overdueCollateralProtocolPercent",
              "type": "uint256",
              "internalType": "uint256"
            },
            {
              "name": "collateralProtocolPercent",
              "type": "uint256",
              "internalType": "uint256"
            },
            {
              "name": "feeRecipient",
              "type": "address",
              "internalType": "address"
            }
          ]
        },
        {
          "name": "riskConfigParams",
          "type": "tuple",
          "internalType": "struct InitializeRiskConfigParams",
          "components": [
            {
              "name": "crOpening",
              "type": "uint256",
              "internalType": "uint256"
            },
            {
              "name": "crLiquidation",
              "type": "uint256",
              "internalType": "uint256"
            },
            {
              "name": "minimumCreditBorrowToken",
              "type": "uint256",
              "internalType": "uint256"
            },
            {
              "name": "minTenor",
              "type": "uint256",
              "internalType": "uint256"
            },
            {
              "name": "maxTenor",
              "type": "uint256",
              "internalType": "uint256"
            }
          ]
        },
        {
          "name": "oracleParams",
          "type": "tuple",
          "internalType": "struct InitializeOracleParams",
          "components": [
            {
              "name": "priceFeed",
              "type": "address",
              "internalType": "address"
            },
            {
              "name": "variablePoolBorrowRateStaleRateInterval",
              "type": "uint64",
              "internalType": "uint64"
            }
          ]
        },
        {
          "name": "dataParams",
          "type": "tuple",
          "internalType": "struct InitializeDataParams",
          "components": [
            {
              "name": "weth",
              "type": "address",
              "internalType": "address"
            },
            {
              "name": "underlyingCollateralToken",
              "type": "address",
              "internalType": "address"
            },
            {
              "name": "underlyingBorrowToken",
              "type": "address",
              "internalType": "address"
            },
            {
              "name": "variablePool",
              "type": "address",
              "internalType": "address"
            },
            {
              "name": "borrowTokenVault",
              "type": "address",
              "internalType": "address"
            },
            {
              "name": "sizeFactory",
              "type": "address",
              "internalType": "address"
            }
          ]
        }
      ],
      "outputs": [
        {
          "name": "market",
          "type": "address",
          "internalType": "contract ISize"
        }
      ],
      "stateMutability": "nonpayable"
    },
    {
      "type": "function",
      "name": "createPriceFeed",
      "inputs": [
        {
          "name": "_priceFeedParams",
          "type": "tuple",
          "internalType": "struct PriceFeedParams",
          "components": [
            {
              "name": "uniswapV3Pool",
              "type": "address",
              "internalType": "contract IUniswapV3Pool"
            },
            {
              "name": "twapWindow",
              "type": "uint32",
              "internalType": "uint32"
            },
            {
              "name": "averageBlockTime",
              "type": "uint32",
              "internalType": "uint32"
            },
            {
              "name": "baseToken",
              "type": "address",
              "internalType": "contract IERC20Metadata"
            },
            {
              "name": "quoteToken",
              "type": "address",
              "internalType": "contract IERC20Metadata"
            },
            {
              "name": "baseAggregator",
              "type": "address",
              "internalType": "contract AggregatorV3Interface"
            },
            {
              "name": "quoteAggregator",
              "type": "address",
              "internalType": "contract AggregatorV3Interface"
            },
            {
              "name": "baseStalePriceInterval",
              "type": "uint256",
              "internalType": "uint256"
            },
            {
              "name": "quoteStalePriceInterval",
              "type": "uint256",
              "internalType": "uint256"
            },
            {
              "name": "sequencerUptimeFeed",
              "type": "address",
              "internalType": "contract AggregatorV3Interface"
            }
          ]
        }
      ],
      "outputs": [
        {
          "name": "priceFeed",
          "type": "address",
          "internalType": "contract PriceFeed"
        }
      ],
      "stateMutability": "nonpayable"
    },
    {
      "type": "function",
      "name": "getBorrowOfferAPR",
      "inputs": [
        {
          "name": "user",
          "type": "address",
          "internalType": "address"
        },
        {
          "name": "collectionId",
          "type": "uint256",
          "internalType": "uint256"
        },
        {
          "name": "market",
          "type": "address",
          "internalType": "contract ISize"
        },
        {
          "name": "rateProvider",
          "type": "address",
          "internalType": "address"
        },
        {
          "name": "tenor",
          "type": "uint256",
          "internalType": "uint256"
        }
      ],
      "outputs": [
        {
          "name": "",
          "type": "uint256",
          "internalType": "uint256"
        }
      ],
      "stateMutability": "view"
    },
    {
      "type": "function",
      "name": "getLoanOfferAPR",
      "inputs": [
        {
          "name": "user",
          "type": "address",
          "internalType": "address"
        },
        {
          "name": "collectionId",
          "type": "uint256",
          "internalType": "uint256"
        },
        {
          "name": "market",
          "type": "address",
          "internalType": "contract ISize"
        },
        {
          "name": "rateProvider",
          "type": "address",
          "internalType": "address"
        },
        {
          "name": "tenor",
          "type": "uint256",
          "internalType": "uint256"
        }
      ],
      "outputs": [
        {
          "name": "",
          "type": "uint256",
          "internalType": "uint256"
        }
      ],
      "stateMutability": "view"
    },
    {
      "type": "function",
      "name": "getMarket",
      "inputs": [
        {
          "name": "index",
          "type": "uint256",
          "internalType": "uint256"
        }
      ],
      "outputs": [
        {
          "name": "",
          "type": "address",
          "internalType": "contract ISize"
        }
      ],
      "stateMutability": "view"
    },
    {
      "type": "function",
      "name": "getMarketDescriptions",
      "inputs": [],
      "outputs": [
        {
          "name": "descriptions",
          "type": "string[]",
          "internalType": "string[]"
        }
      ],
      "stateMutability": "view"
    },
    {
      "type": "function",
      "name": "getMarkets",
      "inputs": [],
      "outputs": [
        {
          "name": "_markets",
          "type": "address[]",
          "internalType": "contract ISize[]"
        }
      ],
      "stateMutability": "view"
    },
    {
      "type": "function",
      "name": "getMarketsCount",
      "inputs": [],
      "outputs": [
        {
          "name": "",
          "type": "uint256",
          "internalType": "uint256"
        }
      ],
      "stateMutability": "view"
    },
    {
      "type": "function",
      "name": "getRoleAdmin",
      "inputs": [
        {
          "name": "role",
          "type": "bytes32",
          "internalType": "bytes32"
        }
      ],
      "outputs": [
        {
          "name": "",
          "type": "bytes32",
          "internalType": "bytes32"
        }
      ],
      "stateMutability": "view"
    },
    {
      "type": "function",
      "name": "grantRole",
      "inputs": [
        {
          "name": "role",
          "type": "bytes32",
          "internalType": "bytes32"
        },
        {
          "name": "account",
          "type": "address",
          "internalType": "address"
        }
      ],
      "outputs": [],
      "stateMutability": "nonpayable"
    },
    {
      "type": "function",
      "name": "hasRole",
      "inputs": [
        {
          "name": "role",
          "type": "bytes32",
          "internalType": "bytes32"
        },
        {
          "name": "account",
          "type": "address",
          "internalType": "address"
        }
      ],
      "outputs": [
        {
          "name": "",
          "type": "bool",
          "internalType": "bool"
        }
      ],
      "stateMutability": "view"
    },
    {
      "type": "function",
      "name": "initialize",
      "inputs": [
        {
          "name": "_owner",
          "type": "address",
          "internalType": "address"
        }
      ],
      "outputs": [],
      "stateMutability": "nonpayable"
    },
    {
      "type": "function",
      "name": "isAuthorized",
      "inputs": [
        {
          "name": "operator",
          "type": "address",
          "internalType": "address"
        },
        {
          "name": "onBehalfOf",
          "type": "address",
          "internalType": "address"
        },
        {
          "name": "action",
          "type": "uint8",
          "internalType": "enum Action"
        }
      ],
      "outputs": [
        {
          "name": "",
          "type": "bool",
          "internalType": "bool"
        }
      ],
      "stateMutability": "view"
    },
    {
      "type": "function",
      "name": "isAuthorizedAll",
      "inputs": [
        {
          "name": "operator",
          "type": "address",
          "internalType": "address"
        },
        {
          "name": "onBehalfOf",
          "type": "address",
          "internalType": "address"
        },
        {
          "name": "actionsBitmap",
          "type": "uint256",
          "internalType": "ActionsBitmap"
        }
      ],
      "outputs": [
        {
          "name": "",
          "type": "bool",
          "internalType": "bool"
        }
      ],
      "stateMutability": "view"
    },
    {
      "type": "function",
      "name": "isBorrowAPRLowerThanLoanOfferAPRs",
      "inputs": [
        {
          "name": "user",
          "type": "address",
          "internalType": "address"
        },
        {
          "name": "borrowAPR",
          "type": "uint256",
          "internalType": "uint256"
        },
        {
          "name": "market",
          "type": "address",
          "internalType": "contract ISize"
        },
        {
          "name": "tenor",
          "type": "uint256",
          "internalType": "uint256"
        }
      ],
      "outputs": [
        {
          "name": "",
          "type": "bool",
          "internalType": "bool"
        }
      ],
      "stateMutability": "view"
    },
    {
      "type": "function",
      "name": "isLoanAPRGreaterThanBorrowOfferAPRs",
      "inputs": [
        {
          "name": "user",
          "type": "address",
          "internalType": "address"
        },
        {
          "name": "loanAPR",
          "type": "uint256",
          "internalType": "uint256"
        },
        {
          "name": "market",
          "type": "address",
          "internalType": "contract ISize"
        },
        {
          "name": "tenor",
          "type": "uint256",
          "internalType": "uint256"
        }
      ],
      "outputs": [
        {
          "name": "",
          "type": "bool",
          "internalType": "bool"
        }
      ],
      "stateMutability": "view"
    },
    {
      "type": "function",
      "name": "isMarket",
      "inputs": [
        {
          "name": "candidate",
          "type": "address",
          "internalType": "address"
        }
      ],
      "outputs": [
        {
          "name": "",
          "type": "bool",
          "internalType": "bool"
        }
      ],
      "stateMutability": "view"
    },
    {
      "type": "function",
      "name": "multicall",
      "inputs": [
        {
          "name": "data",
          "type": "bytes[]",
          "internalType": "bytes[]"
        }
      ],
      "outputs": [
        {
          "name": "results",
          "type": "bytes[]",
          "internalType": "bytes[]"
        }
      ],
      "stateMutability": "nonpayable"
    },
    {
      "type": "function",
      "name": "nonTransferrableTokenVaultImplementation",
      "inputs": [],
      "outputs": [
        {
          "name": "",
          "type": "address",
          "internalType": "address"
        }
      ],
      "stateMutability": "view"
    },
    {
      "type": "function",
      "name": "onERC721Received",
      "inputs": [
        {
          "name": "",
          "type": "address",
          "internalType": "address"
        },
        {
          "name": "",
          "type": "address",
          "internalType": "address"
        },
        {
          "name": "",
          "type": "uint256",
          "internalType": "uint256"
        },
        {
          "name": "",
          "type": "bytes",
          "internalType": "bytes"
        }
      ],
      "outputs": [
        {
          "name": "",
          "type": "bytes4",
          "internalType": "bytes4"
        }
      ],
      "stateMutability": "nonpayable"
    },
    {
      "type": "function",
      "name": "proxiableUUID",
      "inputs": [],
      "outputs": [
        {
          "name": "",
          "type": "bytes32",
          "internalType": "bytes32"
        }
      ],
      "stateMutability": "view"
    },
    {
      "type": "function",
      "name": "reinitialize",
      "inputs": [
        {
          "name": "_collectionsManager",
          "type": "address",
          "internalType": "contract ICollectionsManager"
        },
        {
          "name": "_users",
          "type": "address[]",
          "internalType": "address[]"
        },
        {
          "name": "_curator",
          "type": "address",
          "internalType": "address"
        },
        {
          "name": "_rateProvider",
          "type": "address",
          "internalType": "address"
        },
        {
          "name": "_collectionMarkets",
          "type": "address[]",
          "internalType": "contract ISize[]"
        }
      ],
      "outputs": [],
      "stateMutability": "nonpayable"
    },
    {
      "type": "function",
      "name": "renounceRole",
      "inputs": [
        {
          "name": "role",
          "type": "bytes32",
          "internalType": "bytes32"
        },
        {
          "name": "callerConfirmation",
          "type": "address",
          "internalType": "address"
        }
      ],
      "outputs": [],
      "stateMutability": "nonpayable"
    },
    {
      "type": "function",
      "name": "revokeAllAuthorizations",
      "inputs": [],
      "outputs": [],
      "stateMutability": "nonpayable"
    },
    {
      "type": "function",
      "name": "revokeRole",
      "inputs": [
        {
          "name": "role",
          "type": "bytes32",
          "internalType": "bytes32"
        },
        {
          "name": "account",
          "type": "address",
          "internalType": "address"
        }
      ],
      "outputs": [],
      "stateMutability": "nonpayable"
    },
    {
      "type": "function",
      "name": "setAuthorization",
      "inputs": [
        {
          "name": "operator",
          "type": "address",
          "internalType": "address"
        },
        {
          "name": "actionsBitmap",
          "type": "uint256",
          "internalType": "ActionsBitmap"
        }
      ],
      "outputs": [],
      "stateMutability": "nonpayable"
    },
    {
      "type": "function",
      "name": "setCollectionsManager",
      "inputs": [
        {
          "name": "_collectionsManager",
          "type": "address",
          "internalType": "contract ICollectionsManager"
        }
      ],
      "outputs": [],
      "stateMutability": "nonpayable"
    },
    {
      "type": "function",
      "name": "setNonTransferrableRebasingTokenVaultImplementation",
      "inputs": [
        {
          "name": "_nonTransferrableTokenVaultImplementation",
          "type": "address",
          "internalType": "address"
        }
      ],
      "outputs": [],
      "stateMutability": "nonpayable"
    },
    {
      "type": "function",
      "name": "setSizeImplementation",
      "inputs": [
        {
          "name": "_sizeImplementation",
          "type": "address",
          "internalType": "address"
        }
      ],
      "outputs": [],
      "stateMutability": "nonpayable"
    },
    {
      "type": "function",
      "name": "sizeImplementation",
      "inputs": [],
      "outputs": [
        {
          "name": "",
          "type": "address",
          "internalType": "address"
        }
      ],
      "stateMutability": "view"
    },
    {
      "type": "function",
      "name": "subscribeToCollections",
      "inputs": [
        {
          "name": "collectionIds",
          "type": "uint256[]",
          "internalType": "uint256[]"
        }
      ],
      "outputs": [],
      "stateMutability": "nonpayable"
    },
    {
      "type": "function",
      "name": "supportsInterface",
      "inputs": [
        {
          "name": "interfaceId",
          "type": "bytes4",
          "internalType": "bytes4"
        }
      ],
      "outputs": [
        {
          "name": "",
          "type": "bool",
          "internalType": "bool"
        }
      ],
      "stateMutability": "view"
    },
    {
      "type": "function",
      "name": "unsubscribeFromCollections",
      "inputs": [
        {
          "name": "collectionIds",
          "type": "uint256[]",
          "internalType": "uint256[]"
        }
      ],
      "outputs": [],
      "stateMutability": "nonpayable"
    },
    {
      "type": "function",
      "name": "upgradeToAndCall",
      "inputs": [
        {
          "name": "newImplementation",
          "type": "address",
          "internalType": "address"
        },
        {
          "name": "data",
          "type": "bytes",
          "internalType": "bytes"
        }
      ],
      "outputs": [],
      "stateMutability": "payable"
    },
    {
      "type": "function",
      "name": "version",
      "inputs": [],
      "outputs": [
        {
          "name": "",
          "type": "string",
          "internalType": "string"
        }
      ],
      "stateMutability": "pure"
    },
    {
      "type": "event",
      "name": "CollectionsManagerSet",
      "inputs": [
        {
          "name": "oldCollectionsManager",
          "type": "address",
          "indexed": true,
          "internalType": "address"
        },
        {
          "name": "newCollectionsManager",
          "type": "address",
          "indexed": true,
          "internalType": "address"
        }
      ],
      "anonymous": false
    },
    {
      "type": "event",
      "name": "CreateBorrowTokenVault",
      "inputs": [
        {
          "name": "borrowTokenVault",
          "type": "address",
          "indexed": true,
          "internalType": "address"
        }
      ],
      "anonymous": false
    },
    {
      "type": "event",
      "name": "CreateMarket",
      "inputs": [
        {
          "name": "market",
          "type": "address",
          "indexed": true,
          "internalType": "address"
        }
      ],
      "anonymous": false
    },
    {
      "type": "event",
      "name": "CreatePriceFeed",
      "inputs": [
        {
          "name": "priceFeed",
          "type": "address",
          "indexed": true,
          "internalType": "address"
        }
      ],
      "anonymous": false
    },
    {
      "type": "event",
      "name": "Initialized",
      "inputs": [
        {
          "name": "version",
          "type": "uint64",
          "indexed": false,
          "internalType": "uint64"
        }
      ],
      "anonymous": false
    },
    {
      "type": "event",
      "name": "NonTransferrableRebasingTokenVaultImplementationSet",
      "inputs": [
        {
          "name": "oldNonTransferrableRebasingTokenVaultImplementation",
          "type": "address",
          "indexed": true,
          "internalType": "address"
        },
        {
          "name": "newNonTransferrableRebasingTokenVaultImplementation",
          "type": "address",
          "indexed": true,
          "internalType": "address"
        }
      ],
      "anonymous": false
    },
    {
      "type": "event",
      "name": "RevokeAllAuthorizations",
      "inputs": [
        {
          "name": "sender",
          "type": "address",
          "indexed": true,
          "internalType": "address"
        }
      ],
      "anonymous": false
    },
    {
      "type": "event",
      "name": "RoleAdminChanged",
      "inputs": [
        {
          "name": "role",
          "type": "bytes32",
          "indexed": true,
          "internalType": "bytes32"
        },
        {
          "name": "previousAdminRole",
          "type": "bytes32",
          "indexed": true,
          "internalType": "bytes32"
        },
        {
          "name": "newAdminRole",
          "type": "bytes32",
          "indexed": true,
          "internalType": "bytes32"
        }
      ],
      "anonymous": false
    },
    {
      "type": "event",
      "name": "RoleGranted",
      "inputs": [
        {
          "name": "role",
          "type": "bytes32",
          "indexed": true,
          "internalType": "bytes32"
        },
        {
          "name": "account",
          "type": "address",
          "indexed": true,
          "internalType": "address"
        },
        {
          "name": "sender",
          "type": "address",
          "indexed": true,
          "internalType": "address"
        }
      ],
      "anonymous": false
    },
    {
      "type": "event",
      "name": "RoleRevoked",
      "inputs": [
        {
          "name": "role",
          "type": "bytes32",
          "indexed": true,
          "internalType": "bytes32"
        },
        {
          "name": "account",
          "type": "address",
          "indexed": true,
          "internalType": "address"
        },
        {
          "name": "sender",
          "type": "address",
          "indexed": true,
          "internalType": "address"
        }
      ],
      "anonymous": false
    },
    {
      "type": "event",
      "name": "SetAuthorization",
      "inputs": [
        {
          "name": "sender",
          "type": "address",
          "indexed": true,
          "internalType": "address"
        },
        {
          "name": "operator",
          "type": "address",
          "indexed": true,
          "internalType": "address"
        },
        {
          "name": "actionsBitmap",
          "type": "uint256",
          "indexed": true,
          "internalType": "uint256"
        },
        {
          "name": "nonce",
          "type": "uint256",
          "indexed": false,
          "internalType": "uint256"
        }
      ],
      "anonymous": false
    },
    {
      "type": "event",
      "name": "SizeImplementationSet",
      "inputs": [
        {
          "name": "oldSizeImplementation",
          "type": "address",
          "indexed": true,
          "internalType": "address"
        },
        {
          "name": "newSizeImplementation",
          "type": "address",
          "indexed": true,
          "internalType": "address"
        }
      ],
      "anonymous": false
    },
    {
      "type": "event",
      "name": "Upgraded",
      "inputs": [
        {
          "name": "implementation",
          "type": "address",
          "indexed": true,
          "internalType": "address"
        }
      ],
      "anonymous": false
    },
    {
      "type": "error",
      "name": "AccessControlBadConfirmation",
      "inputs": []
    },
    {
      "type": "error",
      "name": "AccessControlUnauthorizedAccount",
      "inputs": [
        {
          "name": "account",
          "type": "address",
          "internalType": "address"
        },
        {
          "name": "neededRole",
          "type": "bytes32",
          "internalType": "bytes32"
        }
      ]
    },
    {
      "type": "error",
      "name": "AddressEmptyCode",
      "inputs": [
        {
          "name": "target",
          "type": "address",
          "internalType": "address"
        }
      ]
    },
    {
      "type": "error",
      "name": "ERC1967InvalidImplementation",
      "inputs": [
        {
          "name": "implementation",
          "type": "address",
          "internalType": "address"
        }
      ]
    },
    {
      "type": "error",
      "name": "ERC1967NonPayable",
      "inputs": []
    },
    {
      "type": "error",
      "name": "FailedCall",
      "inputs": []
    },
    {
      "type": "error",
      "name": "INVALID_ACTIONS_BITMAP",
      "inputs": [
        {
          "name": "actionsBitmap",
          "type": "uint256",
          "internalType": "uint256"
        }
      ]
    },
    {
      "type": "error",
      "name": "INVALID_MARKET",
      "inputs": [
        {
          "name": "market",
          "type": "address",
          "internalType": "address"
        }
      ]
    },
    {
      "type": "error",
      "name": "InsufficientBalance",
      "inputs": [
        {
          "name": "balance",
          "type": "uint256",
          "internalType": "uint256"
        },
        {
          "name": "needed",
          "type": "uint256",
          "internalType": "uint256"
        }
      ]
    },
    {
      "type": "error",
      "name": "InvalidInitialization",
      "inputs": []
    },
    {
      "type": "error",
      "name": "NULL_ADDRESS",
      "inputs": []
    },
    {
      "type": "error",
      "name": "NotInitializing",
      "inputs": []
    },
    {
      "type": "error",
      "name": "UUPSUnauthorizedCallContext",
      "inputs": []
    },
    {
      "type": "error",
      "name": "UUPSUnsupportedProxiableUUID",
      "inputs": [
        {
          "name": "slot",
          "type": "bytes32",
          "internalType": "bytes32"
        }
      ]
    }
  ],
  "bytecode": {
    "object": "0x60a06040523060805234801562000014575f80fd5b506200001f62000025565b620000d9565b7ff0c57e16840df040f15088dc2f81fe391c3923bec73e23a9662efc9c229c6a00805468010000000000000000900460ff1615620000765760405163f92ee8a960e01b815260040160405180910390fd5b80546001600160401b0390811614620000d65780546001600160401b0319166001600160401b0390811782556040519081527fc7f505b2f371ae2175ee4913f4499e1f2633a7b5936321eed1cdaeb6115181d29060200160405180910390a15b50565b608051613c36620001005f395f81816122cd015281816122f601526124390152613c365ff3fe608060405260043610610249575f3560e01c806381de274c11610134578063ac9650d8116100b3578063d152e23611610078578063d152e23614610730578063d547741f1461074f578063e8d353c71461076e578063eb44fdd31461078d578063ec2c9016146107ac578063f0fb716f146107cd575f80fd5b8063ac9650d814610677578063ad3cb1cc146106a3578063b4cd6bd1146106d3578063c4d66de8146106f2578063c8fb624714610711575f80fd5b80639e42bfa3116100f95780639e42bfa3146105f35780639feffdb014610612578063a217fddf14610631578063a78ec6ae14610644578063a7b2b31014610663575f80fd5b806381de274c1461054c57806386eeeb5a1461057757806391c769ce1461059657806391d14854146105b5578063973cf867146105d4575f80fd5b80634481f4d1116101cb5780635ec49544116101905780635ec49544146104735780635fb7f10c14610492578063678b9bad146104b15780636ec934da146104d05780637643d7ec146104ef5780637b8dedad14610510575f80fd5b80634481f4d1146103d9578063495e6d89146103f85780634f1ef2861461041757806352d1902d1461042a57806354fd4d501461043e575f80fd5b8063248a9ca311610211578063248a9ca31461033b57806327fa35c3146103685780632f2ff15d1461037c57806336568abe1461039b57806337c11b2a146103ba575f80fd5b806301a6c8721461024d57806301ffc9a71461026e5780631286a2dc146102a2578063150b7a02146102d95780631e4fcddb1461031c575b5f80fd5b348015610258575f80fd5b5061026c610267366004612a64565b6107ec565b005b348015610279575f80fd5b5061028d610288366004612a7f565b610852565b60405190151581526020015b60405180910390f35b3480156102ad575f80fd5b506007546102c1906001600160a01b031681565b6040516001600160a01b039091168152602001610299565b3480156102e4575f80fd5b506103036102f3366004612b9b565b630a85bd0160e11b949350505050565b6040516001600160e01b03199091168152602001610299565b348015610327575f80fd5b5061026c610336366004612a64565b610888565b348015610346575f80fd5b5061035a610355366004612c02565b610915565b604051908152602001610299565b348015610373575f80fd5b5061035a610935565b348015610387575f80fd5b5061026c610396366004612c19565b610944565b3480156103a6575f80fd5b5061026c6103b5366004612c19565b610966565b3480156103c5575f80fd5b50600a546102c1906001600160a01b031681565b3480156103e4575f80fd5b5061026c6103f3366004612cd9565b61099e565b348015610403575f80fd5b5061035a610412366004612dc9565b61125a565b61026c610425366004612e20565b6112ef565b348015610435575f80fd5b5061035a61130e565b348015610449575f80fd5b5060408051808201909152600481526376312e3760e01b60208201525b6040516102999190612eb9565b34801561047e575f80fd5b5061046661048d366004612ecb565b611329565b34801561049d575f80fd5b5061035a6104ac366004612dc9565b6113a8565b3480156104bc575f80fd5b5061028d6104cb366004612f48565b6113f8565b3480156104db575f80fd5b5061028d6104ea366004612a64565b611484565b3480156104fa575f80fd5b5061050361148f565b6040516102999190612f8d565b34801561051b575f80fd5b5061035a61052a366004612fef565b600860209081525f938452604080852082529284528284209052825290205481565b348015610557575f80fd5b5061035a610566366004612a64565b60096020525f908152604090205481565b348015610582575f80fd5b5061028d61059136600461302e565b6117bd565b3480156105a1575f80fd5b5061026c6105b036600461306e565b61182d565b3480156105c0575f80fd5b5061028d6105cf366004612c19565b611838565b3480156105df575f80fd5b506006546102c1906001600160a01b031681565b3480156105fe575f80fd5b5061026c61060d366004613098565b61186e565b34801561061d575f80fd5b5061028d61062c366004612f48565b6118d0565b34801561063c575f80fd5b5061035a5f81565b34801561064f575f80fd5b5061028d61065e366004613123565b611918565b34801561066e575f80fd5b5061026c61197d565b348015610682575f80fd5b50610696610691366004613161565b6119c8565b60405161029991906131cf565b3480156106ae575f80fd5b50610466604051806040016040528060058152602001640352e302e360dc1b81525081565b3480156106de575f80fd5b5061026c6106ed366004612a64565b611aad565b3480156106fd575f80fd5b5061026c61070c366004612a64565b611b3a565b34801561071c575f80fd5b5061026c61072b366004613098565b611ccc565b34801561073b575f80fd5b506102c161074a366004613237565b611cfe565b34801561075a575f80fd5b5061026c610769366004612c19565b611dbb565b348015610779575f80fd5b506102c16107883660046132f0565b611dd7565b348015610798575f80fd5b506102c16107a7366004612c02565b611eb6565b3480156107b7575f80fd5b506107c0611ec1565b604051610299919061335f565b3480156107d8575f80fd5b506102c16107e7366004613387565b611f56565b5f6107f68161203a565b600a546040516001600160a01b038085169216907f24b8a2b6435960c7b1b405f08e684a0ed2e4d467b56f325250b56e2a10dbabae905f90a350600a80546001600160a01b0319166001600160a01b0392909216919091179055565b5f6001600160e01b03198216637965db0b60e01b148061088257506301ffc9a760e01b6001600160e01b03198316145b92915050565b5f6108928161203a565b6001600160a01b0382166108b95760405163de0ce17d60e01b815260040160405180910390fd5b6007546040516001600160a01b038085169216907faefd875bf3940c57f185da0affbb82ce03656890d6e1d29310e8b4bf9d20b7c1905f90a350600780546001600160a01b0319166001600160a01b0392909216919091179055565b5f9081525f80516020613be1833981519152602052604090206001015490565b5f61093f5f612047565b905090565b61094d82610915565b6109568161203a565b6109608383612050565b50505050565b6001600160a01b038116331461098f5760405163334bd91960e11b815260040160405180910390fd5b61099982826120f1565b505050565b5f6109a88161203a565b612a305f6109b461216a565b8054909150600160401b900460ff16806109db575080546001600160401b03808416911610155b156109f95760405163f92ee8a960e01b815260040160405180910390fd5b805468ffffffffffffffffff19166001600160401b03831617600160401b1781556001600160a01b038816610a415760405163de0ce17d60e01b815260040160405180910390fd5b600a80546001600160a01b0319166001600160a01b038a169081179091556040515f907f24b8a2b6435960c7b1b405f08e684a0ed2e4d467b56f325250b56e2a10dbabae908290a36001600160a01b0386161580610aa657506001600160a01b038516155b611209576040805160018082528183019092525f91602080830190803683375050600a546040805163191fc6a760e21b815290519394506001600160a01b039091169263647f1a9c9250600480830192602092919082900301815f875af1158015610b13573d5f803e3d5ffd5b505050506040513d601f19601f82011682018060405250810190610b3791906133f2565b815f81518110610b4957610b49613409565b6020026020010181815250505f85516001600160401b03811115610b6f57610b6f612ab6565b604051908082528060200260200182016040528015610bcd57816020015b610bba6040518060a001604052805f81526020015f81526020015f81526020015f81526020015f81525090565b815260200190600190039081610b8d5790505b5090505f86516001600160401b03811115610bea57610bea612ab6565b604051908082528060200260200182016040528015610c4857816020015b610c356040518060a001604052805f81526020015f81526020015f81526020015f81526020015f81525090565b815260200190600190039081610c085790505b5090505f5b8751811015610cec576040518060a001604052805f81526020015f81526020015f81526020015f8152602001600160ff1b815250838281518110610c9357610c93613409565b60200260200101819052506040518060a001604052805f81526020015f1981526020015f81526020015f1981526020015f815250828281518110610cd957610cd9613409565b6020908102919091010152600101610c4d565b50600a5483516001600160a01b03909116906315d5cf999085905f90610d1457610d14613409565b60200260200101518984866040518563ffffffff1660e01b8152600401610d3e9493929190613476565b5f604051808303815f87803b158015610d55575f80fd5b505af1158015610d67573d5f803e3d5ffd5b505f925060019150610d769050565b604051908082528060200260200182016040528015610d9f578160200160208202803683370190505b50905088815f81518110610db557610db5613409565b60200260200101906001600160a01b031690816001600160a01b0316815250505f5b8851811015610e8157600a5485516001600160a01b039091169063eb379a589087905f90610e0757610e07613409565b60200260200101518b8481518110610e2157610e21613409565b6020026020010151856040518463ffffffff1660e01b8152600401610e48939291906134b4565b5f604051808303815f87803b158015610e5f575f80fd5b505af1158015610e71573d5f803e3d5ffd5b505060019092019150610dd79050565b506040805160028082526060820183525f926020830190803683370190505090506002815f81518110610eb657610eb6613409565b6020026020010190600a811115610ecf57610ecf613515565b9081600a811115610ee257610ee2613515565b81525050600381600181518110610efb57610efb613409565b6020026020010190600a811115610f1457610f14613515565b9081600a811115610f2757610f27613515565b9052505f5b8c5181101561117257600a548d516001600160a01b03909116906393c0d3f3908f9084908110610f5e57610f5e613409565b6020026020010151886040518363ffffffff1660e01b8152600401610f84929190613558565b5f604051808303815f87803b158015610f9b575f80fd5b505af1158015610fad573d5f803e3d5ffd5b50505050610fdd308e8381518110610fc757610fc7613409565b6020026020010151610fd885612192565b6121da565b5f5b8a5181101561114457610ff06129f7565b8e838151811061100257611002613409565b6020908102919091018101516001600160a01b0316908201528b518c908390811061102f5761102f613409565b60200260200101516001600160a01b03166353e043d4826040518263ffffffff1660e01b8152600401611062919061362e565b5f604051808303815f87803b158015611079575f80fd5b505af115801561108b573d5f803e3d5ffd5b505050506110976129f7565b8f84815181106110a9576110a9613409565b6020908102919091018101516001600160a01b0316908201528c518d90849081106110d6576110d6613409565b60200260200101516001600160a01b0316634fd9a8a5826040518263ffffffff1660e01b8152600401611109919061362e565b5f604051808303815f87803b158015611120575f80fd5b505af1158015611132573d5f803e3d5ffd5b505060019094019350610fdf92505050565b5061116a308e838151811061115b5761115b613409565b6020026020010151610fd85f90565b600101610f2c565b508c6001600160a01b03166342842e0e308d885f8151811061119657611196613409565b60209081029190910101516040516001600160e01b031960e086901b1681526001600160a01b03938416600482015292909116602483015260448201526064015f604051808303815f87803b1580156111ed575f80fd5b505af11580156111ff573d5f803e3d5ffd5b5050505050505050505b805460ff60401b191681556040516001600160401b03831681527fc7f505b2f371ae2175ee4913f4499e1f2633a7b5936321eed1cdaeb6115181d29060200160405180910390a15050505050505050565b600a5460405163495e6d8960e01b81526001600160a01b0387811660048301526024820187905285811660448301528481166064830152608482018490525f92169063495e6d899060a4015b602060405180830381865afa1580156112c1573d5f803e3d5ffd5b505050506040513d601f19601f820116820180604052508101906112e591906133f2565b9695505050505050565b6112f76122c2565b61130082612368565b61130a8282612372565b5050565b5f61131761242e565b505f80516020613bc183398151915290565b606061133484611484565b6113615760405163e2a7bea360e01b81526001600160a01b03851660048201526024015b60405180910390fd5b6113a08484848080601f0160208091040260200160405190810160405280939291908181526020018383808284375f9201919091525061247792505050565b949350505050565b600a546040516317edfc4360e21b81526001600160a01b0387811660048301526024820187905285811660448301528481166064830152608482018490525f921690635fb7f10c9060a4016112a6565b600a5460405163678b9bad60e01b81526001600160a01b038681166004830152602482018690528481166044830152606482018490525f92169063678b9bad906084015b602060405180830381865afa158015611457573d5f803e3d5ffd5b505050506040513d601f19601f8201168201806040525081019061147b9190613640565b95945050505050565b5f6108828183612484565b606061149a5f612047565b6001600160401b038111156114b1576114b1612ab6565b6040519080825280602002602001820160405280156114e457816020015b60608152602001906001900390816114cf5790505b5090505f5b81518110156117b9575f6114fd81836124a5565b90505f6115776064836001600160a01b0316637c90a6ca6040518163ffffffff1660e01b815260040160a060405180830381865afa158015611541573d5f803e3d5ffd5b505050506040513d601f19601f82011682018060405250810190611565919061365f565b60200151670de0b6b3a76400006124b0565b9050816001600160a01b03166373d4a13a6040518163ffffffff1660e01b815260040161010060405180830381865afa1580156115b6573d5f803e3d5ffd5b505050506040513d601f19601f820116820180604052508101906115da91906136d7565b604001516001600160a01b03166395d89b416040518163ffffffff1660e01b81526004015f60405180830381865afa158015611618573d5f803e3d5ffd5b505050506040513d5f823e601f3d908101601f1916820160405261163f9190810190613790565b826001600160a01b03166373d4a13a6040518163ffffffff1660e01b815260040161010060405180830381865afa15801561167c573d5f803e3d5ffd5b505050506040513d601f19601f820116820180604052508101906116a091906136d7565b606001516001600160a01b03166395d89b416040518163ffffffff1660e01b81526004015f60405180830381865afa1580156116de573d5f803e3d5ffd5b505050506040513d5f823e601f3d908101601f191682016040526117059190810190613790565b61170e836124bc565b846001600160a01b03166354fd4d506040518163ffffffff1660e01b81526004015f60405180830381865afa158015611749573d5f803e3d5ffd5b505050506040513d5f823e601f3d908101601f191682016040526117709190810190613790565b60405160200161178394939291906137f8565b6040516020818303038152906040528484815181106117a4576117a4613409565b602090810291909101015250506001016114e9565b5090565b5f826001600160a01b0316846001600160a01b0316036117df57506001611826565b6001600160a01b038084165f8181526009602090815260408083205480845260088352818420958a1684529482528083209383529290522054611822908461254b565b9150505b9392505050565b61130a8233836121da565b5f9182525f80516020613be1833981519152602090815260408084206001600160a01b0393909316845291905290205460ff1690565b600a546040516301bc3d7160e71b81526001600160a01b039091169063de1eb880906118a09033908590600401613558565b5f604051808303815f87803b1580156118b7575f80fd5b505af11580156118c9573d5f803e3d5ffd5b5050505050565b600a546040516309feffdb60e41b81526001600160a01b038681166004830152602482018690528481166044830152606482018490525f921690639feffdb09060840161143c565b5f826001600160a01b0316846001600160a01b03160361193a57506001611826565b506001600160a01b038281165f81815260096020908152604080832054835260088252808320948816835293815283822092825291909152205481168114611826565b60405133907fecbee29490a7e5456f4e3aab0700477764e3f16dda5a21ea92f43f1cfcb15799905f90a2335f9081526009602052604081208054916119c183613898565b9190505550565b604080515f815260208101909152606090826001600160401b038111156119f1576119f1612ab6565b604051908082528060200260200182016040528015611a2457816020015b6060815260200190600190039081611a0f5790505b5091505f5b83811015611aa557611a8030868684818110611a4757611a47613409565b9050602002810190611a5991906138c3565b85604051602001611a6c9392919061390c565b60405160208183030381529060405261256d565b838281518110611a9257611a92613409565b6020908102919091010152600101611a29565b505092915050565b5f611ab78161203a565b6001600160a01b038216611ade5760405163de0ce17d60e01b815260040160405180910390fd5b6006546040516001600160a01b038085169216907ffb3d0b43c5121de915eeb8fa2fb4bb792b6b05d5d6f3df7630aac9d9e8697312905f90a350600680546001600160a01b0319166001600160a01b0392909216919091179055565b5f611b4361216a565b805490915060ff600160401b82041615906001600160401b03165f81158015611b695750825b90505f826001600160401b03166001148015611b845750303b155b905081158015611b92575080155b15611bb05760405163f92ee8a960e01b815260040160405180910390fd5b845467ffffffffffffffff191660011785558315611bda57845460ff60401b1916600160401b1785555b611be26125d6565b611bea6125d6565b611bf26125d6565b611bfc5f87612050565b50611c277f65d7a28e3265b37a6474929f336521b332c1681b933f6cb9f3376673440d862a87612050565b50611c527ffc8737ab85eb45125971625a9ebdb75cc78e01d5c1fa80c4c6e5203f47bc4fab87612050565b50611c7d7f1eae1854c74a696c6de86fd3c6383d5c1e2c33fbc86e1aa6b6c872d95bd2403887612050565b508315611cc457845460ff60401b19168555604051600181527fc7f505b2f371ae2175ee4913f4499e1f2633a7b5936321eed1cdaeb6115181d29060200160405180910390a15b505050505050565b600a546040516393c0d3f360e01b81526001600160a01b03909116906393c0d3f3906118a09033908590600401613558565b5f80611d098161203a565b60405163145b6cb960e11b815273__$8498e19059e8c9c59d07dfb635c44386c6$__906328b6d97290611d40908690600401613931565b602060405180830381865af4158015611d5b573d5f803e3d5ffd5b505050506040513d601f19601f82011682018060405250810190611d7f9190613a0e565b6040519092506001600160a01b038316907f970cbcaabfe7c54976df22e530fb6ef3a9202796c410ae94972a9b109d5b2ca8905f90a250919050565b611dc482610915565b611dcd8161203a565b61096083836120f1565b5f80611de28161203a565b6007546040516302a8408560e11b81526001600160a01b03918216600482015233602482018190528683166044830152918516606482015273__$c583a0fe7c050ce40cdddde89e71ac1899$__90630550810a90608401602060405180830381865af4158015611e54573d5f803e3d5ffd5b505050506040513d601f19601f82011682018060405250810190611e789190613a0e565b6040519093506001600160a01b038416907f798adeb18dd44bd81e89d3ab4aa52d11e6d22b3ab80b11da6844ec0eda2a0810905f90a2505092915050565b5f61088281836124a5565b6060611ecc5f612047565b6001600160401b03811115611ee357611ee3612ab6565b604051908082528060200260200182016040528015611f0c578160200160208202803683370190505b5090505f5b81518110156117b957611f245f826124a5565b828281518110611f3657611f36613409565b6001600160a01b0390921660209283029190910190910152600101611f11565b5f80611f618161203a565b60065460405163d41bcfc560e01b8152339173__$74708c40afd3f014cbcff13274aefc3e53$__9163d41bcfc591611fb1916001600160a01b039091169085908c908c908c908c90600401613af6565b602060405180830381865af4158015611fcc573d5f803e3d5ffd5b505050506040513d601f19601f82011682018060405250810190611ff09190613a0e565b9250611ffc5f846125de565b506040516001600160a01b038416907ffa970ff5f178441bbe297db8d35a584c9bd6628b17b82d80dc8f5b80063102ca905f90a25050949350505050565b61204481336125f2565b50565b5f610882825490565b5f5f80516020613be18339815191526120698484611838565b6120e8575f848152602082815260408083206001600160a01b03871684529091529020805460ff1916600117905561209e3390565b6001600160a01b0316836001600160a01b0316857f2f8788117e7eff1d82e926ec794901d17c78024a50270940304540a733656f0d60405160405180910390a46001915050610882565b5f915050610882565b5f5f80516020613be183398151915261210a8484611838565b156120e8575f848152602082815260408083206001600160a01b0387168085529252808320805460ff1916905551339287917ff6391f5c32d9c69d2a47ea670b442974b53935d1edc7fd64eb21e047a839171b9190a46001915050610882565b5f807ff0c57e16840df040f15088dc2f81fe391c3923bec73e23a9662efc9c229c6a00610882565b5f80805b83518110156121d3576121c76121c48583815181106121b7576121b7613409565b602002602001015161262b565b90565b90911790600101612196565b5080611826565b6001600160a01b0383166122015760405163de0ce17d60e01b815260040160405180910390fd5b61220a81612648565b61222a57604051632e40743360e01b815260048101829052602401611358565b6001600160a01b0382165f9081526009602052604090205481846001600160a01b0316846001600160a01b03167f89733de2d64cea40de091169750607b26e8d46142312fba65fb6476c790bad498460405161228891815260200190565b60405180910390a45f9081526008602090815260408083206001600160a01b03968716845282528083209490951682529290925291902055565b306001600160a01b037f000000000000000000000000000000000000000000000000000000000000000016148061234857507f00000000000000000000000000000000000000000000000000000000000000006001600160a01b031661233c5f80516020613bc1833981519152546001600160a01b031690565b6001600160a01b031614155b156123665760405163703e46dd60e11b815260040160405180910390fd5b565b5f61130a8161203a565b816001600160a01b03166352d1902d6040518163ffffffff1660e01b8152600401602060405180830381865afa9250505080156123cc575060408051601f3d908101601f191682019092526123c9918101906133f2565b60015b6123f457604051634c9c8ce360e01b81526001600160a01b0383166004820152602401611358565b5f80516020613bc1833981519152811461242457604051632a87526960e21b815260048101829052602401611358565b6109998383612661565b306001600160a01b037f000000000000000000000000000000000000000000000000000000000000000016146123665760405163703e46dd60e11b815260040160405180910390fd5b606061182683835f6126b6565b6001600160a01b0381165f9081526001830160205260408120541515611826565b5f611826838361274c565b5f6113a0848484612772565b60605f6124c883612796565b60010190505f816001600160401b038111156124e6576124e6612ab6565b6040519080825280601f01601f191660200182016040528015612510576020820181803683370190505b5090508181016020015b5f19016f181899199a1a9b1b9c1cb0b131b232b360811b600a86061a8153600a850494508461251a57509392505050565b5f81600a81111561255e5761255e613515565b6001901b831615159392505050565b60605f80846001600160a01b0316846040516125899190613ba5565b5f60405180830381855af49150503d805f81146125c1576040519150601f19603f3d011682016040523d82523d5f602084013e6125c6565b606091505b509150915061147b85838361286d565b6123666128c2565b5f611826836001600160a01b0384166128e7565b6125fc8282611838565b61130a5760405163e2517d3f60e01b81526001600160a01b038216600482015260248101839052604401611358565b5f61088282600a81111561264157612641613515565b6001901b90565b5f8061265760016104006138b0565b9092111592915050565b61266a82612933565b6040516001600160a01b038316907fbc7cd75a20ee27fd9adebab32041f755214dbc6bffa90cc0225b39da2e5c2d3b905f90a28051156126ae57610999828261256d565b61130a612996565b6060814710156126e25760405163cf47918160e01b815247600482015260248101839052604401611358565b5f80856001600160a01b031684866040516126fd9190613ba5565b5f6040518083038185875af1925050503d805f8114612737576040519150601f19603f3d011682016040523d82523d5f602084013e61273c565b606091505b50915091506112e586838361286d565b5f825f01828154811061276157612761613409565b905f5260205f200154905092915050565b5f825f19048411830215820261278f5763ad251c275f526004601cfd5b5091020490565b5f8072184f03e93ff9f4daa797ed6e38ed64bf6a1f0160401b83106127d45772184f03e93ff9f4daa797ed6e38ed64bf6a1f0160401b830492506040015b6d04ee2d6d415b85acef81000000008310612800576d04ee2d6d415b85acef8100000000830492506020015b662386f26fc10000831061281e57662386f26fc10000830492506010015b6305f5e1008310612836576305f5e100830492506008015b612710831061284a57612710830492506004015b6064831061285c576064830492506002015b600a83106108825760010192915050565b6060826128825761287d826129b5565b611826565b815115801561289957506001600160a01b0384163b155b156121d357604051639996b31560e01b81526001600160a01b0385166004820152602401611358565b6128ca6129de565b61236657604051631afcd79f60e31b815260040160405180910390fd5b5f81815260018301602052604081205461292c57508154600181810184555f848152602080822090930184905584548482528286019093526040902091909155610882565b505f610882565b806001600160a01b03163b5f0361296857604051634c9c8ce360e01b81526001600160a01b0382166004820152602401611358565b5f80516020613bc183398151915280546001600160a01b0319166001600160a01b0392909216919091179055565b34156123665760405163b398979f60e01b815260040160405180910390fd5b8051156129c55780518082602001fd5b60405163d6bda27560e01b815260040160405180910390fd5b5f6129e761216a565b54600160401b900460ff16919050565b6040518060400160405280612a0a612a16565b81525f60209091015290565b60405180604001604052805f8152602001612a4b60405180606001604052806060815260200160608152602001606081525090565b905290565b6001600160a01b0381168114612044575f80fd5b5f60208284031215612a74575f80fd5b813561182681612a50565b5f60208284031215612a8f575f80fd5b81356001600160e01b031981168114611826575f80fd5b8035612ab181612a50565b919050565b634e487b7160e01b5f52604160045260245ffd5b60405161014081016001600160401b0381118282101715612aed57612aed612ab6565b60405290565b604051601f8201601f191681016001600160401b0381118282101715612b1b57612b1b612ab6565b604052919050565b5f6001600160401b03821115612b3b57612b3b612ab6565b50601f01601f191660200190565b5f82601f830112612b58575f80fd5b8135612b6b612b6682612b23565b612af3565b818152846020838601011115612b7f575f80fd5b816020850160208301375f918101602001919091529392505050565b5f805f8060808587031215612bae575f80fd5b8435612bb981612a50565b93506020850135612bc981612a50565b92506040850135915060608501356001600160401b03811115612bea575f80fd5b612bf687828801612b49565b91505092959194509250565b5f60208284031215612c12575f80fd5b5035919050565b5f8060408385031215612c2a575f80fd5b823591506020830135612c3c81612a50565b809150509250929050565b5f6001600160401b03821115612c5f57612c5f612ab6565b5060051b60200190565b5f82601f830112612c78575f80fd5b81356020612c88612b6683612c47565b8083825260208201915060208460051b870101935086841115612ca9575f80fd5b602086015b84811015612cce578035612cc181612a50565b8352918301918301612cae565b509695505050505050565b5f805f805f60a08688031215612ced575f80fd5b8535612cf881612a50565b94506020868101356001600160401b0380821115612d14575f80fd5b818901915089601f830112612d27575f80fd5b8135612d35612b6682612c47565b81815260059190911b8301840190848101908c831115612d53575f80fd5b938501935b82851015612d7a578435612d6b81612a50565b82529385019390850190612d58565b9850612d8b91505060408a01612aa6565b9550612d9960608a01612aa6565b94506080890135925080831115612dae575f80fd5b5050612dbc88828901612c69565b9150509295509295909350565b5f805f805f60a08688031215612ddd575f80fd5b8535612de881612a50565b9450602086013593506040860135612dff81612a50565b92506060860135612e0f81612a50565b949793965091946080013592915050565b5f8060408385031215612e31575f80fd5b8235612e3c81612a50565b915060208301356001600160401b03811115612e56575f80fd5b612e6285828601612b49565b9150509250929050565b5f5b83811015612e86578181015183820152602001612e6e565b50505f910152565b5f8151808452612ea5816020860160208601612e6c565b601f01601f19169290920160200192915050565b602081525f6118266020830184612e8e565b5f805f60408486031215612edd575f80fd5b8335612ee881612a50565b925060208401356001600160401b0380821115612f03575f80fd5b818601915086601f830112612f16575f80fd5b813581811115612f24575f80fd5b876020828501011115612f35575f80fd5b6020830194508093505050509250925092565b5f805f8060808587031215612f5b575f80fd5b8435612f6681612a50565b9350602085013592506040850135612f7d81612a50565b9396929550929360600135925050565b5f60208083016020845280855180835260408601915060408160051b8701019250602087015f5b82811015612fe257603f19888603018452612fd0858351612e8e565b94509285019290850190600101612fb4565b5092979650505050505050565b5f805f60608486031215613001575f80fd5b83359250602084013561301381612a50565b9150604084013561302381612a50565b809150509250925092565b5f805f60608486031215613040575f80fd5b833561304b81612a50565b9250602084013561305b81612a50565b91506040840135600b8110613023575f80fd5b5f806040838503121561307f575f80fd5b823561308a81612a50565b946020939093013593505050565b5f60208083850312156130a9575f80fd5b82356001600160401b038111156130be575f80fd5b8301601f810185136130ce575f80fd5b80356130dc612b6682612c47565b81815260059190911b820183019083810190878311156130fa575f80fd5b928401925b82841015613118578335825292840192908401906130ff565b979650505050505050565b5f805f60608486031215613135575f80fd5b833561314081612a50565b9250602084013561315081612a50565b929592945050506040919091013590565b5f8060208385031215613172575f80fd5b82356001600160401b0380821115613188575f80fd5b818501915085601f83011261319b575f80fd5b8135818111156131a9575f80fd5b8660208260051b85010111156131bd575f80fd5b60209290920196919550909350505050565b5f60208083016020845280855180835260408601915060408160051b8701019250602087015f5b82811015612fe257603f19888603018452613212858351612e8e565b945092850192908501906001016131f6565b803563ffffffff81168114612ab1575f80fd5b5f6101408284031215613248575f80fd5b613250612aca565b61325983612aa6565b815261326760208401613224565b602082015261327860408401613224565b604082015261328960608401612aa6565b606082015261329a60808401612aa6565b60808201526132ab60a08401612aa6565b60a08201526132bc60c08401612aa6565b60c082015260e083013560e08201526101008084013581830152506101206132e5818501612aa6565b908201529392505050565b5f8060408385031215613301575f80fd5b823561330c81612a50565b91506020830135612c3c81612a50565b5f815180845260208085019450602084015f5b838110156133545781516001600160a01b03168752958201959082019060010161332f565b509495945050505050565b602081525f611826602083018461331c565b5f60c08284031215613381575f80fd5b50919050565b5f805f8084860361026081121561339c575f80fd5b6133a68787613371565b945060a060bf19820112156133b9575f80fd5b60c086019350604061015f19820112156133d1575f80fd5b50610160850191506133e7866101a08701613371565b905092959194509250565b5f60208284031215613402575f80fd5b5051919050565b634e487b7160e01b5f52603260045260245ffd5b5f815180845260208085019450602084015f5b8381101561335457815180518852838101518489015260408082015190890152606080820151908901526080908101519088015260a09096019590820190600101613430565b848152608060208201525f61348e608083018661331c565b82810360408401526134a0818661341d565b90508281036060840152613118818561341d565b5f60608201858352602060018060a01b038087166020860152606060408601528286518085526080870191506020880194505f5b818110156135065785518416835294840194918401916001016134e8565b50909998505050505050505050565b634e487b7160e01b5f52602160045260245ffd5b5f815180845260208085019450602084015f5b838110156133545781518752958201959082019060010161353c565b6001600160a01b03831681526040602082018190525f906113a090830184613529565b5f815160408452805160408501526020808201519150604060608601528151606060808701526135ae60e0870182613529565b82840151607f19888303810160a08a0152815180845291850193505f929091908501905b808410156135f257845182529385019360019390930192908501906135d2565b5060408601519550818982030160c08a015261360e8187613529565b978501516001600160a01b03169890940197909752509395945050505050565b602081525f611826602083018461357b565b5f60208284031215613650575f80fd5b81518015158114611826575f80fd5b5f60a0828403121561366f575f80fd5b60405160a081018181106001600160401b038211171561369157613691612ab6565b806040525082518152602083015160208201526040830151604082015260608301516060820152608083015160808201528091505092915050565b8051612ab181612a50565b5f6101008083850312156136e9575f80fd5b604051908101906001600160401b038211818310171561370b5761370b612ab6565b8160405283518152602084015160208201526040840151915061372d82612a50565b81604082015261373f606085016136cc565b6060820152613750608085016136cc565b608082015261376160a085016136cc565b60a082015261377260c085016136cc565b60c082015261378360e085016136cc565b60e0820152949350505050565b5f602082840312156137a0575f80fd5b81516001600160401b038111156137b5575f80fd5b8201601f810184136137c5575f80fd5b80516137d3612b6682612b23565b8181528560208385010111156137e7575f80fd5b61147b826020830160208601612e6c565b66029b4bd32903e160cd1b81525f8551613819816007850160208a01612e6c565b8083019050620103e160ed1b806007830152865161383e81600a850160208b01612e6c565b600a9201918201819052855161385b81600d850160208a01612e6c565b600d9201918201528351613876816010840160208801612e6c565b016010019695505050505050565b634e487b7160e01b5f52601160045260245ffd5b5f600182016138a9576138a9613884565b5060010190565b8181038181111561088257610882613884565b5f808335601e198436030181126138d8575f80fd5b8301803591506001600160401b038211156138f1575f80fd5b602001915036819003821315613905575f80fd5b9250929050565b828482375f8382015f81528351613927818360208801612e6c565b0195945050505050565b81516001600160a01b031681526101408101602083015161395a602084018263ffffffff169052565b506040830151613972604084018263ffffffff169052565b50606083015161398d60608401826001600160a01b03169052565b5060808301516139a860808401826001600160a01b03169052565b5060a08301516139c360a08401826001600160a01b03169052565b5060c08301516139de60c08401826001600160a01b03169052565b5060e083810151908301526101008084015190830152610120808401516001600160a01b03811682850152611aa5565b5f60208284031215613a1e575f80fd5b815161182681612a50565b8035613a3481612a50565b6001600160a01b0316825260208101356001600160401b038116808214613a59575f80fd5b80602085015250505050565b8035613a7081612a50565b6001600160a01b039081168352602082013590613a8c82612a50565b9081166020840152604082013590613aa382612a50565b9081166040840152606082013590613aba82612a50565b9081166060840152608082013590613ad182612a50565b908116608084015260a082013590613ae882612a50565b80821660a085015250505050565b5f6102a08201905060018060a01b0380891683528088166020840152863560408401526020870135606084015260408701356080840152606087013560a0840152608087013560c084015260a0870135613b4f81612a50565b1660e083015284356101008301526020850135610120830152604085013561014083015260608501356101608301526080850135610180830152613b976101a0830185613a29565b6131186101e0830184613a65565b5f8251613bb6818460208701612e6c565b919091019291505056fe360894a13ba1a3210667c828492db98dca3e2076cc3735a920a3ca505d382bbc02dd7bc7dec4dceedda775e58dd541e08a116c6c53815c0bd028192f7b626800a264697066735822122026cffa99d9caabbe4ebaf0d5b3320049d1af7e88381cdc542183ffe6d2a3834264736f6c63430008170033",
    "linkReferences": {
      "src/factory/libraries/MarketFactoryLibrary.sol": {
        "MarketFactoryLibrary": [
          {
            "start": 8309,
            "length": 20
          }
        ]
      },
      "src/factory/libraries/NonTransferrableRebasingTokenVaultLibrary.sol": {
        "NonTransferrableRebasingTokenVaultLibrary": [
          {
            "start": 7964,
            "length": 20
          }
        ]
      },
      "src/factory/libraries/PriceFeedFactoryLibrary.sol": {
        "PriceFeedFactoryLibrary": [
          {
            "start": 7704,
            "length": 20
          }
        ]
      }
    }
  },
  "methodIdentifiers": {
    "DEFAULT_ADMIN_ROLE()": "a217fddf",
    "UPGRADE_INTERFACE_VERSION()": "ad3cb1cc",
    "authorizationNonces(address)": "81de274c",
    "authorizations(uint256,address,address)": "7b8dedad",
    "callMarket(address,bytes)": "5ec49544",
    "collectionsManager()": "37c11b2a",
    "createBorrowTokenVault(address,address)": "e8d353c7",
    "createMarket((uint256,uint256,uint256,uint256,uint256,address),(uint256,uint256,uint256,uint256,uint256),(address,uint64),(address,address,address,address,address,address))": "f0fb716f",
    "createPriceFeed((address,uint32,uint32,address,address,address,address,uint256,uint256,address))": "d152e236",
    "getBorrowOfferAPR(address,uint256,address,address,uint256)": "495e6d89",
    "getLoanOfferAPR(address,uint256,address,address,uint256)": "5fb7f10c",
    "getMarket(uint256)": "eb44fdd3",
    "getMarketDescriptions()": "7643d7ec",
    "getMarkets()": "ec2c9016",
    "getMarketsCount()": "27fa35c3",
    "getRoleAdmin(bytes32)": "248a9ca3",
    "grantRole(bytes32,address)": "2f2ff15d",
    "hasRole(bytes32,address)": "91d14854",
    "initialize(address)": "c4d66de8",
    "isAuthorized(address,address,uint8)": "86eeeb5a",
    "isAuthorizedAll(address,address,uint256)": "a78ec6ae",
    "isBorrowAPRLowerThanLoanOfferAPRs(address,uint256,address,uint256)": "678b9bad",
    "isLoanAPRGreaterThanBorrowOfferAPRs(address,uint256,address,uint256)": "9feffdb0",
    "isMarket(address)": "6ec934da",
    "multicall(bytes[])": "ac9650d8",
    "nonTransferrableTokenVaultImplementation()": "1286a2dc",
    "onERC721Received(address,address,uint256,bytes)": "150b7a02",
    "proxiableUUID()": "52d1902d",
    "reinitialize(address,address[],address,address,address[])": "4481f4d1",
    "renounceRole(bytes32,address)": "36568abe",
    "revokeAllAuthorizations()": "a7b2b310",
    "revokeRole(bytes32,address)": "d547741f",
    "setAuthorization(address,uint256)": "91c769ce",
    "setCollectionsManager(address)": "01a6c872",
    "setNonTransferrableRebasingTokenVaultImplementation(address)": "1e4fcddb",
    "setSizeImplementation(address)": "b4cd6bd1",
    "sizeImplementation()": "973cf867",
    "subscribeToCollections(uint256[])": "c8fb6247",
    "supportsInterface(bytes4)": "01ffc9a7",
    "unsubscribeFromCollections(uint256[])": "9e42bfa3",
    "upgradeToAndCall(address,bytes)": "4f1ef286",
    "version()": "54fd4d50"
  },
  "id": 255
}