{
  "abi": [
    {
      "type": "constructor",
      "inputs": [],
      "stateMutability": "nonpayable"
    },
    {
      "type": "function",
      "name": "DEFAULT_ADMIN_ROLE",
      "inputs": [],
      "outputs": [
        {
          "name": "",
          "type": "bytes32",
          "internalType": "bytes32"
        }
      ],
      "stateMutability": "view"
    },
    {
      "type": "function",
      "name": "UPGRADE_INTERFACE_VERSION",
      "inputs": [],
      "outputs": [
        {
          "name": "",
          "type": "string",
          "internalType": "string"
        }
      ],
      "stateMutability": "view"
    },
    {
      "type": "function",
      "name": "acceptOwnership",
      "inputs": [],
      "outputs": [],
      "stateMutability": "nonpayable"
    },
    {
      "type": "function",
      "name": "authorizationNonces",
      "inputs": [
        {
          "name": "onBehalfOf",
          "type": "address",
          "internalType": "address"
        }
      ],
      "outputs": [
        {
          "name": "nonce",
          "type": "uint256",
          "internalType": "uint256"
        }
      ],
      "stateMutability": "view"
    },
    {
      "type": "function",
      "name": "authorizations",
      "inputs": [
        {
          "name": "nonce",
          "type": "uint256",
          "internalType": "uint256"
        },
        {
          "name": "operator",
          "type": "address",
          "internalType": "address"
        },
        {
          "name": "onBehalfOf",
          "type": "address",
          "internalType": "address"
        }
      ],
      "outputs": [
        {
          "name": "authorizedActionsBitmap",
          "type": "uint256",
          "internalType": "ActionsBitmap"
        }
      ],
      "stateMutability": "view"
    },
    {
      "type": "function",
      "name": "createBorrowTokenVault",
      "inputs": [
        {
          "name": "variablePool",
          "type": "address",
          "internalType": "contract IPool"
        },
        {
          "name": "underlyingBorrowToken",
          "type": "address",
          "internalType": "contract IERC20Metadata"
        }
      ],
      "outputs": [
        {
          "name": "borrowTokenVault",
          "type": "address",
          "internalType": "contract NonTransferrableRebasingTokenVault"
        }
      ],
      "stateMutability": "nonpayable"
    },
    {
      "type": "function",
      "name": "createMarket",
      "inputs": [
        {
          "name": "feeConfigParams",
          "type": "tuple",
          "internalType": "struct InitializeFeeConfigParams",
          "components": [
            {
              "name": "swapFeeAPR",
              "type": "uint256",
              "internalType": "uint256"
            },
            {
              "name": "fragmentationFee",
              "type": "uint256",
              "internalType": "uint256"
            },
            {
              "name": "liquidationRewardPercent",
              "type": "uint256",
              "internalType": "uint256"
            },
            {
              "name": "overdueCollateralProtocolPercent",
              "type": "uint256",
              "internalType": "uint256"
            },
            {
              "name": "collateralProtocolPercent",
              "type": "uint256",
              "internalType": "uint256"
            },
            {
              "name": "feeRecipient",
              "type": "address",
              "internalType": "address"
            }
          ]
        },
        {
          "name": "riskConfigParams",
          "type": "tuple",
          "internalType": "struct InitializeRiskConfigParams",
          "components": [
            {
              "name": "crOpening",
              "type": "uint256",
              "internalType": "uint256"
            },
            {
              "name": "crLiquidation",
              "type": "uint256",
              "internalType": "uint256"
            },
            {
              "name": "minimumCreditBorrowToken",
              "type": "uint256",
              "internalType": "uint256"
            },
            {
              "name": "minTenor",
              "type": "uint256",
              "internalType": "uint256"
            },
            {
              "name": "maxTenor",
              "type": "uint256",
              "internalType": "uint256"
            }
          ]
        },
        {
          "name": "oracleParams",
          "type": "tuple",
          "internalType": "struct InitializeOracleParams",
          "components": [
            {
              "name": "priceFeed",
              "type": "address",
              "internalType": "address"
            },
            {
              "name": "variablePoolBorrowRateStaleRateInterval",
              "type": "uint64",
              "internalType": "uint64"
            }
          ]
        },
        {
          "name": "dataParams",
          "type": "tuple",
          "internalType": "struct InitializeDataParams",
          "components": [
            {
              "name": "weth",
              "type": "address",
              "internalType": "address"
            },
            {
              "name": "underlyingCollateralToken",
              "type": "address",
              "internalType": "address"
            },
            {
              "name": "underlyingBorrowToken",
              "type": "address",
              "internalType": "address"
            },
            {
              "name": "variablePool",
              "type": "address",
              "internalType": "address"
            },
            {
              "name": "borrowTokenVault",
              "type": "address",
              "internalType": "address"
            },
            {
              "name": "sizeFactory",
              "type": "address",
              "internalType": "address"
            }
          ]
        }
      ],
      "outputs": [
        {
          "name": "market",
          "type": "address",
          "internalType": "contract ISize"
        }
      ],
      "stateMutability": "nonpayable"
    },
    {
      "type": "function",
      "name": "createPriceFeed",
      "inputs": [
        {
          "name": "_priceFeedParams",
          "type": "tuple",
          "internalType": "struct PriceFeedParams",
          "components": [
            {
              "name": "uniswapV3Pool",
              "type": "address",
              "internalType": "contract IUniswapV3Pool"
            },
            {
              "name": "twapWindow",
              "type": "uint32",
              "internalType": "uint32"
            },
            {
              "name": "averageBlockTime",
              "type": "uint32",
              "internalType": "uint32"
            },
            {
              "name": "baseToken",
              "type": "address",
              "internalType": "contract IERC20Metadata"
            },
            {
              "name": "quoteToken",
              "type": "address",
              "internalType": "contract IERC20Metadata"
            },
            {
              "name": "baseAggregator",
              "type": "address",
              "internalType": "contract AggregatorV3Interface"
            },
            {
              "name": "quoteAggregator",
              "type": "address",
              "internalType": "contract AggregatorV3Interface"
            },
            {
              "name": "baseStalePriceInterval",
              "type": "uint256",
              "internalType": "uint256"
            },
            {
              "name": "quoteStalePriceInterval",
              "type": "uint256",
              "internalType": "uint256"
            },
            {
              "name": "sequencerUptimeFeed",
              "type": "address",
              "internalType": "contract AggregatorV3Interface"
            }
          ]
        }
      ],
      "outputs": [
        {
          "name": "priceFeed",
          "type": "address",
          "internalType": "contract PriceFeed"
        }
      ],
      "stateMutability": "nonpayable"
    },
    {
      "type": "function",
      "name": "getMarket",
      "inputs": [
        {
          "name": "index",
          "type": "uint256",
          "internalType": "uint256"
        }
      ],
      "outputs": [
        {
          "name": "",
          "type": "address",
          "internalType": "contract ISize"
        }
      ],
      "stateMutability": "view"
    },
    {
      "type": "function",
      "name": "getMarketDescriptions",
      "inputs": [],
      "outputs": [
        {
          "name": "descriptions",
          "type": "string[]",
          "internalType": "string[]"
        }
      ],
      "stateMutability": "view"
    },
    {
      "type": "function",
      "name": "getMarkets",
      "inputs": [],
      "outputs": [
        {
          "name": "_markets",
          "type": "address[]",
          "internalType": "contract ISize[]"
        }
      ],
      "stateMutability": "view"
    },
    {
      "type": "function",
      "name": "getMarketsCount",
      "inputs": [],
      "outputs": [
        {
          "name": "",
          "type": "uint256",
          "internalType": "uint256"
        }
      ],
      "stateMutability": "view"
    },
    {
      "type": "function",
      "name": "getRoleAdmin",
      "inputs": [
        {
          "name": "role",
          "type": "bytes32",
          "internalType": "bytes32"
        }
      ],
      "outputs": [
        {
          "name": "",
          "type": "bytes32",
          "internalType": "bytes32"
        }
      ],
      "stateMutability": "view"
    },
    {
      "type": "function",
      "name": "grantRole",
      "inputs": [
        {
          "name": "role",
          "type": "bytes32",
          "internalType": "bytes32"
        },
        {
          "name": "account",
          "type": "address",
          "internalType": "address"
        }
      ],
      "outputs": [],
      "stateMutability": "nonpayable"
    },
    {
      "type": "function",
      "name": "hasRole",
      "inputs": [
        {
          "name": "role",
          "type": "bytes32",
          "internalType": "bytes32"
        },
        {
          "name": "account",
          "type": "address",
          "internalType": "address"
        }
      ],
      "outputs": [
        {
          "name": "",
          "type": "bool",
          "internalType": "bool"
        }
      ],
      "stateMutability": "view"
    },
    {
      "type": "function",
      "name": "initialize",
      "inputs": [
        {
          "name": "_owner",
          "type": "address",
          "internalType": "address"
        }
      ],
      "outputs": [],
      "stateMutability": "nonpayable"
    },
    {
      "type": "function",
      "name": "isAuthorized",
      "inputs": [
        {
          "name": "operator",
          "type": "address",
          "internalType": "address"
        },
        {
          "name": "onBehalfOf",
          "type": "address",
          "internalType": "address"
        },
        {
          "name": "action",
          "type": "uint8",
          "internalType": "enum Action"
        }
      ],
      "outputs": [
        {
          "name": "",
          "type": "bool",
          "internalType": "bool"
        }
      ],
      "stateMutability": "view"
    },
    {
      "type": "function",
      "name": "isAuthorizedAll",
      "inputs": [
        {
          "name": "operator",
          "type": "address",
          "internalType": "address"
        },
        {
          "name": "onBehalfOf",
          "type": "address",
          "internalType": "address"
        },
        {
          "name": "actionsBitmap",
          "type": "uint256",
          "internalType": "ActionsBitmap"
        }
      ],
      "outputs": [
        {
          "name": "",
          "type": "bool",
          "internalType": "bool"
        }
      ],
      "stateMutability": "view"
    },
    {
      "type": "function",
      "name": "isMarket",
      "inputs": [
        {
          "name": "candidate",
          "type": "address",
          "internalType": "address"
        }
      ],
      "outputs": [
        {
          "name": "",
          "type": "bool",
          "internalType": "bool"
        }
      ],
      "stateMutability": "view"
    },
    {
      "type": "function",
      "name": "multicall",
      "inputs": [
        {
          "name": "data",
          "type": "bytes[]",
          "internalType": "bytes[]"
        }
      ],
      "outputs": [
        {
          "name": "results",
          "type": "bytes[]",
          "internalType": "bytes[]"
        }
      ],
      "stateMutability": "nonpayable"
    },
    {
      "type": "function",
      "name": "nonTransferrableTokenVaultImplementation",
      "inputs": [],
      "outputs": [
        {
          "name": "",
          "type": "address",
          "internalType": "address"
        }
      ],
      "stateMutability": "view"
    },
    {
      "type": "function",
      "name": "owner",
      "inputs": [],
      "outputs": [
        {
          "name": "",
          "type": "address",
          "internalType": "address"
        }
      ],
      "stateMutability": "view"
    },
    {
      "type": "function",
      "name": "pendingOwner",
      "inputs": [],
      "outputs": [
        {
          "name": "",
          "type": "address",
          "internalType": "address"
        }
      ],
      "stateMutability": "view"
    },
    {
      "type": "function",
      "name": "proxiableUUID",
      "inputs": [],
      "outputs": [
        {
          "name": "",
          "type": "bytes32",
          "internalType": "bytes32"
        }
      ],
      "stateMutability": "view"
    },
    {
      "type": "function",
      "name": "renounceOwnership",
      "inputs": [],
      "outputs": [],
      "stateMutability": "nonpayable"
    },
    {
      "type": "function",
      "name": "renounceRole",
      "inputs": [
        {
          "name": "role",
          "type": "bytes32",
          "internalType": "bytes32"
        },
        {
          "name": "callerConfirmation",
          "type": "address",
          "internalType": "address"
        }
      ],
      "outputs": [],
      "stateMutability": "nonpayable"
    },
    {
      "type": "function",
      "name": "revokeAllAuthorizations",
      "inputs": [],
      "outputs": [],
      "stateMutability": "nonpayable"
    },
    {
      "type": "function",
      "name": "revokeRole",
      "inputs": [
        {
          "name": "role",
          "type": "bytes32",
          "internalType": "bytes32"
        },
        {
          "name": "account",
          "type": "address",
          "internalType": "address"
        }
      ],
      "outputs": [],
      "stateMutability": "nonpayable"
    },
    {
      "type": "function",
      "name": "setAuthorization",
      "inputs": [
        {
          "name": "operator",
          "type": "address",
          "internalType": "address"
        },
        {
          "name": "actionsBitmap",
          "type": "uint256",
          "internalType": "ActionsBitmap"
        }
      ],
      "outputs": [],
      "stateMutability": "nonpayable"
    },
    {
      "type": "function",
      "name": "setNonTransferrableRebasingTokenVaultImplementation",
      "inputs": [
        {
          "name": "_nonTransferrableTokenVaultImplementation",
          "type": "address",
          "internalType": "address"
        }
      ],
      "outputs": [],
      "stateMutability": "nonpayable"
    },
    {
      "type": "function",
      "name": "setSizeImplementation",
      "inputs": [
        {
          "name": "_sizeImplementation",
          "type": "address",
          "internalType": "address"
        }
      ],
      "outputs": [],
      "stateMutability": "nonpayable"
    },
    {
      "type": "function",
      "name": "sizeImplementation",
      "inputs": [],
      "outputs": [
        {
          "name": "",
          "type": "address",
          "internalType": "address"
        }
      ],
      "stateMutability": "view"
    },
    {
      "type": "function",
      "name": "supportsInterface",
      "inputs": [
        {
          "name": "interfaceId",
          "type": "bytes4",
          "internalType": "bytes4"
        }
      ],
      "outputs": [
        {
          "name": "",
          "type": "bool",
          "internalType": "bool"
        }
      ],
      "stateMutability": "view"
    },
    {
      "type": "function",
      "name": "transferOwnership",
      "inputs": [
        {
          "name": "newOwner",
          "type": "address",
          "internalType": "address"
        }
      ],
      "outputs": [],
      "stateMutability": "nonpayable"
    },
    {
      "type": "function",
      "name": "upgradeToAndCall",
      "inputs": [
        {
          "name": "newImplementation",
          "type": "address",
          "internalType": "address"
        },
        {
          "name": "data",
          "type": "bytes",
          "internalType": "bytes"
        }
      ],
      "outputs": [],
      "stateMutability": "payable"
    },
    {
      "type": "function",
      "name": "version",
      "inputs": [],
      "outputs": [
        {
          "name": "",
          "type": "string",
          "internalType": "string"
        }
      ],
      "stateMutability": "pure"
    },
    {
      "type": "event",
      "name": "CreateBorrowTokenVault",
      "inputs": [
        {
          "name": "borrowTokenVault",
          "type": "address",
          "indexed": true,
          "internalType": "address"
        }
      ],
      "anonymous": false
    },
    {
      "type": "event",
      "name": "CreateMarket",
      "inputs": [
        {
          "name": "market",
          "type": "address",
          "indexed": true,
          "internalType": "address"
        }
      ],
      "anonymous": false
    },
    {
      "type": "event",
      "name": "CreatePriceFeed",
      "inputs": [
        {
          "name": "priceFeed",
          "type": "address",
          "indexed": true,
          "internalType": "address"
        }
      ],
      "anonymous": false
    },
    {
      "type": "event",
      "name": "Initialized",
      "inputs": [
        {
          "name": "version",
          "type": "uint64",
          "indexed": false,
          "internalType": "uint64"
        }
      ],
      "anonymous": false
    },
    {
      "type": "event",
      "name": "NonTransferrableRebasingTokenVaultImplementationSet",
      "inputs": [
        {
          "name": "oldNonTransferrableRebasingTokenVaultImplementation",
          "type": "address",
          "indexed": true,
          "internalType": "address"
        },
        {
          "name": "newNonTransferrableRebasingTokenVaultImplementation",
          "type": "address",
          "indexed": true,
          "internalType": "address"
        }
      ],
      "anonymous": false
    },
    {
      "type": "event",
      "name": "OwnershipTransferStarted",
      "inputs": [
        {
          "name": "previousOwner",
          "type": "address",
          "indexed": true,
          "internalType": "address"
        },
        {
          "name": "newOwner",
          "type": "address",
          "indexed": true,
          "internalType": "address"
        }
      ],
      "anonymous": false
    },
    {
      "type": "event",
      "name": "OwnershipTransferred",
      "inputs": [
        {
          "name": "previousOwner",
          "type": "address",
          "indexed": true,
          "internalType": "address"
        },
        {
          "name": "newOwner",
          "type": "address",
          "indexed": true,
          "internalType": "address"
        }
      ],
      "anonymous": false
    },
    {
      "type": "event",
      "name": "RevokeAllAuthorizations",
      "inputs": [
        {
          "name": "sender",
          "type": "address",
          "indexed": true,
          "internalType": "address"
        }
      ],
      "anonymous": false
    },
    {
      "type": "event",
      "name": "RoleAdminChanged",
      "inputs": [
        {
          "name": "role",
          "type": "bytes32",
          "indexed": true,
          "internalType": "bytes32"
        },
        {
          "name": "previousAdminRole",
          "type": "bytes32",
          "indexed": true,
          "internalType": "bytes32"
        },
        {
          "name": "newAdminRole",
          "type": "bytes32",
          "indexed": true,
          "internalType": "bytes32"
        }
      ],
      "anonymous": false
    },
    {
      "type": "event",
      "name": "RoleGranted",
      "inputs": [
        {
          "name": "role",
          "type": "bytes32",
          "indexed": true,
          "internalType": "bytes32"
        },
        {
          "name": "account",
          "type": "address",
          "indexed": true,
          "internalType": "address"
        },
        {
          "name": "sender",
          "type": "address",
          "indexed": true,
          "internalType": "address"
        }
      ],
      "anonymous": false
    },
    {
      "type": "event",
      "name": "RoleRevoked",
      "inputs": [
        {
          "name": "role",
          "type": "bytes32",
          "indexed": true,
          "internalType": "bytes32"
        },
        {
          "name": "account",
          "type": "address",
          "indexed": true,
          "internalType": "address"
        },
        {
          "name": "sender",
          "type": "address",
          "indexed": true,
          "internalType": "address"
        }
      ],
      "anonymous": false
    },
    {
      "type": "event",
      "name": "SetAuthorization",
      "inputs": [
        {
          "name": "sender",
          "type": "address",
          "indexed": true,
          "internalType": "address"
        },
        {
          "name": "operator",
          "type": "address",
          "indexed": true,
          "internalType": "address"
        },
        {
          "name": "actionsBitmap",
          "type": "uint256",
          "indexed": true,
          "internalType": "uint256"
        },
        {
          "name": "nonce",
          "type": "uint256",
          "indexed": false,
          "internalType": "uint256"
        }
      ],
      "anonymous": false
    },
    {
      "type": "event",
      "name": "SizeImplementationSet",
      "inputs": [
        {
          "name": "oldSizeImplementation",
          "type": "address",
          "indexed": true,
          "internalType": "address"
        },
        {
          "name": "newSizeImplementation",
          "type": "address",
          "indexed": true,
          "internalType": "address"
        }
      ],
      "anonymous": false
    },
    {
      "type": "event",
      "name": "Upgraded",
      "inputs": [
        {
          "name": "implementation",
          "type": "address",
          "indexed": true,
          "internalType": "address"
        }
      ],
      "anonymous": false
    },
    {
      "type": "error",
      "name": "AccessControlBadConfirmation",
      "inputs": []
    },
    {
      "type": "error",
      "name": "AccessControlUnauthorizedAccount",
      "inputs": [
        {
          "name": "account",
          "type": "address",
          "internalType": "address"
        },
        {
          "name": "neededRole",
          "type": "bytes32",
          "internalType": "bytes32"
        }
      ]
    },
    {
      "type": "error",
      "name": "AddressEmptyCode",
      "inputs": [
        {
          "name": "target",
          "type": "address",
          "internalType": "address"
        }
      ]
    },
    {
      "type": "error",
      "name": "ERC1967InvalidImplementation",
      "inputs": [
        {
          "name": "implementation",
          "type": "address",
          "internalType": "address"
        }
      ]
    },
    {
      "type": "error",
      "name": "ERC1967NonPayable",
      "inputs": []
    },
    {
      "type": "error",
      "name": "FailedCall",
      "inputs": []
    },
    {
      "type": "error",
      "name": "INVALID_ACTIONS_BITMAP",
      "inputs": [
        {
          "name": "actionsBitmap",
          "type": "uint256",
          "internalType": "uint256"
        }
      ]
    },
    {
      "type": "error",
      "name": "InvalidInitialization",
      "inputs": []
    },
    {
      "type": "error",
      "name": "NULL_ADDRESS",
      "inputs": []
    },
    {
      "type": "error",
      "name": "NotInitializing",
      "inputs": []
    },
    {
      "type": "error",
      "name": "OwnableInvalidOwner",
      "inputs": [
        {
          "name": "owner",
          "type": "address",
          "internalType": "address"
        }
      ]
    },
    {
      "type": "error",
      "name": "OwnableUnauthorizedAccount",
      "inputs": [
        {
          "name": "account",
          "type": "address",
          "internalType": "address"
        }
      ]
    },
    {
      "type": "error",
      "name": "UUPSUnauthorizedCallContext",
      "inputs": []
    },
    {
      "type": "error",
      "name": "UUPSUnsupportedProxiableUUID",
      "inputs": [
        {
          "name": "slot",
          "type": "bytes32",
          "internalType": "bytes32"
        }
      ]
    }
  ],
  "bytecode": {
    "object": "0x60a06040523060805234801562000014575f80fd5b506200001f62000025565b620000d9565b7ff0c57e16840df040f15088dc2f81fe391c3923bec73e23a9662efc9c229c6a00805468010000000000000000900460ff1615620000765760405163f92ee8a960e01b815260040160405180910390fd5b80546001600160401b0390811614620000d65780546001600160401b0319166001600160401b0390811782556040519081527fc7f505b2f371ae2175ee4913f4499e1f2633a7b5936321eed1cdaeb6115181d29060200160405180910390a15b50565b608051612a2d620001005f395f818161164e0152818161167701526117b80152612a2d5ff3fe608060405260043610610207575f3560e01c806391c769ce11610113578063c4d66de81161009d578063e8d353c71161006d578063e8d353c714610603578063eb44fdd314610622578063ec2c901614610641578063f0fb716f14610662578063f2fde38b14610681575f80fd5b8063c4d66de814610592578063d152e236146105b1578063d547741f146105d0578063e30c3978146105ef575f80fd5b8063a78ec6ae116100e3578063a78ec6ae146104e4578063a7b2b31014610503578063ac9650d814610517578063ad3cb1cc14610543578063b4cd6bd114610573575f80fd5b806391c769ce1461047457806391d1485414610493578063973cf867146104b2578063a217fddf146104d1575f80fd5b806354fd4d501161019457806379ba50971161016457806379ba5097146103c65780637b8dedad146103da57806381de274c1461041657806386eeeb5a146104415780638da5cb5b14610460575f80fd5b806354fd4d501461033d5780636ec934da14610372578063715018a6146103915780637643d7ec146103a5575f80fd5b806327fa35c3116101da57806327fa35c3146102c45780632f2ff15d146102d857806336568abe146102f75780634f1ef2861461031657806352d1902d14610329575f80fd5b806301ffc9a71461020b5780631286a2dc1461023f5780631e4fcddb14610276578063248a9ca314610297575b5f80fd5b348015610216575f80fd5b5061022a610225366004611e12565b6106a0565b60405190151581526020015b60405180910390f35b34801561024a575f80fd5b5060075461025e906001600160a01b031681565b6040516001600160a01b039091168152602001610236565b348015610281575f80fd5b50610295610290366004611e5d565b6106d6565b005b3480156102a2575f80fd5b506102b66102b1366004611e78565b610763565b604051908152602001610236565b3480156102cf575f80fd5b506102b6610783565b3480156102e3575f80fd5b506102956102f2366004611e8f565b610792565b348015610302575f80fd5b50610295610311366004611e8f565b6107b4565b610295610324366004611f50565b6107ec565b348015610334575f80fd5b506102b661080b565b348015610348575f80fd5b5060408051808201909152600481526376312e3760e01b60208201525b6040516102369190612029565b34801561037d575f80fd5b5061022a61038c366004611e5d565b610826565b34801561039c575f80fd5b50610295610831565b3480156103b0575f80fd5b506103b9610844565b604051610236919061203b565b3480156103d1575f80fd5b50610295610b72565b3480156103e5575f80fd5b506102b66103f436600461209d565b600860209081525f938452604080852082529284528284209052825290205481565b348015610421575f80fd5b506102b6610430366004611e5d565b60096020525f908152604090205481565b34801561044c575f80fd5b5061022a61045b3660046120dc565b610bbf565b34801561046b575f80fd5b5061025e610c2f565b34801561047f575f80fd5b5061029561048e36600461211c565b610c63565b34801561049e575f80fd5b5061022a6104ad366004611e8f565b610d32565b3480156104bd575f80fd5b5060065461025e906001600160a01b031681565b3480156104dc575f80fd5b506102b65f81565b3480156104ef575f80fd5b5061022a6104fe366004612146565b610d68565b34801561050e575f80fd5b50610295610dcd565b348015610522575f80fd5b50610536610531366004612184565b610e18565b60405161023691906121f2565b34801561054e575f80fd5b50610365604051806040016040528060058152602001640352e302e360dc1b81525081565b34801561057e575f80fd5b5061029561058d366004611e5d565b610efd565b34801561059d575f80fd5b506102956105ac366004611e5d565b610f8a565b3480156105bc575f80fd5b5061025e6105cb36600461225a565b61112d565b3480156105db575f80fd5b506102956105ea366004611e8f565b6111ea565b3480156105fa575f80fd5b5061025e611206565b34801561060e575f80fd5b5061025e61061d366004612313565b61122e565b34801561062d575f80fd5b5061025e61063c366004611e78565b61130d565b34801561064c575f80fd5b50610655611318565b604051610236919061233f565b34801561066d575f80fd5b5061025e61067c3660046123a1565b6113ad565b34801561068c575f80fd5b5061029561069b366004611e5d565b611491565b5f6001600160e01b03198216637965db0b60e01b14806106d057506301ffc9a760e01b6001600160e01b03198316145b92915050565b5f6106e081611516565b6001600160a01b0382166107075760405163de0ce17d60e01b815260040160405180910390fd5b6007546040516001600160a01b038085169216907faefd875bf3940c57f185da0affbb82ce03656890d6e1d29310e8b4bf9d20b7c1905f90a350600780546001600160a01b0319166001600160a01b0392909216919091179055565b5f9081525f805160206129d8833981519152602052604090206001015490565b5f61078d5f611520565b905090565b61079b82610763565b6107a481611516565b6107ae8383611529565b50505050565b6001600160a01b03811633146107dd5760405163334bd91960e11b815260040160405180910390fd5b6107e782826115ca565b505050565b6107f4611643565b6107fd826116e7565b61080782826116f1565b5050565b5f6108146117ad565b505f805160206129b883398151915290565b5f6106d081836117f6565b610839611817565b6108425f611849565b565b606061084f5f611520565b6001600160401b0381111561086657610866611ebd565b60405190808252806020026020018201604052801561089957816020015b60608152602001906001900390816108845790505b5090505f5b8151811015610b6e575f6108b28183611881565b90505f61092c6064836001600160a01b0316637c90a6ca6040518163ffffffff1660e01b815260040160a060405180830381865afa1580156108f6573d5f803e3d5ffd5b505050506040513d601f19601f8201168201806040525081019061091a919061240c565b60200151670de0b6b3a764000061188c565b9050816001600160a01b03166373d4a13a6040518163ffffffff1660e01b815260040161010060405180830381865afa15801561096b573d5f803e3d5ffd5b505050506040513d601f19601f8201168201806040525081019061098f9190612484565b604001516001600160a01b03166395d89b416040518163ffffffff1660e01b81526004015f60405180830381865afa1580156109cd573d5f803e3d5ffd5b505050506040513d5f823e601f3d908101601f191682016040526109f4919081019061253d565b826001600160a01b03166373d4a13a6040518163ffffffff1660e01b815260040161010060405180830381865afa158015610a31573d5f803e3d5ffd5b505050506040513d601f19601f82011682018060405250810190610a559190612484565b606001516001600160a01b03166395d89b416040518163ffffffff1660e01b81526004015f60405180830381865afa158015610a93573d5f803e3d5ffd5b505050506040513d5f823e601f3d908101601f19168201604052610aba919081019061253d565b610ac3836118a0565b846001600160a01b03166354fd4d506040518163ffffffff1660e01b81526004015f60405180830381865afa158015610afe573d5f803e3d5ffd5b505050506040513d5f823e601f3d908101601f19168201604052610b25919081019061253d565b604051602001610b3894939291906125a5565b604051602081830303815290604052848481518110610b5957610b59612631565b6020908102919091010152505060010161089e565b5090565b3380610b7c611206565b6001600160a01b031614610bb35760405163118cdaa760e01b81526001600160a01b03821660048201526024015b60405180910390fd5b610bbc81611849565b50565b5f826001600160a01b0316846001600160a01b031603610be157506001610c28565b6001600160a01b038084165f8181526009602090815260408083205480845260088352818420958a1684529482528083209383529290522054610c24908461192f565b9150505b9392505050565b5f807f9016d09d72d40fdae2fd8ceac6b6234c7706214fd39c1cd1e609a0528c1993005b546001600160a01b031692915050565b6001600160a01b038216610c8a5760405163de0ce17d60e01b815260040160405180910390fd5b610c9381611951565b610cb357604051632e40743360e01b815260048101829052602401610baa565b335f90815260096020526040902054816040518281526001600160a01b0385169033907f89733de2d64cea40de091169750607b26e8d46142312fba65fb6476c790bad499060200160405180910390a45f9081526008602090815260408083206001600160a01b03909516835293815283822033835290529190912055565b5f9182525f805160206129d8833981519152602090815260408084206001600160a01b0393909316845291905290205460ff1690565b5f826001600160a01b0316846001600160a01b031603610d8a57506001610c28565b506001600160a01b038281165f81815260096020908152604080832054835260088252808320948816835293815283822092825291909152205481168114610c28565b60405133907fecbee29490a7e5456f4e3aab0700477764e3f16dda5a21ea92f43f1cfcb15799905f90a2335f908152600960205260408120805491610e1183612659565b9190505550565b604080515f815260208101909152606090826001600160401b03811115610e4157610e41611ebd565b604051908082528060200260200182016040528015610e7457816020015b6060815260200190600190039081610e5f5790505b5091505f5b83811015610ef557610ed030868684818110610e9757610e97612631565b9050602002810190610ea99190612684565b85604051602001610ebc939291906126cd565b60405160208183030381529060405261196a565b838281518110610ee257610ee2612631565b6020908102919091010152600101610e79565b505092915050565b5f610f0781611516565b6001600160a01b038216610f2e5760405163de0ce17d60e01b815260040160405180910390fd5b6006546040516001600160a01b038085169216907ffb3d0b43c5121de915eeb8fa2fb4bb792b6b05d5d6f3df7630aac9d9e8697312905f90a350600680546001600160a01b0319166001600160a01b0392909216919091179055565b5f610f936119dc565b805490915060ff600160401b82041615906001600160401b03165f81158015610fb95750825b90505f826001600160401b03166001148015610fd45750303b155b905081158015610fe2575080155b156110005760405163f92ee8a960e01b815260040160405180910390fd5b845467ffffffffffffffff19166001178555831561102a57845460ff60401b1916600160401b1785555b61103386611a04565b61103b611a15565b611043611a15565b61104b611a15565b611053611a15565b61105d5f87611529565b506110887f65d7a28e3265b37a6474929f336521b332c1681b933f6cb9f3376673440d862a87611529565b506110b37ffc8737ab85eb45125971625a9ebdb75cc78e01d5c1fa80c4c6e5203f47bc4fab87611529565b506110de7f1eae1854c74a696c6de86fd3c6383d5c1e2c33fbc86e1aa6b6c872d95bd2403887611529565b50831561112557845460ff60401b19168555604051600181527fc7f505b2f371ae2175ee4913f4499e1f2633a7b5936321eed1cdaeb6115181d29060200160405180910390a15b505050505050565b5f8061113881611516565b60405163145b6cb960e11b815273__$8498e19059e8c9c59d07dfb635c44386c6$__906328b6d9729061116f9086906004016126f2565b602060405180830381865af415801561118a573d5f803e3d5ffd5b505050506040513d601f19601f820116820180604052508101906111ae91906127cf565b6040519092506001600160a01b038316907f970cbcaabfe7c54976df22e530fb6ef3a9202796c410ae94972a9b109d5b2ca8905f90a250919050565b6111f382610763565b6111fc81611516565b6107ae83836115ca565b5f807f237e158222e3e6968b72b9db0d8043aacf074ad9f650f0d1606b4d82ee432c00610c53565b5f8061123981611516565b6007546040516302a8408560e11b81526001600160a01b03918216600482015233602482018190528683166044830152918516606482015273__$c583a0fe7c050ce40cdddde89e71ac1899$__90630550810a90608401602060405180830381865af41580156112ab573d5f803e3d5ffd5b505050506040513d601f19601f820116820180604052508101906112cf91906127cf565b6040519093506001600160a01b038416907f798adeb18dd44bd81e89d3ab4aa52d11e6d22b3ab80b11da6844ec0eda2a0810905f90a2505092915050565b5f6106d08183611881565b60606113235f611520565b6001600160401b0381111561133a5761133a611ebd565b604051908082528060200260200182016040528015611363578160200160208202803683370190505b5090505f5b8151811015610b6e5761137b5f82611881565b82828151811061138d5761138d612631565b6001600160a01b0390921660209283029190910190910152600101611368565b5f806113b881611516565b60065460405163d41bcfc560e01b8152339173__$74708c40afd3f014cbcff13274aefc3e53$__9163d41bcfc591611408916001600160a01b039091169085908c908c908c908c906004016128b7565b602060405180830381865af4158015611423573d5f803e3d5ffd5b505050506040513d601f19601f8201168201806040525081019061144791906127cf565b92506114535f84611a1d565b506040516001600160a01b038416907ffa970ff5f178441bbe297db8d35a584c9bd6628b17b82d80dc8f5b80063102ca905f90a25050949350505050565b611499611817565b7f237e158222e3e6968b72b9db0d8043aacf074ad9f650f0d1606b4d82ee432c0080546001600160a01b0319166001600160a01b03831690811782556114dd610c2f565b6001600160a01b03167f38d16b8cac22d99fc7c124b9cd0de2d3fa1faef420bfe791d8c362d765e2270060405160405180910390a35050565b610bbc8133611a31565b5f6106d0825490565b5f5f805160206129d88339815191526115428484610d32565b6115c1575f848152602082815260408083206001600160a01b03871684529091529020805460ff191660011790556115773390565b6001600160a01b0316836001600160a01b0316857f2f8788117e7eff1d82e926ec794901d17c78024a50270940304540a733656f0d60405160405180910390a460019150506106d0565b5f9150506106d0565b5f5f805160206129d88339815191526115e38484610d32565b156115c1575f848152602082815260408083206001600160a01b0387168085529252808320805460ff1916905551339287917ff6391f5c32d9c69d2a47ea670b442974b53935d1edc7fd64eb21e047a839171b9190a460019150506106d0565b306001600160a01b037f00000000000000000000000000000000000000000000000000000000000000001614806116c957507f00000000000000000000000000000000000000000000000000000000000000006001600160a01b03166116bd5f805160206129b8833981519152546001600160a01b031690565b6001600160a01b031614155b156108425760405163703e46dd60e11b815260040160405180910390fd5b5f61080781611516565b816001600160a01b03166352d1902d6040518163ffffffff1660e01b8152600401602060405180830381865afa92505050801561174b575060408051601f3d908101601f1916820190925261174891810190612971565b60015b61177357604051634c9c8ce360e01b81526001600160a01b0383166004820152602401610baa565b5f805160206129b883398151915281146117a357604051632a87526960e21b815260048101829052602401610baa565b6107e78383611a6a565b306001600160a01b037f000000000000000000000000000000000000000000000000000000000000000016146108425760405163703e46dd60e11b815260040160405180910390fd5b6001600160a01b0381165f9081526001830160205260408120541515610c28565b33611820610c2f565b6001600160a01b0316146108425760405163118cdaa760e01b8152336004820152602401610baa565b7f237e158222e3e6968b72b9db0d8043aacf074ad9f650f0d1606b4d82ee432c0080546001600160a01b031916815561080782611abf565b5f610c288383611b2f565b5f611898848484611b55565b949350505050565b60605f6118ac83611b79565b60010190505f816001600160401b038111156118ca576118ca611ebd565b6040519080825280601f01601f1916602001820160405280156118f4576020820181803683370190505b5090508181016020015b5f19016f181899199a1a9b1b9c1cb0b131b232b360811b600a86061a8153600a85049450846118fe57509392505050565b5f81600a81111561194257611942612988565b6001901b831615159392505050565b5f806119606001610400612671565b9092111592915050565b60605f80846001600160a01b031684604051611986919061299c565b5f60405180830381855af49150503d805f81146119be576040519150601f19603f3d011682016040523d82523d5f602084013e6119c3565b606091505b50915091506119d3858383611c50565b95945050505050565b5f807ff0c57e16840df040f15088dc2f81fe391c3923bec73e23a9662efc9c229c6a006106d0565b611a0c611cac565b610bbc81611cd1565b610842611cac565b5f610c28836001600160a01b038416611d02565b611a3b8282610d32565b6108075760405163e2517d3f60e01b81526001600160a01b038216600482015260248101839052604401610baa565b611a7382611d4e565b6040516001600160a01b038316907fbc7cd75a20ee27fd9adebab32041f755214dbc6bffa90cc0225b39da2e5c2d3b905f90a2805115611ab7576107e7828261196a565b610807611db1565b7f9016d09d72d40fdae2fd8ceac6b6234c7706214fd39c1cd1e609a0528c19930080546001600160a01b031981166001600160a01b03848116918217845560405192169182907f8be0079c531659141344cd1fd0a4f28419497f9722a3daafe3b4186f6b6457e0905f90a3505050565b5f825f018281548110611b4457611b44612631565b905f5260205f200154905092915050565b5f825f190484118302158202611b725763ad251c275f526004601cfd5b5091020490565b5f8072184f03e93ff9f4daa797ed6e38ed64bf6a1f0160401b8310611bb75772184f03e93ff9f4daa797ed6e38ed64bf6a1f0160401b830492506040015b6d04ee2d6d415b85acef81000000008310611be3576d04ee2d6d415b85acef8100000000830492506020015b662386f26fc100008310611c0157662386f26fc10000830492506010015b6305f5e1008310611c19576305f5e100830492506008015b6127108310611c2d57612710830492506004015b60648310611c3f576064830492506002015b600a83106106d05760010192915050565b606082611c6557611c6082611dd0565b610c28565b8151158015611c7c57506001600160a01b0384163b155b15611ca557604051639996b31560e01b81526001600160a01b0385166004820152602401610baa565b5080610c28565b611cb4611df9565b61084257604051631afcd79f60e31b815260040160405180910390fd5b611cd9611cac565b6001600160a01b038116610bb357604051631e4fbdf760e01b81525f6004820152602401610baa565b5f818152600183016020526040812054611d4757508154600181810184555f8481526020808220909301849055845484825282860190935260409020919091556106d0565b505f6106d0565b806001600160a01b03163b5f03611d8357604051634c9c8ce360e01b81526001600160a01b0382166004820152602401610baa565b5f805160206129b883398151915280546001600160a01b0319166001600160a01b0392909216919091179055565b34156108425760405163b398979f60e01b815260040160405180910390fd5b805115611de05780518082602001fd5b60405163d6bda27560e01b815260040160405180910390fd5b5f611e026119dc565b54600160401b900460ff16919050565b5f60208284031215611e22575f80fd5b81356001600160e01b031981168114610c28575f80fd5b6001600160a01b0381168114610bbc575f80fd5b8035611e5881611e39565b919050565b5f60208284031215611e6d575f80fd5b8135610c2881611e39565b5f60208284031215611e88575f80fd5b5035919050565b5f8060408385031215611ea0575f80fd5b823591506020830135611eb281611e39565b809150509250929050565b634e487b7160e01b5f52604160045260245ffd5b60405161014081016001600160401b0381118282101715611ef457611ef4611ebd565b60405290565b604051601f8201601f191681016001600160401b0381118282101715611f2257611f22611ebd565b604052919050565b5f6001600160401b03821115611f4257611f42611ebd565b50601f01601f191660200190565b5f8060408385031215611f61575f80fd5b8235611f6c81611e39565b915060208301356001600160401b03811115611f86575f80fd5b8301601f81018513611f96575f80fd5b8035611fa9611fa482611f2a565b611efa565b818152866020838501011115611fbd575f80fd5b816020840160208301375f602083830101528093505050509250929050565b5f5b83811015611ff6578181015183820152602001611fde565b50505f910152565b5f8151808452612015816020860160208601611fdc565b601f01601f19169290920160200192915050565b602081525f610c286020830184611ffe565b5f60208083016020845280855180835260408601915060408160051b8701019250602087015f5b8281101561209057603f1988860301845261207e858351611ffe565b94509285019290850190600101612062565b5092979650505050505050565b5f805f606084860312156120af575f80fd5b8335925060208401356120c181611e39565b915060408401356120d181611e39565b809150509250925092565b5f805f606084860312156120ee575f80fd5b83356120f981611e39565b9250602084013561210981611e39565b91506040840135600b81106120d1575f80fd5b5f806040838503121561212d575f80fd5b823561213881611e39565b946020939093013593505050565b5f805f60608486031215612158575f80fd5b833561216381611e39565b9250602084013561217381611e39565b929592945050506040919091013590565b5f8060208385031215612195575f80fd5b82356001600160401b03808211156121ab575f80fd5b818501915085601f8301126121be575f80fd5b8135818111156121cc575f80fd5b8660208260051b85010111156121e0575f80fd5b60209290920196919550909350505050565b5f60208083016020845280855180835260408601915060408160051b8701019250602087015f5b8281101561209057603f19888603018452612235858351611ffe565b94509285019290850190600101612219565b803563ffffffff81168114611e58575f80fd5b5f610140828403121561226b575f80fd5b612273611ed1565b61227c83611e4d565b815261228a60208401612247565b602082015261229b60408401612247565b60408201526122ac60608401611e4d565b60608201526122bd60808401611e4d565b60808201526122ce60a08401611e4d565b60a08201526122df60c08401611e4d565b60c082015260e083013560e0820152610100808401358183015250610120612308818501611e4d565b908201529392505050565b5f8060408385031215612324575f80fd5b823561232f81611e39565b91506020830135611eb281611e39565b602080825282518282018190525f9190848201906040850190845b8181101561237f5783516001600160a01b03168352928401929184019160010161235a565b50909695505050505050565b5f60c0828403121561239b575f80fd5b50919050565b5f805f808486036102608112156123b6575f80fd5b6123c0878761238b565b945060a060bf19820112156123d3575f80fd5b60c086019350604061015f19820112156123eb575f80fd5b5061016085019150612401866101a0870161238b565b905092959194509250565b5f60a0828403121561241c575f80fd5b60405160a081018181106001600160401b038211171561243e5761243e611ebd565b806040525082518152602083015160208201526040830151604082015260608301516060820152608083015160808201528091505092915050565b8051611e5881611e39565b5f610100808385031215612496575f80fd5b604051908101906001600160401b03821181831017156124b8576124b8611ebd565b816040528351815260208401516020820152604084015191506124da82611e39565b8160408201526124ec60608501612479565b60608201526124fd60808501612479565b608082015261250e60a08501612479565b60a082015261251f60c08501612479565b60c082015261253060e08501612479565b60e0820152949350505050565b5f6020828403121561254d575f80fd5b81516001600160401b03811115612562575f80fd5b8201601f81018413612572575f80fd5b8051612580611fa482611f2a565b818152856020838501011115612594575f80fd5b6119d3826020830160208601611fdc565b66029b4bd32903e160cd1b81525f85516125c6816007850160208a01611fdc565b8083019050620103e160ed1b80600783015286516125eb81600a850160208b01611fdc565b600a9201918201819052855161260881600d850160208a01611fdc565b600d9201918201528351612623816010840160208801611fdc565b016010019695505050505050565b634e487b7160e01b5f52603260045260245ffd5b634e487b7160e01b5f52601160045260245ffd5b5f6001820161266a5761266a612645565b5060010190565b818103818111156106d0576106d0612645565b5f808335601e19843603018112612699575f80fd5b8301803591506001600160401b038211156126b2575f80fd5b6020019150368190038213156126c6575f80fd5b9250929050565b828482375f8382015f815283516126e8818360208801611fdc565b0195945050505050565b81516001600160a01b031681526101408101602083015161271b602084018263ffffffff169052565b506040830151612733604084018263ffffffff169052565b50606083015161274e60608401826001600160a01b03169052565b50608083015161276960808401826001600160a01b03169052565b5060a083015161278460a08401826001600160a01b03169052565b5060c083015161279f60c08401826001600160a01b03169052565b5060e083810151908301526101008084015190830152610120808401516001600160a01b03811682850152610ef5565b5f602082840312156127df575f80fd5b8151610c2881611e39565b80356127f581611e39565b6001600160a01b0316825260208101356001600160401b03811680821461281a575f80fd5b80602085015250505050565b803561283181611e39565b6001600160a01b03908116835260208201359061284d82611e39565b908116602084015260408201359061286482611e39565b908116604084015260608201359061287b82611e39565b908116606084015260808201359061289282611e39565b908116608084015260a0820135906128a982611e39565b80821660a085015250505050565b5f6102a08201905060018060a01b0380891683528088166020840152863560408401526020870135606084015260408701356080840152606087013560a0840152608087013560c084015260a087013561291081611e39565b1660e0830152843561010083015260208501356101208301526040850135610140830152606085013561016083015260808501356101808301526129586101a08301856127ea565b6129666101e0830184612826565b979650505050505050565b5f60208284031215612981575f80fd5b5051919050565b634e487b7160e01b5f52602160045260245ffd5b5f82516129ad818460208701611fdc565b919091019291505056fe360894a13ba1a3210667c828492db98dca3e2076cc3735a920a3ca505d382bbc02dd7bc7dec4dceedda775e58dd541e08a116c6c53815c0bd028192f7b626800a264697066735822122027c38b47d2b3c69bdbbaea86c0637377ec8bc6af10b137232bb27e304c263ef764736f6c63430008170033",
    "linkReferences": {
      "src/factory/libraries/MarketFactoryLibrary.sol": {
        "MarketFactoryLibrary": [
          {
            "start": 5324,
            "length": 20
          }
        ]
      },
      "src/factory/libraries/NonTransferrableRebasingTokenVaultLibrary.sol": {
        "NonTransferrableRebasingTokenVaultLibrary": [
          {
            "start": 4979,
            "length": 20
          }
        ]
      },
      "src/factory/libraries/PriceFeedFactoryLibrary.sol": {
        "PriceFeedFactoryLibrary": [
          {
            "start": 4679,
            "length": 20
          }
        ]
      }
    }
  },
  "methodIdentifiers": {
    "DEFAULT_ADMIN_ROLE()": "a217fddf",
    "UPGRADE_INTERFACE_VERSION()": "ad3cb1cc",
    "acceptOwnership()": "79ba5097",
    "authorizationNonces(address)": "81de274c",
    "authorizations(uint256,address,address)": "7b8dedad",
    "createBorrowTokenVault(address,address)": "e8d353c7",
    "createMarket((uint256,uint256,uint256,uint256,uint256,address),(uint256,uint256,uint256,uint256,uint256),(address,uint64),(address,address,address,address,address,address))": "f0fb716f",
    "createPriceFeed((address,uint32,uint32,address,address,address,address,uint256,uint256,address))": "d152e236",
    "getMarket(uint256)": "eb44fdd3",
    "getMarketDescriptions()": "7643d7ec",
    "getMarkets()": "ec2c9016",
    "getMarketsCount()": "27fa35c3",
    "getRoleAdmin(bytes32)": "248a9ca3",
    "grantRole(bytes32,address)": "2f2ff15d",
    "hasRole(bytes32,address)": "91d14854",
    "initialize(address)": "c4d66de8",
    "isAuthorized(address,address,uint8)": "86eeeb5a",
    "isAuthorizedAll(address,address,uint256)": "a78ec6ae",
    "isMarket(address)": "6ec934da",
    "multicall(bytes[])": "ac9650d8",
    "nonTransferrableTokenVaultImplementation()": "1286a2dc",
    "owner()": "8da5cb5b",
    "pendingOwner()": "e30c3978",
    "proxiableUUID()": "52d1902d",
    "renounceOwnership()": "715018a6",
    "renounceRole(bytes32,address)": "36568abe",
    "revokeAllAuthorizations()": "a7b2b310",
    "revokeRole(bytes32,address)": "d547741f",
    "setAuthorization(address,uint256)": "91c769ce",
    "setNonTransferrableRebasingTokenVaultImplementation(address)": "1e4fcddb",
    "setSizeImplementation(address)": "b4cd6bd1",
    "sizeImplementation()": "973cf867",
    "supportsInterface(bytes4)": "01ffc9a7",
    "transferOwnership(address)": "f2fde38b",
    "upgradeToAndCall(address,bytes)": "4f1ef286",
    "version()": "54fd4d50"
  },
  "id": 239
}