{
  "abi": [
    {
      "type": "constructor",
      "inputs": [],
      "stateMutability": "nonpayable"
    },
    {
      "type": "function",
      "name": "DEFAULT_ADMIN_ROLE",
      "inputs": [],
      "outputs": [
        {
          "name": "",
          "type": "bytes32",
          "internalType": "bytes32"
        }
      ],
      "stateMutability": "view"
    },
    {
      "type": "function",
      "name": "UPGRADE_INTERFACE_VERSION",
      "inputs": [],
      "outputs": [
        {
          "name": "",
          "type": "string",
          "internalType": "string"
        }
      ],
      "stateMutability": "view"
    },
    {
      "type": "function",
      "name": "buyCreditLimit",
      "inputs": [
        {
          "name": "params",
          "type": "tuple",
          "internalType": "struct BuyCreditLimitParams",
          "components": [
            {
              "name": "maxDueDate",
              "type": "uint256",
              "internalType": "uint256"
            },
            {
              "name": "curveRelativeTime",
              "type": "tuple",
              "internalType": "struct YieldCurve",
              "components": [
                {
                  "name": "tenors",
                  "type": "uint256[]",
                  "internalType": "uint256[]"
                },
                {
                  "name": "aprs",
                  "type": "int256[]",
                  "internalType": "int256[]"
                },
                {
                  "name": "marketRateMultipliers",
                  "type": "uint256[]",
                  "internalType": "uint256[]"
                }
              ]
            }
          ]
        }
      ],
      "outputs": [],
      "stateMutability": "payable"
    },
    {
      "type": "function",
      "name": "buyCreditLimitOnBehalfOf",
      "inputs": [
        {
          "name": "externalParams",
          "type": "tuple",
          "internalType": "struct BuyCreditLimitOnBehalfOfParams",
          "components": [
            {
              "name": "params",
              "type": "tuple",
              "internalType": "struct BuyCreditLimitParams",
              "components": [
                {
                  "name": "maxDueDate",
                  "type": "uint256",
                  "internalType": "uint256"
                },
                {
                  "name": "curveRelativeTime",
                  "type": "tuple",
                  "internalType": "struct YieldCurve",
                  "components": [
                    {
                      "name": "tenors",
                      "type": "uint256[]",
                      "internalType": "uint256[]"
                    },
                    {
                      "name": "aprs",
                      "type": "int256[]",
                      "internalType": "int256[]"
                    },
                    {
                      "name": "marketRateMultipliers",
                      "type": "uint256[]",
                      "internalType": "uint256[]"
                    }
                  ]
                }
              ]
            },
            {
              "name": "onBehalfOf",
              "type": "address",
              "internalType": "address"
            }
          ]
        }
      ],
      "outputs": [],
      "stateMutability": "payable"
    },
    {
      "type": "function",
      "name": "buyCreditMarket",
      "inputs": [
        {
          "name": "params",
          "type": "tuple",
          "internalType": "struct BuyCreditMarketParams",
          "components": [
            {
              "name": "borrower",
              "type": "address",
              "internalType": "address"
            },
            {
              "name": "creditPositionId",
              "type": "uint256",
              "internalType": "uint256"
            },
            {
              "name": "amount",
              "type": "uint256",
              "internalType": "uint256"
            },
            {
              "name": "tenor",
              "type": "uint256",
              "internalType": "uint256"
            },
            {
              "name": "deadline",
              "type": "uint256",
              "internalType": "uint256"
            },
            {
              "name": "minAPR",
              "type": "uint256",
              "internalType": "uint256"
            },
            {
              "name": "exactAmountIn",
              "type": "bool",
              "internalType": "bool"
            }
          ]
        }
      ],
      "outputs": [],
      "stateMutability": "payable"
    },
    {
      "type": "function",
      "name": "buyCreditMarketOnBehalfOf",
      "inputs": [
        {
          "name": "externalParams",
          "type": "tuple",
          "internalType": "struct BuyCreditMarketOnBehalfOfParams",
          "components": [
            {
              "name": "params",
              "type": "tuple",
              "internalType": "struct BuyCreditMarketParams",
              "components": [
                {
                  "name": "borrower",
                  "type": "address",
                  "internalType": "address"
                },
                {
                  "name": "creditPositionId",
                  "type": "uint256",
                  "internalType": "uint256"
                },
                {
                  "name": "amount",
                  "type": "uint256",
                  "internalType": "uint256"
                },
                {
                  "name": "tenor",
                  "type": "uint256",
                  "internalType": "uint256"
                },
                {
                  "name": "deadline",
                  "type": "uint256",
                  "internalType": "uint256"
                },
                {
                  "name": "minAPR",
                  "type": "uint256",
                  "internalType": "uint256"
                },
                {
                  "name": "exactAmountIn",
                  "type": "bool",
                  "internalType": "bool"
                }
              ]
            },
            {
              "name": "onBehalfOf",
              "type": "address",
              "internalType": "address"
            },
            {
              "name": "recipient",
              "type": "address",
              "internalType": "address"
            }
          ]
        }
      ],
      "outputs": [],
      "stateMutability": "payable"
    },
    {
      "type": "function",
      "name": "claim",
      "inputs": [
        {
          "name": "params",
          "type": "tuple",
          "internalType": "struct ClaimParams",
          "components": [
            {
              "name": "creditPositionId",
              "type": "uint256",
              "internalType": "uint256"
            }
          ]
        }
      ],
      "outputs": [],
      "stateMutability": "payable"
    },
    {
      "type": "function",
      "name": "collateralRatio",
      "inputs": [
        {
          "name": "user",
          "type": "address",
          "internalType": "address"
        }
      ],
      "outputs": [
        {
          "name": "",
          "type": "uint256",
          "internalType": "uint256"
        }
      ],
      "stateMutability": "view"
    },
    {
      "type": "function",
      "name": "compensate",
      "inputs": [
        {
          "name": "params",
          "type": "tuple",
          "internalType": "struct CompensateParams",
          "components": [
            {
              "name": "creditPositionWithDebtToRepayId",
              "type": "uint256",
              "internalType": "uint256"
            },
            {
              "name": "creditPositionToCompensateId",
              "type": "uint256",
              "internalType": "uint256"
            },
            {
              "name": "amount",
              "type": "uint256",
              "internalType": "uint256"
            }
          ]
        }
      ],
      "outputs": [],
      "stateMutability": "payable"
    },
    {
      "type": "function",
      "name": "compensateOnBehalfOf",
      "inputs": [
        {
          "name": "externalParams",
          "type": "tuple",
          "internalType": "struct CompensateOnBehalfOfParams",
          "components": [
            {
              "name": "params",
              "type": "tuple",
              "internalType": "struct CompensateParams",
              "components": [
                {
                  "name": "creditPositionWithDebtToRepayId",
                  "type": "uint256",
                  "internalType": "uint256"
                },
                {
                  "name": "creditPositionToCompensateId",
                  "type": "uint256",
                  "internalType": "uint256"
                },
                {
                  "name": "amount",
                  "type": "uint256",
                  "internalType": "uint256"
                }
              ]
            },
            {
              "name": "onBehalfOf",
              "type": "address",
              "internalType": "address"
            }
          ]
        }
      ],
      "outputs": [],
      "stateMutability": "payable"
    },
    {
      "type": "function",
      "name": "copyLimitOrders",
      "inputs": [
        {
          "name": "params",
          "type": "tuple",
          "internalType": "struct CopyLimitOrdersParams",
          "components": [
            {
              "name": "copyAddress",
              "type": "address",
              "internalType": "address"
            },
            {
              "name": "copyLoanOffer",
              "type": "tuple",
              "internalType": "struct CopyLimitOrder",
              "components": [
                {
                  "name": "minTenor",
                  "type": "uint256",
                  "internalType": "uint256"
                },
                {
                  "name": "maxTenor",
                  "type": "uint256",
                  "internalType": "uint256"
                },
                {
                  "name": "minAPR",
                  "type": "uint256",
                  "internalType": "uint256"
                },
                {
                  "name": "maxAPR",
                  "type": "uint256",
                  "internalType": "uint256"
                },
                {
                  "name": "offsetAPR",
                  "type": "int256",
                  "internalType": "int256"
                }
              ]
            },
            {
              "name": "copyBorrowOffer",
              "type": "tuple",
              "internalType": "struct CopyLimitOrder",
              "components": [
                {
                  "name": "minTenor",
                  "type": "uint256",
                  "internalType": "uint256"
                },
                {
                  "name": "maxTenor",
                  "type": "uint256",
                  "internalType": "uint256"
                },
                {
                  "name": "minAPR",
                  "type": "uint256",
                  "internalType": "uint256"
                },
                {
                  "name": "maxAPR",
                  "type": "uint256",
                  "internalType": "uint256"
                },
                {
                  "name": "offsetAPR",
                  "type": "int256",
                  "internalType": "int256"
                }
              ]
            }
          ]
        }
      ],
      "outputs": [],
      "stateMutability": "payable"
    },
    {
      "type": "function",
      "name": "copyLimitOrdersOnBehalfOf",
      "inputs": [
        {
          "name": "externalParams",
          "type": "tuple",
          "internalType": "struct CopyLimitOrdersOnBehalfOfParams",
          "components": [
            {
              "name": "params",
              "type": "tuple",
              "internalType": "struct CopyLimitOrdersParams",
              "components": [
                {
                  "name": "copyAddress",
                  "type": "address",
                  "internalType": "address"
                },
                {
                  "name": "copyLoanOffer",
                  "type": "tuple",
                  "internalType": "struct CopyLimitOrder",
                  "components": [
                    {
                      "name": "minTenor",
                      "type": "uint256",
                      "internalType": "uint256"
                    },
                    {
                      "name": "maxTenor",
                      "type": "uint256",
                      "internalType": "uint256"
                    },
                    {
                      "name": "minAPR",
                      "type": "uint256",
                      "internalType": "uint256"
                    },
                    {
                      "name": "maxAPR",
                      "type": "uint256",
                      "internalType": "uint256"
                    },
                    {
                      "name": "offsetAPR",
                      "type": "int256",
                      "internalType": "int256"
                    }
                  ]
                },
                {
                  "name": "copyBorrowOffer",
                  "type": "tuple",
                  "internalType": "struct CopyLimitOrder",
                  "components": [
                    {
                      "name": "minTenor",
                      "type": "uint256",
                      "internalType": "uint256"
                    },
                    {
                      "name": "maxTenor",
                      "type": "uint256",
                      "internalType": "uint256"
                    },
                    {
                      "name": "minAPR",
                      "type": "uint256",
                      "internalType": "uint256"
                    },
                    {
                      "name": "maxAPR",
                      "type": "uint256",
                      "internalType": "uint256"
                    },
                    {
                      "name": "offsetAPR",
                      "type": "int256",
                      "internalType": "int256"
                    }
                  ]
                }
              ]
            },
            {
              "name": "onBehalfOf",
              "type": "address",
              "internalType": "address"
            }
          ]
        }
      ],
      "outputs": [],
      "stateMutability": "payable"
    },
    {
      "type": "function",
      "name": "data",
      "inputs": [],
      "outputs": [
        {
          "name": "",
          "type": "tuple",
          "internalType": "struct DataView",
          "components": [
            {
              "name": "nextDebtPositionId",
              "type": "uint256",
              "internalType": "uint256"
            },
            {
              "name": "nextCreditPositionId",
              "type": "uint256",
              "internalType": "uint256"
            },
            {
              "name": "underlyingCollateralToken",
              "type": "address",
              "internalType": "contract IERC20Metadata"
            },
            {
              "name": "underlyingBorrowToken",
              "type": "address",
              "internalType": "contract IERC20Metadata"
            },
            {
              "name": "collateralToken",
              "type": "address",
              "internalType": "contract NonTransferrableToken"
            },
            {
              "name": "borrowAToken",
              "type": "address",
              "internalType": "contract NonTransferrableScaledTokenV1_5"
            },
            {
              "name": "debtToken",
              "type": "address",
              "internalType": "contract NonTransferrableToken"
            },
            {
              "name": "variablePool",
              "type": "address",
              "internalType": "contract IPool"
            }
          ]
        }
      ],
      "stateMutability": "view"
    },
    {
      "type": "function",
      "name": "debtTokenAmountToCollateralTokenAmount",
      "inputs": [
        {
          "name": "borrowATokenAmount",
          "type": "uint256",
          "internalType": "uint256"
        }
      ],
      "outputs": [
        {
          "name": "",
          "type": "uint256",
          "internalType": "uint256"
        }
      ],
      "stateMutability": "view"
    },
    {
      "type": "function",
      "name": "deposit",
      "inputs": [
        {
          "name": "params",
          "type": "tuple",
          "internalType": "struct DepositParams",
          "components": [
            {
              "name": "token",
              "type": "address",
              "internalType": "address"
            },
            {
              "name": "amount",
              "type": "uint256",
              "internalType": "uint256"
            },
            {
              "name": "to",
              "type": "address",
              "internalType": "address"
            }
          ]
        }
      ],
      "outputs": [],
      "stateMutability": "payable"
    },
    {
      "type": "function",
      "name": "depositOnBehalfOf",
      "inputs": [
        {
          "name": "params",
          "type": "tuple",
          "internalType": "struct DepositOnBehalfOfParams",
          "components": [
            {
              "name": "params",
              "type": "tuple",
              "internalType": "struct DepositParams",
              "components": [
                {
                  "name": "token",
                  "type": "address",
                  "internalType": "address"
                },
                {
                  "name": "amount",
                  "type": "uint256",
                  "internalType": "uint256"
                },
                {
                  "name": "to",
                  "type": "address",
                  "internalType": "address"
                }
              ]
            },
            {
              "name": "onBehalfOf",
              "type": "address",
              "internalType": "address"
            }
          ]
        }
      ],
      "outputs": [],
      "stateMutability": "payable"
    },
    {
      "type": "function",
      "name": "feeConfig",
      "inputs": [],
      "outputs": [
        {
          "name": "",
          "type": "tuple",
          "internalType": "struct InitializeFeeConfigParams",
          "components": [
            {
              "name": "swapFeeAPR",
              "type": "uint256",
              "internalType": "uint256"
            },
            {
              "name": "fragmentationFee",
              "type": "uint256",
              "internalType": "uint256"
            },
            {
              "name": "liquidationRewardPercent",
              "type": "uint256",
              "internalType": "uint256"
            },
            {
              "name": "overdueCollateralProtocolPercent",
              "type": "uint256",
              "internalType": "uint256"
            },
            {
              "name": "collateralProtocolPercent",
              "type": "uint256",
              "internalType": "uint256"
            },
            {
              "name": "feeRecipient",
              "type": "address",
              "internalType": "address"
            }
          ]
        }
      ],
      "stateMutability": "view"
    },
    {
      "type": "function",
      "name": "getBorrowOfferAPR",
      "inputs": [
        {
          "name": "borrower",
          "type": "address",
          "internalType": "address"
        },
        {
          "name": "tenor",
          "type": "uint256",
          "internalType": "uint256"
        }
      ],
      "outputs": [
        {
          "name": "",
          "type": "uint256",
          "internalType": "uint256"
        }
      ],
      "stateMutability": "view"
    },
    {
      "type": "function",
      "name": "getBuyCreditMarketSwapData",
      "inputs": [
        {
          "name": "params",
          "type": "tuple",
          "internalType": "struct BuyCreditMarketParams",
          "components": [
            {
              "name": "borrower",
              "type": "address",
              "internalType": "address"
            },
            {
              "name": "creditPositionId",
              "type": "uint256",
              "internalType": "uint256"
            },
            {
              "name": "amount",
              "type": "uint256",
              "internalType": "uint256"
            },
            {
              "name": "tenor",
              "type": "uint256",
              "internalType": "uint256"
            },
            {
              "name": "deadline",
              "type": "uint256",
              "internalType": "uint256"
            },
            {
              "name": "minAPR",
              "type": "uint256",
              "internalType": "uint256"
            },
            {
              "name": "exactAmountIn",
              "type": "bool",
              "internalType": "bool"
            }
          ]
        }
      ],
      "outputs": [
        {
          "name": "",
          "type": "tuple",
          "internalType": "struct BuyCreditMarket.SwapDataBuyCreditMarket",
          "components": [
            {
              "name": "creditPosition",
              "type": "tuple",
              "internalType": "struct CreditPosition",
              "components": [
                {
                  "name": "lender",
                  "type": "address",
                  "internalType": "address"
                },
                {
                  "name": "forSale",
                  "type": "bool",
                  "internalType": "bool"
                },
                {
                  "name": "credit",
                  "type": "uint256",
                  "internalType": "uint256"
                },
                {
                  "name": "debtPositionId",
                  "type": "uint256",
                  "internalType": "uint256"
                }
              ]
            },
            {
              "name": "borrower",
              "type": "address",
              "internalType": "address"
            },
            {
              "name": "creditAmountOut",
              "type": "uint256",
              "internalType": "uint256"
            },
            {
              "name": "cashAmountIn",
              "type": "uint256",
              "internalType": "uint256"
            },
            {
              "name": "swapFee",
              "type": "uint256",
              "internalType": "uint256"
            },
            {
              "name": "fragmentationFee",
              "type": "uint256",
              "internalType": "uint256"
            },
            {
              "name": "tenor",
              "type": "uint256",
              "internalType": "uint256"
            }
          ]
        }
      ],
      "stateMutability": "view"
    },
    {
      "type": "function",
      "name": "getCreditPosition",
      "inputs": [
        {
          "name": "creditPositionId",
          "type": "uint256",
          "internalType": "uint256"
        }
      ],
      "outputs": [
        {
          "name": "",
          "type": "tuple",
          "internalType": "struct CreditPosition",
          "components": [
            {
              "name": "lender",
              "type": "address",
              "internalType": "address"
            },
            {
              "name": "forSale",
              "type": "bool",
              "internalType": "bool"
            },
            {
              "name": "credit",
              "type": "uint256",
              "internalType": "uint256"
            },
            {
              "name": "debtPositionId",
              "type": "uint256",
              "internalType": "uint256"
            }
          ]
        }
      ],
      "stateMutability": "view"
    },
    {
      "type": "function",
      "name": "getDebtPosition",
      "inputs": [
        {
          "name": "debtPositionId",
          "type": "uint256",
          "internalType": "uint256"
        }
      ],
      "outputs": [
        {
          "name": "",
          "type": "tuple",
          "internalType": "struct DebtPosition",
          "components": [
            {
              "name": "borrower",
              "type": "address",
              "internalType": "address"
            },
            {
              "name": "futureValue",
              "type": "uint256",
              "internalType": "uint256"
            },
            {
              "name": "dueDate",
              "type": "uint256",
              "internalType": "uint256"
            },
            {
              "name": "liquidityIndexAtRepayment",
              "type": "uint256",
              "internalType": "uint256"
            }
          ]
        }
      ],
      "stateMutability": "view"
    },
    {
      "type": "function",
      "name": "getDebtPositionAssignedCollateral",
      "inputs": [
        {
          "name": "debtPositionId",
          "type": "uint256",
          "internalType": "uint256"
        }
      ],
      "outputs": [
        {
          "name": "",
          "type": "uint256",
          "internalType": "uint256"
        }
      ],
      "stateMutability": "view"
    },
    {
      "type": "function",
      "name": "getLoanOfferAPR",
      "inputs": [
        {
          "name": "lender",
          "type": "address",
          "internalType": "address"
        },
        {
          "name": "tenor",
          "type": "uint256",
          "internalType": "uint256"
        }
      ],
      "outputs": [
        {
          "name": "",
          "type": "uint256",
          "internalType": "uint256"
        }
      ],
      "stateMutability": "view"
    },
    {
      "type": "function",
      "name": "getLoanStatus",
      "inputs": [
        {
          "name": "positionId",
          "type": "uint256",
          "internalType": "uint256"
        }
      ],
      "outputs": [
        {
          "name": "",
          "type": "uint8",
          "internalType": "enum LoanStatus"
        }
      ],
      "stateMutability": "view"
    },
    {
      "type": "function",
      "name": "getPositionsCount",
      "inputs": [],
      "outputs": [
        {
          "name": "",
          "type": "uint256",
          "internalType": "uint256"
        },
        {
          "name": "",
          "type": "uint256",
          "internalType": "uint256"
        }
      ],
      "stateMutability": "view"
    },
    {
      "type": "function",
      "name": "getRoleAdmin",
      "inputs": [
        {
          "name": "role",
          "type": "bytes32",
          "internalType": "bytes32"
        }
      ],
      "outputs": [
        {
          "name": "",
          "type": "bytes32",
          "internalType": "bytes32"
        }
      ],
      "stateMutability": "view"
    },
    {
      "type": "function",
      "name": "getSellCreditMarketSwapData",
      "inputs": [
        {
          "name": "params",
          "type": "tuple",
          "internalType": "struct SellCreditMarketParams",
          "components": [
            {
              "name": "lender",
              "type": "address",
              "internalType": "address"
            },
            {
              "name": "creditPositionId",
              "type": "uint256",
              "internalType": "uint256"
            },
            {
              "name": "amount",
              "type": "uint256",
              "internalType": "uint256"
            },
            {
              "name": "tenor",
              "type": "uint256",
              "internalType": "uint256"
            },
            {
              "name": "deadline",
              "type": "uint256",
              "internalType": "uint256"
            },
            {
              "name": "maxAPR",
              "type": "uint256",
              "internalType": "uint256"
            },
            {
              "name": "exactAmountIn",
              "type": "bool",
              "internalType": "bool"
            }
          ]
        }
      ],
      "outputs": [
        {
          "name": "",
          "type": "tuple",
          "internalType": "struct SellCreditMarket.SwapDataSellCreditMarket",
          "components": [
            {
              "name": "creditPosition",
              "type": "tuple",
              "internalType": "struct CreditPosition",
              "components": [
                {
                  "name": "lender",
                  "type": "address",
                  "internalType": "address"
                },
                {
                  "name": "forSale",
                  "type": "bool",
                  "internalType": "bool"
                },
                {
                  "name": "credit",
                  "type": "uint256",
                  "internalType": "uint256"
                },
                {
                  "name": "debtPositionId",
                  "type": "uint256",
                  "internalType": "uint256"
                }
              ]
            },
            {
              "name": "creditAmountIn",
              "type": "uint256",
              "internalType": "uint256"
            },
            {
              "name": "cashAmountOut",
              "type": "uint256",
              "internalType": "uint256"
            },
            {
              "name": "swapFee",
              "type": "uint256",
              "internalType": "uint256"
            },
            {
              "name": "fragmentationFee",
              "type": "uint256",
              "internalType": "uint256"
            },
            {
              "name": "tenor",
              "type": "uint256",
              "internalType": "uint256"
            }
          ]
        }
      ],
      "stateMutability": "view"
    },
    {
      "type": "function",
      "name": "getSwapFee",
      "inputs": [
        {
          "name": "cash",
          "type": "uint256",
          "internalType": "uint256"
        },
        {
          "name": "tenor",
          "type": "uint256",
          "internalType": "uint256"
        }
      ],
      "outputs": [
        {
          "name": "",
          "type": "uint256",
          "internalType": "uint256"
        }
      ],
      "stateMutability": "view"
    },
    {
      "type": "function",
      "name": "getUserCopyLimitOrders",
      "inputs": [
        {
          "name": "user",
          "type": "address",
          "internalType": "address"
        }
      ],
      "outputs": [
        {
          "name": "",
          "type": "tuple",
          "internalType": "struct UserCopyLimitOrders",
          "components": [
            {
              "name": "copyAddress",
              "type": "address",
              "internalType": "address"
            },
            {
              "name": "copyLoanOffer",
              "type": "tuple",
              "internalType": "struct CopyLimitOrder",
              "components": [
                {
                  "name": "minTenor",
                  "type": "uint256",
                  "internalType": "uint256"
                },
                {
                  "name": "maxTenor",
                  "type": "uint256",
                  "internalType": "uint256"
                },
                {
                  "name": "minAPR",
                  "type": "uint256",
                  "internalType": "uint256"
                },
                {
                  "name": "maxAPR",
                  "type": "uint256",
                  "internalType": "uint256"
                },
                {
                  "name": "offsetAPR",
                  "type": "int256",
                  "internalType": "int256"
                }
              ]
            },
            {
              "name": "copyBorrowOffer",
              "type": "tuple",
              "internalType": "struct CopyLimitOrder",
              "components": [
                {
                  "name": "minTenor",
                  "type": "uint256",
                  "internalType": "uint256"
                },
                {
                  "name": "maxTenor",
                  "type": "uint256",
                  "internalType": "uint256"
                },
                {
                  "name": "minAPR",
                  "type": "uint256",
                  "internalType": "uint256"
                },
                {
                  "name": "maxAPR",
                  "type": "uint256",
                  "internalType": "uint256"
                },
                {
                  "name": "offsetAPR",
                  "type": "int256",
                  "internalType": "int256"
                }
              ]
            }
          ]
        }
      ],
      "stateMutability": "view"
    },
    {
      "type": "function",
      "name": "getUserView",
      "inputs": [
        {
          "name": "user",
          "type": "address",
          "internalType": "address"
        }
      ],
      "outputs": [
        {
          "name": "",
          "type": "tuple",
          "internalType": "struct UserView",
          "components": [
            {
              "name": "user",
              "type": "tuple",
              "internalType": "struct User",
              "components": [
                {
                  "name": "loanOffer",
                  "type": "tuple",
                  "internalType": "struct LimitOrder",
                  "components": [
                    {
                      "name": "maxDueDate",
                      "type": "uint256",
                      "internalType": "uint256"
                    },
                    {
                      "name": "curveRelativeTime",
                      "type": "tuple",
                      "internalType": "struct YieldCurve",
                      "components": [
                        {
                          "name": "tenors",
                          "type": "uint256[]",
                          "internalType": "uint256[]"
                        },
                        {
                          "name": "aprs",
                          "type": "int256[]",
                          "internalType": "int256[]"
                        },
                        {
                          "name": "marketRateMultipliers",
                          "type": "uint256[]",
                          "internalType": "uint256[]"
                        }
                      ]
                    }
                  ]
                },
                {
                  "name": "borrowOffer",
                  "type": "tuple",
                  "internalType": "struct LimitOrder",
                  "components": [
                    {
                      "name": "maxDueDate",
                      "type": "uint256",
                      "internalType": "uint256"
                    },
                    {
                      "name": "curveRelativeTime",
                      "type": "tuple",
                      "internalType": "struct YieldCurve",
                      "components": [
                        {
                          "name": "tenors",
                          "type": "uint256[]",
                          "internalType": "uint256[]"
                        },
                        {
                          "name": "aprs",
                          "type": "int256[]",
                          "internalType": "int256[]"
                        },
                        {
                          "name": "marketRateMultipliers",
                          "type": "uint256[]",
                          "internalType": "uint256[]"
                        }
                      ]
                    }
                  ]
                },
                {
                  "name": "openingLimitBorrowCR",
                  "type": "uint256",
                  "internalType": "uint256"
                },
                {
                  "name": "allCreditPositionsForSaleDisabled",
                  "type": "bool",
                  "internalType": "bool"
                }
              ]
            },
            {
              "name": "account",
              "type": "address",
              "internalType": "address"
            },
            {
              "name": "collateralTokenBalance",
              "type": "uint256",
              "internalType": "uint256"
            },
            {
              "name": "borrowATokenBalance",
              "type": "uint256",
              "internalType": "uint256"
            },
            {
              "name": "debtBalance",
              "type": "uint256",
              "internalType": "uint256"
            }
          ]
        }
      ],
      "stateMutability": "view"
    },
    {
      "type": "function",
      "name": "grantRole",
      "inputs": [
        {
          "name": "role",
          "type": "bytes32",
          "internalType": "bytes32"
        },
        {
          "name": "account",
          "type": "address",
          "internalType": "address"
        }
      ],
      "outputs": [],
      "stateMutability": "nonpayable"
    },
    {
      "type": "function",
      "name": "hasRole",
      "inputs": [
        {
          "name": "role",
          "type": "bytes32",
          "internalType": "bytes32"
        },
        {
          "name": "account",
          "type": "address",
          "internalType": "address"
        }
      ],
      "outputs": [
        {
          "name": "",
          "type": "bool",
          "internalType": "bool"
        }
      ],
      "stateMutability": "view"
    },
    {
      "type": "function",
      "name": "initialize",
      "inputs": [
        {
          "name": "owner",
          "type": "address",
          "internalType": "address"
        },
        {
          "name": "f",
          "type": "tuple",
          "internalType": "struct InitializeFeeConfigParams",
          "components": [
            {
              "name": "swapFeeAPR",
              "type": "uint256",
              "internalType": "uint256"
            },
            {
              "name": "fragmentationFee",
              "type": "uint256",
              "internalType": "uint256"
            },
            {
              "name": "liquidationRewardPercent",
              "type": "uint256",
              "internalType": "uint256"
            },
            {
              "name": "overdueCollateralProtocolPercent",
              "type": "uint256",
              "internalType": "uint256"
            },
            {
              "name": "collateralProtocolPercent",
              "type": "uint256",
              "internalType": "uint256"
            },
            {
              "name": "feeRecipient",
              "type": "address",
              "internalType": "address"
            }
          ]
        },
        {
          "name": "r",
          "type": "tuple",
          "internalType": "struct InitializeRiskConfigParams",
          "components": [
            {
              "name": "crOpening",
              "type": "uint256",
              "internalType": "uint256"
            },
            {
              "name": "crLiquidation",
              "type": "uint256",
              "internalType": "uint256"
            },
            {
              "name": "minimumCreditBorrowAToken",
              "type": "uint256",
              "internalType": "uint256"
            },
            {
              "name": "borrowATokenCap",
              "type": "uint256",
              "internalType": "uint256"
            },
            {
              "name": "minTenor",
              "type": "uint256",
              "internalType": "uint256"
            },
            {
              "name": "maxTenor",
              "type": "uint256",
              "internalType": "uint256"
            }
          ]
        },
        {
          "name": "o",
          "type": "tuple",
          "internalType": "struct InitializeOracleParams",
          "components": [
            {
              "name": "priceFeed",
              "type": "address",
              "internalType": "address"
            },
            {
              "name": "variablePoolBorrowRateStaleRateInterval",
              "type": "uint64",
              "internalType": "uint64"
            }
          ]
        },
        {
          "name": "d",
          "type": "tuple",
          "internalType": "struct InitializeDataParams",
          "components": [
            {
              "name": "weth",
              "type": "address",
              "internalType": "address"
            },
            {
              "name": "underlyingCollateralToken",
              "type": "address",
              "internalType": "address"
            },
            {
              "name": "underlyingBorrowToken",
              "type": "address",
              "internalType": "address"
            },
            {
              "name": "variablePool",
              "type": "address",
              "internalType": "address"
            },
            {
              "name": "borrowATokenV1_5",
              "type": "address",
              "internalType": "address"
            },
            {
              "name": "sizeFactory",
              "type": "address",
              "internalType": "address"
            }
          ]
        }
      ],
      "outputs": [],
      "stateMutability": "nonpayable"
    },
    {
      "type": "function",
      "name": "isCreditPositionId",
      "inputs": [
        {
          "name": "creditPositionId",
          "type": "uint256",
          "internalType": "uint256"
        }
      ],
      "outputs": [
        {
          "name": "",
          "type": "bool",
          "internalType": "bool"
        }
      ],
      "stateMutability": "view"
    },
    {
      "type": "function",
      "name": "isDebtPositionId",
      "inputs": [
        {
          "name": "debtPositionId",
          "type": "uint256",
          "internalType": "uint256"
        }
      ],
      "outputs": [
        {
          "name": "",
          "type": "bool",
          "internalType": "bool"
        }
      ],
      "stateMutability": "view"
    },
    {
      "type": "function",
      "name": "isDebtPositionLiquidatable",
      "inputs": [
        {
          "name": "debtPositionId",
          "type": "uint256",
          "internalType": "uint256"
        }
      ],
      "outputs": [
        {
          "name": "",
          "type": "bool",
          "internalType": "bool"
        }
      ],
      "stateMutability": "view"
    },
    {
      "type": "function",
      "name": "liquidate",
      "inputs": [
        {
          "name": "params",
          "type": "tuple",
          "internalType": "struct LiquidateParams",
          "components": [
            {
              "name": "debtPositionId",
              "type": "uint256",
              "internalType": "uint256"
            },
            {
              "name": "minimumCollateralProfit",
              "type": "uint256",
              "internalType": "uint256"
            },
            {
              "name": "deadline",
              "type": "uint256",
              "internalType": "uint256"
            }
          ]
        }
      ],
      "outputs": [
        {
          "name": "liquidatorProfitCollateralToken",
          "type": "uint256",
          "internalType": "uint256"
        }
      ],
      "stateMutability": "payable"
    },
    {
      "type": "function",
      "name": "liquidateWithReplacement",
      "inputs": [
        {
          "name": "params",
          "type": "tuple",
          "internalType": "struct LiquidateWithReplacementParams",
          "components": [
            {
              "name": "debtPositionId",
              "type": "uint256",
              "internalType": "uint256"
            },
            {
              "name": "borrower",
              "type": "address",
              "internalType": "address"
            },
            {
              "name": "minimumCollateralProfit",
              "type": "uint256",
              "internalType": "uint256"
            },
            {
              "name": "deadline",
              "type": "uint256",
              "internalType": "uint256"
            },
            {
              "name": "minAPR",
              "type": "uint256",
              "internalType": "uint256"
            }
          ]
        }
      ],
      "outputs": [
        {
          "name": "liquidatorProfitCollateralToken",
          "type": "uint256",
          "internalType": "uint256"
        },
        {
          "name": "liquidatorProfitBorrowToken",
          "type": "uint256",
          "internalType": "uint256"
        }
      ],
      "stateMutability": "payable"
    },
    {
      "type": "function",
      "name": "multicall",
      "inputs": [
        {
          "name": "_data",
          "type": "bytes[]",
          "internalType": "bytes[]"
        }
      ],
      "outputs": [
        {
          "name": "results",
          "type": "bytes[]",
          "internalType": "bytes[]"
        }
      ],
      "stateMutability": "payable"
    },
    {
      "type": "function",
      "name": "oracle",
      "inputs": [],
      "outputs": [
        {
          "name": "",
          "type": "tuple",
          "internalType": "struct InitializeOracleParams",
          "components": [
            {
              "name": "priceFeed",
              "type": "address",
              "internalType": "address"
            },
            {
              "name": "variablePoolBorrowRateStaleRateInterval",
              "type": "uint64",
              "internalType": "uint64"
            }
          ]
        }
      ],
      "stateMutability": "view"
    },
    {
      "type": "function",
      "name": "partialRepay",
      "inputs": [
        {
          "name": "params",
          "type": "tuple",
          "internalType": "struct PartialRepayParams",
          "components": [
            {
              "name": "creditPositionWithDebtToRepayId",
              "type": "uint256",
              "internalType": "uint256"
            },
            {
              "name": "amount",
              "type": "uint256",
              "internalType": "uint256"
            },
            {
              "name": "borrower",
              "type": "address",
              "internalType": "address"
            }
          ]
        }
      ],
      "outputs": [],
      "stateMutability": "payable"
    },
    {
      "type": "function",
      "name": "pause",
      "inputs": [],
      "outputs": [],
      "stateMutability": "nonpayable"
    },
    {
      "type": "function",
      "name": "paused",
      "inputs": [],
      "outputs": [
        {
          "name": "",
          "type": "bool",
          "internalType": "bool"
        }
      ],
      "stateMutability": "view"
    },
    {
      "type": "function",
      "name": "proxiableUUID",
      "inputs": [],
      "outputs": [
        {
          "name": "",
          "type": "bytes32",
          "internalType": "bytes32"
        }
      ],
      "stateMutability": "view"
    },
    {
      "type": "function",
      "name": "reinitialize",
      "inputs": [
        {
          "name": "_sizeFactory",
          "type": "address",
          "internalType": "contract ISizeFactory"
        }
      ],
      "outputs": [],
      "stateMutability": "nonpayable"
    },
    {
      "type": "function",
      "name": "renounceRole",
      "inputs": [
        {
          "name": "role",
          "type": "bytes32",
          "internalType": "bytes32"
        },
        {
          "name": "callerConfirmation",
          "type": "address",
          "internalType": "address"
        }
      ],
      "outputs": [],
      "stateMutability": "nonpayable"
    },
    {
      "type": "function",
      "name": "repay",
      "inputs": [
        {
          "name": "params",
          "type": "tuple",
          "internalType": "struct RepayParams",
          "components": [
            {
              "name": "debtPositionId",
              "type": "uint256",
              "internalType": "uint256"
            },
            {
              "name": "borrower",
              "type": "address",
              "internalType": "address"
            }
          ]
        }
      ],
      "outputs": [],
      "stateMutability": "payable"
    },
    {
      "type": "function",
      "name": "revokeRole",
      "inputs": [
        {
          "name": "role",
          "type": "bytes32",
          "internalType": "bytes32"
        },
        {
          "name": "account",
          "type": "address",
          "internalType": "address"
        }
      ],
      "outputs": [],
      "stateMutability": "nonpayable"
    },
    {
      "type": "function",
      "name": "riskConfig",
      "inputs": [],
      "outputs": [
        {
          "name": "",
          "type": "tuple",
          "internalType": "struct InitializeRiskConfigParams",
          "components": [
            {
              "name": "crOpening",
              "type": "uint256",
              "internalType": "uint256"
            },
            {
              "name": "crLiquidation",
              "type": "uint256",
              "internalType": "uint256"
            },
            {
              "name": "minimumCreditBorrowAToken",
              "type": "uint256",
              "internalType": "uint256"
            },
            {
              "name": "borrowATokenCap",
              "type": "uint256",
              "internalType": "uint256"
            },
            {
              "name": "minTenor",
              "type": "uint256",
              "internalType": "uint256"
            },
            {
              "name": "maxTenor",
              "type": "uint256",
              "internalType": "uint256"
            }
          ]
        }
      ],
      "stateMutability": "view"
    },
    {
      "type": "function",
      "name": "selfLiquidate",
      "inputs": [
        {
          "name": "params",
          "type": "tuple",
          "internalType": "struct SelfLiquidateParams",
          "components": [
            {
              "name": "creditPositionId",
              "type": "uint256",
              "internalType": "uint256"
            }
          ]
        }
      ],
      "outputs": [],
      "stateMutability": "payable"
    },
    {
      "type": "function",
      "name": "selfLiquidateOnBehalfOf",
      "inputs": [
        {
          "name": "externalParams",
          "type": "tuple",
          "internalType": "struct SelfLiquidateOnBehalfOfParams",
          "components": [
            {
              "name": "params",
              "type": "tuple",
              "internalType": "struct SelfLiquidateParams",
              "components": [
                {
                  "name": "creditPositionId",
                  "type": "uint256",
                  "internalType": "uint256"
                }
              ]
            },
            {
              "name": "onBehalfOf",
              "type": "address",
              "internalType": "address"
            },
            {
              "name": "recipient",
              "type": "address",
              "internalType": "address"
            }
          ]
        }
      ],
      "outputs": [],
      "stateMutability": "payable"
    },
    {
      "type": "function",
      "name": "sellCreditLimit",
      "inputs": [
        {
          "name": "params",
          "type": "tuple",
          "internalType": "struct SellCreditLimitParams",
          "components": [
            {
              "name": "maxDueDate",
              "type": "uint256",
              "internalType": "uint256"
            },
            {
              "name": "curveRelativeTime",
              "type": "tuple",
              "internalType": "struct YieldCurve",
              "components": [
                {
                  "name": "tenors",
                  "type": "uint256[]",
                  "internalType": "uint256[]"
                },
                {
                  "name": "aprs",
                  "type": "int256[]",
                  "internalType": "int256[]"
                },
                {
                  "name": "marketRateMultipliers",
                  "type": "uint256[]",
                  "internalType": "uint256[]"
                }
              ]
            }
          ]
        }
      ],
      "outputs": [],
      "stateMutability": "payable"
    },
    {
      "type": "function",
      "name": "sellCreditLimitOnBehalfOf",
      "inputs": [
        {
          "name": "externalParams",
          "type": "tuple",
          "internalType": "struct SellCreditLimitOnBehalfOfParams",
          "components": [
            {
              "name": "params",
              "type": "tuple",
              "internalType": "struct SellCreditLimitParams",
              "components": [
                {
                  "name": "maxDueDate",
                  "type": "uint256",
                  "internalType": "uint256"
                },
                {
                  "name": "curveRelativeTime",
                  "type": "tuple",
                  "internalType": "struct YieldCurve",
                  "components": [
                    {
                      "name": "tenors",
                      "type": "uint256[]",
                      "internalType": "uint256[]"
                    },
                    {
                      "name": "aprs",
                      "type": "int256[]",
                      "internalType": "int256[]"
                    },
                    {
                      "name": "marketRateMultipliers",
                      "type": "uint256[]",
                      "internalType": "uint256[]"
                    }
                  ]
                }
              ]
            },
            {
              "name": "onBehalfOf",
              "type": "address",
              "internalType": "address"
            }
          ]
        }
      ],
      "outputs": [],
      "stateMutability": "payable"
    },
    {
      "type": "function",
      "name": "sellCreditMarket",
      "inputs": [
        {
          "name": "params",
          "type": "tuple",
          "internalType": "struct SellCreditMarketParams",
          "components": [
            {
              "name": "lender",
              "type": "address",
              "internalType": "address"
            },
            {
              "name": "creditPositionId",
              "type": "uint256",
              "internalType": "uint256"
            },
            {
              "name": "amount",
              "type": "uint256",
              "internalType": "uint256"
            },
            {
              "name": "tenor",
              "type": "uint256",
              "internalType": "uint256"
            },
            {
              "name": "deadline",
              "type": "uint256",
              "internalType": "uint256"
            },
            {
              "name": "maxAPR",
              "type": "uint256",
              "internalType": "uint256"
            },
            {
              "name": "exactAmountIn",
              "type": "bool",
              "internalType": "bool"
            }
          ]
        }
      ],
      "outputs": [],
      "stateMutability": "payable"
    },
    {
      "type": "function",
      "name": "sellCreditMarketOnBehalfOf",
      "inputs": [
        {
          "name": "externalParams",
          "type": "tuple",
          "internalType": "struct SellCreditMarketOnBehalfOfParams",
          "components": [
            {
              "name": "params",
              "type": "tuple",
              "internalType": "struct SellCreditMarketParams",
              "components": [
                {
                  "name": "lender",
                  "type": "address",
                  "internalType": "address"
                },
                {
                  "name": "creditPositionId",
                  "type": "uint256",
                  "internalType": "uint256"
                },
                {
                  "name": "amount",
                  "type": "uint256",
                  "internalType": "uint256"
                },
                {
                  "name": "tenor",
                  "type": "uint256",
                  "internalType": "uint256"
                },
                {
                  "name": "deadline",
                  "type": "uint256",
                  "internalType": "uint256"
                },
                {
                  "name": "maxAPR",
                  "type": "uint256",
                  "internalType": "uint256"
                },
                {
                  "name": "exactAmountIn",
                  "type": "bool",
                  "internalType": "bool"
                }
              ]
            },
            {
              "name": "onBehalfOf",
              "type": "address",
              "internalType": "address"
            },
            {
              "name": "recipient",
              "type": "address",
              "internalType": "address"
            }
          ]
        }
      ],
      "outputs": [],
      "stateMutability": "payable"
    },
    {
      "type": "function",
      "name": "setUserConfiguration",
      "inputs": [
        {
          "name": "params",
          "type": "tuple",
          "internalType": "struct SetUserConfigurationParams",
          "components": [
            {
              "name": "openingLimitBorrowCR",
              "type": "uint256",
              "internalType": "uint256"
            },
            {
              "name": "allCreditPositionsForSaleDisabled",
              "type": "bool",
              "internalType": "bool"
            },
            {
              "name": "creditPositionIdsForSale",
              "type": "bool",
              "internalType": "bool"
            },
            {
              "name": "creditPositionIds",
              "type": "uint256[]",
              "internalType": "uint256[]"
            }
          ]
        }
      ],
      "outputs": [],
      "stateMutability": "payable"
    },
    {
      "type": "function",
      "name": "setUserConfigurationOnBehalfOf",
      "inputs": [
        {
          "name": "externalParams",
          "type": "tuple",
          "internalType": "struct SetUserConfigurationOnBehalfOfParams",
          "components": [
            {
              "name": "params",
              "type": "tuple",
              "internalType": "struct SetUserConfigurationParams",
              "components": [
                {
                  "name": "openingLimitBorrowCR",
                  "type": "uint256",
                  "internalType": "uint256"
                },
                {
                  "name": "allCreditPositionsForSaleDisabled",
                  "type": "bool",
                  "internalType": "bool"
                },
                {
                  "name": "creditPositionIdsForSale",
                  "type": "bool",
                  "internalType": "bool"
                },
                {
                  "name": "creditPositionIds",
                  "type": "uint256[]",
                  "internalType": "uint256[]"
                }
              ]
            },
            {
              "name": "onBehalfOf",
              "type": "address",
              "internalType": "address"
            }
          ]
        }
      ],
      "outputs": [],
      "stateMutability": "payable"
    },
    {
      "type": "function",
      "name": "setVariablePoolBorrowRate",
      "inputs": [
        {
          "name": "borrowRate",
          "type": "uint128",
          "internalType": "uint128"
        }
      ],
      "outputs": [],
      "stateMutability": "nonpayable"
    },
    {
      "type": "function",
      "name": "sizeFactory",
      "inputs": [],
      "outputs": [
        {
          "name": "",
          "type": "address",
          "internalType": "contract ISizeFactory"
        }
      ],
      "stateMutability": "view"
    },
    {
      "type": "function",
      "name": "supportsInterface",
      "inputs": [
        {
          "name": "interfaceId",
          "type": "bytes4",
          "internalType": "bytes4"
        }
      ],
      "outputs": [
        {
          "name": "",
          "type": "bool",
          "internalType": "bool"
        }
      ],
      "stateMutability": "view"
    },
    {
      "type": "function",
      "name": "unpause",
      "inputs": [],
      "outputs": [],
      "stateMutability": "nonpayable"
    },
    {
      "type": "function",
      "name": "updateConfig",
      "inputs": [
        {
          "name": "params",
          "type": "tuple",
          "internalType": "struct UpdateConfigParams",
          "components": [
            {
              "name": "key",
              "type": "string",
              "internalType": "string"
            },
            {
              "name": "value",
              "type": "uint256",
              "internalType": "uint256"
            }
          ]
        }
      ],
      "outputs": [],
      "stateMutability": "nonpayable"
    },
    {
      "type": "function",
      "name": "upgradeToAndCall",
      "inputs": [
        {
          "name": "newImplementation",
          "type": "address",
          "internalType": "address"
        },
        {
          "name": "data",
          "type": "bytes",
          "internalType": "bytes"
        }
      ],
      "outputs": [],
      "stateMutability": "payable"
    },
    {
      "type": "function",
      "name": "version",
      "inputs": [],
      "outputs": [
        {
          "name": "",
          "type": "string",
          "internalType": "string"
        }
      ],
      "stateMutability": "pure"
    },
    {
      "type": "function",
      "name": "withdraw",
      "inputs": [
        {
          "name": "params",
          "type": "tuple",
          "internalType": "struct WithdrawParams",
          "components": [
            {
              "name": "token",
              "type": "address",
              "internalType": "address"
            },
            {
              "name": "amount",
              "type": "uint256",
              "internalType": "uint256"
            },
            {
              "name": "to",
              "type": "address",
              "internalType": "address"
            }
          ]
        }
      ],
      "outputs": [],
      "stateMutability": "payable"
    },
    {
      "type": "function",
      "name": "withdrawOnBehalfOf",
      "inputs": [
        {
          "name": "externalParams",
          "type": "tuple",
          "internalType": "struct WithdrawOnBehalfOfParams",
          "components": [
            {
              "name": "params",
              "type": "tuple",
              "internalType": "struct WithdrawParams",
              "components": [
                {
                  "name": "token",
                  "type": "address",
                  "internalType": "address"
                },
                {
                  "name": "amount",
                  "type": "uint256",
                  "internalType": "uint256"
                },
                {
                  "name": "to",
                  "type": "address",
                  "internalType": "address"
                }
              ]
            },
            {
              "name": "onBehalfOf",
              "type": "address",
              "internalType": "address"
            }
          ]
        }
      ],
      "outputs": [],
      "stateMutability": "payable"
    },
    {
      "type": "event",
      "name": "Initialized",
      "inputs": [
        {
          "name": "version",
          "type": "uint64",
          "indexed": false,
          "internalType": "uint64"
        }
      ],
      "anonymous": false
    },
    {
      "type": "event",
      "name": "Paused",
      "inputs": [
        {
          "name": "account",
          "type": "address",
          "indexed": false,
          "internalType": "address"
        }
      ],
      "anonymous": false
    },
    {
      "type": "event",
      "name": "RoleAdminChanged",
      "inputs": [
        {
          "name": "role",
          "type": "bytes32",
          "indexed": true,
          "internalType": "bytes32"
        },
        {
          "name": "previousAdminRole",
          "type": "bytes32",
          "indexed": true,
          "internalType": "bytes32"
        },
        {
          "name": "newAdminRole",
          "type": "bytes32",
          "indexed": true,
          "internalType": "bytes32"
        }
      ],
      "anonymous": false
    },
    {
      "type": "event",
      "name": "RoleGranted",
      "inputs": [
        {
          "name": "role",
          "type": "bytes32",
          "indexed": true,
          "internalType": "bytes32"
        },
        {
          "name": "account",
          "type": "address",
          "indexed": true,
          "internalType": "address"
        },
        {
          "name": "sender",
          "type": "address",
          "indexed": true,
          "internalType": "address"
        }
      ],
      "anonymous": false
    },
    {
      "type": "event",
      "name": "RoleRevoked",
      "inputs": [
        {
          "name": "role",
          "type": "bytes32",
          "indexed": true,
          "internalType": "bytes32"
        },
        {
          "name": "account",
          "type": "address",
          "indexed": true,
          "internalType": "address"
        },
        {
          "name": "sender",
          "type": "address",
          "indexed": true,
          "internalType": "address"
        }
      ],
      "anonymous": false
    },
    {
      "type": "event",
      "name": "Unpaused",
      "inputs": [
        {
          "name": "account",
          "type": "address",
          "indexed": false,
          "internalType": "address"
        }
      ],
      "anonymous": false
    },
    {
      "type": "event",
      "name": "Upgraded",
      "inputs": [
        {
          "name": "implementation",
          "type": "address",
          "indexed": true,
          "internalType": "address"
        }
      ],
      "anonymous": false
    },
    {
      "type": "event",
      "name": "VariablePoolBorrowRateUpdated",
      "inputs": [
        {
          "name": "sender",
          "type": "address",
          "indexed": true,
          "internalType": "address"
        },
        {
          "name": "oldBorrowRate",
          "type": "uint128",
          "indexed": false,
          "internalType": "uint128"
        },
        {
          "name": "newBorrowRate",
          "type": "uint128",
          "indexed": false,
          "internalType": "uint128"
        }
      ],
      "anonymous": false
    },
    {
      "type": "error",
      "name": "AccessControlBadConfirmation",
      "inputs": []
    },
    {
      "type": "error",
      "name": "AccessControlUnauthorizedAccount",
      "inputs": [
        {
          "name": "account",
          "type": "address",
          "internalType": "address"
        },
        {
          "name": "neededRole",
          "type": "bytes32",
          "internalType": "bytes32"
        }
      ]
    },
    {
      "type": "error",
      "name": "AddressEmptyCode",
      "inputs": [
        {
          "name": "target",
          "type": "address",
          "internalType": "address"
        }
      ]
    },
    {
      "type": "error",
      "name": "ERC1967InvalidImplementation",
      "inputs": [
        {
          "name": "implementation",
          "type": "address",
          "internalType": "address"
        }
      ]
    },
    {
      "type": "error",
      "name": "ERC1967NonPayable",
      "inputs": []
    },
    {
      "type": "error",
      "name": "EnforcedPause",
      "inputs": []
    },
    {
      "type": "error",
      "name": "ExpectedPause",
      "inputs": []
    },
    {
      "type": "error",
      "name": "FailedCall",
      "inputs": []
    },
    {
      "type": "error",
      "name": "INVALID_MARKET",
      "inputs": [
        {
          "name": "market",
          "type": "address",
          "internalType": "address"
        }
      ]
    },
    {
      "type": "error",
      "name": "InvalidInitialization",
      "inputs": []
    },
    {
      "type": "error",
      "name": "MUST_IMPROVE_COLLATERAL_RATIO",
      "inputs": [
        {
          "name": "account",
          "type": "address",
          "internalType": "address"
        },
        {
          "name": "crBefore",
          "type": "uint256",
          "internalType": "uint256"
        },
        {
          "name": "crAfter",
          "type": "uint256",
          "internalType": "uint256"
        }
      ]
    },
    {
      "type": "error",
      "name": "NOT_SUPPORTED",
      "inputs": []
    },
    {
      "type": "error",
      "name": "NULL_ADDRESS",
      "inputs": []
    },
    {
      "type": "error",
      "name": "NULL_TENOR",
      "inputs": []
    },
    {
      "type": "error",
      "name": "NotInitializing",
      "inputs": []
    },
    {
      "type": "error",
      "name": "UUPSUnauthorizedCallContext",
      "inputs": []
    },
    {
      "type": "error",
      "name": "UUPSUnsupportedProxiableUUID",
      "inputs": [
        {
          "name": "slot",
          "type": "bytes32",
          "internalType": "bytes32"
        }
      ]
    }
  ],
  "bytecode": {
    "object": "0x60a06040523060805234801562000014575f80fd5b506200001f62000025565b620000d9565b7ff0c57e16840df040f15088dc2f81fe391c3923bec73e23a9662efc9c229c6a00805468010000000000000000900460ff1615620000765760405163f92ee8a960e01b815260040160405180910390fd5b80546001600160401b0390811614620000d65780546001600160401b0319166001600160401b0390811782556040519081527fc7f505b2f371ae2175ee4913f4499e1f2633a7b5936321eed1cdaeb6115181d29060200160405180910390a15b50565b608051615e57620001005f395f818161384e0152818161387701526139df0152615e575ff3fe6080604052600436106103c9575f3560e01c80635cbc51eb116101f4578063b5ec748711610113578063e5af06ce116100a8578063f7e7d1fd11610078578063f7e7d1fd14610c45578063f85c3cd414610c64578063fa7a5b1014610c83578063fa823af514610caa578063fd17174a14610cbd575f80fd5b8063e5af06ce14610bed578063f052e7a414610c0c578063f45bf01c14610c1f578063f54ae18b14610c32575f80fd5b8063ccd8d4d1116100e3578063ccd8d4d114610b95578063d547741f14610ba8578063d8d933a514610bc7578063e05001f514610bda575f80fd5b8063b5ec748714610b18578063c73d983314610b44578063ca40742c14610b57578063ccc9681514610b76575f80fd5b80638628babd11610189578063a475207611610159578063a475207614610a7d578063ac9650d814610a9c578063ad3cb1cc14610abc578063b36116f614610aec575f80fd5b80638628babd14610a255780638e57277614610a3857806391d1485414610a4b578063a217fddf14610a6a575f80fd5b80637c90a6ca116101c45780637c90a6ca1461095e5780637dc0d1d0146109bd5780637f417c06146109fe5780638456cb5914610a11575f80fd5b80635cbc51eb146107c357806364eb0a71146107ef57806373d4a13a1461080e57806376c1b82f14610932575f80fd5b80632ed28ba2116102eb5780634cbd882c11610280578063536b9c7911610250578063536b9c791461072657806353e043d41461073957806354137c7e1461074c57806354fd4d501461076b5780635c975abb146107a0575f80fd5b80634cbd882c146106cd5780634f1ef286146106ec5780634fd9a8a5146106ff57806352d1902d14610712575f80fd5b806337501921116102bb57806337501921146106675780633ae6d7c3146106935780633e3c119b146106a65780633f4ba83a146106b9575f80fd5b80632ed28ba2146105ea5780632f2ff15d1461061657806336568abe146106355780633746f85814610654575f80fd5b80631ca3b0cb116103615780632b4c9a20116103315780632b4c9a20146105865780632c60185c146105995780632cc884c5146105b85780632e106f21146105d7575f80fd5b80631ca3b0cb146104c75780631e5eb1d0146104f05780631fcd4a3414610554578063248a9ca314610567575f80fd5b8063134f3f961161039c578063134f3f96146104485780631970e5ea1461045b57806319a7359b146104885780631c4fd41c1461049b575f80fd5b806301ffc9a7146103cd57806302f2855a146104015780630317b9df146104165780630cf8542f14610435575b5f80fd5b3480156103d8575f80fd5b506103ec6103e73660046142aa565b610cd0565b60405190151581526020015b60405180910390f35b61041461040f3660046142e7565b610d06565b005b348015610421575f80fd5b50610414610430366004614311565b610ddb565b6104146104433660046142e7565b610edf565b610414610456366004614559565b610f0f565b348015610466575f80fd5b5061047a6104753660046145d7565b610fb5565b6040519081526020016103f8565b6104146104963660046145ee565b610fc0565b3480156104a6575f80fd5b506104ba6104b53660046145d7565b610ff4565b6040516103f891906145fe565b3480156104d2575f80fd5b506104db61106f565b604080519283526020830191909152016103f8565b3480156104fb575f80fd5b506105046110a2565b6040516103f89190815181526020808301519082015260408083015190820152606080830151908201526080808301519082015260a0918201516001600160a01b03169181019190915260c00190565b6104146105623660046146ec565b611154565b348015610572575f80fd5b5061047a6105813660046145d7565b6112fc565b6104146105943660046142e7565b61131c565b3480156105a4575f80fd5b5061047a6105b3366004614707565b611349565b3480156105c3575f80fd5b5061047a6105d2366004614727565b61137c565b6104146105e5366004614751565b611407565b3480156105f5575f80fd5b50610609610604366004614787565b61142d565b6040516103f891906147cf565b348015610621575f80fd5b5061041461063036600461482e565b6114ae565b348015610640575f80fd5b5061041461064f36600461482e565b6114d0565b610414610662366004614311565b611508565b348015610672575f80fd5b50610686610681366004614787565b61152e565b6040516103f8919061485c565b6104146106a13660046148e0565b6115af565b6104db6106b436600461491e565b6117ca565b3480156106c4575f80fd5b50610414611a62565b3480156106d8575f80fd5b506104146106e736600461492e565b611abb565b6104146106fa366004614954565b611b81565b61041461070d366004614b5f565b611ba0565b34801561071d575f80fd5b5061047a611c46565b610414610734366004614bcf565b611c61565b610414610747366004614b5f565b611d52565b348015610757575f80fd5b5061047a6107663660046145d7565b611df8565b348015610776575f80fd5b5060408051808201909152600481526376312e3760e01b60208201525b6040516103f89190614c6d565b3480156107ab575f80fd5b505f80516020615e028339815191525460ff166103ec565b3480156107ce575f80fd5b506107e26107dd366004614c7f565b611ee4565b6040516103f89190614d68565b3480156107fa575f80fd5b506103ec6108093660046145d7565b6122f6565b348015610819575f80fd5b506108c160408051610100810182525f80825260208201819052918101829052606081018290526080810182905260a0810182905260c0810182905260e0810191909152506040805161010081018252601154815260125460208201526014546001600160a01b03908116928201929092526015548216606082015260165482166080820152601a54821660a0820152601854821660c082015260195490911660e082015290565b604080518251815260208084015190820152828201516001600160a01b039081169282019290925260608084015183169082015260808084015183169082015260a08084015183169082015260c08084015183169082015260e09283015190911691810191909152610100016103f8565b34801561093d575f80fd5b5061095161094c3660046145d7565b612302565b6040516103f89190614e0a565b348015610969575f80fd5b506109726123c8565b6040516103f891905f60c082019050825182526020830151602083015260408301516040830152606083015160608301526080830151608083015260a083015160a083015292915050565b3480156109c8575f80fd5b506109d161246c565b6040805182516001600160a01b031681526020928301516001600160401b031692810192909252016103f8565b610414610a0c366004614e18565b6124ef565b348015610a1c575f80fd5b50610414612593565b610414610a33366004614ee6565b6125ec565b610414610a463660046142e7565b612692565b348015610a56575f80fd5b506103ec610a6536600461482e565b6126bf565b348015610a75575f80fd5b5061047a5f81565b348015610a88575f80fd5b50610414610a97366004614f2a565b6126f5565b610aaf610aaa366004614f94565b612965565b6040516103f89190615002565b348015610ac7575f80fd5b50610793604051806040016040528060058152602001640352e302e360dc1b81525081565b348015610af7575f80fd5b50610b0b610b06366004614c7f565b61297a565b6040516103f89190615094565b348015610b23575f80fd5b50610b37610b323660046145d7565b612a32565b6040516103f891906150cc565b610414610b523660046146ec565b612b18565b348015610b62575f80fd5b5061047a610b71366004614c7f565b612c5b565b348015610b81575f80fd5b506103ec610b903660046145d7565b612cde565b610414610ba3366004614311565b612ce9565b348015610bb3575f80fd5b50610414610bc236600461482e565b612d0f565b610414610bd5366004614787565b612d2b565b61047a610be83660046142e7565b612d60565b348015610bf8575f80fd5b506103ec610c073660046145d7565b612eb5565b610414610c1a366004615100565b612f30565b610414610c2d366004615121565b612f5d565b610414610c403660046151ae565b613008565b348015610c50575f80fd5b50610414610c5f366004614c7f565b6130ae565b348015610c6f575f80fd5b5061047a610c7e366004614727565b61328f565b348015610c8e575f80fd5b50601c546040516001600160a01b0390911681526020016103f8565b610414610cb83660046151ae565b6132df565b610414610ccb366004615121565b613385565b5f6001600160e01b03198216637965db0b60e01b1480610d0057506301ffc9a760e01b6001600160e01b03198316145b92915050565b610d0e6133b9565b604051635fed4de960e01b815273__$1ffb1d284a100711dc8ce94ffbdfd13eea$__90635fed4de990610d47905f9085906004016151c8565b5f6040518083038186803b158015610d5d575f80fd5b505af4158015610d6f573d5f803e3d5ffd5b505060405163d96aec4360e01b815273__$1ffb1d284a100711dc8ce94ffbdfd13eea$__925063d96aec439150610dac905f9085906004016151c8565b5f6040518083038186803b158015610dc2575f80fd5b505af4158015610dd4573d5f803e3d5ffd5b5050505050565b5f610de681336133eb565b610e115760405163e2517d3f60e01b8152336004820152602481018290526044015b60405180910390fd5b60405163e57980dd60e01b815273__$72c16261390208f563094e6a4fc9f74031$__9063e57980dd90610e4a905f90869060040161520a565b5f6040518083038186803b158015610e60575f80fd5b505af4158015610e72573d5f803e3d5ffd5b5050604051634752b3b360e01b815273__$72c16261390208f563094e6a4fc9f74031$__9250634752b3b39150610eaf905f90869060040161520a565b5f6040518083038186803b158015610ec5575f80fd5b505af4158015610ed7573d5f803e3d5ffd5b505050505050565b610f0c604051806040016040528083803603810190610efe919061528e565b8152336020909101526132df565b50565b610f176133b9565b6040516333d4ade560e01b815273__$f56cb86c34e0dd0dca51f5a3538433e18c$__906333d4ade590610f50905f9085906004016152a8565b5f6040518083038186803b158015610f66575f80fd5b505af4158015610f78573d5f803e3d5ffd5b505060405163178bcac760e11b815273__$f56cb86c34e0dd0dca51f5a3538433e18c$__9250632f17958e9150610dac905f9085906004016152a8565b5f610d008183613494565b610f0c604051806060016040528083803603810190610fdf9190614787565b81523360208201819052604090910152611154565b6040516303eb153f60e51b81525f60048201819052602482018390529073__$674c94602fbdb88ca53d9ba4295c8813fa$__90637d62a7e090604401602060405180830381865af415801561104b573d5f803e3d5ffd5b505050506040513d601f19601f82011682018060405250810190610d009190615318565b6011545f90819061108190829061534a565b61108d60025f1961535d565b60125461109a919061534a565b915091509091565b6110de6040518060c001604052805f81526020015f81526020015f81526020015f81526020015f81526020015f6001600160a01b031681525090565b6040516386617e7760e01b81525f600482015273__$72c16261390208f563094e6a4fc9f74031$__906386617e779060240160c060405180830381865af415801561112b573d5f803e3d5ffd5b505050506040513d601f19601f8201168201806040525081019061114f919061537c565b905090565b61115c6133b9565b604051631e55c20b60e31b815273__$909b104b05b98ab9b02bd00c4a2f54926d$__9063f2ae105890611195905f908590600401615456565b5f6040518083038186803b1580156111ab575f80fd5b505af41580156111bd573d5f803e3d5ffd5b5050604051630f6470bd60e01b81525f925073__$909b104b05b98ab9b02bd00c4a2f54926d$__9150630f6470bd906111fc9084908690600401615456565b602060405180830381865af4158015611217573d5f803e3d5ffd5b505050506040513d601f19601f8201168201806040525081019061123b919061546b565b8251602001519091506001016112be578151516040516316bbd7db60e11b81525f60048201526001600160a01b03909116602482015273__$b44e0fdf2f6bdeffc1681a5a467d23dde6$__90632d77afb6906044015b5f6040518083038186803b1580156112a7575f80fd5b505af41580156112b9573d5f803e3d5ffd5b505050505b60405163bfbfe8ab60e01b81525f60048201526024810182905273__$bfec599912fc5b0c81449b9d06b4dcb311$__9063bfbfe8ab90604401610eaf565b5f9081525f80516020615de2833981519152602052604090206001015490565b610f0c60405180604001604052808380360381019061133b919061528e565b815233602090910152613008565b5f815f0361136a576040516301c85f6760e71b815260040160405180910390fd5b6113755f8484613694565b9392505050565b60405163327ad2cd60e01b81525f600482018190526001600160a01b0384166024830152604482018390529073__$fad1da84a532053b53119316a58e977f10$__9063327ad2cd906064015b602060405180830381865af41580156113e3573d5f803e3d5ffd5b505050506040513d601f19601f82011682018060405250810190611375919061546b565b610f0c60405180604001604052808361141f90615482565b815233602090910152610f0f565b6114356140de565b604051631c81982560e11b815273__$909b104b05b98ab9b02bd00c4a2f54926d$__90633903304a9061146e905f90869060040161548d565b61014060405180830381865af415801561148a573d5f803e3d5ffd5b505050506040513d601f19601f82011682018060405250810190610d0091906154f8565b6114b7826112fc565b6114c0816136b9565b6114ca83836136c3565b50505050565b6001600160a01b03811633146114f95760405163334bd91960e11b815260040160405180910390fd5b611503828261376b565b505050565b610f0c60405180604001604052808361152090615570565b815233602090910152611d52565b611536614124565b60405163301d1d1560e21b815273__$c58e2605104bb31274ad8c04841b6a7550$__9063c07474549061156f905f90869060040161548d565b61012060405180830381865af415801561158b573d5f803e3d5ffd5b505050506040513d601f19601f82011682018060405250810190610d00919061557b565b6115b76133b9565b602081015160405163046dbd1360e11b81525f600482018190526001600160a01b03831660248301529073__$b44e0fdf2f6bdeffc1681a5a467d23dde6$__906308db7a2690604401602060405180830381865af415801561161b573d5f803e3d5ffd5b505050506040513d601f19601f8201168201806040525081019061163f919061546b565b60405163f9c417bd60e01b815290915073__$7fa168b5d238863382c2bf886894022425$__9063f9c417bd9061167b905f9087906004016155dd565b5f6040518083038186803b158015611691575f80fd5b505af41580156116a3573d5f803e3d5ffd5b5050604051634971bf9960e01b815273__$7fa168b5d238863382c2bf886894022425$__9250634971bf9991506116e0905f9087906004016155dd565b5f6040518083038186803b1580156116f6575f80fd5b505af4158015611708573d5f803e3d5ffd5b505060405163046dbd1360e11b81525f600482018190526001600160a01b0386166024830152925073__$b44e0fdf2f6bdeffc1681a5a467d23dde6$__91506308db7a2690604401602060405180830381865af415801561176b573d5f803e3d5ffd5b505050506040513d601f19601f8201168201806040525081019061178f919061546b565b90508181116114ca5760405163625a84dd60e01b81526001600160a01b03841660048201526024810183905260448101829052606401610e08565b5f806117d46133b9565b7ffc8737ab85eb45125971625a9ebdb75cc78e01d5c1fa80c4c6e5203f47bc4fab6117ff81336133eb565b6118255760405163e2517d3f60e01b815233600482015260248101829052604401610e08565b604051639f53ee0f60e01b815273__$d00168f5747027b5a56099c751031d7e40$__90639f53ee0f9061185e905f908890600401615658565b5f6040518083038186803b158015611874575f80fd5b505af4158015611886573d5f803e3d5ffd5b505060405163647a4b7560e11b81525f925073__$d00168f5747027b5a56099c751031d7e40$__915063c8f496ea906118c59084908990600401615658565b606060405180830381865af41580156118e0573d5f803e3d5ffd5b505050506040513d601f19601f82011682018060405250810190611904919061566c565b9095509350905073__$b44e0fdf2f6bdeffc1681a5a467d23dde6$__632d77afb65f6119366040890160208a01614c7f565b6040516001600160e01b031960e085901b16815260048101929092526001600160a01b031660248201526044015f6040518083038186803b158015611979575f80fd5b505af415801561198b573d5f803e3d5ffd5b5050604051636e6595c160e01b815273__$d00168f5747027b5a56099c751031d7e40$__9250636e6595c191506119ca905f9089908990600401615697565b5f6040518083038186803b1580156119e0575f80fd5b505af41580156119f2573d5f803e3d5ffd5b505060405163bfbfe8ab60e01b81525f60048201526024810184905273__$bfec599912fc5b0c81449b9d06b4dcb311$__925063bfbfe8ab91506044015f6040518083038186803b158015611a45575f80fd5b505af4158015611a57573d5f803e3d5ffd5b505050505050915091565b7f65d7a28e3265b37a6474929f336521b332c1681b933f6cb9f3376673440d862a611a8d81336133eb565b611ab35760405163e2517d3f60e01b815233600482015260248101829052604401610e08565b610f0c6137e4565b7f1eae1854c74a696c6de86fd3c6383d5c1e2c33fbc86e1aa6b6c872d95bd24038611ae681336133eb565b611b0c5760405163e2517d3f60e01b815233600482015260248101829052604401610e08565b600d80546001600160801b038481166001600160c01b031983168117600160801b426001600160401b031602179093556040805191909216808252602082019390935233917f26b8010a81fad3e15c7545637c99390bdeb250bf0a67e4cf43c3d220ec2acc31910160405180910390a2505050565b611b89613843565b611b92826138e7565b611b9c8282613918565b5050565b611ba86133b9565b604051637125eda960e11b815273__$339bef8b42d49ef7fc0392a1b9554f9551$__9063e24bdb5290611be1905f90859060040161576c565b5f6040518083038186803b158015611bf7575f80fd5b505af4158015611c09573d5f803e3d5ffd5b505060405163184d91f360e31b815273__$339bef8b42d49ef7fc0392a1b9554f9551$__925063c26c8f989150610dac905f90859060040161576c565b5f611c4f6139d4565b505f80516020615dc283398151915290565b611c696133b9565b604080516325f2df6f60e01b81525f6004820152825151602482015260208301516001600160a01b03908116604483015291830151909116606482015273__$c19cfa413da1baf02a2307c9fe3d8deda6$__906325f2df6f906084015f6040518083038186803b158015611cdb575f80fd5b505af4158015611ced573d5f803e3d5ffd5b5050604080516330e78a9160e11b81525f6004820152845151602482015260208501516001600160a01b03908116604483015291850151909116606482015273__$c19cfa413da1baf02a2307c9fe3d8deda6$__92506361cf15229150608401610dac565b611d5a6133b9565b604051632d0c1e8b60e01b815273__$f215670302542f95b8fc754ac02a4bfcb4$__90632d0c1e8b90611d93905f90859060040161576c565b5f6040518083038186803b158015611da9575f80fd5b505af4158015611dbb573d5f803e3d5ffd5b505060405163c0c66ed960e01b815273__$f215670302542f95b8fc754ac02a4bfcb4$__925063c0c66ed99150610dac905f90859060040161576c565b604051634c9829bf60e11b81525f600482018190526024820183905290819073__$674c94602fbdb88ca53d9ba4295c8813fa$__90639930537e90604401602060405180830381865af4158015611e51573d5f803e3d5ffd5b505050506040513d601f19601f82011682018060405250810190611e75919061546b565b6040805160808101825282546001600160a01b03168152600183015460208201526002830154818301526003909201546060830152516345ffd36d60e01b815290915073__$674c94602fbdb88ca53d9ba4295c8813fa$__906345ffd36d906113c8905f908590600401615784565b611eec61415b565b604080516001600160a01b0384165f908152600e60209081529083902061016083018452805461012084019081528451600183018054608095810283018601909752606082018781529596879660a088019687959487946101408b01949193909284928491840182828015611f7e57602002820191905f5260205f20905b815481526020019060010190808311611f6a575b5050505050815260200160018201805480602002602001604051908101604052809291908181526020018280548015611fd457602002820191905f5260205f20905b815481526020019060010190808311611fc0575b505050505081526020016002820180548060200260200160405190810160405280929190818152602001828054801561202a57602002820191905f5260205f20905b815481526020019060010190808311612016575b505050505081525050815250508152602001600482016040518060400160405290815f8201548152602001600182016040518060600160405290815f82018054806020026020016040519081016040528092919081815260200182805480156120b057602002820191905f5260205f20905b81548152602001906001019080831161209c575b505050505081526020016001820180548060200260200160405190810160405280929190818152602001828054801561210657602002820191905f5260205f20905b8154815260200190600101908083116120f2575b505050505081526020016002820180548060200260200160405190810160405280929190818152602001828054801561215c57602002820191905f5260205f20905b815481526020019060010190808311612148575b505050919092525050509052508152600882015460208083019190915260099092015460ff1615156040918201529183526001600160a01b0386811691840182905260165483516370a0823160e01b815260048101939093529390920192909116906370a0823190602401602060405180830381865afa1580156121e2573d5f803e3d5ffd5b505050506040513d601f19601f82011682018060405250810190612206919061546b565b8152601a546040516370a0823160e01b81526001600160a01b038681166004830152602090930192909116906370a0823190602401602060405180830381865afa158015612256573d5f803e3d5ffd5b505050506040513d601f19601f8201168201806040525081019061227a919061546b565b81526018546040516370a0823160e01b81526001600160a01b038681166004830152602090930192909116906370a0823190602401602060405180830381865afa1580156122ca573d5f803e3d5ffd5b505050506040513d601f19601f820116820180604052508101906122ee919061546b565b905292915050565b6011545f908210610d00565b61230a614195565b604051633978289f60e01b81525f60048201526024810183905273__$674c94602fbdb88ca53d9ba4295c8813fa$__90633978289f90604401602060405180830381865af415801561235e573d5f803e3d5ffd5b505050506040513d601f19601f82011682018060405250810190612382919061546b565b6040805160808101825282546001600160a01b0381168252600160a01b900460ff1615156020820152600183015491810191909152600290910154606082015292915050565b6123fb6040518060c001604052805f81526020015f81526020015f81526020015f81526020015f81526020015f81525090565b604051636e9bc7eb60e11b81525f600482015273__$72c16261390208f563094e6a4fc9f74031$__9063dd378fd69060240160c060405180830381865af4158015612448573d5f803e3d5ffd5b505050506040513d601f19601f8201168201806040525081019061114f91906157bf565b604080518082019091525f8082526020820152604051631ae5e80160e31b81525f600482015273__$72c16261390208f563094e6a4fc9f74031$__9063d72f4008906024016040805180830381865af41580156124cb573d5f803e3d5ffd5b505050506040513d601f19601f8201168201806040525081019061114f919061582b565b6124f76133b9565b6040516210aa0b60e31b815273__$45d7492db284be01938913cb41b9cac2a6$__90628550589061252e905f90859060040161585e565b5f6040518083038186803b158015612544575f80fd5b505af4158015612556573d5f803e3d5ffd5b50506040516364140a8360e01b815273__$45d7492db284be01938913cb41b9cac2a6$__92506364140a839150610dac905f90859060040161585e565b7f65d7a28e3265b37a6474929f336521b332c1681b933f6cb9f3376673440d862a6125be81336133eb565b6125e45760405163e2517d3f60e01b815233600482015260248101829052604401610e08565b610f0c613a1d565b6125f46133b9565b6040516315868ea760e21b815273__$41bd1ea6f49e3611a223dba0ae97878d32$__9063561a3a9c9061262d905f908590600401615896565b5f6040518083038186803b158015612643575f80fd5b505af4158015612655573d5f803e3d5ffd5b50506040516389e70deb60e01b815273__$41bd1ea6f49e3611a223dba0ae97878d32$__92506389e70deb9150610dac905f908590600401615896565b610f0c6040518060400160405280838036038101906126b191906158f0565b8152336020909101526115af565b5f9182525f80516020615de2833981519152602090815260408084206001600160a01b0393909316845291905290205460ff1690565b5f6126fe613a65565b805490915060ff600160401b82041615906001600160401b03165f811580156127245750825b90505f826001600160401b0316600114801561273f5750303b155b90508115801561274d575080155b1561276b5760405163f92ee8a960e01b815260040160405180910390fd5b845467ffffffffffffffff19166001178555831561279557845460ff60401b1916600160401b1785555b6040516369777eb960e01b815273__$d02cb2608d6f3ad3f53f4dd3f26f81b8ea$__906369777eb9906127d6905f908e908e908e908e908e90600401615a23565b5f6040518083038186803b1580156127ec575f80fd5b505af41580156127fe573d5f803e3d5ffd5b5050505061280a613a8d565b612812613a8d565b61281a613a8d565b604051632ffdac7160e21b815273__$d02cb2608d6f3ad3f53f4dd3f26f81b8ea$__9063bff6b1c490612859905f908d908d908d908d90600401615aad565b5f6040518083038186803b15801561286f575f80fd5b505af4158015612881573d5f803e3d5ffd5b505050506128915f801b8b6136c3565b506128bc7f65d7a28e3265b37a6474929f336521b332c1681b933f6cb9f3376673440d862a8b6136c3565b506128e77ffc8737ab85eb45125971625a9ebdb75cc78e01d5c1fa80c4c6e5203f47bc4fab8b6136c3565b506129127f1eae1854c74a696c6de86fd3c6383d5c1e2c33fbc86e1aa6b6c872d95bd240388b6136c3565b50831561295957845460ff60401b19168555604051600181527fc7f505b2f371ae2175ee4913f4499e1f2633a7b5936321eed1cdaeb6115181d29060200160405180910390a15b50505050505050505050565b606061296f6133b9565b6113755f8484613a95565b6129826141c4565b506001600160a01b039081165f908152601b602090815260409182902082516060808201855282549095168152835160a08082018652600184015482526002840154828601526003840154828701526004840154828801526005840154608080840191909152838601929092528551908101865260068401548152600784015494810194909452600883015484860152600983015495840195909552600a90910154938201939093529082015290565b612a6260405180608001604052805f6001600160a01b031681526020015f81526020015f81526020015f81525090565b604051634c9829bf60e11b81525f60048201526024810183905273__$674c94602fbdb88ca53d9ba4295c8813fa$__90639930537e90604401602060405180830381865af4158015612ab6573d5f803e3d5ffd5b505050506040513d601f19601f82011682018060405250810190612ada919061546b565b6040805160808101825282546001600160a01b0316815260018301546020820152600283015491810191909152600390910154606082015292915050565b612b206133b9565b60405163160b9e6b60e31b815273__$c58e2605104bb31274ad8c04841b6a7550$__9063b05cf35890612b59905f908590600401615456565b5f6040518083038186803b158015612b6f575f80fd5b505af4158015612b81573d5f803e3d5ffd5b5050604051639f46aa4160e01b81525f925073__$c58e2605104bb31274ad8c04841b6a7550$__9150639f46aa4190612bc09084908690600401615456565b602060405180830381865af4158015612bdb573d5f803e3d5ffd5b505050506040513d601f19601f82011682018060405250810190612bff919061546b565b8251602001519091506001016112be5760208201516040516316bbd7db60e11b81525f60048201526001600160a01b03909116602482015273__$b44e0fdf2f6bdeffc1681a5a467d23dde6$__90632d77afb690604401611291565b60405163046dbd1360e11b81525f600482018190526001600160a01b03831660248301529073__$b44e0fdf2f6bdeffc1681a5a467d23dde6$__906308db7a2690604401602060405180830381865af4158015612cba573d5f803e3d5ffd5b505050506040513d601f19601f82011682018060405250810190610d00919061546b565b5f610d008183613dfc565b610f0c604051806040016040528083612d0190615570565b815233602090910152611ba0565b612d18826112fc565b612d21816136b9565b6114ca838361376b565b610f0c6040518060600160405280838152602001336001600160a01b03168152602001336001600160a01b0316815250612b18565b5f612d696133b9565b6040516320b5435f60e11b815273__$04d32033081e1e9356971d8f4b5098bcad$__9063416a86be90612da2905f908690600401615b26565b5f6040518083038186803b158015612db8575f80fd5b505af4158015612dca573d5f803e3d5ffd5b5050604051630d0699cb60e21b815273__$04d32033081e1e9356971d8f4b5098bcad$__925063341a672c9150612e07905f908690600401615b26565b602060405180830381865af4158015612e22573d5f803e3d5ffd5b505050506040513d601f19601f82011682018060405250810190612e46919061546b565b60405163489d188160e01b815290915073__$04d32033081e1e9356971d8f4b5098bcad$__9063489d188190612e84905f9086908690600401615b4e565b5f6040518083038186803b158015612e9a575f80fd5b505af4158015612eac573d5f803e3d5ffd5b50505050919050565b604051631928c8e960e11b81525f60048201819052602482018390529073__$b44e0fdf2f6bdeffc1681a5a467d23dde6$__9063325191d290604401602060405180830381865af4158015612f0c573d5f803e3d5ffd5b505050506040513d601f19601f82011682018060405250810190610d009190615b84565b610f0c604051806040016040528083803603810190612f4f9190615b9f565b8152336020909101526125ec565b612f656133b9565b604051635792057f60e11b81525f60048201528135602482015273__$ebce6ba8505acc62d937fb713060c40a3c$__9063af240afe906044015f6040518083038186803b158015612fb4575f80fd5b505af4158015612fc6573d5f803e3d5ffd5b50506040516320e9b9f960e11b81525f60048201528335602482015273__$ebce6ba8505acc62d937fb713060c40a3c$__92506341d373f29150604401610dac565b6130106133b9565b604051631005beb160e31b815273__$7947dedfaba9c59621bd8bcc87e3fb80f1$__9063802df58890613049905f908590600401615bba565b5f6040518083038186803b15801561305f575f80fd5b505af4158015613071573d5f803e3d5ffd5b5050604051631cc17ae560e31b815273__$7947dedfaba9c59621bd8bcc87e3fb80f1$__925063e60bd7289150610dac905f908590600401615bba565b5f6130b981336133eb565b6130df5760405163e2517d3f60e01b815233600482015260248101829052604401610e08565b6129cc5f6130eb613a65565b8054909150600160401b900460ff1680613112575080546001600160401b03808416911610155b156131305760405163f92ee8a960e01b815260040160405180910390fd5b805468ffffffffffffffffff19166001600160401b03831617600160401b1781556001600160a01b0384166131785760405163de0ce17d60e01b815260040160405180910390fd5b601c546001600160a01b0316156131a25760405163f1b06c8d60e01b815260040160405180910390fd5b6040516337649a6d60e11b81523060048201526001600160a01b03851690636ec934da90602401602060405180830381865afa1580156131e4573d5f803e3d5ffd5b505050506040513d601f19601f820116820180604052508101906132089190615b84565b6132275760405163e2a7bea360e01b8152306004820152602401610e08565b601c80546001600160a01b0319166001600160a01b038616179055805460ff60401b191681556040516001600160401b03831681527fc7f505b2f371ae2175ee4913f4499e1f2633a7b5936321eed1cdaeb6115181d29060200160405180910390a150505050565b6040516333c7c71f60e01b81525f600482018190526001600160a01b0384166024830152604482018390529073__$fad1da84a532053b53119316a58e977f10$__906333c7c71f906064016113c8565b6132e76133b9565b60405163024889b160e51b815273__$d49e499a4608ab3aca09b91fe5950492b6$__90634911362090613320905f908590600401615bba565b5f6040518083038186803b158015613336575f80fd5b505af4158015613348573d5f803e3d5ffd5b505060405163a083c0ab60e01b815273__$d49e499a4608ab3aca09b91fe5950492b6$__925063a083c0ab9150610dac905f908590600401615bba565b610f0c6040518060600160405280838036038101906133a49190615bff565b81523360208201819052604090910152611c61565b5f80516020615e028339815191525460ff16156133e95760405163d93c066560e01b815260040160405180910390fd5b565b5f6133f683836126bf565b1561340357506001610d00565b601c546001600160a01b031661341a57505f610d00565b601c54604051632474521560e21b8152600481018590526001600160a01b038481166024830152909116906391d1485490604401602060405180830381865afa158015613469573d5f803e3d5ffd5b505050506040513d601f19601f8201168201806040525081019061348d9190615b84565b9050610d00565b5f61137583600c015f015f9054906101000a90046001600160a01b03166001600160a01b031663313ce5676040518163ffffffff1660e01b8152600401602060405180830381865afa1580156134ec573d5f803e3d5ffd5b505050506040513d601f19601f82011682018060405250810190613510919061546b565b61351b90600a615cf9565b6135259084615d04565b60148501546040805163313ce56760e01b815290516001600160a01b039092169163313ce567916004808201926020929091908290030181865afa15801561356f573d5f803e3d5ffd5b505050506040513d601f19601f820116820180604052508101906135939190615d1b565b61359e90600a615d3b565b60158601546040805163313ce56760e01b815290516001600160a01b039092169163313ce567916004808201926020929091908290030181865afa1580156135e8573d5f803e3d5ffd5b505050506040513d601f19601f8201168201806040525081019061360c9190615d1b565b61361790600a615d3b565b600c87015460408051634c6afee560e11b815290516001600160a01b03909216916398d5fdca916004808201926020929091908290030181865afa158015613661573d5f803e3d5ffd5b505050506040513d601f19601f82011682018060405250810190613685919061546b565b61368f9190615d04565b613e1f565b5f6136b1836136a38685613e2b565b670de0b6b3a7640000613e1f565b949350505050565b610f0c8133613e3e565b5f5f80516020615de28339815191526136dc84846126bf565b61375b575f848152602082815260408083206001600160a01b03871684529091529020805460ff191660011790556137113390565b6001600160a01b0316836001600160a01b0316857f2f8788117e7eff1d82e926ec794901d17c78024a50270940304540a733656f0d60405160405180910390a46001915050610d00565b5f915050610d00565b5092915050565b5f5f80516020615de283398151915261378484846126bf565b1561375b575f848152602082815260408083206001600160a01b0387168085529252808320805460ff1916905551339287917ff6391f5c32d9c69d2a47ea670b442974b53935d1edc7fd64eb21e047a839171b9190a46001915050610d00565b6137ec613e77565b5f80516020615e02833981519152805460ff191681557f5db9ee0a495bf2e6ff9c91a7834c1ba4fdd244a5e8aa4e537bd38aeae4b073aa335b6040516001600160a01b03909116815260200160405180910390a150565b306001600160a01b037f00000000000000000000000000000000000000000000000000000000000000001614806138c957507f00000000000000000000000000000000000000000000000000000000000000006001600160a01b03166138bd5f80516020615dc2833981519152546001600160a01b031690565b6001600160a01b031614155b156133e95760405163703e46dd60e11b815260040160405180910390fd5b5f6138f281336133eb565b611b9c5760405163e2517d3f60e01b815233600482015260248101829052604401610e08565b816001600160a01b03166352d1902d6040518163ffffffff1660e01b8152600401602060405180830381865afa925050508015613972575060408051601f3d908101601f1916820190925261396f9181019061546b565b60015b61399a57604051634c9c8ce360e01b81526001600160a01b0383166004820152602401610e08565b5f80516020615dc283398151915281146139ca57604051632a87526960e21b815260048101829052602401610e08565b6115038383613ea6565b306001600160a01b037f000000000000000000000000000000000000000000000000000000000000000016146133e95760405163703e46dd60e11b815260040160405180910390fd5b613a256133b9565b5f80516020615e02833981519152805460ff191660011781557f62e78cea01bee320cd4e420270b5ea74000d11b0c9f74754ebdbfc544b05a25833613825565b5f807ff0c57e16840df040f15088dc2f81fe391c3923bec73e23a9662efc9c229c6a00610d00565b6133e9613efb565b60198301805460ff60a01b1916600160a01b179055601a830154604080516318160ddd60e01b815290516060925f926001600160a01b03909116916318160ddd916004808201926020929091908290030181865afa158015613af9573d5f803e3d5ffd5b505050506040513d601f19601f82011682018060405250810190613b1d919061546b565b90505f85600e01600a015f9054906101000a90046001600160a01b03166001600160a01b03166318160ddd6040518163ffffffff1660e01b8152600401602060405180830381865afa158015613b75573d5f803e3d5ffd5b505050506040513d601f19601f82011682018060405250810190613b99919061546b565b9050836001600160401b03811115613bb357613bb3614342565b604051908082528060200260200182016040528015613be657816020015b6060815260200190600190039081613bd15790505b5092505f5b84811015613c7957613c5430878784818110613c0957613c09615d49565b9050602002810190613c1b9190615d5d565b8080601f0160208091040260200160405190810160405280939291908181526020018383808284375f92019190915250613f2092505050565b848281518110613c6657613c66615d49565b6020908102919091010152600101613beb565b50601a860154604080516318160ddd60e01b815290515f926001600160a01b0316916318160ddd9160048083019260209291908290030181865afa158015613cc3573d5f803e3d5ffd5b505050506040513d601f19601f82011682018060405250810190613ce7919061546b565b90505f87600e01600a015f9054906101000a90046001600160a01b03166001600160a01b03166318160ddd6040518163ffffffff1660e01b8152600401602060405180830381865afa158015613d3f573d5f803e3d5ffd5b505050506040513d601f19601f82011682018060405250810190613d63919061546b565b60405163111a6a5d60e31b8152600481018a90526024810186905260448101859052606481018490526084810182905290915073__$bfec599912fc5b0c81449b9d06b4dcb311$__906388d352e89060a4015f6040518083038186803b158015613dcb575f80fd5b505af4158015613ddd573d5f803e3d5ffd5b5050506019909801805460ff60a01b1916905550929695505050505050565b5f613e0960025f1961535d565b8210158015611375575050601291909101541190565b5f6136b1848484613f92565b81545f9061137590836301e13380613e1f565b613e4882826126bf565b611b9c5760405163e2517d3f60e01b81526001600160a01b038216600482015260248101839052604401610e08565b5f80516020615e028339815191525460ff166133e957604051638dfc202b60e01b815260040160405180910390fd5b613eaf82613fbe565b6040516001600160a01b038316907fbc7cd75a20ee27fd9adebab32041f755214dbc6bffa90cc0225b39da2e5c2d3b905f90a2805115613ef3576115038282613f20565b611b9c614021565b613f03614040565b6133e957604051631afcd79f60e31b815260040160405180910390fd5b60605f80846001600160a01b031684604051613f3c9190615da6565b5f60405180830381855af49150503d805f8114613f74576040519150601f19603f3d011682016040523d82523d5f602084013e613f79565b606091505b5091509150613f89858383614059565b95945050505050565b5f825f190484118302158202613faf5763ad251c275f526004601cfd5b50910281810615159190040190565b806001600160a01b03163b5f03613ff357604051634c9c8ce360e01b81526001600160a01b0382166004820152602401610e08565b5f80516020615dc283398151915280546001600160a01b0319166001600160a01b0392909216919091179055565b34156133e95760405163b398979f60e01b815260040160405180910390fd5b5f614049613a65565b54600160401b900460ff16919050565b60608261406e57614069826140b5565b611375565b815115801561408557506001600160a01b0384163b155b156140ae57604051639996b31560e01b81526001600160a01b0385166004820152602401610e08565b5080611375565b8051156140c55780518082602001fd5b60405163d6bda27560e01b815260040160405180910390fd5b6040518060e001604052806140f1614195565b81526020015f6001600160a01b031681526020015f81526020015f81526020015f81526020015f81526020015f81525090565b6040518060c00160405280614137614195565b81526020015f81526020015f81526020015f81526020015f81526020015f81525090565b6040518060a0016040528061416e614242565b81526020015f6001600160a01b031681526020015f81526020015f81526020015f81525090565b60405180608001604052805f6001600160a01b031681526020015f151581526020015f81526020015f81525090565b60405180606001604052805f6001600160a01b0316815260200161420b6040518060a001604052805f81526020015f81526020015f81526020015f81526020015f81525090565b815260200161423d6040518060a001604052805f81526020015f81526020015f81526020015f81526020015f81525090565b905290565b6040518060800160405280614255614275565b8152602001614262614275565b81525f6020820181905260409091015290565b60405180604001604052805f815260200161423d60405180606001604052806060815260200160608152602001606081525090565b5f602082840312156142ba575f80fd5b81356001600160e01b031981168114611375575f80fd5b5f606082840312156142e1575f80fd5b50919050565b5f606082840312156142f7575f80fd5b61137583836142d1565b5f604082840312156142e1575f80fd5b5f60208284031215614321575f80fd5b81356001600160401b03811115614336575f80fd5b6136b184828501614301565b634e487b7160e01b5f52604160045260245ffd5b604051608081016001600160401b038111828210171561437857614378614342565b60405290565b604080519081016001600160401b038111828210171561437857614378614342565b60405160e081016001600160401b038111828210171561437857614378614342565b604051606081016001600160401b038111828210171561437857614378614342565b60405160c081016001600160401b038111828210171561437857614378614342565b604051601f8201601f191681016001600160401b038111828210171561442e5761442e614342565b604052919050565b8015158114610f0c575f80fd5b5f6001600160401b0382111561445b5761445b614342565b5060051b60200190565b5f82601f830112614474575f80fd5b8135602061448961448483614443565b614406565b8083825260208201915060208460051b8701019350868411156144aa575f80fd5b602086015b848110156144c657803583529183019183016144af565b509695505050505050565b5f608082840312156144e1575f80fd5b6144e9614356565b90508135815260208201356144fd81614436565b6020820152604082013561451081614436565b604082015260608201356001600160401b0381111561452d575f80fd5b61453984828501614465565b60608301525092915050565b6001600160a01b0381168114610f0c575f80fd5b5f60208284031215614569575f80fd5b81356001600160401b038082111561457f575f80fd5b9083019060408286031215614592575f80fd5b61459a61437e565b8235828111156145a8575f80fd5b6145b4878286016144d1565b825250602083013592506145c783614545565b6020810192909252509392505050565b5f602082840312156145e7575f80fd5b5035919050565b5f60e082840312156142e1575f80fd5b602081016003831061461e57634e487b7160e01b5f52602160045260245ffd5b91905290565b5f60e08284031215614634575f80fd5b61463c6143a0565b9050813561464981614545565b808252506020820135602082015260408201356040820152606082013560608201526080820135608082015260a082013560a082015260c082013561468d81614436565b60c082015292915050565b5f61012082840312156146a9575f80fd5b6146b16143c2565b90506146bd8383614624565b815260e08201356146cd81614545565b60208201526101008201356146e181614545565b604082015292915050565b5f61012082840312156146fd575f80fd5b6113758383614698565b5f8060408385031215614718575f80fd5b50508035926020909101359150565b5f8060408385031215614738575f80fd5b823561474381614545565b946020939093013593505050565b5f60208284031215614761575f80fd5b81356001600160401b03811115614776575f80fd5b820160808185031215611375575f80fd5b5f60e08284031215614797575f80fd5b6113758383614624565b80516001600160a01b0316825260208082015115159083015260408082015190830152606090810151910152565b5f610140820190506147e28284516147a1565b60018060a01b036020840151166080830152604083015160a0830152606083015160c0830152608083015160e083015260a083015161010083015260c083015161012083015292915050565b5f806040838503121561483f575f80fd5b82359150602083013561485181614545565b809150509250929050565b5f6101208201905061486f8284516147a1565b60208301516080830152604083015160a0830152606083015160c0830152608083015160e083015260a083015161010083015292915050565b5f606082840312156148b8575f80fd5b6148c06143c2565b905081358152602082013560208201526040820135604082015292915050565b5f608082840312156148f0575f80fd5b6148f861437e565b61490284846148a8565b8152606083013561491281614545565b60208201529392505050565b5f60a082840312156142e1575f80fd5b5f6020828403121561493e575f80fd5b81356001600160801b0381168114611375575f80fd5b5f8060408385031215614965575f80fd5b823561497081614545565b91506020838101356001600160401b038082111561498c575f80fd5b818601915086601f83011261499f575f80fd5b8135818111156149b1576149b1614342565b6149c3601f8201601f19168501614406565b915080825287848285010111156149d8575f80fd5b80848401858401375f848284010152508093505050509250929050565b5f60408284031215614a05575f80fd5b614a0d61437e565b9050813581526020808301356001600160401b0380821115614a2d575f80fd5b9084019060608287031215614a40575f80fd5b614a486143c2565b823582811115614a56575f80fd5b614a6288828601614465565b8252508383013582811115614a75575f80fd5b8301601f81018813614a85575f80fd5b8035614a9361448482614443565b81815260059190911b8201860190868101908a831115614ab1575f80fd5b928701925b82841015614acf57833582529287019290870190614ab6565b84880152505050604083013582811115614ae7575f80fd5b614af388828601614465565b60408301525080848601525050505092915050565b5f60408284031215614b18575f80fd5b614b2061437e565b905081356001600160401b03811115614b37575f80fd5b614b43848285016149f5565b8252506020820135614b5481614545565b602082015292915050565b5f60208284031215614b6f575f80fd5b81356001600160401b03811115614b84575f80fd5b6136b184828501614b08565b5f60208284031215614ba0575f80fd5b604051602081018181106001600160401b0382111715614bc257614bc2614342565b6040529135825250919050565b5f60608284031215614bdf575f80fd5b614be76143c2565b614bf18484614b90565b81526020830135614c0181614545565b60208201526040830135614c1481614545565b60408201529392505050565b5f5b83811015614c3a578181015183820152602001614c22565b50505f910152565b5f8151808452614c59816020860160208601614c20565b601f01601f19169290920160200192915050565b602081525f6113756020830184614c42565b5f60208284031215614c8f575f80fd5b813561137581614545565b5f815180845260208085019450602084015f5b83811015614cc957815187529582019590820190600101614cad565b509495945050505050565b805182525f602080830151604082860152805160606040870152614cfb60a0870182614c9a565b83830151603f19888303810160608a0152815180845291860193505f929091908601905b80841015614d3f5784518252938601936001939093019290860190614d1f565b5060408501519550818982030160808a0152614d5b8187614c9a565b9998505050505050505050565b602081525f825160a060208401528051608060c0850152614d8d610140850182614cd4565b9050602082015160bf198583030160e0860152614daa8282614cd4565b91505060408201516101008501526060820151151561012085015260208501519150614de160408501836001600160a01b03169052565b6040850151606085015260608501516080850152608085015160a0850152809250505092915050565b60808101610d0082846147a1565b5f60408284031215614e28575f80fd5b6113758383614301565b5f60a08284031215614e42575f80fd5b60405160a081018181106001600160401b0382111715614e6457614e64614342565b806040525080915082358152602083013560208201526040830135604082015260608301356060820152608083013560808201525092915050565b5f6101608284031215614eb0575f80fd5b614eb86143c2565b90508135614ec581614545565b8152614ed48360208401614e32565b60208201526146e18360c08401614e32565b5f6101808284031215614ef7575f80fd5b614eff61437e565b614f098484614e9f565b815261016083013561491281614545565b5f60c082840312156142e1575f80fd5b5f805f805f6102a08688031215614f3f575f80fd5b8535614f4a81614545565b9450614f598760208801614f1a565b9350614f688760e08801614f1a565b9250614f78876101a08801614301565b9150614f88876101e08801614f1a565b90509295509295909350565b5f8060208385031215614fa5575f80fd5b82356001600160401b0380821115614fbb575f80fd5b818501915085601f830112614fce575f80fd5b813581811115614fdc575f80fd5b8660208260051b8501011115614ff0575f80fd5b60209290920196919550909350505050565b5f60208083016020845280855180835260408601915060408160051b8701019250602087015f5b8281101561505757603f19888603018452615045858351614c42565b94509285019290850190600101615029565b5092979650505050505050565b80518252602081015160208301526040810151604083015260608101516060830152608081015160808301525050565b81516001600160a01b031681526020808301516101608301916150b990840182615064565b50604083015161376460c0840182615064565b81516001600160a01b0316815260208083015190820152604080830151908201526060808301519082015260808101610d00565b5f61016082840312156142e1575f80fd5b5f602082840312156142e1575f80fd5b5f60208284031215615131575f80fd5b6113758383615111565b5f6060828403121561514b575f80fd5b6151536143c2565b9050813561516081614545565b81526020828101359082015260408201356146e181614545565b5f6080828403121561518a575f80fd5b61519261437e565b905061519e838361513b565b81526060820135614b5481614545565b5f608082840312156151be575f80fd5b611375838361517a565b5f608082019050838252823560208301526020830135604083015260408301356151f181614545565b6001600160a01b03166060929092019190915292915050565b828152604060208201525f8235601e19843603018112615228575f80fd5b83016020810190356001600160401b03811115615243575f80fd5b803603821315615251575f80fd5b604080850152806080850152808260a08601375f60a082860101526020850135606085015260a0601f19601f830116850101925050509392505050565b5f6060828403121561529e575f80fd5b611375838361513b565b828152604060208201525f8251604080840152805160808401526020810151151560a08401526040810151151560c084015260608101519050608060e08401526152f6610100840182614c9a565b602094909401516001600160a01b031660609390930192909252509092915050565b5f60208284031215615328575f80fd5b815160038110611375575f80fd5b634e487b7160e01b5f52601160045260245ffd5b81810381811115610d0057610d00615336565b5f8261537757634e487b7160e01b5f52601260045260245ffd5b500490565b5f60c0828403121561538c575f80fd5b6153946143e4565b825181526020830151602082015260408301516040820152606083015160608201526080830151608082015260a08301516153ce81614545565b60a08201529392505050565b80516001600160a01b031682526020808201519083015260408082015190830152606080820151908301526080808201519083015260a0818101519083015260c0908101511515910152565b6154318282516153da565b60208101516001600160a01b0390811660e08401526040909101511661010090910152565b82815261014081016113756020830184615426565b5f6020828403121561547b575f80fd5b5051919050565b5f610d0036836144d1565b828152610100810161137560208301846153da565b5f608082840312156154b2575f80fd5b6154ba614356565b905081516154c781614545565b815260208201516154d781614436565b80602083015250604082015160408201526060820151606082015292915050565b5f6101408284031215615509575f80fd5b6155116143a0565b61551b84846154a2565b8152608083015161552b81614545565b8060208301525060a0830151604082015260c0830151606082015260e0830151608082015261010083015160a082015261012083015160c08201528091505092915050565b5f610d0036836149f5565b5f610120828403121561558c575f80fd5b6155946143e4565b61559e84846154a2565b81526080830151602082015260a0830151604082015260c0830151606082015260e0830151608082015261010083015160a08201528091505092915050565b918252805180516020808501919091528082015160408086019190915290910151606084015201516001600160a01b0316608082015260a00190565b80358252602081013561562b81614545565b6001600160a01b031660208301526040818101359083015260608082013590830152608090810135910152565b82815260c081016113756020830184615619565b5f805f6060848603121561567e575f80fd5b8351925060208401519150604084015190509250925092565b83815260e081016156ab6020830185615619565b8260c0830152949350505050565b5f815160408452805160408501526020808201519150604060608601528151606060808701526156ec60e0870182614c9a565b82840151607f19888303810160a08a0152815180845291850193505f929091908501905b808410156157305784518252938501936001939093019290850190615710565b5060408601519550818982030160c08a015261574c8187614c9a565b978501516001600160a01b03169890940197909752509395945050505050565b828152604060208201525f6136b160408301846156b9565b82815260a08101611375602083018480516001600160a01b031682526020808201519083015260408082015190830152606090810151910152565b5f60c082840312156157cf575f80fd5b6157d76143e4565b825181526020830151602082015260408301516040820152606083015160608201526080830151608082015260a083015160a08201528091505092915050565b6001600160401b0381168114610f0c575f80fd5b5f6040828403121561583b575f80fd5b61584361437e565b825161584e81614545565b8152602083015161491281615817565b5f60608201905083825282356020830152602083013561587d81614545565b6001600160a01b03166040929092019190915292915050565b5f6101a082019050838252825160018060a01b0380825116602085015260208201516158c56040860182615064565b50604082015191506158da60e0850183615064565b8060208601511661018085015250509392505050565b5f60608284031215615900575f80fd5b61137583836148a8565b803582526020810135602083015260408101356040830152606081013560608301526080810135608083015260a081013561594481614545565b6001600160a01b031660a0929092019190915250565b803561596581614545565b6001600160a01b03168252602081013561597e81615817565b6001600160401b0381166020840152505050565b803561599d81614545565b6001600160a01b0390811683526020820135906159b982614545565b90811660208401526040820135906159d082614545565b90811660408401526060820135906159e782614545565b90811660608401526080820135906159fe82614545565b908116608084015260a082013590615a1582614545565b80821660a085015250505050565b8681526001600160a01b03861660208201526102c08101615a47604083018761590a565b8435610100830152602085013561012083015260408501356101408301526060850135610160830152608085013561018083015260a08501356101a0830152615a946101c083018561595a565b615aa2610200830184615992565b979650505050505050565b8581526102a08101615ac2602083018761590a565b843560e0830152602085013561010083015260408501356101208301526060850135610140830152608085013561016083015260a0850135610180830152615b0e6101a083018561595a565b615b1c6101e0830184615992565b9695505050505050565b8281526080810161137560208301848035825260208082013590830152604090810135910152565b83815260a08101615b7660208301858035825260208082013590830152604090810135910152565b826080830152949350505050565b5f60208284031215615b94575f80fd5b815161137581614436565b5f6101608284031215615bb0575f80fd5b6113758383614e9f565b82815260a081016113756020830184805180516001600160a01b0390811684526020808301518186015260409283015182169285019290925291015116606090910152565b5f60208284031215615c0f575f80fd5b6113758383614b90565b600181815b80851115615c5357815f1904821115615c3957615c39615336565b80851615615c4657918102915b93841c9390800290615c1e565b509250929050565b5f82615c6957506001610d00565b81615c7557505f610d00565b8160018114615c8b5760028114615c9557615cb1565b6001915050610d00565b60ff841115615ca657615ca6615336565b50506001821b610d00565b5060208310610133831016604e8410600b8410161715615cd4575081810a610d00565b615cde8383615c19565b805f1904821115615cf157615cf1615336565b029392505050565b5f6113758383615c5b565b8082028115828204841417610d0057610d00615336565b5f60208284031215615d2b575f80fd5b815160ff81168114611375575f80fd5b5f61137560ff841683615c5b565b634e487b7160e01b5f52603260045260245ffd5b5f808335601e19843603018112615d72575f80fd5b8301803591506001600160401b03821115615d8b575f80fd5b602001915036819003821315615d9f575f80fd5b9250929050565b5f8251615db7818460208701614c20565b919091019291505056fe360894a13ba1a3210667c828492db98dca3e2076cc3735a920a3ca505d382bbc02dd7bc7dec4dceedda775e58dd541e08a116c6c53815c0bd028192f7b626800cd5ed15c6e187e77e9aee88184c21f4f2182ab5827cb3b7e07fbedcd63f03300a26469706673582212200a637d9bc602fdc52d42a42c438e191d8e10169e273abe5b1c4613c36cc4fa5f64736f6c63430008170033",
    "linkReferences": {
      "src/market/libraries/CapsLibrary.sol": {
        "CapsLibrary": [
          {
            "start": 5082,
            "length": 20
          },
          {
            "start": 6928,
            "length": 20
          },
          {
            "start": 16024,
            "length": 20
          }
        ]
      },
      "src/market/libraries/LoanLibrary.sol": {
        "LoanLibrary": [
          {
            "start": 4371,
            "length": 20
          },
          {
            "start": 7961,
            "length": 20
          },
          {
            "start": 8122,
            "length": 20
          },
          {
            "start": 9254,
            "length": 20
          },
          {
            "start": 11134,
            "length": 20
          }
        ]
      },
      "src/market/libraries/OfferLibrary.sol": {
        "OfferLibrary": [
          {
            "start": 5290,
            "length": 20
          },
          {
            "start": 13245,
            "length": 20
          }
        ]
      },
      "src/market/libraries/RiskLibrary.sol": {
        "RiskLibrary": [
          {
            "start": 4979,
            "length": 20
          },
          {
            "start": 5859,
            "length": 20
          },
          {
            "start": 6194,
            "length": 20
          },
          {
            "start": 6669,
            "length": 20
          },
          {
            "start": 11577,
            "length": 20
          },
          {
            "start": 11650,
            "length": 20
          },
          {
            "start": 12244,
            "length": 20
          }
        ]
      },
      "src/market/libraries/actions/BuyCreditLimit.sol": {
        "BuyCreditLimit": [
          {
            "start": 7785,
            "length": 20
          },
          {
            "start": 7884,
            "length": 20
          }
        ]
      },
      "src/market/libraries/actions/BuyCreditMarket.sol": {
        "BuyCreditMarket": [
          {
            "start": 4715,
            "length": 20
          },
          {
            "start": 4817,
            "length": 20
          },
          {
            "start": 5444,
            "length": 20
          }
        ]
      },
      "src/market/libraries/actions/Claim.sol": {
        "Claim": [
          {
            "start": 12417,
            "length": 20
          },
          {
            "start": 12516,
            "length": 20
          }
        ]
      },
      "src/market/libraries/actions/Compensate.sol": {
        "Compensate": [
          {
            "start": 5969,
            "length": 20
          },
          {
            "start": 6068,
            "length": 20
          }
        ]
      },
      "src/market/libraries/actions/CopyLimitOrders.sol": {
        "CopyLimitOrders": [
          {
            "start": 9987,
            "length": 20
          },
          {
            "start": 10086,
            "length": 20
          }
        ]
      },
      "src/market/libraries/actions/Deposit.sol": {
        "Deposit": [
          {
            "start": 13302,
            "length": 20
          },
          {
            "start": 13401,
            "length": 20
          }
        ]
      },
      "src/market/libraries/actions/Initialize.sol": {
        "Initialize": [
          {
            "start": 10404,
            "length": 20
          },
          {
            "start": 10537,
            "length": 20
          }
        ]
      },
      "src/market/libraries/actions/Liquidate.sol": {
        "Liquidate": [
          {
            "start": 11896,
            "length": 20
          },
          {
            "start": 11995,
            "length": 20
          },
          {
            "start": 12120,
            "length": 20
          }
        ]
      },
      "src/market/libraries/actions/LiquidateWithReplacement.sol": {
        "LiquidateWithReplacement": [
          {
            "start": 6452,
            "length": 20
          },
          {
            "start": 6554,
            "length": 20
          },
          {
            "start": 6812,
            "length": 20
          }
        ]
      },
      "src/market/libraries/actions/PartialRepay.sol": {
        "PartialRepay": [
          {
            "start": 3613,
            "length": 20
          },
          {
            "start": 3712,
            "length": 20
          }
        ]
      },
      "src/market/libraries/actions/Repay.sol": {
        "Repay": [
          {
            "start": 9733,
            "length": 20
          },
          {
            "start": 9831,
            "length": 20
          }
        ]
      },
      "src/market/libraries/actions/SelfLiquidate.sol": {
        "SelfLiquidate": [
          {
            "start": 7592,
            "length": 20
          },
          {
            "start": 7726,
            "length": 20
          }
        ]
      },
      "src/market/libraries/actions/SellCreditLimit.sol": {
        "SellCreditLimit": [
          {
            "start": 7351,
            "length": 20
          },
          {
            "start": 7450,
            "length": 20
          }
        ]
      },
      "src/market/libraries/actions/SellCreditMarket.sol": {
        "SellCreditMarket": [
          {
            "start": 5701,
            "length": 20
          },
          {
            "start": 11311,
            "length": 20
          },
          {
            "start": 11413,
            "length": 20
          }
        ]
      },
      "src/market/libraries/actions/SetUserConfiguration.sol": {
        "SetUserConfiguration": [
          {
            "start": 4134,
            "length": 20
          },
          {
            "start": 4233,
            "length": 20
          }
        ]
      },
      "src/market/libraries/actions/UpdateConfig.sol": {
        "UpdateConfig": [
          {
            "start": 3872,
            "length": 20
          },
          {
            "start": 3971,
            "length": 20
          },
          {
            "start": 4595,
            "length": 20
          },
          {
            "start": 9488,
            "length": 20
          },
          {
            "start": 9620,
            "length": 20
          }
        ]
      },
      "src/market/libraries/actions/Withdraw.sol": {
        "Withdraw": [
          {
            "start": 12575,
            "length": 20
          },
          {
            "start": 12674,
            "length": 20
          }
        ]
      }
    }
  },
  "methodIdentifiers": {
    "DEFAULT_ADMIN_ROLE()": "a217fddf",
    "UPGRADE_INTERFACE_VERSION()": "ad3cb1cc",
    "buyCreditLimit((uint256,(uint256[],int256[],uint256[])))": "3746f858",
    "buyCreditLimitOnBehalfOf(((uint256,(uint256[],int256[],uint256[])),address))": "53e043d4",
    "buyCreditMarket((address,uint256,uint256,uint256,uint256,uint256,bool))": "19a7359b",
    "buyCreditMarketOnBehalfOf(((address,uint256,uint256,uint256,uint256,uint256,bool),address,address))": "1fcd4a34",
    "claim((uint256))": "f45bf01c",
    "collateralRatio(address)": "ca40742c",
    "compensate((uint256,uint256,uint256))": "8e572776",
    "compensateOnBehalfOf(((uint256,uint256,uint256),address))": "3ae6d7c3",
    "copyLimitOrders((address,(uint256,uint256,uint256,uint256,int256),(uint256,uint256,uint256,uint256,int256)))": "f052e7a4",
    "copyLimitOrdersOnBehalfOf(((address,(uint256,uint256,uint256,uint256,int256),(uint256,uint256,uint256,uint256,int256)),address))": "8628babd",
    "data()": "73d4a13a",
    "debtTokenAmountToCollateralTokenAmount(uint256)": "1970e5ea",
    "deposit((address,uint256,address))": "0cf8542f",
    "depositOnBehalfOf(((address,uint256,address),address))": "fa823af5",
    "feeConfig()": "1e5eb1d0",
    "getBorrowOfferAPR(address,uint256)": "f85c3cd4",
    "getBuyCreditMarketSwapData((address,uint256,uint256,uint256,uint256,uint256,bool))": "2ed28ba2",
    "getCreditPosition(uint256)": "76c1b82f",
    "getDebtPosition(uint256)": "b5ec7487",
    "getDebtPositionAssignedCollateral(uint256)": "54137c7e",
    "getLoanOfferAPR(address,uint256)": "2cc884c5",
    "getLoanStatus(uint256)": "1c4fd41c",
    "getPositionsCount()": "1ca3b0cb",
    "getRoleAdmin(bytes32)": "248a9ca3",
    "getSellCreditMarketSwapData((address,uint256,uint256,uint256,uint256,uint256,bool))": "37501921",
    "getSwapFee(uint256,uint256)": "2c60185c",
    "getUserCopyLimitOrders(address)": "b36116f6",
    "getUserView(address)": "5cbc51eb",
    "grantRole(bytes32,address)": "2f2ff15d",
    "hasRole(bytes32,address)": "91d14854",
    "initialize(address,(uint256,uint256,uint256,uint256,uint256,address),(uint256,uint256,uint256,uint256,uint256,uint256),(address,uint64),(address,address,address,address,address,address))": "a4752076",
    "isCreditPositionId(uint256)": "ccc96815",
    "isDebtPositionId(uint256)": "64eb0a71",
    "isDebtPositionLiquidatable(uint256)": "e5af06ce",
    "liquidate((uint256,uint256,uint256))": "e05001f5",
    "liquidateWithReplacement((uint256,address,uint256,uint256,uint256))": "3e3c119b",
    "multicall(bytes[])": "ac9650d8",
    "oracle()": "7dc0d1d0",
    "partialRepay((uint256,uint256,address))": "02f2855a",
    "pause()": "8456cb59",
    "paused()": "5c975abb",
    "proxiableUUID()": "52d1902d",
    "reinitialize(address)": "f7e7d1fd",
    "renounceRole(bytes32,address)": "36568abe",
    "repay((uint256,address))": "7f417c06",
    "revokeRole(bytes32,address)": "d547741f",
    "riskConfig()": "7c90a6ca",
    "selfLiquidate((uint256))": "fd17174a",
    "selfLiquidateOnBehalfOf(((uint256),address,address))": "536b9c79",
    "sellCreditLimit((uint256,(uint256[],int256[],uint256[])))": "ccd8d4d1",
    "sellCreditLimitOnBehalfOf(((uint256,(uint256[],int256[],uint256[])),address))": "4fd9a8a5",
    "sellCreditMarket((address,uint256,uint256,uint256,uint256,uint256,bool))": "d8d933a5",
    "sellCreditMarketOnBehalfOf(((address,uint256,uint256,uint256,uint256,uint256,bool),address,address))": "c73d9833",
    "setUserConfiguration((uint256,bool,bool,uint256[]))": "2e106f21",
    "setUserConfigurationOnBehalfOf(((uint256,bool,bool,uint256[]),address))": "134f3f96",
    "setVariablePoolBorrowRate(uint128)": "4cbd882c",
    "sizeFactory()": "fa7a5b10",
    "supportsInterface(bytes4)": "01ffc9a7",
    "unpause()": "3f4ba83a",
    "updateConfig((string,uint256))": "0317b9df",
    "upgradeToAndCall(address,bytes)": "4f1ef286",
    "version()": "54fd4d50",
    "withdraw((address,uint256,address))": "2b4c9a20",
    "withdrawOnBehalfOf(((address,uint256,address),address))": "f54ae18b"
  },
  "id": 237
}