{
  "abi": [
    {
      "type": "constructor",
      "inputs": [],
      "stateMutability": "nonpayable"
    },
    {
      "type": "function",
      "name": "DEFAULT_ADMIN_ROLE",
      "inputs": [],
      "outputs": [
        {
          "name": "",
          "type": "bytes32",
          "internalType": "bytes32"
        }
      ],
      "stateMutability": "view"
    },
    {
      "type": "function",
      "name": "UPGRADE_INTERFACE_VERSION",
      "inputs": [],
      "outputs": [
        {
          "name": "",
          "type": "string",
          "internalType": "string"
        }
      ],
      "stateMutability": "view"
    },
    {
      "type": "function",
      "name": "acceptOwnership",
      "inputs": [],
      "outputs": [],
      "stateMutability": "nonpayable"
    },
    {
      "type": "function",
      "name": "authorizationNonces",
      "inputs": [
        {
          "name": "onBehalfOf",
          "type": "address",
          "internalType": "address"
        }
      ],
      "outputs": [
        {
          "name": "nonce",
          "type": "uint256",
          "internalType": "uint256"
        }
      ],
      "stateMutability": "view"
    },
    {
      "type": "function",
      "name": "authorizations",
      "inputs": [
        {
          "name": "nonce",
          "type": "uint256",
          "internalType": "uint256"
        },
        {
          "name": "operator",
          "type": "address",
          "internalType": "address"
        },
        {
          "name": "onBehalfOf",
          "type": "address",
          "internalType": "address"
        }
      ],
      "outputs": [
        {
          "name": "authorizedActionsBitmap",
          "type": "uint256",
          "internalType": "ActionsBitmap"
        }
      ],
      "stateMutability": "view"
    },
    {
      "type": "function",
      "name": "createBorrowATokenV1_5",
      "inputs": [
        {
          "name": "variablePool",
          "type": "address",
          "internalType": "contract IPool"
        },
        {
          "name": "underlyingBorrowToken",
          "type": "address",
          "internalType": "contract IERC20Metadata"
        }
      ],
      "outputs": [
        {
          "name": "borrowATokenV1_5",
          "type": "address",
          "internalType": "contract NonTransferrableScaledTokenV1_5"
        }
      ],
      "stateMutability": "nonpayable"
    },
    {
      "type": "function",
      "name": "createMarket",
      "inputs": [
        {
          "name": "feeConfigParams",
          "type": "tuple",
          "internalType": "struct InitializeFeeConfigParams",
          "components": [
            {
              "name": "swapFeeAPR",
              "type": "uint256",
              "internalType": "uint256"
            },
            {
              "name": "fragmentationFee",
              "type": "uint256",
              "internalType": "uint256"
            },
            {
              "name": "liquidationRewardPercent",
              "type": "uint256",
              "internalType": "uint256"
            },
            {
              "name": "overdueCollateralProtocolPercent",
              "type": "uint256",
              "internalType": "uint256"
            },
            {
              "name": "collateralProtocolPercent",
              "type": "uint256",
              "internalType": "uint256"
            },
            {
              "name": "feeRecipient",
              "type": "address",
              "internalType": "address"
            }
          ]
        },
        {
          "name": "riskConfigParams",
          "type": "tuple",
          "internalType": "struct InitializeRiskConfigParams",
          "components": [
            {
              "name": "crOpening",
              "type": "uint256",
              "internalType": "uint256"
            },
            {
              "name": "crLiquidation",
              "type": "uint256",
              "internalType": "uint256"
            },
            {
              "name": "minimumCreditBorrowAToken",
              "type": "uint256",
              "internalType": "uint256"
            },
            {
              "name": "borrowATokenCap",
              "type": "uint256",
              "internalType": "uint256"
            },
            {
              "name": "minTenor",
              "type": "uint256",
              "internalType": "uint256"
            },
            {
              "name": "maxTenor",
              "type": "uint256",
              "internalType": "uint256"
            }
          ]
        },
        {
          "name": "oracleParams",
          "type": "tuple",
          "internalType": "struct InitializeOracleParams",
          "components": [
            {
              "name": "priceFeed",
              "type": "address",
              "internalType": "address"
            },
            {
              "name": "variablePoolBorrowRateStaleRateInterval",
              "type": "uint64",
              "internalType": "uint64"
            }
          ]
        },
        {
          "name": "dataParams",
          "type": "tuple",
          "internalType": "struct InitializeDataParams",
          "components": [
            {
              "name": "weth",
              "type": "address",
              "internalType": "address"
            },
            {
              "name": "underlyingCollateralToken",
              "type": "address",
              "internalType": "address"
            },
            {
              "name": "underlyingBorrowToken",
              "type": "address",
              "internalType": "address"
            },
            {
              "name": "variablePool",
              "type": "address",
              "internalType": "address"
            },
            {
              "name": "borrowATokenV1_5",
              "type": "address",
              "internalType": "address"
            },
            {
              "name": "sizeFactory",
              "type": "address",
              "internalType": "address"
            }
          ]
        }
      ],
      "outputs": [
        {
          "name": "market",
          "type": "address",
          "internalType": "contract ISize"
        }
      ],
      "stateMutability": "nonpayable"
    },
    {
      "type": "function",
      "name": "createPriceFeed",
      "inputs": [
        {
          "name": "_priceFeedParams",
          "type": "tuple",
          "internalType": "struct PriceFeedParams",
          "components": [
            {
              "name": "uniswapV3Pool",
              "type": "address",
              "internalType": "contract IUniswapV3Pool"
            },
            {
              "name": "twapWindow",
              "type": "uint32",
              "internalType": "uint32"
            },
            {
              "name": "averageBlockTime",
              "type": "uint32",
              "internalType": "uint32"
            },
            {
              "name": "baseToken",
              "type": "address",
              "internalType": "contract IERC20Metadata"
            },
            {
              "name": "quoteToken",
              "type": "address",
              "internalType": "contract IERC20Metadata"
            },
            {
              "name": "baseAggregator",
              "type": "address",
              "internalType": "contract AggregatorV3Interface"
            },
            {
              "name": "quoteAggregator",
              "type": "address",
              "internalType": "contract AggregatorV3Interface"
            },
            {
              "name": "baseStalePriceInterval",
              "type": "uint256",
              "internalType": "uint256"
            },
            {
              "name": "quoteStalePriceInterval",
              "type": "uint256",
              "internalType": "uint256"
            },
            {
              "name": "sequencerUptimeFeed",
              "type": "address",
              "internalType": "contract AggregatorV3Interface"
            }
          ]
        }
      ],
      "outputs": [
        {
          "name": "priceFeed",
          "type": "address",
          "internalType": "contract PriceFeed"
        }
      ],
      "stateMutability": "nonpayable"
    },
    {
      "type": "function",
      "name": "getMarket",
      "inputs": [
        {
          "name": "index",
          "type": "uint256",
          "internalType": "uint256"
        }
      ],
      "outputs": [
        {
          "name": "",
          "type": "address",
          "internalType": "contract ISize"
        }
      ],
      "stateMutability": "view"
    },
    {
      "type": "function",
      "name": "getMarketDescriptions",
      "inputs": [],
      "outputs": [
        {
          "name": "descriptions",
          "type": "string[]",
          "internalType": "string[]"
        }
      ],
      "stateMutability": "view"
    },
    {
      "type": "function",
      "name": "getMarkets",
      "inputs": [],
      "outputs": [
        {
          "name": "_markets",
          "type": "address[]",
          "internalType": "contract ISize[]"
        }
      ],
      "stateMutability": "view"
    },
    {
      "type": "function",
      "name": "getMarketsCount",
      "inputs": [],
      "outputs": [
        {
          "name": "",
          "type": "uint256",
          "internalType": "uint256"
        }
      ],
      "stateMutability": "view"
    },
    {
      "type": "function",
      "name": "getRoleAdmin",
      "inputs": [
        {
          "name": "role",
          "type": "bytes32",
          "internalType": "bytes32"
        }
      ],
      "outputs": [
        {
          "name": "",
          "type": "bytes32",
          "internalType": "bytes32"
        }
      ],
      "stateMutability": "view"
    },
    {
      "type": "function",
      "name": "grantRole",
      "inputs": [
        {
          "name": "role",
          "type": "bytes32",
          "internalType": "bytes32"
        },
        {
          "name": "account",
          "type": "address",
          "internalType": "address"
        }
      ],
      "outputs": [],
      "stateMutability": "nonpayable"
    },
    {
      "type": "function",
      "name": "hasRole",
      "inputs": [
        {
          "name": "role",
          "type": "bytes32",
          "internalType": "bytes32"
        },
        {
          "name": "account",
          "type": "address",
          "internalType": "address"
        }
      ],
      "outputs": [
        {
          "name": "",
          "type": "bool",
          "internalType": "bool"
        }
      ],
      "stateMutability": "view"
    },
    {
      "type": "function",
      "name": "initialize",
      "inputs": [
        {
          "name": "_owner",
          "type": "address",
          "internalType": "address"
        }
      ],
      "outputs": [],
      "stateMutability": "nonpayable"
    },
    {
      "type": "function",
      "name": "isAuthorized",
      "inputs": [
        {
          "name": "operator",
          "type": "address",
          "internalType": "address"
        },
        {
          "name": "onBehalfOf",
          "type": "address",
          "internalType": "address"
        },
        {
          "name": "action",
          "type": "uint8",
          "internalType": "enum Action"
        }
      ],
      "outputs": [
        {
          "name": "",
          "type": "bool",
          "internalType": "bool"
        }
      ],
      "stateMutability": "view"
    },
    {
      "type": "function",
      "name": "isAuthorizedAll",
      "inputs": [
        {
          "name": "operator",
          "type": "address",
          "internalType": "address"
        },
        {
          "name": "onBehalfOf",
          "type": "address",
          "internalType": "address"
        },
        {
          "name": "actionsBitmap",
          "type": "uint256",
          "internalType": "ActionsBitmap"
        }
      ],
      "outputs": [
        {
          "name": "",
          "type": "bool",
          "internalType": "bool"
        }
      ],
      "stateMutability": "view"
    },
    {
      "type": "function",
      "name": "isMarket",
      "inputs": [
        {
          "name": "candidate",
          "type": "address",
          "internalType": "address"
        }
      ],
      "outputs": [
        {
          "name": "",
          "type": "bool",
          "internalType": "bool"
        }
      ],
      "stateMutability": "view"
    },
    {
      "type": "function",
      "name": "multicall",
      "inputs": [
        {
          "name": "data",
          "type": "bytes[]",
          "internalType": "bytes[]"
        }
      ],
      "outputs": [
        {
          "name": "results",
          "type": "bytes[]",
          "internalType": "bytes[]"
        }
      ],
      "stateMutability": "nonpayable"
    },
    {
      "type": "function",
      "name": "nonTransferrableScaledTokenV1_5Implementation",
      "inputs": [],
      "outputs": [
        {
          "name": "",
          "type": "address",
          "internalType": "address"
        }
      ],
      "stateMutability": "view"
    },
    {
      "type": "function",
      "name": "owner",
      "inputs": [],
      "outputs": [
        {
          "name": "",
          "type": "address",
          "internalType": "address"
        }
      ],
      "stateMutability": "view"
    },
    {
      "type": "function",
      "name": "pendingOwner",
      "inputs": [],
      "outputs": [
        {
          "name": "",
          "type": "address",
          "internalType": "address"
        }
      ],
      "stateMutability": "view"
    },
    {
      "type": "function",
      "name": "proxiableUUID",
      "inputs": [],
      "outputs": [
        {
          "name": "",
          "type": "bytes32",
          "internalType": "bytes32"
        }
      ],
      "stateMutability": "view"
    },
    {
      "type": "function",
      "name": "reinitialize",
      "inputs": [],
      "outputs": [],
      "stateMutability": "nonpayable"
    },
    {
      "type": "function",
      "name": "renounceOwnership",
      "inputs": [],
      "outputs": [],
      "stateMutability": "nonpayable"
    },
    {
      "type": "function",
      "name": "renounceRole",
      "inputs": [
        {
          "name": "role",
          "type": "bytes32",
          "internalType": "bytes32"
        },
        {
          "name": "callerConfirmation",
          "type": "address",
          "internalType": "address"
        }
      ],
      "outputs": [],
      "stateMutability": "nonpayable"
    },
    {
      "type": "function",
      "name": "revokeAllAuthorizations",
      "inputs": [],
      "outputs": [],
      "stateMutability": "nonpayable"
    },
    {
      "type": "function",
      "name": "revokeRole",
      "inputs": [
        {
          "name": "role",
          "type": "bytes32",
          "internalType": "bytes32"
        },
        {
          "name": "account",
          "type": "address",
          "internalType": "address"
        }
      ],
      "outputs": [],
      "stateMutability": "nonpayable"
    },
    {
      "type": "function",
      "name": "setAuthorization",
      "inputs": [
        {
          "name": "operator",
          "type": "address",
          "internalType": "address"
        },
        {
          "name": "actionsBitmap",
          "type": "uint256",
          "internalType": "ActionsBitmap"
        }
      ],
      "outputs": [],
      "stateMutability": "nonpayable"
    },
    {
      "type": "function",
      "name": "setNonTransferrableScaledTokenV1_5Implementation",
      "inputs": [
        {
          "name": "_nonTransferrableScaledTokenV1_5Implementation",
          "type": "address",
          "internalType": "address"
        }
      ],
      "outputs": [],
      "stateMutability": "nonpayable"
    },
    {
      "type": "function",
      "name": "setSizeImplementation",
      "inputs": [
        {
          "name": "_sizeImplementation",
          "type": "address",
          "internalType": "address"
        }
      ],
      "outputs": [],
      "stateMutability": "nonpayable"
    },
    {
      "type": "function",
      "name": "sizeImplementation",
      "inputs": [],
      "outputs": [
        {
          "name": "",
          "type": "address",
          "internalType": "address"
        }
      ],
      "stateMutability": "view"
    },
    {
      "type": "function",
      "name": "supportsInterface",
      "inputs": [
        {
          "name": "interfaceId",
          "type": "bytes4",
          "internalType": "bytes4"
        }
      ],
      "outputs": [
        {
          "name": "",
          "type": "bool",
          "internalType": "bool"
        }
      ],
      "stateMutability": "view"
    },
    {
      "type": "function",
      "name": "transferOwnership",
      "inputs": [
        {
          "name": "newOwner",
          "type": "address",
          "internalType": "address"
        }
      ],
      "outputs": [],
      "stateMutability": "nonpayable"
    },
    {
      "type": "function",
      "name": "upgradeToAndCall",
      "inputs": [
        {
          "name": "newImplementation",
          "type": "address",
          "internalType": "address"
        },
        {
          "name": "data",
          "type": "bytes",
          "internalType": "bytes"
        }
      ],
      "outputs": [],
      "stateMutability": "payable"
    },
    {
      "type": "function",
      "name": "version",
      "inputs": [],
      "outputs": [
        {
          "name": "",
          "type": "string",
          "internalType": "string"
        }
      ],
      "stateMutability": "pure"
    },
    {
      "type": "event",
      "name": "CreateBorrowATokenV1_5",
      "inputs": [
        {
          "name": "borrowATokenV1_5",
          "type": "address",
          "indexed": true,
          "internalType": "address"
        }
      ],
      "anonymous": false
    },
    {
      "type": "event",
      "name": "CreateMarket",
      "inputs": [
        {
          "name": "market",
          "type": "address",
          "indexed": true,
          "internalType": "address"
        }
      ],
      "anonymous": false
    },
    {
      "type": "event",
      "name": "CreatePriceFeed",
      "inputs": [
        {
          "name": "priceFeed",
          "type": "address",
          "indexed": true,
          "internalType": "address"
        }
      ],
      "anonymous": false
    },
    {
      "type": "event",
      "name": "Initialized",
      "inputs": [
        {
          "name": "version",
          "type": "uint64",
          "indexed": false,
          "internalType": "uint64"
        }
      ],
      "anonymous": false
    },
    {
      "type": "event",
      "name": "NonTransferrableScaledTokenV1_5ImplementationSet",
      "inputs": [
        {
          "name": "oldNonTransferrableScaledTokenV1_5Implementation",
          "type": "address",
          "indexed": true,
          "internalType": "address"
        },
        {
          "name": "newNonTransferrableScaledTokenV1_5Implementation",
          "type": "address",
          "indexed": true,
          "internalType": "address"
        }
      ],
      "anonymous": false
    },
    {
      "type": "event",
      "name": "OwnershipTransferStarted",
      "inputs": [
        {
          "name": "previousOwner",
          "type": "address",
          "indexed": true,
          "internalType": "address"
        },
        {
          "name": "newOwner",
          "type": "address",
          "indexed": true,
          "internalType": "address"
        }
      ],
      "anonymous": false
    },
    {
      "type": "event",
      "name": "OwnershipTransferred",
      "inputs": [
        {
          "name": "previousOwner",
          "type": "address",
          "indexed": true,
          "internalType": "address"
        },
        {
          "name": "newOwner",
          "type": "address",
          "indexed": true,
          "internalType": "address"
        }
      ],
      "anonymous": false
    },
    {
      "type": "event",
      "name": "RevokeAllAuthorizations",
      "inputs": [
        {
          "name": "sender",
          "type": "address",
          "indexed": true,
          "internalType": "address"
        }
      ],
      "anonymous": false
    },
    {
      "type": "event",
      "name": "RoleAdminChanged",
      "inputs": [
        {
          "name": "role",
          "type": "bytes32",
          "indexed": true,
          "internalType": "bytes32"
        },
        {
          "name": "previousAdminRole",
          "type": "bytes32",
          "indexed": true,
          "internalType": "bytes32"
        },
        {
          "name": "newAdminRole",
          "type": "bytes32",
          "indexed": true,
          "internalType": "bytes32"
        }
      ],
      "anonymous": false
    },
    {
      "type": "event",
      "name": "RoleGranted",
      "inputs": [
        {
          "name": "role",
          "type": "bytes32",
          "indexed": true,
          "internalType": "bytes32"
        },
        {
          "name": "account",
          "type": "address",
          "indexed": true,
          "internalType": "address"
        },
        {
          "name": "sender",
          "type": "address",
          "indexed": true,
          "internalType": "address"
        }
      ],
      "anonymous": false
    },
    {
      "type": "event",
      "name": "RoleRevoked",
      "inputs": [
        {
          "name": "role",
          "type": "bytes32",
          "indexed": true,
          "internalType": "bytes32"
        },
        {
          "name": "account",
          "type": "address",
          "indexed": true,
          "internalType": "address"
        },
        {
          "name": "sender",
          "type": "address",
          "indexed": true,
          "internalType": "address"
        }
      ],
      "anonymous": false
    },
    {
      "type": "event",
      "name": "SetAuthorization",
      "inputs": [
        {
          "name": "sender",
          "type": "address",
          "indexed": true,
          "internalType": "address"
        },
        {
          "name": "operator",
          "type": "address",
          "indexed": true,
          "internalType": "address"
        },
        {
          "name": "actionsBitmap",
          "type": "uint256",
          "indexed": true,
          "internalType": "uint256"
        },
        {
          "name": "nonce",
          "type": "uint256",
          "indexed": false,
          "internalType": "uint256"
        }
      ],
      "anonymous": false
    },
    {
      "type": "event",
      "name": "SizeImplementationSet",
      "inputs": [
        {
          "name": "oldSizeImplementation",
          "type": "address",
          "indexed": true,
          "internalType": "address"
        },
        {
          "name": "newSizeImplementation",
          "type": "address",
          "indexed": true,
          "internalType": "address"
        }
      ],
      "anonymous": false
    },
    {
      "type": "event",
      "name": "Upgraded",
      "inputs": [
        {
          "name": "implementation",
          "type": "address",
          "indexed": true,
          "internalType": "address"
        }
      ],
      "anonymous": false
    },
    {
      "type": "error",
      "name": "AccessControlBadConfirmation",
      "inputs": []
    },
    {
      "type": "error",
      "name": "AccessControlUnauthorizedAccount",
      "inputs": [
        {
          "name": "account",
          "type": "address",
          "internalType": "address"
        },
        {
          "name": "neededRole",
          "type": "bytes32",
          "internalType": "bytes32"
        }
      ]
    },
    {
      "type": "error",
      "name": "AddressEmptyCode",
      "inputs": [
        {
          "name": "target",
          "type": "address",
          "internalType": "address"
        }
      ]
    },
    {
      "type": "error",
      "name": "ERC1967InvalidImplementation",
      "inputs": [
        {
          "name": "implementation",
          "type": "address",
          "internalType": "address"
        }
      ]
    },
    {
      "type": "error",
      "name": "ERC1967NonPayable",
      "inputs": []
    },
    {
      "type": "error",
      "name": "FailedCall",
      "inputs": []
    },
    {
      "type": "error",
      "name": "INVALID_ACTIONS_BITMAP",
      "inputs": [
        {
          "name": "actionsBitmap",
          "type": "uint256",
          "internalType": "uint256"
        }
      ]
    },
    {
      "type": "error",
      "name": "InvalidInitialization",
      "inputs": []
    },
    {
      "type": "error",
      "name": "NULL_ADDRESS",
      "inputs": []
    },
    {
      "type": "error",
      "name": "NotInitializing",
      "inputs": []
    },
    {
      "type": "error",
      "name": "OwnableInvalidOwner",
      "inputs": [
        {
          "name": "owner",
          "type": "address",
          "internalType": "address"
        }
      ]
    },
    {
      "type": "error",
      "name": "OwnableUnauthorizedAccount",
      "inputs": [
        {
          "name": "account",
          "type": "address",
          "internalType": "address"
        }
      ]
    },
    {
      "type": "error",
      "name": "UUPSUnauthorizedCallContext",
      "inputs": []
    },
    {
      "type": "error",
      "name": "UUPSUnsupportedProxiableUUID",
      "inputs": [
        {
          "name": "slot",
          "type": "bytes32",
          "internalType": "bytes32"
        }
      ]
    }
  ],
  "bytecode": {
    "object": "0x60a06040523060805234801562000014575f80fd5b506200001f62000025565b620000d9565b7ff0c57e16840df040f15088dc2f81fe391c3923bec73e23a9662efc9c229c6a00805468010000000000000000900460ff1615620000765760405163f92ee8a960e01b815260040160405180910390fd5b80546001600160401b0390811614620000d65780546001600160401b0319166001600160401b0390811782556040519081527fc7f505b2f371ae2175ee4913f4499e1f2633a7b5936321eed1cdaeb6115181d29060200160405180910390a15b50565b608051612bbe620001005f395f81816117d2015281816117fb015261193c0152612bbe5ff3fe608060405260043610610212575f3560e01c806391c769ce1161011e578063ac9650d8116100a8578063d547741f1161006d578063d547741f1461062d578063e30c39781461064c578063eb44fdd314610660578063ec2c90161461067f578063f2fde38b146106a0575f80fd5b8063ac9650d814610574578063ad3cb1cc146105a0578063b4cd6bd1146105d0578063c4d66de8146105ef578063d152e2361461060e575f80fd5b8063a217fddf116100ee578063a217fddf146104f0578063a78ec6ae14610503578063a7b2b31014610522578063aa2c6af414610536578063ac236e4a14610555575f80fd5b806391c769ce1461047457806391d1485414610493578063925fc9ef146104b2578063973cf867146104d1575f80fd5b80636ec934da1161019f5780637b8dedad1161016f5780637b8dedad146103a357806381de274c146103df57806386eeeb5a1461040a5780638da5cb5b146104295780638e6ee8e514610455575f80fd5b80636ec934da1461033b578063715018a61461035a5780637643d7ec1461036e57806379ba50971461038f575f80fd5b806336568abe116101e557806336568abe146102ac5780634f1ef286146102cb57806352d1902d146102de57806354fd4d50146102f25780636c2eb35014610327575f80fd5b806301ffc9a714610216578063248a9ca31461024a57806327fa35c3146102775780632f2ff15d1461028b575b5f80fd5b348015610221575f80fd5b50610235610230366004611f96565b6106bf565b60405190151581526020015b60405180910390f35b348015610255575f80fd5b50610269610264366004611fbd565b6106f5565b604051908152602001610241565b348015610282575f80fd5b50610269610715565b348015610296575f80fd5b506102aa6102a5366004611ff8565b610724565b005b3480156102b7575f80fd5b506102aa6102c6366004611ff8565b610746565b6102aa6102d93660046120b9565b61077e565b3480156102e9575f80fd5b5061026961079d565b3480156102fd575f80fd5b5060408051808201909152600481526376312e3760e01b60208201525b6040516102419190612192565b348015610332575f80fd5b506102aa6107b8565b348015610346575f80fd5b506102356103553660046121a4565b61091d565b348015610365575f80fd5b506102aa610928565b348015610379575f80fd5b5061038261093b565b60405161024191906121bf565b34801561039a575f80fd5b506102aa610c69565b3480156103ae575f80fd5b506102696103bd366004612221565b600860209081525f938452604080852082529284528284209052825290205481565b3480156103ea575f80fd5b506102696103f93660046121a4565b60096020525f908152604090205481565b348015610415575f80fd5b50610235610424366004612260565b610cb6565b348015610434575f80fd5b5061043d610d26565b6040516001600160a01b039091168152602001610241565b348015610460575f80fd5b5061043d61046f3660046122a0565b610d5a565b34801561047f575f80fd5b506102aa61048e3660046122cc565b610e39565b34801561049e575f80fd5b506102356104ad366004611ff8565b610f08565b3480156104bd575f80fd5b5060075461043d906001600160a01b031681565b3480156104dc575f80fd5b5060065461043d906001600160a01b031681565b3480156104fb575f80fd5b506102695f81565b34801561050e575f80fd5b5061023561051d3660046122f6565b610f3e565b34801561052d575f80fd5b506102aa610fa3565b348015610541575f80fd5b506102aa6105503660046121a4565b610fee565b348015610560575f80fd5b5061043d61056f36600461234a565b61107b565b34801561057f575f80fd5b5061059361058e3660046123ad565b61115f565b604051610241919061241b565b3480156105ab575f80fd5b5061031a604051806040016040528060058152602001640352e302e360dc1b81525081565b3480156105db575f80fd5b506102aa6105ea3660046121a4565b611244565b3480156105fa575f80fd5b506102aa6106093660046121a4565b6112d1565b348015610619575f80fd5b5061043d610628366004612483565b611474565b348015610638575f80fd5b506102aa610647366004611ff8565b611531565b348015610657575f80fd5b5061043d61154d565b34801561066b575f80fd5b5061043d61067a366004611fbd565b611575565b34801561068a575f80fd5b50610693611580565b604051610241919061253c565b3480156106ab575f80fd5b506102aa6106ba3660046121a4565b611615565b5f6001600160e01b03198216637965db0b60e01b14806106ef57506301ffc9a760e01b6001600160e01b03198316145b92915050565b5f9081525f80516020612b69833981519152602052604090206001015490565b5f61071f5f61169a565b905090565b61072d826106f5565b610736816116a3565b61074083836116ad565b50505050565b6001600160a01b038116331461076f5760405163334bd91960e11b815260040160405180910390fd5b610779828261174e565b505050565b6107866117c7565b61078f8261186b565b6107998282611875565b5050565b5f6107a6611931565b505f80516020612b4983398151915290565b6107c061197a565b60aa5f6107cb6119ac565b8054909150600160401b900460ff16806107f2575080546001600160401b03808416911610155b156108105760405163f92ee8a960e01b815260040160405180910390fd5b805468ffffffffffffffffff19166001600160401b03831617600160401b1781555f61083a610d26565b90506108465f826116ad565b506108717f65d7a28e3265b37a6474929f336521b332c1681b933f6cb9f3376673440d862a826116ad565b5061089c7ffc8737ab85eb45125971625a9ebdb75cc78e01d5c1fa80c4c6e5203f47bc4fab826116ad565b506108c77f1eae1854c74a696c6de86fd3c6383d5c1e2c33fbc86e1aa6b6c872d95bd24038826116ad565b506108d15f6119d4565b50805460ff60401b191681556040516001600160401b03831681527fc7f505b2f371ae2175ee4913f4499e1f2633a7b5936321eed1cdaeb6115181d29060200160405180910390a15050565b5f6106ef8183611a0c565b61093061197a565b6109395f6119d4565b565b60606109465f61169a565b6001600160401b0381111561095d5761095d612026565b60405190808252806020026020018201604052801561099057816020015b606081526020019060019003908161097b5790505b5090505f5b8151811015610c65575f6109a98183611a2d565b90505f610a236064836001600160a01b0316637c90a6ca6040518163ffffffff1660e01b815260040160c060405180830381865afa1580156109ed573d5f803e3d5ffd5b505050506040513d601f19601f82011682018060405250810190610a119190612588565b60200151670de0b6b3a7640000611a38565b9050816001600160a01b03166373d4a13a6040518163ffffffff1660e01b815260040161010060405180830381865afa158015610a62573d5f803e3d5ffd5b505050506040513d601f19601f82011682018060405250810190610a86919061260a565b604001516001600160a01b03166395d89b416040518163ffffffff1660e01b81526004015f60405180830381865afa158015610ac4573d5f803e3d5ffd5b505050506040513d5f823e601f3d908101601f19168201604052610aeb91908101906126c3565b826001600160a01b03166373d4a13a6040518163ffffffff1660e01b815260040161010060405180830381865afa158015610b28573d5f803e3d5ffd5b505050506040513d601f19601f82011682018060405250810190610b4c919061260a565b606001516001600160a01b03166395d89b416040518163ffffffff1660e01b81526004015f60405180830381865afa158015610b8a573d5f803e3d5ffd5b505050506040513d5f823e601f3d908101601f19168201604052610bb191908101906126c3565b610bba83611a4c565b846001600160a01b03166354fd4d506040518163ffffffff1660e01b81526004015f60405180830381865afa158015610bf5573d5f803e3d5ffd5b505050506040513d5f823e601f3d908101601f19168201604052610c1c91908101906126c3565b604051602001610c2f949392919061272b565b604051602081830303815290604052848481518110610c5057610c506127b7565b60209081029190910101525050600101610995565b5090565b3380610c7361154d565b6001600160a01b031614610caa5760405163118cdaa760e01b81526001600160a01b03821660048201526024015b60405180910390fd5b610cb3816119d4565b50565b5f826001600160a01b0316846001600160a01b031603610cd857506001610d1f565b6001600160a01b038084165f8181526009602090815260408083205480845260088352818420958a1684529482528083209383529290522054610d1b9084611adb565b9150505b9392505050565b5f807f9016d09d72d40fdae2fd8ceac6b6234c7706214fd39c1cd1e609a0528c1993005b546001600160a01b031692915050565b5f80610d65816116a3565b6007546040516363b943b760e11b81526001600160a01b03918216600482015233602482018190528683166044830152918516606482015273__$b9faca714c7f051242fe6389353918181f$__9063c772876e90608401602060405180830381865af4158015610dd7573d5f803e3d5ffd5b505050506040513d601f19601f82011682018060405250810190610dfb91906127cb565b6040519093506001600160a01b038416907f9d17e0c2816ab0b9415efcc887246c570eaabdb1474c6d797527ffb29968555f905f90a2505092915050565b6001600160a01b038216610e605760405163de0ce17d60e01b815260040160405180910390fd5b610e6981611afd565b610e8957604051632e40743360e01b815260048101829052602401610ca1565b335f90815260096020526040902054816040518281526001600160a01b0385169033907f89733de2d64cea40de091169750607b26e8d46142312fba65fb6476c790bad499060200160405180910390a45f9081526008602090815260408083206001600160a01b03909516835293815283822033835290529190912055565b5f9182525f80516020612b69833981519152602090815260408084206001600160a01b0393909316845291905290205460ff1690565b5f826001600160a01b0316846001600160a01b031603610f6057506001610d1f565b506001600160a01b038281165f81815260096020908152604080832054835260088252808320948816835293815283822092825291909152205481168114610d1f565b60405133907fecbee29490a7e5456f4e3aab0700477764e3f16dda5a21ea92f43f1cfcb15799905f90a2335f908152600960205260408120805491610fe7836127fa565b9190505550565b5f610ff8816116a3565b6001600160a01b03821661101f5760405163de0ce17d60e01b815260040160405180910390fd5b6007546040516001600160a01b038085169216907f520711c7b62207fb1531b96a51aa83a8828e01d3aa2809a852c2845733ea15b1905f90a350600780546001600160a01b0319166001600160a01b0392909216919091179055565b5f80611086816116a3565b60065460405163d41bcfc560e01b8152339173__$74708c40afd3f014cbcff13274aefc3e53$__9163d41bcfc5916110d6916001600160a01b039091169085908c908c908c908c906004016128df565b602060405180830381865af41580156110f1573d5f803e3d5ffd5b505050506040513d601f19601f8201168201806040525081019061111591906127cb565b92506111215f84611b16565b506040516001600160a01b038416907ffa970ff5f178441bbe297db8d35a584c9bd6628b17b82d80dc8f5b80063102ca905f90a25050949350505050565b604080515f815260208101909152606090826001600160401b0381111561118857611188612026565b6040519080825280602002602001820160405280156111bb57816020015b60608152602001906001900390816111a65790505b5091505f5b8381101561123c57611217308686848181106111de576111de6127b7565b90506020028101906111f091906129b7565b8560405160200161120393929190612a00565b604051602081830303815290604052611b2a565b838281518110611229576112296127b7565b60209081029190910101526001016111c0565b505092915050565b5f61124e816116a3565b6001600160a01b0382166112755760405163de0ce17d60e01b815260040160405180910390fd5b6006546040516001600160a01b038085169216907ffb3d0b43c5121de915eeb8fa2fb4bb792b6b05d5d6f3df7630aac9d9e8697312905f90a350600680546001600160a01b0319166001600160a01b0392909216919091179055565b5f6112da6119ac565b805490915060ff600160401b82041615906001600160401b03165f811580156113005750825b90505f826001600160401b0316600114801561131b5750303b155b905081158015611329575080155b156113475760405163f92ee8a960e01b815260040160405180910390fd5b845467ffffffffffffffff19166001178555831561137157845460ff60401b1916600160401b1785555b61137a86611b9c565b611382611bad565b61138a611bad565b611392611bad565b61139a611bad565b6113a45f876116ad565b506113cf7f65d7a28e3265b37a6474929f336521b332c1681b933f6cb9f3376673440d862a876116ad565b506113fa7ffc8737ab85eb45125971625a9ebdb75cc78e01d5c1fa80c4c6e5203f47bc4fab876116ad565b506114257f1eae1854c74a696c6de86fd3c6383d5c1e2c33fbc86e1aa6b6c872d95bd24038876116ad565b50831561146c57845460ff60401b19168555604051600181527fc7f505b2f371ae2175ee4913f4499e1f2633a7b5936321eed1cdaeb6115181d29060200160405180910390a15b505050505050565b5f8061147f816116a3565b60405163145b6cb960e11b815273__$8498e19059e8c9c59d07dfb635c44386c6$__906328b6d972906114b6908690600401612a25565b602060405180830381865af41580156114d1573d5f803e3d5ffd5b505050506040513d601f19601f820116820180604052508101906114f591906127cb565b6040519092506001600160a01b038316907f970cbcaabfe7c54976df22e530fb6ef3a9202796c410ae94972a9b109d5b2ca8905f90a250919050565b61153a826106f5565b611543816116a3565b610740838361174e565b5f807f237e158222e3e6968b72b9db0d8043aacf074ad9f650f0d1606b4d82ee432c00610d4a565b5f6106ef8183611a2d565b606061158b5f61169a565b6001600160401b038111156115a2576115a2612026565b6040519080825280602002602001820160405280156115cb578160200160208202803683370190505b5090505f5b8151811015610c65576115e35f82611a2d565b8282815181106115f5576115f56127b7565b6001600160a01b03909216602092830291909101909101526001016115d0565b61161d61197a565b7f237e158222e3e6968b72b9db0d8043aacf074ad9f650f0d1606b4d82ee432c0080546001600160a01b0319166001600160a01b0383169081178255611661610d26565b6001600160a01b03167f38d16b8cac22d99fc7c124b9cd0de2d3fa1faef420bfe791d8c362d765e2270060405160405180910390a35050565b5f6106ef825490565b610cb38133611bb5565b5f5f80516020612b698339815191526116c68484610f08565b611745575f848152602082815260408083206001600160a01b03871684529091529020805460ff191660011790556116fb3390565b6001600160a01b0316836001600160a01b0316857f2f8788117e7eff1d82e926ec794901d17c78024a50270940304540a733656f0d60405160405180910390a460019150506106ef565b5f9150506106ef565b5f5f80516020612b698339815191526117678484610f08565b15611745575f848152602082815260408083206001600160a01b0387168085529252808320805460ff1916905551339287917ff6391f5c32d9c69d2a47ea670b442974b53935d1edc7fd64eb21e047a839171b9190a460019150506106ef565b306001600160a01b037f000000000000000000000000000000000000000000000000000000000000000016148061184d57507f00000000000000000000000000000000000000000000000000000000000000006001600160a01b03166118415f80516020612b49833981519152546001600160a01b031690565b6001600160a01b031614155b156109395760405163703e46dd60e11b815260040160405180910390fd5b5f610799816116a3565b816001600160a01b03166352d1902d6040518163ffffffff1660e01b8152600401602060405180830381865afa9250505080156118cf575060408051601f3d908101601f191682019092526118cc91810190612b02565b60015b6118f757604051634c9c8ce360e01b81526001600160a01b0383166004820152602401610ca1565b5f80516020612b49833981519152811461192757604051632a87526960e21b815260048101829052602401610ca1565b6107798383611bee565b306001600160a01b037f000000000000000000000000000000000000000000000000000000000000000016146109395760405163703e46dd60e11b815260040160405180910390fd5b33611983610d26565b6001600160a01b0316146109395760405163118cdaa760e01b8152336004820152602401610ca1565b5f807ff0c57e16840df040f15088dc2f81fe391c3923bec73e23a9662efc9c229c6a006106ef565b7f237e158222e3e6968b72b9db0d8043aacf074ad9f650f0d1606b4d82ee432c0080546001600160a01b031916815561079982611c43565b6001600160a01b0381165f9081526001830160205260408120541515610d1f565b5f610d1f8383611cb3565b5f611a44848484611cd9565b949350505050565b60605f611a5883611cfd565b60010190505f816001600160401b03811115611a7657611a76612026565b6040519080825280601f01601f191660200182016040528015611aa0576020820181803683370190505b5090508181016020015b5f19016f181899199a1a9b1b9c1cb0b131b232b360811b600a86061a8153600a8504945084611aaa57509392505050565b5f81600a811115611aee57611aee612b19565b6001901b831615159392505050565b5f80611b0c60016104006129a4565b9092111592915050565b5f610d1f836001600160a01b038416611dd4565b60605f80846001600160a01b031684604051611b469190612b2d565b5f60405180830381855af49150503d805f8114611b7e576040519150601f19603f3d011682016040523d82523d5f602084013e611b83565b606091505b5091509150611b93858383611e20565b95945050505050565b611ba4611e7c565b610cb381611ea1565b610939611e7c565b611bbf8282610f08565b6107995760405163e2517d3f60e01b81526001600160a01b038216600482015260248101839052604401610ca1565b611bf782611ed2565b6040516001600160a01b038316907fbc7cd75a20ee27fd9adebab32041f755214dbc6bffa90cc0225b39da2e5c2d3b905f90a2805115611c3b576107798282611b2a565b610799611f35565b7f9016d09d72d40fdae2fd8ceac6b6234c7706214fd39c1cd1e609a0528c19930080546001600160a01b031981166001600160a01b03848116918217845560405192169182907f8be0079c531659141344cd1fd0a4f28419497f9722a3daafe3b4186f6b6457e0905f90a3505050565b5f825f018281548110611cc857611cc86127b7565b905f5260205f200154905092915050565b5f825f190484118302158202611cf65763ad251c275f526004601cfd5b5091020490565b5f8072184f03e93ff9f4daa797ed6e38ed64bf6a1f0160401b8310611d3b5772184f03e93ff9f4daa797ed6e38ed64bf6a1f0160401b830492506040015b6d04ee2d6d415b85acef81000000008310611d67576d04ee2d6d415b85acef8100000000830492506020015b662386f26fc100008310611d8557662386f26fc10000830492506010015b6305f5e1008310611d9d576305f5e100830492506008015b6127108310611db157612710830492506004015b60648310611dc3576064830492506002015b600a83106106ef5760010192915050565b5f818152600183016020526040812054611e1957508154600181810184555f8481526020808220909301849055845484825282860190935260409020919091556106ef565b505f6106ef565b606082611e3557611e3082611f54565b610d1f565b8151158015611e4c57506001600160a01b0384163b155b15611e7557604051639996b31560e01b81526001600160a01b0385166004820152602401610ca1565b5080610d1f565b611e84611f7d565b61093957604051631afcd79f60e31b815260040160405180910390fd5b611ea9611e7c565b6001600160a01b038116610caa57604051631e4fbdf760e01b81525f6004820152602401610ca1565b806001600160a01b03163b5f03611f0757604051634c9c8ce360e01b81526001600160a01b0382166004820152602401610ca1565b5f80516020612b4983398151915280546001600160a01b0319166001600160a01b0392909216919091179055565b34156109395760405163b398979f60e01b815260040160405180910390fd5b805115611f645780518082602001fd5b60405163d6bda27560e01b815260040160405180910390fd5b5f611f866119ac565b54600160401b900460ff16919050565b5f60208284031215611fa6575f80fd5b81356001600160e01b031981168114610d1f575f80fd5b5f60208284031215611fcd575f80fd5b5035919050565b6001600160a01b0381168114610cb3575f80fd5b8035611ff381611fd4565b919050565b5f8060408385031215612009575f80fd5b82359150602083013561201b81611fd4565b809150509250929050565b634e487b7160e01b5f52604160045260245ffd5b60405161014081016001600160401b038111828210171561205d5761205d612026565b60405290565b604051601f8201601f191681016001600160401b038111828210171561208b5761208b612026565b604052919050565b5f6001600160401b038211156120ab576120ab612026565b50601f01601f191660200190565b5f80604083850312156120ca575f80fd5b82356120d581611fd4565b915060208301356001600160401b038111156120ef575f80fd5b8301601f810185136120ff575f80fd5b803561211261210d82612093565b612063565b818152866020838501011115612126575f80fd5b816020840160208301375f602083830101528093505050509250929050565b5f5b8381101561215f578181015183820152602001612147565b50505f910152565b5f815180845261217e816020860160208601612145565b601f01601f19169290920160200192915050565b602081525f610d1f6020830184612167565b5f602082840312156121b4575f80fd5b8135610d1f81611fd4565b5f60208083016020845280855180835260408601915060408160051b8701019250602087015f5b8281101561221457603f19888603018452612202858351612167565b945092850192908501906001016121e6565b5092979650505050505050565b5f805f60608486031215612233575f80fd5b83359250602084013561224581611fd4565b9150604084013561225581611fd4565b809150509250925092565b5f805f60608486031215612272575f80fd5b833561227d81611fd4565b9250602084013561228d81611fd4565b91506040840135600b8110612255575f80fd5b5f80604083850312156122b1575f80fd5b82356122bc81611fd4565b9150602083013561201b81611fd4565b5f80604083850312156122dd575f80fd5b82356122e881611fd4565b946020939093013593505050565b5f805f60608486031215612308575f80fd5b833561231381611fd4565b9250602084013561232381611fd4565b929592945050506040919091013590565b5f60c08284031215612344575f80fd5b50919050565b5f805f8084860361028081121561235f575f80fd5b6123698787612334565b94506123788760c08801612334565b9350604061017f198201121561238c575f80fd5b50610180850191506123a2866101c08701612334565b905092959194509250565b5f80602083850312156123be575f80fd5b82356001600160401b03808211156123d4575f80fd5b818501915085601f8301126123e7575f80fd5b8135818111156123f5575f80fd5b8660208260051b8501011115612409575f80fd5b60209290920196919550909350505050565b5f60208083016020845280855180835260408601915060408160051b8701019250602087015f5b8281101561221457603f1988860301845261245e858351612167565b94509285019290850190600101612442565b803563ffffffff81168114611ff3575f80fd5b5f6101408284031215612494575f80fd5b61249c61203a565b6124a583611fe8565b81526124b360208401612470565b60208201526124c460408401612470565b60408201526124d560608401611fe8565b60608201526124e660808401611fe8565b60808201526124f760a08401611fe8565b60a082015261250860c08401611fe8565b60c082015260e083013560e0820152610100808401358183015250610120612531818501611fe8565b908201529392505050565b602080825282518282018190525f9190848201906040850190845b8181101561257c5783516001600160a01b031683529284019291840191600101612557565b50909695505050505050565b5f60c08284031215612598575f80fd5b60405160c081018181106001600160401b03821117156125ba576125ba612026565b8060405250825181526020830151602082015260408301516040820152606083015160608201526080830151608082015260a083015160a08201528091505092915050565b8051611ff381611fd4565b5f61010080838503121561261c575f80fd5b604051908101906001600160401b038211818310171561263e5761263e612026565b8160405283518152602084015160208201526040840151915061266082611fd4565b816040820152612672606085016125ff565b6060820152612683608085016125ff565b608082015261269460a085016125ff565b60a08201526126a560c085016125ff565b60c08201526126b660e085016125ff565b60e0820152949350505050565b5f602082840312156126d3575f80fd5b81516001600160401b038111156126e8575f80fd5b8201601f810184136126f8575f80fd5b805161270661210d82612093565b81815285602083850101111561271a575f80fd5b611b93826020830160208601612145565b66029b4bd32903e160cd1b81525f855161274c816007850160208a01612145565b8083019050620103e160ed1b806007830152865161277181600a850160208b01612145565b600a9201918201819052855161278e81600d850160208a01612145565b600d92019182015283516127a9816010840160208801612145565b016010019695505050505050565b634e487b7160e01b5f52603260045260245ffd5b5f602082840312156127db575f80fd5b8151610d1f81611fd4565b634e487b7160e01b5f52601160045260245ffd5b5f6001820161280b5761280b6127e6565b5060010190565b803561281d81611fd4565b6001600160a01b0316825260208101356001600160401b038116808214612842575f80fd5b80602085015250505050565b803561285981611fd4565b6001600160a01b03908116835260208201359061287582611fd4565b908116602084015260408201359061288c82611fd4565b90811660408401526060820135906128a382611fd4565b90811660608401526080820135906128ba82611fd4565b908116608084015260a0820135906128d182611fd4565b80821660a085015250505050565b5f6102c08201905060018060a01b0380891683528088166020840152863560408401526020870135606084015260408701356080840152606087013560a0840152608087013560c084015260a087013561293881611fd4565b1660e08301528435610100830152602085013561012083015260408501356101408301526060850135610160830152608085013561018083015260a08501356101a083015261298b6101c0830185612812565b61299961020083018461284e565b979650505050505050565b818103818111156106ef576106ef6127e6565b5f808335601e198436030181126129cc575f80fd5b8301803591506001600160401b038211156129e5575f80fd5b6020019150368190038213156129f9575f80fd5b9250929050565b828482375f8382015f81528351612a1b818360208801612145565b0195945050505050565b81516001600160a01b0316815261014081016020830151612a4e602084018263ffffffff169052565b506040830151612a66604084018263ffffffff169052565b506060830151612a8160608401826001600160a01b03169052565b506080830151612a9c60808401826001600160a01b03169052565b5060a0830151612ab760a08401826001600160a01b03169052565b5060c0830151612ad260c08401826001600160a01b03169052565b5060e083810151908301526101008084015190830152610120808401516001600160a01b0381168285015261123c565b5f60208284031215612b12575f80fd5b5051919050565b634e487b7160e01b5f52602160045260245ffd5b5f8251612b3e818460208701612145565b919091019291505056fe360894a13ba1a3210667c828492db98dca3e2076cc3735a920a3ca505d382bbc02dd7bc7dec4dceedda775e58dd541e08a116c6c53815c0bd028192f7b626800a26469706673582212203e8ced242904792f922bbb5948092e4ebea8a926cd4f0a499a32285cdd0283bf64736f6c63430008170033",
    "linkReferences": {
      "src/factory/libraries/MarketFactoryLibrary.sol": {
        "MarketFactoryLibrary": [
          {
            "start": 4506,
            "length": 20
          }
        ]
      },
      "src/factory/libraries/NonTransferrableScaledTokenV1_5FactoryLibrary.sol": {
        "NonTransferrableScaledTokenV1_5FactoryLibrary": [
          {
            "start": 3743,
            "length": 20
          }
        ]
      },
      "src/factory/libraries/PriceFeedFactoryLibrary.sol": {
        "PriceFeedFactoryLibrary": [
          {
            "start": 5518,
            "length": 20
          }
        ]
      }
    }
  },
  "methodIdentifiers": {
    "DEFAULT_ADMIN_ROLE()": "a217fddf",
    "UPGRADE_INTERFACE_VERSION()": "ad3cb1cc",
    "acceptOwnership()": "79ba5097",
    "authorizationNonces(address)": "81de274c",
    "authorizations(uint256,address,address)": "7b8dedad",
    "createBorrowATokenV1_5(address,address)": "8e6ee8e5",
    "createMarket((uint256,uint256,uint256,uint256,uint256,address),(uint256,uint256,uint256,uint256,uint256,uint256),(address,uint64),(address,address,address,address,address,address))": "ac236e4a",
    "createPriceFeed((address,uint32,uint32,address,address,address,address,uint256,uint256,address))": "d152e236",
    "getMarket(uint256)": "eb44fdd3",
    "getMarketDescriptions()": "7643d7ec",
    "getMarkets()": "ec2c9016",
    "getMarketsCount()": "27fa35c3",
    "getRoleAdmin(bytes32)": "248a9ca3",
    "grantRole(bytes32,address)": "2f2ff15d",
    "hasRole(bytes32,address)": "91d14854",
    "initialize(address)": "c4d66de8",
    "isAuthorized(address,address,uint8)": "86eeeb5a",
    "isAuthorizedAll(address,address,uint256)": "a78ec6ae",
    "isMarket(address)": "6ec934da",
    "multicall(bytes[])": "ac9650d8",
    "nonTransferrableScaledTokenV1_5Implementation()": "925fc9ef",
    "owner()": "8da5cb5b",
    "pendingOwner()": "e30c3978",
    "proxiableUUID()": "52d1902d",
    "reinitialize()": "6c2eb350",
    "renounceOwnership()": "715018a6",
    "renounceRole(bytes32,address)": "36568abe",
    "revokeAllAuthorizations()": "a7b2b310",
    "revokeRole(bytes32,address)": "d547741f",
    "setAuthorization(address,uint256)": "91c769ce",
    "setNonTransferrableScaledTokenV1_5Implementation(address)": "aa2c6af4",
    "setSizeImplementation(address)": "b4cd6bd1",
    "sizeImplementation()": "973cf867",
    "supportsInterface(bytes4)": "01ffc9a7",
    "transferOwnership(address)": "f2fde38b",
    "upgradeToAndCall(address,bytes)": "4f1ef286",
    "version()": "54fd4d50"
  },
  "id": 226
}