{
  "abi": [
    {
      "type": "constructor",
      "inputs": [],
      "stateMutability": "nonpayable"
    },
    {
      "type": "function",
      "name": "UPGRADE_INTERFACE_VERSION",
      "inputs": [],
      "outputs": [
        {
          "name": "",
          "type": "string",
          "internalType": "string"
        }
      ],
      "stateMutability": "view"
    },
    {
      "type": "function",
      "name": "addMarketsToCollection",
      "inputs": [
        {
          "name": "collectionId",
          "type": "uint256",
          "internalType": "uint256"
        },
        {
          "name": "markets",
          "type": "address[]",
          "internalType": "contract ISize[]"
        }
      ],
      "outputs": [],
      "stateMutability": "nonpayable"
    },
    {
      "type": "function",
      "name": "addRateProvidersToCollectionMarket",
      "inputs": [
        {
          "name": "collectionId",
          "type": "uint256",
          "internalType": "uint256"
        },
        {
          "name": "market",
          "type": "address",
          "internalType": "contract ISize"
        },
        {
          "name": "rateProviders",
          "type": "address[]",
          "internalType": "address[]"
        }
      ],
      "outputs": [],
      "stateMutability": "nonpayable"
    },
    {
      "type": "function",
      "name": "approve",
      "inputs": [
        {
          "name": "to",
          "type": "address",
          "internalType": "address"
        },
        {
          "name": "tokenId",
          "type": "uint256",
          "internalType": "uint256"
        }
      ],
      "outputs": [],
      "stateMutability": "nonpayable"
    },
    {
      "type": "function",
      "name": "balanceOf",
      "inputs": [
        {
          "name": "owner",
          "type": "address",
          "internalType": "address"
        }
      ],
      "outputs": [
        {
          "name": "",
          "type": "uint256",
          "internalType": "uint256"
        }
      ],
      "stateMutability": "view"
    },
    {
      "type": "function",
      "name": "collectionContainsMarket",
      "inputs": [
        {
          "name": "collectionId",
          "type": "uint256",
          "internalType": "uint256"
        },
        {
          "name": "market",
          "type": "address",
          "internalType": "contract ISize"
        }
      ],
      "outputs": [
        {
          "name": "",
          "type": "bool",
          "internalType": "bool"
        }
      ],
      "stateMutability": "view"
    },
    {
      "type": "function",
      "name": "createCollection",
      "inputs": [],
      "outputs": [
        {
          "name": "collectionId",
          "type": "uint256",
          "internalType": "uint256"
        }
      ],
      "stateMutability": "nonpayable"
    },
    {
      "type": "function",
      "name": "getApproved",
      "inputs": [
        {
          "name": "tokenId",
          "type": "uint256",
          "internalType": "uint256"
        }
      ],
      "outputs": [
        {
          "name": "",
          "type": "address",
          "internalType": "address"
        }
      ],
      "stateMutability": "view"
    },
    {
      "type": "function",
      "name": "getBorrowOfferAPR",
      "inputs": [
        {
          "name": "user",
          "type": "address",
          "internalType": "address"
        },
        {
          "name": "collectionId",
          "type": "uint256",
          "internalType": "uint256"
        },
        {
          "name": "market",
          "type": "address",
          "internalType": "contract ISize"
        },
        {
          "name": "rateProvider",
          "type": "address",
          "internalType": "address"
        },
        {
          "name": "tenor",
          "type": "uint256",
          "internalType": "uint256"
        }
      ],
      "outputs": [
        {
          "name": "apr",
          "type": "uint256",
          "internalType": "uint256"
        }
      ],
      "stateMutability": "view"
    },
    {
      "type": "function",
      "name": "getCollectionMarketCopyBorrowOfferConfig",
      "inputs": [
        {
          "name": "collectionId",
          "type": "uint256",
          "internalType": "uint256"
        },
        {
          "name": "market",
          "type": "address",
          "internalType": "contract ISize"
        }
      ],
      "outputs": [
        {
          "name": "copyLimitOrder",
          "type": "tuple",
          "internalType": "struct CopyLimitOrderConfig",
          "components": [
            {
              "name": "minTenor",
              "type": "uint256",
              "internalType": "uint256"
            },
            {
              "name": "maxTenor",
              "type": "uint256",
              "internalType": "uint256"
            },
            {
              "name": "minAPR",
              "type": "uint256",
              "internalType": "uint256"
            },
            {
              "name": "maxAPR",
              "type": "uint256",
              "internalType": "uint256"
            },
            {
              "name": "offsetAPR",
              "type": "int256",
              "internalType": "int256"
            }
          ]
        }
      ],
      "stateMutability": "view"
    },
    {
      "type": "function",
      "name": "getCollectionMarketCopyLoanOfferConfig",
      "inputs": [
        {
          "name": "collectionId",
          "type": "uint256",
          "internalType": "uint256"
        },
        {
          "name": "market",
          "type": "address",
          "internalType": "contract ISize"
        }
      ],
      "outputs": [
        {
          "name": "copyLimitOrder",
          "type": "tuple",
          "internalType": "struct CopyLimitOrderConfig",
          "components": [
            {
              "name": "minTenor",
              "type": "uint256",
              "internalType": "uint256"
            },
            {
              "name": "maxTenor",
              "type": "uint256",
              "internalType": "uint256"
            },
            {
              "name": "minAPR",
              "type": "uint256",
              "internalType": "uint256"
            },
            {
              "name": "maxAPR",
              "type": "uint256",
              "internalType": "uint256"
            },
            {
              "name": "offsetAPR",
              "type": "int256",
              "internalType": "int256"
            }
          ]
        }
      ],
      "stateMutability": "view"
    },
    {
      "type": "function",
      "name": "getCollectionMarketRateProviders",
      "inputs": [
        {
          "name": "collectionId",
          "type": "uint256",
          "internalType": "uint256"
        },
        {
          "name": "market",
          "type": "address",
          "internalType": "contract ISize"
        }
      ],
      "outputs": [
        {
          "name": "",
          "type": "address[]",
          "internalType": "address[]"
        }
      ],
      "stateMutability": "view"
    },
    {
      "type": "function",
      "name": "getLimitOrderAPR",
      "inputs": [
        {
          "name": "user",
          "type": "address",
          "internalType": "address"
        },
        {
          "name": "collectionId",
          "type": "uint256",
          "internalType": "uint256"
        },
        {
          "name": "market",
          "type": "address",
          "internalType": "contract ISize"
        },
        {
          "name": "rateProvider",
          "type": "address",
          "internalType": "address"
        },
        {
          "name": "tenor",
          "type": "uint256",
          "internalType": "uint256"
        },
        {
          "name": "isLoanOffer",
          "type": "bool",
          "internalType": "bool"
        }
      ],
      "outputs": [
        {
          "name": "apr",
          "type": "uint256",
          "internalType": "uint256"
        }
      ],
      "stateMutability": "view"
    },
    {
      "type": "function",
      "name": "getLoanOfferAPR",
      "inputs": [
        {
          "name": "user",
          "type": "address",
          "internalType": "address"
        },
        {
          "name": "collectionId",
          "type": "uint256",
          "internalType": "uint256"
        },
        {
          "name": "market",
          "type": "address",
          "internalType": "contract ISize"
        },
        {
          "name": "rateProvider",
          "type": "address",
          "internalType": "address"
        },
        {
          "name": "tenor",
          "type": "uint256",
          "internalType": "uint256"
        }
      ],
      "outputs": [
        {
          "name": "apr",
          "type": "uint256",
          "internalType": "uint256"
        }
      ],
      "stateMutability": "view"
    },
    {
      "type": "function",
      "name": "getSubscribedCollections",
      "inputs": [
        {
          "name": "user",
          "type": "address",
          "internalType": "address"
        }
      ],
      "outputs": [
        {
          "name": "collectionIds",
          "type": "uint256[]",
          "internalType": "uint256[]"
        }
      ],
      "stateMutability": "view"
    },
    {
      "type": "function",
      "name": "initialize",
      "inputs": [
        {
          "name": "_sizeFactory",
          "type": "address",
          "internalType": "contract ISizeFactory"
        }
      ],
      "outputs": [],
      "stateMutability": "nonpayable"
    },
    {
      "type": "function",
      "name": "isApprovedForAll",
      "inputs": [
        {
          "name": "owner",
          "type": "address",
          "internalType": "address"
        },
        {
          "name": "operator",
          "type": "address",
          "internalType": "address"
        }
      ],
      "outputs": [
        {
          "name": "",
          "type": "bool",
          "internalType": "bool"
        }
      ],
      "stateMutability": "view"
    },
    {
      "type": "function",
      "name": "isBorrowAPRLowerThanLoanOfferAPRs",
      "inputs": [
        {
          "name": "user",
          "type": "address",
          "internalType": "address"
        },
        {
          "name": "borrowAPR",
          "type": "uint256",
          "internalType": "uint256"
        },
        {
          "name": "market",
          "type": "address",
          "internalType": "contract ISize"
        },
        {
          "name": "tenor",
          "type": "uint256",
          "internalType": "uint256"
        }
      ],
      "outputs": [
        {
          "name": "",
          "type": "bool",
          "internalType": "bool"
        }
      ],
      "stateMutability": "view"
    },
    {
      "type": "function",
      "name": "isCopyingCollectionMarketRateProvider",
      "inputs": [
        {
          "name": "user",
          "type": "address",
          "internalType": "address"
        },
        {
          "name": "collectionId",
          "type": "uint256",
          "internalType": "uint256"
        },
        {
          "name": "market",
          "type": "address",
          "internalType": "contract ISize"
        },
        {
          "name": "rateProvider",
          "type": "address",
          "internalType": "address"
        }
      ],
      "outputs": [
        {
          "name": "",
          "type": "bool",
          "internalType": "bool"
        }
      ],
      "stateMutability": "view"
    },
    {
      "type": "function",
      "name": "isLoanAPRGreaterThanBorrowOfferAPRs",
      "inputs": [
        {
          "name": "user",
          "type": "address",
          "internalType": "address"
        },
        {
          "name": "loanAPR",
          "type": "uint256",
          "internalType": "uint256"
        },
        {
          "name": "market",
          "type": "address",
          "internalType": "contract ISize"
        },
        {
          "name": "tenor",
          "type": "uint256",
          "internalType": "uint256"
        }
      ],
      "outputs": [
        {
          "name": "",
          "type": "bool",
          "internalType": "bool"
        }
      ],
      "stateMutability": "view"
    },
    {
      "type": "function",
      "name": "isSubscribedToCollection",
      "inputs": [
        {
          "name": "user",
          "type": "address",
          "internalType": "address"
        },
        {
          "name": "collectionId",
          "type": "uint256",
          "internalType": "uint256"
        }
      ],
      "outputs": [
        {
          "name": "",
          "type": "bool",
          "internalType": "bool"
        }
      ],
      "stateMutability": "view"
    },
    {
      "type": "function",
      "name": "isValidCollectionId",
      "inputs": [
        {
          "name": "collectionId",
          "type": "uint256",
          "internalType": "uint256"
        }
      ],
      "outputs": [
        {
          "name": "",
          "type": "bool",
          "internalType": "bool"
        }
      ],
      "stateMutability": "view"
    },
    {
      "type": "function",
      "name": "multicall",
      "inputs": [
        {
          "name": "data",
          "type": "bytes[]",
          "internalType": "bytes[]"
        }
      ],
      "outputs": [
        {
          "name": "results",
          "type": "bytes[]",
          "internalType": "bytes[]"
        }
      ],
      "stateMutability": "nonpayable"
    },
    {
      "type": "function",
      "name": "name",
      "inputs": [],
      "outputs": [
        {
          "name": "",
          "type": "string",
          "internalType": "string"
        }
      ],
      "stateMutability": "view"
    },
    {
      "type": "function",
      "name": "ownerOf",
      "inputs": [
        {
          "name": "tokenId",
          "type": "uint256",
          "internalType": "uint256"
        }
      ],
      "outputs": [
        {
          "name": "",
          "type": "address",
          "internalType": "address"
        }
      ],
      "stateMutability": "view"
    },
    {
      "type": "function",
      "name": "proxiableUUID",
      "inputs": [],
      "outputs": [
        {
          "name": "",
          "type": "bytes32",
          "internalType": "bytes32"
        }
      ],
      "stateMutability": "view"
    },
    {
      "type": "function",
      "name": "removeMarketsFromCollection",
      "inputs": [
        {
          "name": "collectionId",
          "type": "uint256",
          "internalType": "uint256"
        },
        {
          "name": "markets",
          "type": "address[]",
          "internalType": "contract ISize[]"
        }
      ],
      "outputs": [],
      "stateMutability": "nonpayable"
    },
    {
      "type": "function",
      "name": "removeRateProvidersFromCollectionMarket",
      "inputs": [
        {
          "name": "collectionId",
          "type": "uint256",
          "internalType": "uint256"
        },
        {
          "name": "market",
          "type": "address",
          "internalType": "contract ISize"
        },
        {
          "name": "rateProviders",
          "type": "address[]",
          "internalType": "address[]"
        }
      ],
      "outputs": [],
      "stateMutability": "nonpayable"
    },
    {
      "type": "function",
      "name": "safeTransferFrom",
      "inputs": [
        {
          "name": "from",
          "type": "address",
          "internalType": "address"
        },
        {
          "name": "to",
          "type": "address",
          "internalType": "address"
        },
        {
          "name": "tokenId",
          "type": "uint256",
          "internalType": "uint256"
        }
      ],
      "outputs": [],
      "stateMutability": "nonpayable"
    },
    {
      "type": "function",
      "name": "safeTransferFrom",
      "inputs": [
        {
          "name": "from",
          "type": "address",
          "internalType": "address"
        },
        {
          "name": "to",
          "type": "address",
          "internalType": "address"
        },
        {
          "name": "tokenId",
          "type": "uint256",
          "internalType": "uint256"
        },
        {
          "name": "data",
          "type": "bytes",
          "internalType": "bytes"
        }
      ],
      "outputs": [],
      "stateMutability": "nonpayable"
    },
    {
      "type": "function",
      "name": "setApprovalForAll",
      "inputs": [
        {
          "name": "operator",
          "type": "address",
          "internalType": "address"
        },
        {
          "name": "approved",
          "type": "bool",
          "internalType": "bool"
        }
      ],
      "outputs": [],
      "stateMutability": "nonpayable"
    },
    {
      "type": "function",
      "name": "setCollectionMarketConfigs",
      "inputs": [
        {
          "name": "collectionId",
          "type": "uint256",
          "internalType": "uint256"
        },
        {
          "name": "markets",
          "type": "address[]",
          "internalType": "contract ISize[]"
        },
        {
          "name": "copyLoanOfferConfigs",
          "type": "tuple[]",
          "internalType": "struct CopyLimitOrderConfig[]",
          "components": [
            {
              "name": "minTenor",
              "type": "uint256",
              "internalType": "uint256"
            },
            {
              "name": "maxTenor",
              "type": "uint256",
              "internalType": "uint256"
            },
            {
              "name": "minAPR",
              "type": "uint256",
              "internalType": "uint256"
            },
            {
              "name": "maxAPR",
              "type": "uint256",
              "internalType": "uint256"
            },
            {
              "name": "offsetAPR",
              "type": "int256",
              "internalType": "int256"
            }
          ]
        },
        {
          "name": "copyBorrowOfferConfigs",
          "type": "tuple[]",
          "internalType": "struct CopyLimitOrderConfig[]",
          "components": [
            {
              "name": "minTenor",
              "type": "uint256",
              "internalType": "uint256"
            },
            {
              "name": "maxTenor",
              "type": "uint256",
              "internalType": "uint256"
            },
            {
              "name": "minAPR",
              "type": "uint256",
              "internalType": "uint256"
            },
            {
              "name": "maxAPR",
              "type": "uint256",
              "internalType": "uint256"
            },
            {
              "name": "offsetAPR",
              "type": "int256",
              "internalType": "int256"
            }
          ]
        }
      ],
      "outputs": [],
      "stateMutability": "nonpayable"
    },
    {
      "type": "function",
      "name": "subscribeUserToCollections",
      "inputs": [
        {
          "name": "user",
          "type": "address",
          "internalType": "address"
        },
        {
          "name": "collectionIds",
          "type": "uint256[]",
          "internalType": "uint256[]"
        }
      ],
      "outputs": [],
      "stateMutability": "nonpayable"
    },
    {
      "type": "function",
      "name": "supportsInterface",
      "inputs": [
        {
          "name": "interfaceId",
          "type": "bytes4",
          "internalType": "bytes4"
        }
      ],
      "outputs": [
        {
          "name": "",
          "type": "bool",
          "internalType": "bool"
        }
      ],
      "stateMutability": "view"
    },
    {
      "type": "function",
      "name": "symbol",
      "inputs": [],
      "outputs": [
        {
          "name": "",
          "type": "string",
          "internalType": "string"
        }
      ],
      "stateMutability": "view"
    },
    {
      "type": "function",
      "name": "tokenByIndex",
      "inputs": [
        {
          "name": "index",
          "type": "uint256",
          "internalType": "uint256"
        }
      ],
      "outputs": [
        {
          "name": "",
          "type": "uint256",
          "internalType": "uint256"
        }
      ],
      "stateMutability": "view"
    },
    {
      "type": "function",
      "name": "tokenOfOwnerByIndex",
      "inputs": [
        {
          "name": "owner",
          "type": "address",
          "internalType": "address"
        },
        {
          "name": "index",
          "type": "uint256",
          "internalType": "uint256"
        }
      ],
      "outputs": [
        {
          "name": "",
          "type": "uint256",
          "internalType": "uint256"
        }
      ],
      "stateMutability": "view"
    },
    {
      "type": "function",
      "name": "tokenURI",
      "inputs": [
        {
          "name": "tokenId",
          "type": "uint256",
          "internalType": "uint256"
        }
      ],
      "outputs": [
        {
          "name": "",
          "type": "string",
          "internalType": "string"
        }
      ],
      "stateMutability": "view"
    },
    {
      "type": "function",
      "name": "totalSupply",
      "inputs": [],
      "outputs": [
        {
          "name": "",
          "type": "uint256",
          "internalType": "uint256"
        }
      ],
      "stateMutability": "view"
    },
    {
      "type": "function",
      "name": "transferFrom",
      "inputs": [
        {
          "name": "from",
          "type": "address",
          "internalType": "address"
        },
        {
          "name": "to",
          "type": "address",
          "internalType": "address"
        },
        {
          "name": "tokenId",
          "type": "uint256",
          "internalType": "uint256"
        }
      ],
      "outputs": [],
      "stateMutability": "nonpayable"
    },
    {
      "type": "function",
      "name": "unsubscribeUserFromCollections",
      "inputs": [
        {
          "name": "user",
          "type": "address",
          "internalType": "address"
        },
        {
          "name": "collectionIds",
          "type": "uint256[]",
          "internalType": "uint256[]"
        }
      ],
      "outputs": [],
      "stateMutability": "nonpayable"
    },
    {
      "type": "function",
      "name": "upgradeToAndCall",
      "inputs": [
        {
          "name": "newImplementation",
          "type": "address",
          "internalType": "address"
        },
        {
          "name": "data",
          "type": "bytes",
          "internalType": "bytes"
        }
      ],
      "outputs": [],
      "stateMutability": "payable"
    },
    {
      "type": "event",
      "name": "AddMarketToCollection",
      "inputs": [
        {
          "name": "collectionId",
          "type": "uint256",
          "indexed": true,
          "internalType": "uint256"
        },
        {
          "name": "market",
          "type": "address",
          "indexed": true,
          "internalType": "address"
        },
        {
          "name": "copyLoanOfferConfig",
          "type": "tuple",
          "indexed": false,
          "internalType": "struct CopyLimitOrderConfig",
          "components": [
            {
              "name": "minTenor",
              "type": "uint256",
              "internalType": "uint256"
            },
            {
              "name": "maxTenor",
              "type": "uint256",
              "internalType": "uint256"
            },
            {
              "name": "minAPR",
              "type": "uint256",
              "internalType": "uint256"
            },
            {
              "name": "maxAPR",
              "type": "uint256",
              "internalType": "uint256"
            },
            {
              "name": "offsetAPR",
              "type": "int256",
              "internalType": "int256"
            }
          ]
        },
        {
          "name": "copyBorrowOfferConfig",
          "type": "tuple",
          "indexed": false,
          "internalType": "struct CopyLimitOrderConfig",
          "components": [
            {
              "name": "minTenor",
              "type": "uint256",
              "internalType": "uint256"
            },
            {
              "name": "maxTenor",
              "type": "uint256",
              "internalType": "uint256"
            },
            {
              "name": "minAPR",
              "type": "uint256",
              "internalType": "uint256"
            },
            {
              "name": "maxAPR",
              "type": "uint256",
              "internalType": "uint256"
            },
            {
              "name": "offsetAPR",
              "type": "int256",
              "internalType": "int256"
            }
          ]
        }
      ],
      "anonymous": false
    },
    {
      "type": "event",
      "name": "AddRateProviderToMarket",
      "inputs": [
        {
          "name": "collectionId",
          "type": "uint256",
          "indexed": true,
          "internalType": "uint256"
        },
        {
          "name": "market",
          "type": "address",
          "indexed": true,
          "internalType": "address"
        },
        {
          "name": "rateProvider",
          "type": "address",
          "indexed": true,
          "internalType": "address"
        }
      ],
      "anonymous": false
    },
    {
      "type": "event",
      "name": "Approval",
      "inputs": [
        {
          "name": "owner",
          "type": "address",
          "indexed": true,
          "internalType": "address"
        },
        {
          "name": "approved",
          "type": "address",
          "indexed": true,
          "internalType": "address"
        },
        {
          "name": "tokenId",
          "type": "uint256",
          "indexed": true,
          "internalType": "uint256"
        }
      ],
      "anonymous": false
    },
    {
      "type": "event",
      "name": "ApprovalForAll",
      "inputs": [
        {
          "name": "owner",
          "type": "address",
          "indexed": true,
          "internalType": "address"
        },
        {
          "name": "operator",
          "type": "address",
          "indexed": true,
          "internalType": "address"
        },
        {
          "name": "approved",
          "type": "bool",
          "indexed": false,
          "internalType": "bool"
        }
      ],
      "anonymous": false
    },
    {
      "type": "event",
      "name": "Initialized",
      "inputs": [
        {
          "name": "version",
          "type": "uint64",
          "indexed": false,
          "internalType": "uint64"
        }
      ],
      "anonymous": false
    },
    {
      "type": "event",
      "name": "RemoveMarketFromCollection",
      "inputs": [
        {
          "name": "collectionId",
          "type": "uint256",
          "indexed": true,
          "internalType": "uint256"
        },
        {
          "name": "market",
          "type": "address",
          "indexed": true,
          "internalType": "address"
        }
      ],
      "anonymous": false
    },
    {
      "type": "event",
      "name": "RemoveRateProviderFromMarket",
      "inputs": [
        {
          "name": "collectionId",
          "type": "uint256",
          "indexed": true,
          "internalType": "uint256"
        },
        {
          "name": "market",
          "type": "address",
          "indexed": true,
          "internalType": "address"
        },
        {
          "name": "rateProvider",
          "type": "address",
          "indexed": true,
          "internalType": "address"
        }
      ],
      "anonymous": false
    },
    {
      "type": "event",
      "name": "SubscribedToCollection",
      "inputs": [
        {
          "name": "user",
          "type": "address",
          "indexed": true,
          "internalType": "address"
        },
        {
          "name": "collectionId",
          "type": "uint256",
          "indexed": true,
          "internalType": "uint256"
        }
      ],
      "anonymous": false
    },
    {
      "type": "event",
      "name": "Transfer",
      "inputs": [
        {
          "name": "from",
          "type": "address",
          "indexed": true,
          "internalType": "address"
        },
        {
          "name": "to",
          "type": "address",
          "indexed": true,
          "internalType": "address"
        },
        {
          "name": "tokenId",
          "type": "uint256",
          "indexed": true,
          "internalType": "uint256"
        }
      ],
      "anonymous": false
    },
    {
      "type": "event",
      "name": "UnsubscribedFromCollection",
      "inputs": [
        {
          "name": "user",
          "type": "address",
          "indexed": true,
          "internalType": "address"
        },
        {
          "name": "collectionId",
          "type": "uint256",
          "indexed": true,
          "internalType": "uint256"
        }
      ],
      "anonymous": false
    },
    {
      "type": "event",
      "name": "Upgraded",
      "inputs": [
        {
          "name": "implementation",
          "type": "address",
          "indexed": true,
          "internalType": "address"
        }
      ],
      "anonymous": false
    },
    {
      "type": "error",
      "name": "ARRAY_LENGTHS_MISMATCH",
      "inputs": []
    },
    {
      "type": "error",
      "name": "AccessControlUnauthorizedAccount",
      "inputs": [
        {
          "name": "account",
          "type": "address",
          "internalType": "address"
        },
        {
          "name": "neededRole",
          "type": "bytes32",
          "internalType": "bytes32"
        }
      ]
    },
    {
      "type": "error",
      "name": "AddressEmptyCode",
      "inputs": [
        {
          "name": "target",
          "type": "address",
          "internalType": "address"
        }
      ]
    },
    {
      "type": "error",
      "name": "ERC1967InvalidImplementation",
      "inputs": [
        {
          "name": "implementation",
          "type": "address",
          "internalType": "address"
        }
      ]
    },
    {
      "type": "error",
      "name": "ERC1967NonPayable",
      "inputs": []
    },
    {
      "type": "error",
      "name": "ERC721EnumerableForbiddenBatchMint",
      "inputs": []
    },
    {
      "type": "error",
      "name": "ERC721IncorrectOwner",
      "inputs": [
        {
          "name": "sender",
          "type": "address",
          "internalType": "address"
        },
        {
          "name": "tokenId",
          "type": "uint256",
          "internalType": "uint256"
        },
        {
          "name": "owner",
          "type": "address",
          "internalType": "address"
        }
      ]
    },
    {
      "type": "error",
      "name": "ERC721InsufficientApproval",
      "inputs": [
        {
          "name": "operator",
          "type": "address",
          "internalType": "address"
        },
        {
          "name": "tokenId",
          "type": "uint256",
          "internalType": "uint256"
        }
      ]
    },
    {
      "type": "error",
      "name": "ERC721InvalidApprover",
      "inputs": [
        {
          "name": "approver",
          "type": "address",
          "internalType": "address"
        }
      ]
    },
    {
      "type": "error",
      "name": "ERC721InvalidOperator",
      "inputs": [
        {
          "name": "operator",
          "type": "address",
          "internalType": "address"
        }
      ]
    },
    {
      "type": "error",
      "name": "ERC721InvalidOwner",
      "inputs": [
        {
          "name": "owner",
          "type": "address",
          "internalType": "address"
        }
      ]
    },
    {
      "type": "error",
      "name": "ERC721InvalidReceiver",
      "inputs": [
        {
          "name": "receiver",
          "type": "address",
          "internalType": "address"
        }
      ]
    },
    {
      "type": "error",
      "name": "ERC721InvalidSender",
      "inputs": [
        {
          "name": "sender",
          "type": "address",
          "internalType": "address"
        }
      ]
    },
    {
      "type": "error",
      "name": "ERC721NonexistentToken",
      "inputs": [
        {
          "name": "tokenId",
          "type": "uint256",
          "internalType": "uint256"
        }
      ]
    },
    {
      "type": "error",
      "name": "ERC721OutOfBoundsIndex",
      "inputs": [
        {
          "name": "owner",
          "type": "address",
          "internalType": "address"
        },
        {
          "name": "index",
          "type": "uint256",
          "internalType": "uint256"
        }
      ]
    },
    {
      "type": "error",
      "name": "FailedCall",
      "inputs": []
    },
    {
      "type": "error",
      "name": "INVALID_APR_RANGE",
      "inputs": [
        {
          "name": "minAPR",
          "type": "uint256",
          "internalType": "uint256"
        },
        {
          "name": "maxAPR",
          "type": "uint256",
          "internalType": "uint256"
        }
      ]
    },
    {
      "type": "error",
      "name": "INVALID_MARKET",
      "inputs": [
        {
          "name": "market",
          "type": "address",
          "internalType": "address"
        }
      ]
    },
    {
      "type": "error",
      "name": "INVALID_TENOR_RANGE",
      "inputs": [
        {
          "name": "minTenor",
          "type": "uint256",
          "internalType": "uint256"
        },
        {
          "name": "maxTenor",
          "type": "uint256",
          "internalType": "uint256"
        }
      ]
    },
    {
      "type": "error",
      "name": "InvalidCollectionId",
      "inputs": [
        {
          "name": "collectionId",
          "type": "uint256",
          "internalType": "uint256"
        }
      ]
    },
    {
      "type": "error",
      "name": "InvalidCollectionMarketRateProvider",
      "inputs": [
        {
          "name": "collectionId",
          "type": "uint256",
          "internalType": "uint256"
        },
        {
          "name": "market",
          "type": "address",
          "internalType": "address"
        },
        {
          "name": "rateProvider",
          "type": "address",
          "internalType": "address"
        }
      ]
    },
    {
      "type": "error",
      "name": "InvalidInitialization",
      "inputs": []
    },
    {
      "type": "error",
      "name": "InvalidTenor",
      "inputs": [
        {
          "name": "tenor",
          "type": "uint256",
          "internalType": "uint256"
        },
        {
          "name": "minTenor",
          "type": "uint256",
          "internalType": "uint256"
        },
        {
          "name": "maxTenor",
          "type": "uint256",
          "internalType": "uint256"
        }
      ]
    },
    {
      "type": "error",
      "name": "MarketNotInCollection",
      "inputs": [
        {
          "name": "collectionId",
          "type": "uint256",
          "internalType": "uint256"
        },
        {
          "name": "market",
          "type": "address",
          "internalType": "address"
        }
      ]
    },
    {
      "type": "error",
      "name": "NotInitializing",
      "inputs": []
    },
    {
      "type": "error",
      "name": "OnlySizeFactory",
      "inputs": [
        {
          "name": "user",
          "type": "address",
          "internalType": "address"
        }
      ]
    },
    {
      "type": "error",
      "name": "SafeCastOverflowedIntToUint",
      "inputs": [
        {
          "name": "value",
          "type": "int256",
          "internalType": "int256"
        }
      ]
    },
    {
      "type": "error",
      "name": "SafeCastOverflowedUintToInt",
      "inputs": [
        {
          "name": "value",
          "type": "uint256",
          "internalType": "uint256"
        }
      ]
    },
    {
      "type": "error",
      "name": "UUPSUnauthorizedCallContext",
      "inputs": []
    },
    {
      "type": "error",
      "name": "UUPSUnsupportedProxiableUUID",
      "inputs": [
        {
          "name": "slot",
          "type": "bytes32",
          "internalType": "bytes32"
        }
      ]
    }
  ],
  "bytecode": {
    "object": "0x60a06040523060805234801562000014575f80fd5b506200001f62000025565b620000d9565b7ff0c57e16840df040f15088dc2f81fe391c3923bec73e23a9662efc9c229c6a00805468010000000000000000900460ff1615620000765760405163f92ee8a960e01b815260040160405180910390fd5b80546001600160401b0390811614620000d65780546001600160401b0319166001600160401b0390811782556040519081527fc7f505b2f371ae2175ee4913f4499e1f2633a7b5936321eed1cdaeb6115181d29060200160405180910390a15b50565b608051614490620001005f395f81816121c4015281816121ed01526123bd01526144905ff3fe608060405260043610610249575f3560e01c806370a0823111610134578063ac9650d8116100b3578063c4d66de811610078578063c4d66de8146106f2578063c87b56dd14610711578063dd2bc30214610730578063de1eb8801461075c578063e985e9c51461077b578063eb379a581461079a575f80fd5b8063ac9650d81461062c578063ad3cb1cc14610658578063b88d4fde14610688578063b9d33d1e146106a7578063c260d206146106d3575f80fd5b80639feffdb0116100f95780639feffdb014610591578063a0529e5f146105b0578063a22cb465146105cf578063abff1222146105ee578063ac888c071461060d575f80fd5b806370a08231146105015780638134a9e01461052057806393c0d3f31461053f57806395d89b411461055e5780639c71db1e14610572575f80fd5b806342842e0e116101cb57806352d1902d1161019057806352d1902d1461045b578063565380571461046f5780635fb7f10c146104905780636352211e146104af578063647f1a9c146104ce578063678b9bad146104e2575f80fd5b806342842e0e146103bf578063495e6d89146103de57806349b6d14f146103fd5780634f1ef286146104295780634f6ccce71461043c575f80fd5b806315d5cf991161021157806315d5cf991461031957806318160ddd1461033857806320d634561461036257806323b872dd146103815780632f745c59146103a0575f80fd5b806301ffc9a71461024d57806306fdde0314610281578063081812fc146102a2578063095ea7b3146102d95780630b379508146102fa575b5f80fd5b348015610258575f80fd5b5061026c610267366004613627565b6107b9565b60405190151581526020015b60405180910390f35b34801561028c575f80fd5b506102956107e3565b604051610278919061368f565b3480156102ad575f80fd5b506102c16102bc3660046136a1565b610884565b6040516001600160a01b039091168152602001610278565b3480156102e4575f80fd5b506102f86102f33660046136cc565b610898565b005b348015610305575f80fd5b506102f8610314366004613784565b6108a7565b348015610324575f80fd5b506102f861033336600461394d565b6109d3565b348015610343575f80fd5b505f8051602061443b833981519152545b604051908152602001610278565b34801561036d575f80fd5b5061026c61037c3660046136cc565b610f5a565b34801561038c575f80fd5b506102f861039b3660046139d8565b610f82565b3480156103ab575f80fd5b506103546103ba3660046136cc565b61100b565b3480156103ca575f80fd5b506102f86103d93660046139d8565b61107c565b3480156103e9575f80fd5b506103546103f8366004613a16565b61109b565b348015610408575f80fd5b5061041c610417366004613a6d565b6110b6565b6040516102789190613a9b565b6102f8610437366004613b3f565b6110ca565b348015610447575f80fd5b506103546104563660046136a1565b6110e5565b348015610466575f80fd5b50610354611157565b34801561047a575f80fd5b5061026c6104893660046136a1565b6001541190565b34801561049b575f80fd5b506103546104aa366004613a16565b611173565b3480156104ba575f80fd5b506102c16104c93660046136a1565b611183565b3480156104d9575f80fd5b5061035461118d565b3480156104ed575f80fd5b5061026c6104fc366004613b8b565b6111ad565b34801561050c575f80fd5b5061035461051b366004613bd0565b6111c6565b34801561052b575f80fd5b5061026c61053a366004613a6d565b61121e565b34801561054a575f80fd5b506102f8610559366004613beb565b611260565b348015610569575f80fd5b506102956113a6565b34801561057d575f80fd5b5061041c61058c366004613a6d565b6113e4565b34801561059c575f80fd5b5061026c6105ab366004613b8b565b6113f7565b3480156105bb575f80fd5b506102f86105ca366004613c8b565b611406565b3480156105da575f80fd5b506102f86105e9366004613cd1565b6114c2565b3480156105f9575f80fd5b506102f8610608366004613c8b565b6114cd565b348015610618575f80fd5b5061026c610627366004613cfd565b611669565b348015610637575f80fd5b5061064b610646366004613d4d565b61170a565b6040516102789190613dbb565b348015610663575f80fd5b50610295604051806040016040528060058152602001640352e302e360dc1b81525081565b348015610693575f80fd5b506102f86106a2366004613e1d565b6117ef565b3480156106b2575f80fd5b506106c66106c1366004613bd0565b611807565b6040516102789190613e78565b3480156106de575f80fd5b506103546106ed366004613ebb565b61182a565b3480156106fd575f80fd5b506102f861070c366004613bd0565b61194a565b34801561071c575f80fd5b5061029561072b3660046136a1565b611ac3565b34801561073b575f80fd5b5061074f61074a366004613a6d565b611b27565b6040516102789190613f27565b348015610767575f80fd5b506102f8610776366004613beb565b611bd5565b348015610786575f80fd5b5061026c610795366004613f67565b611ce8565b3480156107a5575f80fd5b506102f86107b4366004613784565b611d34565b5f6001600160e01b0319821663780e9d6360e01b14806107dd57506107dd82611e4d565b92915050565b5f805160206143fb833981519152805460609190819061080290613f93565b80601f016020809104026020016040519081016040528092919081815260200182805461082e90613f93565b80156108795780601f1061085057610100808354040283529160200191610879565b820191905f5260205f20905b81548152906001019060200180831161085c57829003601f168201915b505050505091505090565b5f61088e82611e9c565b506107dd82611ed3565b6108a3828233611f0c565b5050565b826108bb6108b482611183565b3383611f19565b5f8481526002602090815260408083206001600160a01b038716845290915290205460ff1661091457604051631713bf1160e21b8152600481018590526001600160a01b03841660248201526044015b60405180910390fd5b5f5b82518110156109cc5761096983828151811061093457610934613fcb565b6020908102919091018101515f8881526002835260408082206001600160a01b038a16835290935291909120600b0190611f7d565b5082818151811061097c5761097c613fcb565b60200260200101516001600160a01b0316846001600160a01b0316867f1360c7b25382a6f295161363858560fa84e4d0ebc2c356b44d5a3e7b00a87e3160405160405180910390a4600101610916565b5050505050565b836109e06108b482611183565b825184511415806109f357508151845114155b15610a115760405163125b84af60e31b815260040160405180910390fd5b5f5b8451811015610f52575f5485516001600160a01b0390911690636ec934da90879084908110610a4457610a44613fcb565b60200260200101516040518263ffffffff1660e01b8152600401610a7791906001600160a01b0391909116815260200190565b602060405180830381865afa158015610a92573d5f803e3d5ffd5b505050506040513d601f19601f82011682018060405250810190610ab69190613fdf565b610afd57848181518110610acc57610acc613fcb565b602002602001015160405163e2a7bea360e01b815260040161090b91906001600160a01b0391909116815260200190565b838181518110610b0f57610b0f613fcb565b602002602001015160200151848281518110610b2d57610b2d613fcb565b60200260200101515f01511115610b9d57838181518110610b5057610b50613fcb565b60200260200101515f0151848281518110610b6d57610b6d613fcb565b6020026020010151602001516040516307198f4960e11b815260040161090b929190918252602082015260400190565b838181518110610baf57610baf613fcb565b602002602001015160600151848281518110610bcd57610bcd613fcb565b6020026020010151604001511115610c3f57838181518110610bf157610bf1613fcb565b602002602001015160400151848281518110610c0f57610c0f613fcb565b602002602001015160600151604051633ed3c20960e01b815260040161090b929190918252602082015260400190565b828181518110610c5157610c51613fcb565b602002602001015160200151838281518110610c6f57610c6f613fcb565b60200260200101515f01511115610caf57828181518110610c9257610c92613fcb565b60200260200101515f0151838281518110610b6d57610b6d613fcb565b828181518110610cc157610cc1613fcb565b602002602001015160600151838281518110610cdf57610cdf613fcb565b6020026020010151604001511115610d2157828181518110610d0357610d03613fcb565b602002602001015160400151838281518110610c0f57610c0f613fcb565b5f868152600260205260408120865160019290889085908110610d4657610d46613fcb565b60200260200101516001600160a01b03166001600160a01b031681526020019081526020015f205f015f6101000a81548160ff021916908315150217905550838181518110610d9757610d97613fcb565b602002602001015160025f8881526020019081526020015f205f878481518110610dc357610dc3613fcb565b60200260200101516001600160a01b03166001600160a01b031681526020019081526020015f206001015f820151815f015560208201518160010155604082015181600201556060820151816003015560808201518160040155905050828181518110610e3257610e32613fcb565b602002602001015160025f8881526020019081526020015f205f878481518110610e5e57610e5e613fcb565b60200260200101516001600160a01b03166001600160a01b031681526020019081526020015f206006015f820151815f015560208201518160010155604082015181600201556060820151816003015560808201518160040155905050848181518110610ecd57610ecd613fcb565b60200260200101516001600160a01b0316867f95a075f6a3ae087a97ecedeae8ce7f68343e14879806015d44cfb66a8a0e4515868481518110610f1257610f12613fcb565b6020026020010151868581518110610f2c57610f2c613fcb565b6020026020010151604051610f42929190613ffa565b60405180910390a3600101610a13565b505050505050565b6001600160a01b0382165f908152600360205260408120610f7b9083611f91565b9392505050565b6001600160a01b038216610fab57604051633250574960e11b81525f600482015260240161090b565b5f610fb7838333611fa8565b9050836001600160a01b0316816001600160a01b031614611005576040516364283d7b60e01b81526001600160a01b038086166004830152602482018490528216604482015260640161090b565b50505050565b5f5f805160206143db833981519152611023846111c6565b83106110545760405163295f44f760e21b81526001600160a01b03851660048201526024810184905260440161090b565b6001600160a01b0384165f908152602091825260408082208583529092522054905092915050565b61109683838360405180602001604052805f8152506117ef565b505050565b5f6110aa86868686865f61182a565b90505b95945050505050565b6110be6135be565b610f7b8383600161209e565b6110d26121b9565b6110db8261225f565b6108a382826122f6565b5f5f805160206143db8339815191526111095f8051602061443b8339815191525490565b83106111315760405163295f44f760e21b81525f60048201526024810184905260440161090b565b80600201838154811061114657611146613fcb565b905f5260205f200154915050919050565b5f6111606123b2565b505f8051602061441b8339815191525b90565b5f6110aa8686868686600161182a565b5f6107dd82611e9c565b600180545f918261119d8361407e565b91905055905061117033826123fb565b5f6111bb858585855f612414565b90505b949350505050565b5f5f805160206143fb8339815191526001600160a01b0383166111fe576040516322718ad960e21b81525f600482015260240161090b565b6001600160a01b039092165f908152600390920160205250604090205490565b5f61122a836001541190565b61123557505f6107dd565b505f9182526002602090815260408084206001600160a01b0393909316845291905290205460ff1690565b5f546001600160a01b0316331461128c57604051630b56d23b60e41b815233600482015260240161090b565b5f5b8151811015611096576112bb8282815181106112ac576112ac613fcb565b60200260200101516001541190565b6112f5578181815181106112d1576112d1613fcb565b602002602001015160405163500f73d960e01b815260040161090b91815260200190565b5f61134483838151811061130b5761130b613fcb565b602002602001015160035f876001600160a01b03166001600160a01b031681526020019081526020015f2061269390919063ffffffff16565b9050801561139d5782828151811061135e5761135e613fcb565b6020026020010151846001600160a01b03167fe9919c1157673d017b4e5eef8d4c012fadcf6ee40cf5f99a0912a0109b5d584260405160405180910390a35b5060010161128e565b7f80bb2b638cc20bc4d0a60d66940f3ab4a00c1d7b313497ca82fb0b4ab007930180546060915f805160206143fb8339815191529161080290613f93565b6113ec6135be565b610f7b83835f61209e565b5f6111bb858585856001612414565b5f81516001600160401b03811115611420576114206136f6565b60405190808252806020026020018201604052801561145957816020015b6114466135be565b81526020019060019003908161143e5790505b5090505f5b82518110156114b5576040518060a001604052805f81526020015f1981526020015f81526020015f1981526020015f8152508282815181106114a2576114a2613fcb565b602090810291909101015260010161145e565b50611096838383846109d3565b6108a333838361269e565b816114da6108b482611183565b5f5b8251811015611005575f61153c60025f8781526020019081526020015f205f86858151811061150d5761150d613fcb565b60200260200101516001600160a01b03166001600160a01b031681526020019081526020015f20600b0161274d565b90506115628585848151811061155457611554613fcb565b6020026020010151836108a7565b60025f8681526020019081526020015f205f85848151811061158657611586613fcb565b6020908102919091018101516001600160a01b031682528101919091526040015f908120805460ff19168155600181018290556002810182905560038101829055600481018290556005810182905560068101829055600781018290556008810182905560098101829055600a810182905590600b820181818161160a82826135e8565b50505050505083828151811061162257611622613fcb565b60200260200101516001600160a01b0316857f2023c939803754d4dcfd53da97e330124d37f4a2a1ac84e182310e4c1093a52c60405160405180910390a3506001016114dc565b5f611675846001541190565b61168057505f6111be565b6001600160a01b0385165f9081526003602052604090206116a19085611f91565b6116ac57505f6111be565b5f8481526002602090815260408083206001600160a01b038716845290915290205460ff166116dc57505f6111be565b5f8481526002602090815260408083206001600160a01b038716845290915290206111bb90600b0183612759565b604080515f815260208101909152606090826001600160401b03811115611733576117336136f6565b60405190808252806020026020018201604052801561176657816020015b60608152602001906001900390816117515790505b5091505f5b838110156117e7576117c23086868481811061178957611789613fcb565b905060200281019061179b91906140a9565b856040516020016117ae939291906140f2565b60405160208183030381529060405261277a565b8382815181106117d4576117d4613fcb565b602090810291909101015260010161176b565b505092915050565b6117fa848484610f82565b61100533858585856127e3565b6001600160a01b0381165f9081526003602052604090206060906107dd9061274d565b5f5f1986036118465761183f87868585612902565b9050611940565b61185287878787611669565b6118895760405163c6c8526f60e01b8152600481018790526001600160a01b0380871660248301528516604482015260640161090b565b5f611896888888866129b4565b80519091508410806118ab5750806020015184115b156118e05780516020820151604051633e5d735760e21b8152600481018790526024810192909252604482015260640161090b565b5f6118ed86888787612902565b905061190f8260800151611900836129e2565b61190a9190614117565b612a12565b92508160400151831015611929578160400151925061193d565b816060015183111561193d57816060015192505b50505b9695505050505050565b5f611953612a37565b805490915060ff600160401b82041615906001600160401b03165f811580156119795750825b90505f826001600160401b031660011480156119945750303b155b9050811580156119a2575080155b156119c05760405163f92ee8a960e01b815260040160405180910390fd5b845467ffffffffffffffff1916600117855583156119ea57845460ff60401b1916600160401b1785555b611a446040518060400160405280601081526020016f53697a6520436f6c6c656374696f6e7360801b8152506040518060400160405280601081526020016f53495a455f434f4c4c454354494f4e5360801b815250612a5f565b611a4c612a71565b611a54612a71565b611a5c612a71565b5f80546001600160a01b0319166001600160a01b0388161790558315610f5257845460ff60401b19168555604051600181527fc7f505b2f371ae2175ee4913f4499e1f2633a7b5936321eed1cdaeb6115181d29060200160405180910390a1505050505050565b6060611ace82611e9c565b505f611ad8612a79565b90505f815111611af65760405180602001604052805f815250610f7b565b80611b0084612aa8565b604051602001611b11929190614136565b6040516020818303038152906040529392505050565b6060611b34836001541190565b611b545760405163500f73d960e01b81526004810184905260240161090b565b5f8381526002602090815260408083206001600160a01b038616845290915290205460ff16611ba857604051631713bf1160e21b8152600481018490526001600160a01b038316602482015260440161090b565b5f8381526002602090815260408083206001600160a01b03861684529091529020610f7b90600b0161274d565b5f546001600160a01b03163314611c0157604051630b56d23b60e41b815233600482015260240161090b565b5f5b815181101561109657611c218282815181106112ac576112ac613fcb565b611c37578181815181106112d1576112d1613fcb565b5f611c86838381518110611c4d57611c4d613fcb565b602002602001015160035f876001600160a01b03166001600160a01b031681526020019081526020015f20612b3790919063ffffffff16565b90508015611cdf57828281518110611ca057611ca0613fcb565b6020026020010151846001600160a01b03167fd0b1806956ca744bd88a4e4057a137959cb88d8d4e7e8d793301cfdf7df7cb2b60405160405180910390a35b50600101611c03565b6001600160a01b039182165f9081527f80bb2b638cc20bc4d0a60d66940f3ab4a00c1d7b313497ca82fb0b4ab00793056020908152604080832093909416825291909152205460ff1690565b82611d416108b482611183565b5f8481526002602090815260408083206001600160a01b038716845290915290205460ff16611d9557604051631713bf1160e21b8152600481018590526001600160a01b038416602482015260440161090b565b5f5b82518110156109cc57611dea838281518110611db557611db5613fcb565b6020908102919091018101515f8881526002835260408082206001600160a01b038a16835290935291909120600b0190612b42565b50828181518110611dfd57611dfd613fcb565b60200260200101516001600160a01b0316846001600160a01b0316867fe00af39ea120882fcd5da1b6a7614c6dcd0ace02f617e8347e3159e9922550fe60405160405180910390a4600101611d97565b5f6001600160e01b031982166380ac58cd60e01b1480611e7d57506001600160e01b03198216635b5e139f60e01b145b806107dd57506301ffc9a760e01b6001600160e01b03198316146107dd565b5f80611ea783612b56565b90506001600160a01b0381166107dd57604051637e27328960e01b81526004810184905260240161090b565b5f9081527f80bb2b638cc20bc4d0a60d66940f3ab4a00c1d7b313497ca82fb0b4ab007930460205260409020546001600160a01b031690565b6110968383836001612b8f565b611f24838383612ca2565b611096576001600160a01b038316611f5257604051637e27328960e01b81526004810182905260240161090b565b60405163177e802f60e01b81526001600160a01b03831660048201526024810182905260440161090b565b5f610f7b836001600160a01b038416612d06565b5f8181526001830160205260408120541515610f7b565b5f80611fb5858585612de9565b90506001600160a01b03811661203c57612037845f8051602061443b83398151915280545f8381527f645e039705490088daad89bae25049a34f4a9072d398537b1ab2425f24cbed0360205260408120829055600182018355919091527fa42f15e5d656f8155fd7419d740a6073999f19cd6e061449ce4a257150545bf20155565b61205f565b846001600160a01b0316816001600160a01b03161461205f5761205f8185612eeb565b6001600160a01b03851661207b5761207684612f82565b6111be565b846001600160a01b0316816001600160a01b0316146111be576111be858561304f565b6120a66135be565b6120b1846001541190565b6120d15760405163500f73d960e01b81526004810185905260240161090b565b5f8481526002602090815260408083206001600160a01b038716845290915290205460ff1661212557604051631713bf1160e21b8152600481018590526001600160a01b038416602482015260440161090b565b81612153575f8481526002602090815260408083206001600160a01b03871684529091529020600601612178565b5f8481526002602090815260408083206001600160a01b038716845290915290206001015b6040805160a0810182528254815260018301546020820152600283015491810191909152600382015460608201526004909101546080820152949350505050565b306001600160a01b037f000000000000000000000000000000000000000000000000000000000000000016148061223f57507f00000000000000000000000000000000000000000000000000000000000000006001600160a01b03166122335f8051602061441b833981519152546001600160a01b031690565b6001600160a01b031614155b1561225d5760405163703e46dd60e11b815260040160405180910390fd5b565b5f8054604051632474521560e21b8152600481018390523360248201526001600160a01b03909116906391d1485490604401602060405180830381865afa1580156122ac573d5f803e3d5ffd5b505050506040513d601f19601f820116820180604052508101906122d09190613fdf565b6108a35760405163e2517d3f60e01b81523360048201526024810182905260440161090b565b816001600160a01b03166352d1902d6040518163ffffffff1660e01b8152600401602060405180830381865afa925050508015612350575060408051601f3d908101601f1916820190925261234d91810190614164565b60015b61237857604051634c9c8ce360e01b81526001600160a01b038316600482015260240161090b565b5f8051602061441b83398151915281146123a857604051632a87526960e21b81526004810182905260240161090b565b61109683836130a7565b306001600160a01b037f0000000000000000000000000000000000000000000000000000000000000000161461225d5760405163703e46dd60e11b815260040160405180910390fd5b6108a3828260405180602001604052805f8152506130fc565b6001600160a01b0385165f908152600360205260408120815b61243682613113565b8110156125b2575f612448838361311c565b5f8181526002602090815260408083206001600160a01b038c16845290915290205490915060ff1661247a57506125aa565b5f8181526002602090815260408083206001600160a01b038b1684529091528120600b01905b6124a982613113565b8110156125a6575f6124bb838361311c565b9050306001600160a01b031663c260d2068d868d858e8e156040518763ffffffff1660e01b81526004016124f49695949392919061417b565b602060405180830381865afa92505050801561252d575060408051601f3d908101601f1916820190925261252a91810190614164565b60015b612566573d80801561255a576040519150601f19603f3d011682016040523d82523d5f602084013e61255f565b606091505b505061259d565b88801561257357508b8110155b806125875750881580156125875750808c10155b1561259b575f9750505050505050506110ad565b505b506001016124a0565b5050505b60010161242d565b50604051636130690360e11b8152309063c260d206906125e2908a905f19908a905f908b908b159060040161417b565b602060405180830381865afa92505050801561261b575060408051601f3d908101601f1916820190925261261891810190614164565b60015b612654573d808015612648576040519150601f19603f3d011682016040523d82523d5f602084013e61264d565b606091505b5050612686565b8380156126615750868110155b806126755750831580156126755750808710155b15612684575f925050506110ad565b505b5060019695505050505050565b5f610f7b8383613127565b5f805160206143fb8339815191526001600160a01b0383166126de57604051630b61174360e31b81526001600160a01b038416600482015260240161090b565b6001600160a01b038481165f818152600584016020908152604080832094881680845294825291829020805460ff191687151590811790915591519182527f17307eab39ab6107e8899845ad3d59bd9653f200f220920489ca2b5937696c31910160405180910390a350505050565b60605f610f7b83613173565b6001600160a01b0381165f9081526001830160205260408120541515610f7b565b60605f80846001600160a01b03168460405161279691906141b5565b5f60405180830381855af49150503d805f81146127ce576040519150601f19603f3d011682016040523d82523d5f602084013e6127d3565b606091505b50915091506110ad8583836131cc565b6001600160a01b0383163b156109cc57604051630a85bd0160e11b81526001600160a01b0384169063150b7a02906128259088908890879087906004016141d0565b6020604051808303815f875af192505050801561285f575060408051601f3d908101601f1916820190925261285c91810190614202565b60015b6128c6573d80801561288c576040519150601f19603f3d011682016040523d82523d5f602084013e612891565b606091505b5080515f036128be57604051633250574960e11b81526001600160a01b038516600482015260240161090b565b805181602001fd5b6001600160e01b03198116630a85bd0160e11b14610f5257604051633250574960e11b81526001600160a01b038516600482015260240161090b565b5f811561297f57604051620d37ab60e81b81526001600160a01b03868116600483015260248201859052851690630d37ab00906044015b602060405180830381865afa158015612954573d5f803e3d5ffd5b505050506040513d601f19601f820116820180604052508101906129789190614164565b90506111be565b604051632b59bd9960e01b81526001600160a01b03868116600483015260248201859052851690632b59bd9990604401612939565b6129bc6135be565b6129c7858484613228565b90506129d281613305565b156111be576111bb84848461209e565b5f6001600160ff1b03821115612a0e5760405163123baf0360e11b81526004810183905260240161090b565b5090565b5f80821215612a0e57604051635467221960e11b81526004810183905260240161090b565b5f807ff0c57e16840df040f15088dc2f81fe391c3923bec73e23a9662efc9c229c6a006107dd565b612a67613344565b6108a38282613369565b61225d613344565b6060612a8446612aa8565b604051602001612a94919061421d565b604051602081830303815290604052905090565b60605f612ab483613399565b60010190505f816001600160401b03811115612ad257612ad26136f6565b6040519080825280601f01601f191660200182016040528015612afc576020820181803683370190505b5090508181016020015b5f19016f181899199a1a9b1b9c1cb0b131b232b360811b600a86061a8153600a8504945084612b0657509392505050565b5f610f7b8383612d06565b5f610f7b836001600160a01b038416613127565b5f9081527f80bb2b638cc20bc4d0a60d66940f3ab4a00c1d7b313497ca82fb0b4ab007930260205260409020546001600160a01b031690565b5f805160206143fb8339815191528180612bb157506001600160a01b03831615155b15612c72575f612bc085611e9c565b90506001600160a01b03841615801590612bec5750836001600160a01b0316816001600160a01b031614155b8015612bff5750612bfd8185611ce8565b155b15612c285760405163a9fbf51f60e01b81526001600160a01b038516600482015260240161090b565b8215612c705784866001600160a01b0316826001600160a01b03167f8c5be1e5ebec7d5bd14f71427d1e84f3dd0314c0f7b2291e5b200ac8c7c3b92560405160405180910390a45b505b5f93845260040160205250506040902080546001600160a01b0319166001600160a01b0392909216919091179055565b5f6001600160a01b038316158015906111be5750826001600160a01b0316846001600160a01b03161480612cdb5750612cdb8484611ce8565b806111be5750826001600160a01b0316612cf483611ed3565b6001600160a01b031614949350505050565b5f8181526001830160205260408120548015612de0575f612d28600183614096565b85549091505f90612d3b90600190614096565b9050808214612d9a575f865f018281548110612d5957612d59613fcb565b905f5260205f200154905080875f018481548110612d7957612d79613fcb565b5f918252602080832090910192909255918252600188019052604090208390555b8554869080612dab57612dab614279565b600190038181905f5260205f20015f90559055856001015f8681526020019081526020015f205f9055600193505050506107dd565b5f9150506107dd565b5f5f805160206143fb83398151915281612e0285612b56565b90506001600160a01b03841615612e1e57612e1e818587611f19565b6001600160a01b03811615612e5a57612e395f865f80612b8f565b6001600160a01b0381165f908152600383016020526040902080545f190190555b6001600160a01b03861615612e8a576001600160a01b0386165f9081526003830160205260409020805460010190555b5f85815260028301602052604080822080546001600160a01b0319166001600160a01b038a811691821790925591518893918516917fddf252ad1be2c89b69c2b068fc378daa952ba7f163c4a11628f55a4df523b3ef91a495945050505050565b5f805160206143db8339815191525f612f03846111c6565b5f8481526001840160209081526040808320546001600160a01b03891684529186905290912091925090818314612f5b575f838152602082815260408083205485845281842081905583526001870190915290208290555b5f948552600190930160209081526040808620869055928552929092528220919091555050565b5f8051602061443b833981519152545f805160206143db833981519152905f90612fae90600190614096565b5f848152600384016020526040812054600285018054939450909284908110612fd957612fd9613fcb565b905f5260205f200154905080846002018381548110612ffa57612ffa613fcb565b5f9182526020808320909101929092558281526003860190915260408082208490558682528120556002840180548061303557613035614279565b600190038181905f5260205f20015f905590555050505050565b5f805160206143db8339815191525f6001613069856111c6565b6130739190614096565b6001600160a01b039094165f9081526020838152604080832087845282528083208690559482526001909301909252502055565b6130b082613470565b6040516001600160a01b038316907fbc7cd75a20ee27fd9adebab32041f755214dbc6bffa90cc0225b39da2e5c2d3b905f90a28051156130f457611096828261277a565b6108a36134d3565b61310683836134f2565b611096335f8585856127e3565b5f6107dd825490565b5f610f7b8383613553565b5f81815260018301602052604081205461316c57508154600181810184555f8481526020808220909301849055845484825282860190935260409020919091556107dd565b505f6107dd565b6060815f018054806020026020016040519081016040528092919081815260200182805480156131c057602002820191905f5260205f20905b8154815260200190600101908083116131ac575b50505050509050919050565b6060826131e1576131dc82613579565b610f7b565b81511580156131f857506001600160a01b0384163b155b1561322157604051639996b31560e01b81526001600160a01b038516600482015260240161090b565b5080610f7b565b6132306135be565b8161329d5760405163c421a75960e01b81526001600160a01b03858116600483015284169063c421a7599060240160a060405180830381865afa158015613279573d5f803e3d5ffd5b505050506040513d601f19601f82011682018060405250810190612076919061428d565b604051630264211160e11b81526001600160a01b0385811660048301528416906304c842229060240160a060405180830381865afa1580156132e1573d5f803e3d5ffd5b505050506040513d601f19601f820116820180604052508101906111be919061428d565b80515f9015801561331857506020820151155b801561332657506040820151155b801561333457506060820151155b80156107dd575050608001511590565b61334c6135a5565b61225d57604051631afcd79f60e31b815260040160405180910390fd5b613371613344565b5f805160206143fb8339815191528061338a848261431f565b5060018101611005838261431f565b5f8072184f03e93ff9f4daa797ed6e38ed64bf6a1f0160401b83106133d75772184f03e93ff9f4daa797ed6e38ed64bf6a1f0160401b830492506040015b6d04ee2d6d415b85acef81000000008310613403576d04ee2d6d415b85acef8100000000830492506020015b662386f26fc10000831061342157662386f26fc10000830492506010015b6305f5e1008310613439576305f5e100830492506008015b612710831061344d57612710830492506004015b6064831061345f576064830492506002015b600a83106107dd5760010192915050565b806001600160a01b03163b5f036134a557604051634c9c8ce360e01b81526001600160a01b038216600482015260240161090b565b5f8051602061441b83398151915280546001600160a01b0319166001600160a01b0392909216919091179055565b341561225d5760405163b398979f60e01b815260040160405180910390fd5b6001600160a01b03821661351b57604051633250574960e11b81525f600482015260240161090b565b5f61352783835f611fa8565b90506001600160a01b03811615611096576040516339e3563760e11b81525f600482015260240161090b565b5f825f01828154811061356857613568613fcb565b905f5260205f200154905092915050565b8051156135895780518082602001fd5b60405163d6bda27560e01b815260040160405180910390fd5b50565b5f6135ae612a37565b54600160401b900460ff16919050565b6040518060a001604052805f81526020015f81526020015f81526020015f81526020015f81525090565b5080545f8255905f5260205f20908101906135a291905b80821115612a0e575f81556001016135ff565b6001600160e01b0319811681146135a2575f80fd5b5f60208284031215613637575f80fd5b8135610f7b81613612565b5f5b8381101561365c578181015183820152602001613644565b50505f910152565b5f815180845261367b816020860160208601613642565b601f01601f19169290920160200192915050565b602081525f610f7b6020830184613664565b5f602082840312156136b1575f80fd5b5035919050565b6001600160a01b03811681146135a2575f80fd5b5f80604083850312156136dd575f80fd5b82356136e8816136b8565b946020939093013593505050565b634e487b7160e01b5f52604160045260245ffd5b60405160a081016001600160401b038111828210171561372c5761372c6136f6565b60405290565b604051601f8201601f191681016001600160401b038111828210171561375a5761375a6136f6565b604052919050565b5f6001600160401b0382111561377a5761377a6136f6565b5060051b60200190565b5f805f60608486031215613796575f80fd5b833592506020808501356137a9816136b8565b925060408501356001600160401b038111156137c3575f80fd5b8501601f810187136137d3575f80fd5b80356137e66137e182613762565b613732565b81815260059190911b82018301908381019089831115613804575f80fd5b928401925b8284101561382b57833561381c816136b8565b82529284019290840190613809565b80955050505050509250925092565b5f82601f830112613849575f80fd5b813560206138596137e183613762565b8083825260208201915060208460051b87010193508684111561387a575f80fd5b602086015b8481101561389f578035613892816136b8565b835291830191830161387f565b509695505050505050565b5f82601f8301126138b9575f80fd5b813560206138c96137e183613762565b82815260a092830285018201928282019190878511156138e7575f80fd5b8387015b858110156139405781818a031215613901575f80fd5b61390961370a565b81358152858201358682015260408083013590820152606080830135908201526080808301359082015284529284019281016138eb565b5090979650505050505050565b5f805f8060808587031215613960575f80fd5b8435935060208501356001600160401b038082111561397d575f80fd5b6139898883890161383a565b9450604087013591508082111561399e575f80fd5b6139aa888389016138aa565b935060608701359150808211156139bf575f80fd5b506139cc878288016138aa565b91505092959194509250565b5f805f606084860312156139ea575f80fd5b83356139f5816136b8565b92506020840135613a05816136b8565b929592945050506040919091013590565b5f805f805f60a08688031215613a2a575f80fd5b8535613a35816136b8565b9450602086013593506040860135613a4c816136b8565b92506060860135613a5c816136b8565b949793965091946080013592915050565b5f8060408385031215613a7e575f80fd5b823591506020830135613a90816136b8565b809150509250929050565b60a081016107dd828480518252602081015160208301526040810151604083015260608101516060830152608081015160808301525050565b5f82601f830112613ae3575f80fd5b81356001600160401b03811115613afc57613afc6136f6565b613b0f601f8201601f1916602001613732565b818152846020838601011115613b23575f80fd5b816020850160208301375f918101602001919091529392505050565b5f8060408385031215613b50575f80fd5b8235613b5b816136b8565b915060208301356001600160401b03811115613b75575f80fd5b613b8185828601613ad4565b9150509250929050565b5f805f8060808587031215613b9e575f80fd5b8435613ba9816136b8565b9350602085013592506040850135613bc0816136b8565b9396929550929360600135925050565b5f60208284031215613be0575f80fd5b8135610f7b816136b8565b5f8060408385031215613bfc575f80fd5b8235613c07816136b8565b91506020838101356001600160401b03811115613c22575f80fd5b8401601f81018613613c32575f80fd5b8035613c406137e182613762565b81815260059190911b82018301908381019088831115613c5e575f80fd5b928401925b82841015613c7c57833582529284019290840190613c63565b80955050505050509250929050565b5f8060408385031215613c9c575f80fd5b8235915060208301356001600160401b03811115613cb8575f80fd5b613b818582860161383a565b80151581146135a2575f80fd5b5f8060408385031215613ce2575f80fd5b8235613ced816136b8565b91506020830135613a9081613cc4565b5f805f8060808587031215613d10575f80fd5b8435613d1b816136b8565b9350602085013592506040850135613d32816136b8565b91506060850135613d42816136b8565b939692955090935050565b5f8060208385031215613d5e575f80fd5b82356001600160401b0380821115613d74575f80fd5b818501915085601f830112613d87575f80fd5b813581811115613d95575f80fd5b8660208260051b8501011115613da9575f80fd5b60209290920196919550909350505050565b5f60208083016020845280855180835260408601915060408160051b8701019250602087015f5b82811015613e1057603f19888603018452613dfe858351613664565b94509285019290850190600101613de2565b5092979650505050505050565b5f805f8060808587031215613e30575f80fd5b8435613e3b816136b8565b93506020850135613e4b816136b8565b92506040850135915060608501356001600160401b03811115613e6c575f80fd5b6139cc87828801613ad4565b602080825282518282018190525f9190848201906040850190845b81811015613eaf57835183529284019291840191600101613e93565b50909695505050505050565b5f805f805f8060c08789031215613ed0575f80fd5b8635613edb816136b8565b9550602087013594506040870135613ef2816136b8565b93506060870135613f02816136b8565b92506080870135915060a0870135613f1981613cc4565b809150509295509295509295565b602080825282518282018190525f9190848201906040850190845b81811015613eaf5783516001600160a01b031683529284019291840191600101613f42565b5f8060408385031215613f78575f80fd5b8235613f83816136b8565b91506020830135613a90816136b8565b600181811c90821680613fa757607f821691505b602082108103613fc557634e487b7160e01b5f52602260045260245ffd5b50919050565b634e487b7160e01b5f52603260045260245ffd5b5f60208284031215613fef575f80fd5b8151610f7b81613cc4565b6101408101614034828580518252602081015160208301526040810151604083015260608101516060830152608081015160808301525050565b825160a0830152602083015160c0830152604083015160e083015260608301516101008301526080830151610120830152610f7b565b634e487b7160e01b5f52601160045260245ffd5b5f6001820161408f5761408f61406a565b5060010190565b818103818111156107dd576107dd61406a565b5f808335601e198436030181126140be575f80fd5b8301803591506001600160401b038211156140d7575f80fd5b6020019150368190038213156140eb575f80fd5b9250929050565b828482375f8382015f8152835161410d818360208801613642565b0195945050505050565b8082018281125f8312801582168215821617156117e7576117e761406a565b5f8351614147818460208801613642565b83519083019061415b818360208801613642565b01949350505050565b5f60208284031215614174575f80fd5b5051919050565b6001600160a01b0396871681526020810195909552928516604085015293166060830152608082019290925290151560a082015260c00190565b5f82516141c6818460208701613642565b9190910192915050565b6001600160a01b03858116825284166020820152604081018390526080606082018190525f906110aa90830184613664565b5f60208284031215614212575f80fd5b8151610f7b81613612565b7f68747470733a2f2f6170692e73697a652e6372656469742f636f6c6c656374698152636f6e732f60e01b60208201525f8251614261816024850160208701613642565b602f60f81b6024939091019283015250602501919050565b634e487b7160e01b5f52603160045260245ffd5b5f60a0828403121561429d575f80fd5b6142a561370a565b82518152602083015160208201526040830151604082015260608301516060820152608083015160808201528091505092915050565b601f82111561109657805f5260205f20601f840160051c810160208510156143005750805b601f840160051c820191505b818110156109cc575f815560010161430c565b81516001600160401b03811115614338576143386136f6565b61434c816143468454613f93565b846142db565b602080601f83116001811461437f575f84156143685750858301515b5f19600386901b1c1916600185901b178555610f52565b5f85815260208120601f198616915b828110156143ad5788860151825594840194600190910190840161438e565b50858210156143ca57878501515f19600388901b60f8161c191681555b5050505050600190811b0190555056fe645e039705490088daad89bae25049a34f4a9072d398537b1ab2425f24cbed0080bb2b638cc20bc4d0a60d66940f3ab4a00c1d7b313497ca82fb0b4ab0079300360894a13ba1a3210667c828492db98dca3e2076cc3735a920a3ca505d382bbc645e039705490088daad89bae25049a34f4a9072d398537b1ab2425f24cbed02a2646970667358221220e59a92e1326fe69bc8ef73a3a4c298d183775920c09cde9c598e31108b85348464736f6c63430008170033",
    "linkReferences": {}
  },
  "methodIdentifiers": {
    "UPGRADE_INTERFACE_VERSION()": "ad3cb1cc",
    "addMarketsToCollection(uint256,address[])": "a0529e5f",
    "addRateProvidersToCollectionMarket(uint256,address,address[])": "eb379a58",
    "approve(address,uint256)": "095ea7b3",
    "balanceOf(address)": "70a08231",
    "collectionContainsMarket(uint256,address)": "8134a9e0",
    "createCollection()": "647f1a9c",
    "getApproved(uint256)": "081812fc",
    "getBorrowOfferAPR(address,uint256,address,address,uint256)": "495e6d89",
    "getCollectionMarketCopyBorrowOfferConfig(uint256,address)": "9c71db1e",
    "getCollectionMarketCopyLoanOfferConfig(uint256,address)": "49b6d14f",
    "getCollectionMarketRateProviders(uint256,address)": "dd2bc302",
    "getLimitOrderAPR(address,uint256,address,address,uint256,bool)": "c260d206",
    "getLoanOfferAPR(address,uint256,address,address,uint256)": "5fb7f10c",
    "getSubscribedCollections(address)": "b9d33d1e",
    "initialize(address)": "c4d66de8",
    "isApprovedForAll(address,address)": "e985e9c5",
    "isBorrowAPRLowerThanLoanOfferAPRs(address,uint256,address,uint256)": "678b9bad",
    "isCopyingCollectionMarketRateProvider(address,uint256,address,address)": "ac888c07",
    "isLoanAPRGreaterThanBorrowOfferAPRs(address,uint256,address,uint256)": "9feffdb0",
    "isSubscribedToCollection(address,uint256)": "20d63456",
    "isValidCollectionId(uint256)": "56538057",
    "multicall(bytes[])": "ac9650d8",
    "name()": "06fdde03",
    "ownerOf(uint256)": "6352211e",
    "proxiableUUID()": "52d1902d",
    "removeMarketsFromCollection(uint256,address[])": "abff1222",
    "removeRateProvidersFromCollectionMarket(uint256,address,address[])": "0b379508",
    "safeTransferFrom(address,address,uint256)": "42842e0e",
    "safeTransferFrom(address,address,uint256,bytes)": "b88d4fde",
    "setApprovalForAll(address,bool)": "a22cb465",
    "setCollectionMarketConfigs(uint256,address[],(uint256,uint256,uint256,uint256,int256)[],(uint256,uint256,uint256,uint256,int256)[])": "15d5cf99",
    "subscribeUserToCollections(address,uint256[])": "93c0d3f3",
    "supportsInterface(bytes4)": "01ffc9a7",
    "symbol()": "95d89b41",
    "tokenByIndex(uint256)": "4f6ccce7",
    "tokenOfOwnerByIndex(address,uint256)": "2f745c59",
    "tokenURI(uint256)": "c87b56dd",
    "totalSupply()": "18160ddd",
    "transferFrom(address,address,uint256)": "23b872dd",
    "unsubscribeUserFromCollections(address,uint256[])": "de1eb880",
    "upgradeToAndCall(address,bytes)": "4f1ef286"
  },
  "id": 259
}